{
	"LoyaltyProgram.sol": {
		"LoyaltyProgram": {
			"abi": [
				{
					"inputs": [],
					"stateMutability": "nonpayable",
					"type": "constructor"
				},
				{
					"inputs": [
						{
							"internalType": "address",
							"name": "owner",
							"type": "address"
						}
					],
					"name": "OwnableInvalidOwner",
					"type": "error"
				},
				{
					"inputs": [
						{
							"internalType": "address",
							"name": "account",
							"type": "address"
						}
					],
					"name": "OwnableUnauthorizedAccount",
					"type": "error"
				},
				{
					"anonymous": false,
					"inputs": [
						{
							"indexed": true,
							"internalType": "address",
							"name": "previousOwner",
							"type": "address"
						},
						{
							"indexed": true,
							"internalType": "address",
							"name": "newOwner",
							"type": "address"
						}
					],
					"name": "OwnershipTransferred",
					"type": "event"
				},
				{
					"anonymous": false,
					"inputs": [
						{
							"indexed": true,
							"internalType": "address",
							"name": "user",
							"type": "address"
						},
						{
							"indexed": false,
							"internalType": "uint256",
							"name": "points",
							"type": "uint256"
						},
						{
							"indexed": false,
							"internalType": "uint256",
							"name": "newTotalPoints",
							"type": "uint256"
						},
						{
							"indexed": false,
							"internalType": "uint256",
							"name": "timestamp",
							"type": "uint256"
						}
					],
					"name": "PointsAdded",
					"type": "event"
				},
				{
					"anonymous": false,
					"inputs": [
						{
							"indexed": true,
							"internalType": "address",
							"name": "user",
							"type": "address"
						},
						{
							"indexed": false,
							"internalType": "uint256",
							"name": "points",
							"type": "uint256"
						},
						{
							"indexed": false,
							"internalType": "uint256",
							"name": "timestamp",
							"type": "uint256"
						}
					],
					"name": "PointsExpired",
					"type": "event"
				},
				{
					"anonymous": false,
					"inputs": [
						{
							"indexed": true,
							"internalType": "address",
							"name": "user",
							"type": "address"
						},
						{
							"indexed": false,
							"internalType": "uint256",
							"name": "points",
							"type": "uint256"
						},
						{
							"indexed": false,
							"internalType": "uint256",
							"name": "remainingPoints",
							"type": "uint256"
						},
						{
							"indexed": false,
							"internalType": "uint256",
							"name": "timestamp",
							"type": "uint256"
						}
					],
					"name": "PointsRedeemed",
					"type": "event"
				},
				{
					"anonymous": false,
					"inputs": [
						{
							"indexed": true,
							"internalType": "address",
							"name": "user",
							"type": "address"
						},
						{
							"indexed": false,
							"internalType": "uint256",
							"name": "oldTier",
							"type": "uint256"
						},
						{
							"indexed": false,
							"internalType": "uint256",
							"name": "newTier",
							"type": "uint256"
						},
						{
							"indexed": false,
							"internalType": "uint256",
							"name": "timestamp",
							"type": "uint256"
						}
					],
					"name": "TierUpgraded",
					"type": "event"
				},
				{
					"anonymous": false,
					"inputs": [
						{
							"indexed": true,
							"internalType": "address",
							"name": "user",
							"type": "address"
						},
						{
							"indexed": false,
							"internalType": "uint256",
							"name": "timestamp",
							"type": "uint256"
						}
					],
					"name": "UserRegistered",
					"type": "event"
				},
				{
					"inputs": [
						{
							"internalType": "address",
							"name": "user",
							"type": "address"
						}
					],
					"name": "addPoints",
					"outputs": [],
					"stateMutability": "nonpayable",
					"type": "function"
				},
				{
					"inputs": [
						{
							"internalType": "uint256",
							"name": "tier",
							"type": "uint256"
						}
					],
					"name": "getTierThreshold",
					"outputs": [
						{
							"internalType": "uint256",
							"name": "",
							"type": "uint256"
						}
					],
					"stateMutability": "view",
					"type": "function"
				},
				{
					"inputs": [
						{
							"internalType": "address",
							"name": "user",
							"type": "address"
						}
					],
					"name": "getUserPoints",
					"outputs": [
						{
							"internalType": "uint256",
							"name": "",
							"type": "uint256"
						}
					],
					"stateMutability": "view",
					"type": "function"
				},
				{
					"inputs": [
						{
							"internalType": "address",
							"name": "user",
							"type": "address"
						}
					],
					"name": "getUserProfile",
					"outputs": [
						{
							"internalType": "uint256",
							"name": "points",
							"type": "uint256"
						},
						{
							"internalType": "uint256",
							"name": "totalEarned",
							"type": "uint256"
						},
						{
							"internalType": "uint256",
							"name": "totalRedeemed",
							"type": "uint256"
						},
						{
							"internalType": "uint256",
							"name": "memberSince",
							"type": "uint256"
						},
						{
							"internalType": "uint256",
							"name": "tier",
							"type": "uint256"
						}
					],
					"stateMutability": "view",
					"type": "function"
				},
				{
					"inputs": [
						{
							"internalType": "address",
							"name": "user",
							"type": "address"
						}
					],
					"name": "getUserTier",
					"outputs": [
						{
							"internalType": "uint256",
							"name": "",
							"type": "uint256"
						}
					],
					"stateMutability": "view",
					"type": "function"
				},
				{
					"inputs": [],
					"name": "owner",
					"outputs": [
						{
							"internalType": "address",
							"name": "",
							"type": "address"
						}
					],
					"stateMutability": "view",
					"type": "function"
				},
				{
					"inputs": [
						{
							"internalType": "address",
							"name": "user",
							"type": "address"
						},
						{
							"internalType": "uint256",
							"name": "points",
							"type": "uint256"
						}
					],
					"name": "redeemPoints",
					"outputs": [],
					"stateMutability": "nonpayable",
					"type": "function"
				},
				{
					"inputs": [
						{
							"internalType": "address",
							"name": "user",
							"type": "address"
						}
					],
					"name": "registerUser",
					"outputs": [],
					"stateMutability": "nonpayable",
					"type": "function"
				},
				{
					"inputs": [],
					"name": "renounceOwnership",
					"outputs": [],
					"stateMutability": "nonpayable",
					"type": "function"
				},
				{
					"inputs": [
						{
							"internalType": "address",
							"name": "newOwner",
							"type": "address"
						}
					],
					"name": "transferOwnership",
					"outputs": [],
					"stateMutability": "nonpayable",
					"type": "function"
				}
			],
			"devdoc": {
				"errors": {
					"OwnableInvalidOwner(address)": [
						{
							"details": "The owner is not a valid owner account. (eg. `address(0)`)"
						}
					],
					"OwnableUnauthorizedAccount(address)": [
						{
							"details": "The caller account is not authorized to perform an operation."
						}
					]
				},
				"kind": "dev",
				"methods": {
					"owner()": {
						"details": "Returns the address of the current owner."
					},
					"renounceOwnership()": {
						"details": "Leaves the contract without owner. It will not be possible to call `onlyOwner` functions. Can only be called by the current owner. NOTE: Renouncing ownership will leave the contract without an owner, thereby disabling any functionality that is only available to the owner."
					},
					"transferOwnership(address)": {
						"details": "Transfers ownership of the contract to a new account (`newOwner`). Can only be called by the current owner."
					}
				},
				"version": 1
			},
			"evm": {
				"assembly": "    /* \"LoyaltyProgram.sol\":120:5003  contract LoyaltyProgram is Ownable {... */\n  mstore(0x40, 0x80)\n    /* \"LoyaltyProgram.sol\":645:699  uint256[] private tierThresholds = [0, 100, 500, 1000] */\n  mload(0x40)\n  dup1\n  0x80\n  add\n  0x40\n  mstore\n  dup1\n    /* \"LoyaltyProgram.sol\":681:682  0 */\n  0x00\n    /* \"LoyaltyProgram.sol\":645:699  uint256[] private tierThresholds = [0, 100, 500, 1000] */\n  0xffff\n  and\n  dup2\n  mstore\n  0x20\n  add\n    /* \"LoyaltyProgram.sol\":684:687  100 */\n  0x64\n    /* \"LoyaltyProgram.sol\":645:699  uint256[] private tierThresholds = [0, 100, 500, 1000] */\n  0xffff\n  and\n  dup2\n  mstore\n  0x20\n  add\n    /* \"LoyaltyProgram.sol\":689:692  500 */\n  0x01f4\n    /* \"LoyaltyProgram.sol\":645:699  uint256[] private tierThresholds = [0, 100, 500, 1000] */\n  0xffff\n  and\n  dup2\n  mstore\n  0x20\n  add\n    /* \"LoyaltyProgram.sol\":694:698  1000 */\n  0x03e8\n    /* \"LoyaltyProgram.sol\":645:699  uint256[] private tierThresholds = [0, 100, 500, 1000] */\n  0xffff\n  and\n  dup2\n  mstore\n  pop\n  0x02\n  swap1\n  0x04\n  tag_1\n  swap3\n  swap2\n  swap1\n  tag_2\n  jump\t// in\ntag_1:\n  pop\n    /* \"LoyaltyProgram.sol\":1440:1476  constructor() Ownable(msg.sender) {} */\n  callvalue\n  dup1\n  iszero\n  tag_3\n  jumpi\n  0x00\n  dup1\n  revert\ntag_3:\n  pop\n    /* \"LoyaltyProgram.sol\":1462:1472  msg.sender */\n  caller\n    /* \"@openzeppelin/contracts/access/Ownable.sol\":1297:1298  0 */\n  0x00\n    /* \"@openzeppelin/contracts/access/Ownable.sol\":1273:1299  initialOwner == address(0) */\n  0xffffffffffffffffffffffffffffffffffffffff\n  and\n    /* \"@openzeppelin/contracts/access/Ownable.sol\":1273:1285  initialOwner */\n  dup2\n    /* \"@openzeppelin/contracts/access/Ownable.sol\":1273:1299  initialOwner == address(0) */\n  0xffffffffffffffffffffffffffffffffffffffff\n  and\n  sub\n    /* \"@openzeppelin/contracts/access/Ownable.sol\":1269:1364  if (initialOwner == address(0)) {... */\n  tag_7\n  jumpi\n    /* \"@openzeppelin/contracts/access/Ownable.sol\":1350:1351  0 */\n  0x00\n    /* \"@openzeppelin/contracts/access/Ownable.sol\":1322:1353  OwnableInvalidOwner(address(0)) */\n  mload(0x40)\n  0x1e4fbdf700000000000000000000000000000000000000000000000000000000\n  dup2\n  mstore\n  0x04\n  add\n  tag_8\n  swap2\n  swap1\n  tag_9\n  jump\t// in\ntag_8:\n  mload(0x40)\n  dup1\n  swap2\n  sub\n  swap1\n  revert\n    /* \"@openzeppelin/contracts/access/Ownable.sol\":1269:1364  if (initialOwner == address(0)) {... */\ntag_7:\n    /* \"@openzeppelin/contracts/access/Ownable.sol\":1373:1405  _transferOwnership(initialOwner) */\n  tag_10\n    /* \"@openzeppelin/contracts/access/Ownable.sol\":1392:1404  initialOwner */\n  dup2\n    /* \"@openzeppelin/contracts/access/Ownable.sol\":1373:1391  _transferOwnership */\n  shl(0x20, tag_11)\n    /* \"@openzeppelin/contracts/access/Ownable.sol\":1373:1405  _transferOwnership(initialOwner) */\n  0x20\n  shr\n  jump\t// in\ntag_10:\n    /* \"@openzeppelin/contracts/access/Ownable.sol\":1225:1412  constructor(address initialOwner) {... */\n  pop\n    /* \"LoyaltyProgram.sol\":120:5003  contract LoyaltyProgram is Ownable {... */\n  jump(tag_13)\n    /* \"@openzeppelin/contracts/access/Ownable.sol\":2912:3099  function _transferOwnership(address newOwner) internal virtual {... */\ntag_11:\n    /* \"@openzeppelin/contracts/access/Ownable.sol\":2985:3001  address oldOwner */\n  0x00\n    /* \"@openzeppelin/contracts/access/Ownable.sol\":3004:3010  _owner */\n  dup1\n  0x00\n  swap1\n  sload\n  swap1\n  0x0100\n  exp\n  swap1\n  div\n  0xffffffffffffffffffffffffffffffffffffffff\n  and\n    /* \"@openzeppelin/contracts/access/Ownable.sol\":2985:3010  address oldOwner = _owner */\n  swap1\n  pop\n    /* \"@openzeppelin/contracts/access/Ownable.sol\":3029:3037  newOwner */\n  dup2\n    /* \"@openzeppelin/contracts/access/Ownable.sol\":3020:3026  _owner */\n  0x00\n  dup1\n    /* \"@openzeppelin/contracts/access/Ownable.sol\":3020:3037  _owner = newOwner */\n  0x0100\n  exp\n  dup2\n  sload\n  dup2\n  0xffffffffffffffffffffffffffffffffffffffff\n  mul\n  not\n  and\n  swap1\n  dup4\n  0xffffffffffffffffffffffffffffffffffffffff\n  and\n  mul\n  or\n  swap1\n  sstore\n  pop\n    /* \"@openzeppelin/contracts/access/Ownable.sol\":3083:3091  newOwner */\n  dup2\n    /* \"@openzeppelin/contracts/access/Ownable.sol\":3052:3092  OwnershipTransferred(oldOwner, newOwner) */\n  0xffffffffffffffffffffffffffffffffffffffff\n  and\n    /* \"@openzeppelin/contracts/access/Ownable.sol\":3073:3081  oldOwner */\n  dup2\n    /* \"@openzeppelin/contracts/access/Ownable.sol\":3052:3092  OwnershipTransferred(oldOwner, newOwner) */\n  0xffffffffffffffffffffffffffffffffffffffff\n  and\n  0x8be0079c531659141344cd1fd0a4f28419497f9722a3daafe3b4186f6b6457e0\n  mload(0x40)\n  mload(0x40)\n  dup1\n  swap2\n  sub\n  swap1\n  log3\n    /* \"@openzeppelin/contracts/access/Ownable.sol\":2975:3099  {... */\n  pop\n    /* \"@openzeppelin/contracts/access/Ownable.sol\":2912:3099  function _transferOwnership(address newOwner) internal virtual {... */\n  pop\n  jump\t// out\n    /* \"LoyaltyProgram.sol\":120:5003  contract LoyaltyProgram is Ownable {... */\ntag_2:\n  dup3\n  dup1\n  sload\n  dup3\n  dup3\n  sstore\n  swap1\n  0x00\n  mstore\n  keccak256(0x00, 0x20)\n  swap1\n  dup2\n  add\n  swap3\n  dup3\n  iszero\n  tag_15\n  jumpi\n  swap2\n  0x20\n  mul\n  dup3\n  add\ntag_16:\n  dup3\n  dup2\n  gt\n  iszero\n  tag_17\n  jumpi\n  dup3\n  mload\n  dup3\n  swap1\n  0xffff\n  and\n  swap1\n  sstore\n  swap2\n  0x20\n  add\n  swap2\n  swap1\n  0x01\n  add\n  swap1\n  jump(tag_16)\ntag_17:\ntag_15:\n  pop\n  swap1\n  pop\n  tag_18\n  swap2\n  swap1\n  tag_19\n  jump\t// in\ntag_18:\n  pop\n  swap1\n  jump\t// out\ntag_19:\ntag_20:\n  dup1\n  dup3\n  gt\n  iszero\n  tag_21\n  jumpi\n  0x00\n  dup2\n  0x00\n  swap1\n  sstore\n  pop\n  0x01\n  add\n  jump(tag_20)\ntag_21:\n  pop\n  swap1\n  jump\t// out\n    /* \"#utility.yul\":7:133   */\ntag_22:\n    /* \"#utility.yul\":44:51   */\n  0x00\n    /* \"#utility.yul\":84:126   */\n  0xffffffffffffffffffffffffffffffffffffffff\n    /* \"#utility.yul\":77:82   */\n  dup3\n    /* \"#utility.yul\":73:127   */\n  and\n    /* \"#utility.yul\":62:127   */\n  swap1\n  pop\n    /* \"#utility.yul\":7:133   */\n  swap2\n  swap1\n  pop\n  jump\t// out\n    /* \"#utility.yul\":139:235   */\ntag_23:\n    /* \"#utility.yul\":176:183   */\n  0x00\n    /* \"#utility.yul\":205:229   */\n  tag_28\n    /* \"#utility.yul\":223:228   */\n  dup3\n    /* \"#utility.yul\":205:229   */\n  tag_22\n  jump\t// in\ntag_28:\n    /* \"#utility.yul\":194:229   */\n  swap1\n  pop\n    /* \"#utility.yul\":139:235   */\n  swap2\n  swap1\n  pop\n  jump\t// out\n    /* \"#utility.yul\":241:359   */\ntag_24:\n    /* \"#utility.yul\":328:352   */\n  tag_30\n    /* \"#utility.yul\":346:351   */\n  dup2\n    /* \"#utility.yul\":328:352   */\n  tag_23\n  jump\t// in\ntag_30:\n    /* \"#utility.yul\":323:326   */\n  dup3\n    /* \"#utility.yul\":316:353   */\n  mstore\n    /* \"#utility.yul\":241:359   */\n  pop\n  pop\n  jump\t// out\n    /* \"#utility.yul\":365:587   */\ntag_9:\n    /* \"#utility.yul\":458:462   */\n  0x00\n    /* \"#utility.yul\":496:498   */\n  0x20\n    /* \"#utility.yul\":485:494   */\n  dup3\n    /* \"#utility.yul\":481:499   */\n  add\n    /* \"#utility.yul\":473:499   */\n  swap1\n  pop\n    /* \"#utility.yul\":509:580   */\n  tag_32\n    /* \"#utility.yul\":577:578   */\n  0x00\n    /* \"#utility.yul\":566:575   */\n  dup4\n    /* \"#utility.yul\":562:579   */\n  add\n    /* \"#utility.yul\":553:559   */\n  dup5\n    /* \"#utility.yul\":509:580   */\n  tag_24\n  jump\t// in\ntag_32:\n    /* \"#utility.yul\":365:587   */\n  swap3\n  swap2\n  pop\n  pop\n  jump\t// out\n    /* \"LoyaltyProgram.sol\":120:5003  contract LoyaltyProgram is Ownable {... */\ntag_13:\n  dataSize(sub_0)\n  dup1\n  dataOffset(sub_0)\n  0x00\n  codecopy\n  0x00\n  return\nstop\n\nsub_0: assembly {\n        /* \"LoyaltyProgram.sol\":120:5003  contract LoyaltyProgram is Ownable {... */\n      mstore(0x40, 0x80)\n      callvalue\n      dup1\n      iszero\n      tag_1\n      jumpi\n      0x00\n      dup1\n      revert\n    tag_1:\n      pop\n      jumpi(tag_2, lt(calldatasize, 0x04))\n      shr(0xe0, calldataload(0x00))\n      dup1\n      0xaeefe31f\n      gt\n      tag_13\n      jumpi\n      dup1\n      0xaeefe31f\n      eq\n      tag_8\n      jumpi\n      dup1\n      0xb85da8d2\n      eq\n      tag_9\n      jumpi\n      dup1\n      0xde8f4c49\n      eq\n      tag_10\n      jumpi\n      dup1\n      0xe4d2620e\n      eq\n      tag_11\n      jumpi\n      dup1\n      0xf2fde38b\n      eq\n      tag_12\n      jumpi\n      jump(tag_2)\n    tag_13:\n      dup1\n      0x2199d5cd\n      eq\n      tag_3\n      jumpi\n      dup1\n      0x715018a6\n      eq\n      tag_4\n      jumpi\n      dup1\n      0x8da5cb5b\n      eq\n      tag_5\n      jumpi\n      dup1\n      0x987ee156\n      eq\n      tag_6\n      jumpi\n      dup1\n      0xad7b985e\n      eq\n      tag_7\n      jumpi\n    tag_2:\n      0x00\n      dup1\n      revert\n        /* \"LoyaltyProgram.sol\":1522:2038  function registerUser(address user) external onlyOwner {... */\n    tag_3:\n      tag_14\n      0x04\n      dup1\n      calldatasize\n      sub\n      dup2\n      add\n      swap1\n      tag_15\n      swap2\n      swap1\n      tag_16\n      jump\t// in\n    tag_15:\n      tag_17\n      jump\t// in\n    tag_14:\n      stop\n        /* \"@openzeppelin/contracts/access/Ownable.sol\":2293:2394  function renounceOwnership() public virtual onlyOwner {... */\n    tag_4:\n      tag_18\n      tag_19\n      jump\t// in\n    tag_18:\n      stop\n        /* \"@openzeppelin/contracts/access/Ownable.sol\":1638:1723  function owner() public view virtual returns (address) {... */\n    tag_5:\n      tag_20\n      tag_21\n      jump\t// in\n    tag_20:\n      mload(0x40)\n      tag_22\n      swap2\n      swap1\n      tag_23\n      jump\t// in\n    tag_22:\n      mload(0x40)\n      dup1\n      swap2\n      sub\n      swap1\n      return\n        /* \"LoyaltyProgram.sol\":4067:4558  function getUserProfile(... */\n    tag_6:\n      tag_24\n      0x04\n      dup1\n      calldatasize\n      sub\n      dup2\n      add\n      swap1\n      tag_25\n      swap2\n      swap1\n      tag_16\n      jump\t// in\n    tag_25:\n      tag_26\n      jump\t// in\n    tag_24:\n      mload(0x40)\n      tag_27\n      swap6\n      swap5\n      swap4\n      swap3\n      swap2\n      swap1\n      tag_28\n      jump\t// in\n    tag_27:\n      mload(0x40)\n      dup1\n      swap2\n      sub\n      swap1\n      return\n        /* \"LoyaltyProgram.sol\":2046:2681  function addPoints(address user) external validUser(user) {... */\n    tag_7:\n      tag_29\n      0x04\n      dup1\n      calldatasize\n      sub\n      dup2\n      add\n      swap1\n      tag_30\n      swap2\n      swap1\n      tag_16\n      jump\t// in\n    tag_30:\n      tag_31\n      jump\t// in\n    tag_29:\n      stop\n        /* \"LoyaltyProgram.sol\":4566:4686  function getUserPoints(address user) external view returns (uint256) {... */\n    tag_8:\n      tag_32\n      0x04\n      dup1\n      calldatasize\n      sub\n      dup2\n      add\n      swap1\n      tag_33\n      swap2\n      swap1\n      tag_16\n      jump\t// in\n    tag_33:\n      tag_34\n      jump\t// in\n    tag_32:\n      mload(0x40)\n      tag_35\n      swap2\n      swap1\n      tag_36\n      jump\t// in\n    tag_35:\n      mload(0x40)\n      dup1\n      swap2\n      sub\n      swap1\n      return\n        /* \"LoyaltyProgram.sol\":2689:3198  function redeemPoints(... */\n    tag_9:\n      tag_37\n      0x04\n      dup1\n      calldatasize\n      sub\n      dup2\n      add\n      swap1\n      tag_38\n      swap2\n      swap1\n      tag_39\n      jump\t// in\n    tag_38:\n      tag_40\n      jump\t// in\n    tag_37:\n      stop\n        /* \"LoyaltyProgram.sol\":4818:5000  function getTierThreshold(uint256 tier) external view returns (uint256) {... */\n    tag_10:\n      tag_41\n      0x04\n      dup1\n      calldatasize\n      sub\n      dup2\n      add\n      swap1\n      tag_42\n      swap2\n      swap1\n      tag_43\n      jump\t// in\n    tag_42:\n      tag_44\n      jump\t// in\n    tag_41:\n      mload(0x40)\n      tag_45\n      swap2\n      swap1\n      tag_36\n      jump\t// in\n    tag_45:\n      mload(0x40)\n      dup1\n      swap2\n      sub\n      swap1\n      return\n        /* \"LoyaltyProgram.sol\":4694:4810  function getUserTier(address user) external view returns (uint256) {... */\n    tag_11:\n      tag_46\n      0x04\n      dup1\n      calldatasize\n      sub\n      dup2\n      add\n      swap1\n      tag_47\n      swap2\n      swap1\n      tag_16\n      jump\t// in\n    tag_47:\n      tag_48\n      jump\t// in\n    tag_46:\n      mload(0x40)\n      tag_49\n      swap2\n      swap1\n      tag_36\n      jump\t// in\n    tag_49:\n      mload(0x40)\n      dup1\n      swap2\n      sub\n      swap1\n      return\n        /* \"@openzeppelin/contracts/access/Ownable.sol\":2543:2758  function transferOwnership(address newOwner) public virtual onlyOwner {... */\n    tag_12:\n      tag_50\n      0x04\n      dup1\n      calldatasize\n      sub\n      dup2\n      add\n      swap1\n      tag_51\n      swap2\n      swap1\n      tag_16\n      jump\t// in\n    tag_51:\n      tag_52\n      jump\t// in\n    tag_50:\n      stop\n        /* \"LoyaltyProgram.sol\":1522:2038  function registerUser(address user) external onlyOwner {... */\n    tag_17:\n        /* \"@openzeppelin/contracts/access/Ownable.sol\":1531:1544  _checkOwner() */\n      tag_54\n        /* \"@openzeppelin/contracts/access/Ownable.sol\":1531:1542  _checkOwner */\n      tag_55\n        /* \"@openzeppelin/contracts/access/Ownable.sol\":1531:1544  _checkOwner() */\n      jump\t// in\n    tag_54:\n        /* \"LoyaltyProgram.sol\":1612:1613  0 */\n      0x00\n        /* \"LoyaltyProgram.sol\":1596:1614  user != address(0) */\n      0xffffffffffffffffffffffffffffffffffffffff\n      and\n        /* \"LoyaltyProgram.sol\":1596:1600  user */\n      dup2\n        /* \"LoyaltyProgram.sol\":1596:1614  user != address(0) */\n      0xffffffffffffffffffffffffffffffffffffffff\n      and\n      sub\n        /* \"LoyaltyProgram.sol\":1588:1639  require(user != address(0), \"Invalid user address\") */\n      tag_57\n      jumpi\n      mload(0x40)\n      0x08c379a000000000000000000000000000000000000000000000000000000000\n      dup2\n      mstore\n      0x04\n      add\n      tag_58\n      swap1\n      tag_59\n      jump\t// in\n    tag_58:\n      mload(0x40)\n      dup1\n      swap2\n      sub\n      swap1\n      revert\n    tag_57:\n        /* \"LoyaltyProgram.sol\":1692:1693  0 */\n      0x00\n        /* \"LoyaltyProgram.sol\":1658:1670  userProfiles */\n      0x01\n        /* \"LoyaltyProgram.sol\":1658:1676  userProfiles[user] */\n      0x00\n        /* \"LoyaltyProgram.sol\":1671:1675  user */\n      dup4\n        /* \"LoyaltyProgram.sol\":1658:1676  userProfiles[user] */\n      0xffffffffffffffffffffffffffffffffffffffff\n      and\n      0xffffffffffffffffffffffffffffffffffffffff\n      and\n      dup2\n      mstore\n      0x20\n      add\n      swap1\n      dup2\n      mstore\n      0x20\n      add\n      0x00\n      keccak256\n        /* \"LoyaltyProgram.sol\":1658:1688  userProfiles[user].memberSince */\n      0x04\n      add\n      sload\n        /* \"LoyaltyProgram.sol\":1658:1693  userProfiles[user].memberSince == 0 */\n      eq\n        /* \"LoyaltyProgram.sol\":1650:1721  require(userProfiles[user].memberSince == 0, \"User already registered\") */\n      tag_60\n      jumpi\n      mload(0x40)\n      0x08c379a000000000000000000000000000000000000000000000000000000000\n      dup2\n      mstore\n      0x04\n      add\n      tag_61\n      swap1\n      tag_62\n      jump\t// in\n    tag_61:\n      mload(0x40)\n      dup1\n      swap2\n      sub\n      swap1\n      revert\n    tag_60:\n        /* \"LoyaltyProgram.sol\":1755:1975  UserProfile({... */\n      mload(0x40)\n      dup1\n      0xc0\n      add\n      0x40\n      mstore\n      dup1\n        /* \"LoyaltyProgram.sol\":1790:1791  0 */\n      0x00\n        /* \"LoyaltyProgram.sol\":1755:1975  UserProfile({... */\n      dup2\n      mstore\n      0x20\n      add\n        /* \"LoyaltyProgram.sol\":1825:1826  0 */\n      0x00\n        /* \"LoyaltyProgram.sol\":1755:1975  UserProfile({... */\n      dup2\n      mstore\n      0x20\n      add\n        /* \"LoyaltyProgram.sol\":1862:1863  0 */\n      0x00\n        /* \"LoyaltyProgram.sol\":1755:1975  UserProfile({... */\n      dup2\n      mstore\n      0x20\n      add\n        /* \"LoyaltyProgram.sol\":1897:1898  0 */\n      0x00\n        /* \"LoyaltyProgram.sol\":1755:1975  UserProfile({... */\n      dup2\n      mstore\n      0x20\n      add\n        /* \"LoyaltyProgram.sol\":1926:1941  block.timestamp */\n      timestamp\n        /* \"LoyaltyProgram.sol\":1755:1975  UserProfile({... */\n      dup2\n      mstore\n      0x20\n      add\n        /* \"LoyaltyProgram.sol\":1962:1963  0 */\n      0x00\n        /* \"LoyaltyProgram.sol\":1755:1975  UserProfile({... */\n      dup2\n      mstore\n      pop\n        /* \"LoyaltyProgram.sol\":1734:1746  userProfiles */\n      0x01\n        /* \"LoyaltyProgram.sol\":1734:1752  userProfiles[user] */\n      0x00\n        /* \"LoyaltyProgram.sol\":1747:1751  user */\n      dup4\n        /* \"LoyaltyProgram.sol\":1734:1752  userProfiles[user] */\n      0xffffffffffffffffffffffffffffffffffffffff\n      and\n      0xffffffffffffffffffffffffffffffffffffffff\n      and\n      dup2\n      mstore\n      0x20\n      add\n      swap1\n      dup2\n      mstore\n      0x20\n      add\n      0x00\n      keccak256\n        /* \"LoyaltyProgram.sol\":1734:1975  userProfiles[user] = UserProfile({... */\n      0x00\n      dup3\n      add\n      mload\n      dup2\n      0x00\n      add\n      sstore\n      0x20\n      dup3\n      add\n      mload\n      dup2\n      0x01\n      add\n      sstore\n      0x40\n      dup3\n      add\n      mload\n      dup2\n      0x02\n      add\n      sstore\n      0x60\n      dup3\n      add\n      mload\n      dup2\n      0x03\n      add\n      sstore\n      0x80\n      dup3\n      add\n      mload\n      dup2\n      0x04\n      add\n      sstore\n      0xa0\n      dup3\n      add\n      mload\n      dup2\n      0x05\n      add\n      sstore\n      swap1\n      pop\n      pop\n        /* \"LoyaltyProgram.sol\":2008:2012  user */\n      dup1\n        /* \"LoyaltyProgram.sol\":1993:2030  UserRegistered(user, block.timestamp) */\n      0xffffffffffffffffffffffffffffffffffffffff\n      and\n      0xe29d35093005f4d575e1003753426b57a7f64378ba73332eef9c6ccc2b8decd6\n        /* \"LoyaltyProgram.sol\":2014:2029  block.timestamp */\n      timestamp\n        /* \"LoyaltyProgram.sol\":1993:2030  UserRegistered(user, block.timestamp) */\n      mload(0x40)\n      tag_63\n      swap2\n      swap1\n      tag_36\n      jump\t// in\n    tag_63:\n      mload(0x40)\n      dup1\n      swap2\n      sub\n      swap1\n      log2\n        /* \"LoyaltyProgram.sol\":1522:2038  function registerUser(address user) external onlyOwner {... */\n      pop\n      jump\t// out\n        /* \"@openzeppelin/contracts/access/Ownable.sol\":2293:2394  function renounceOwnership() public virtual onlyOwner {... */\n    tag_19:\n        /* \"@openzeppelin/contracts/access/Ownable.sol\":1531:1544  _checkOwner() */\n      tag_65\n        /* \"@openzeppelin/contracts/access/Ownable.sol\":1531:1542  _checkOwner */\n      tag_55\n        /* \"@openzeppelin/contracts/access/Ownable.sol\":1531:1544  _checkOwner() */\n      jump\t// in\n    tag_65:\n        /* \"@openzeppelin/contracts/access/Ownable.sol\":2357:2387  _transferOwnership(address(0)) */\n      tag_67\n        /* \"@openzeppelin/contracts/access/Ownable.sol\":2384:2385  0 */\n      0x00\n        /* \"@openzeppelin/contracts/access/Ownable.sol\":2357:2375  _transferOwnership */\n      tag_68\n        /* \"@openzeppelin/contracts/access/Ownable.sol\":2357:2387  _transferOwnership(address(0)) */\n      jump\t// in\n    tag_67:\n        /* \"@openzeppelin/contracts/access/Ownable.sol\":2293:2394  function renounceOwnership() public virtual onlyOwner {... */\n      jump\t// out\n        /* \"@openzeppelin/contracts/access/Ownable.sol\":1638:1723  function owner() public view virtual returns (address) {... */\n    tag_21:\n        /* \"@openzeppelin/contracts/access/Ownable.sol\":1684:1691  address */\n      0x00\n        /* \"@openzeppelin/contracts/access/Ownable.sol\":1710:1716  _owner */\n      dup1\n      0x00\n      swap1\n      sload\n      swap1\n      0x0100\n      exp\n      swap1\n      div\n      0xffffffffffffffffffffffffffffffffffffffff\n      and\n        /* \"@openzeppelin/contracts/access/Ownable.sol\":1703:1716  return _owner */\n      swap1\n      pop\n        /* \"@openzeppelin/contracts/access/Ownable.sol\":1638:1723  function owner() public view virtual returns (address) {... */\n      swap1\n      jump\t// out\n        /* \"LoyaltyProgram.sol\":4067:4558  function getUserProfile(... */\n    tag_26:\n        /* \"LoyaltyProgram.sol\":4154:4168  uint256 points */\n      0x00\n        /* \"LoyaltyProgram.sol\":4179:4198  uint256 totalEarned */\n      dup1\n        /* \"LoyaltyProgram.sol\":4209:4230  uint256 totalRedeemed */\n      0x00\n        /* \"LoyaltyProgram.sol\":4241:4260  uint256 memberSince */\n      dup1\n        /* \"LoyaltyProgram.sol\":4271:4283  uint256 tier */\n      0x00\n        /* \"LoyaltyProgram.sol\":4302:4328  UserProfile memory profile */\n      dup1\n        /* \"LoyaltyProgram.sol\":4331:4343  userProfiles */\n      0x01\n        /* \"LoyaltyProgram.sol\":4331:4349  userProfiles[user] */\n      0x00\n        /* \"LoyaltyProgram.sol\":4344:4348  user */\n      dup9\n        /* \"LoyaltyProgram.sol\":4331:4349  userProfiles[user] */\n      0xffffffffffffffffffffffffffffffffffffffff\n      and\n      0xffffffffffffffffffffffffffffffffffffffff\n      and\n      dup2\n      mstore\n      0x20\n      add\n      swap1\n      dup2\n      mstore\n      0x20\n      add\n      0x00\n      keccak256\n        /* \"LoyaltyProgram.sol\":4302:4349  UserProfile memory profile = userProfiles[user] */\n      mload(0x40)\n      dup1\n      0xc0\n      add\n      0x40\n      mstore\n      swap1\n      dup2\n      0x00\n      dup3\n      add\n      sload\n      dup2\n      mstore\n      0x20\n      add\n      0x01\n      dup3\n      add\n      sload\n      dup2\n      mstore\n      0x20\n      add\n      0x02\n      dup3\n      add\n      sload\n      dup2\n      mstore\n      0x20\n      add\n      0x03\n      dup3\n      add\n      sload\n      dup2\n      mstore\n      0x20\n      add\n      0x04\n      dup3\n      add\n      sload\n      dup2\n      mstore\n      0x20\n      add\n      0x05\n      dup3\n      add\n      sload\n      dup2\n      mstore\n      pop\n      pop\n      swap1\n      pop\n        /* \"LoyaltyProgram.sol\":4382:4389  profile */\n      dup1\n        /* \"LoyaltyProgram.sol\":4382:4396  profile.points */\n      0x00\n      add\n      mload\n        /* \"LoyaltyProgram.sol\":4411:4418  profile */\n      dup2\n        /* \"LoyaltyProgram.sol\":4411:4436  profile.totalPointsEarned */\n      0x20\n      add\n      mload\n        /* \"LoyaltyProgram.sol\":4451:4458  profile */\n      dup3\n        /* \"LoyaltyProgram.sol\":4451:4478  profile.totalPointsRedeemed */\n      0x40\n      add\n      mload\n        /* \"LoyaltyProgram.sol\":4493:4500  profile */\n      dup4\n        /* \"LoyaltyProgram.sol\":4493:4512  profile.memberSince */\n      0x80\n      add\n      mload\n        /* \"LoyaltyProgram.sol\":4527:4534  profile */\n      dup5\n        /* \"LoyaltyProgram.sol\":4527:4539  profile.tier */\n      0xa0\n      add\n      mload\n        /* \"LoyaltyProgram.sol\":4360:4550  return (... */\n      swap6\n      pop\n      swap6\n      pop\n      swap6\n      pop\n      swap6\n      pop\n      swap6\n      pop\n      pop\n        /* \"LoyaltyProgram.sol\":4067:4558  function getUserProfile(... */\n      swap2\n      swap4\n      swap6\n      swap1\n      swap3\n      swap5\n      pop\n      jump\t// out\n        /* \"LoyaltyProgram.sol\":2046:2681  function addPoints(address user) external validUser(user) {... */\n    tag_31:\n        /* \"LoyaltyProgram.sol\":2098:2102  user */\n      dup1\n        /* \"LoyaltyProgram.sol\":1308:1309  0 */\n      0x00\n        /* \"LoyaltyProgram.sol\":1292:1310  user != address(0) */\n      0xffffffffffffffffffffffffffffffffffffffff\n      and\n        /* \"LoyaltyProgram.sol\":1292:1296  user */\n      dup2\n        /* \"LoyaltyProgram.sol\":1292:1310  user != address(0) */\n      0xffffffffffffffffffffffffffffffffffffffff\n      and\n      sub\n        /* \"LoyaltyProgram.sol\":1284:1335  require(user != address(0), \"Invalid user address\") */\n      tag_72\n      jumpi\n      mload(0x40)\n      0x08c379a000000000000000000000000000000000000000000000000000000000\n      dup2\n      mstore\n      0x04\n      add\n      tag_73\n      swap1\n      tag_59\n      jump\t// in\n    tag_73:\n      mload(0x40)\n      dup1\n      swap2\n      sub\n      swap1\n      revert\n    tag_72:\n        /* \"LoyaltyProgram.sol\":1387:1388  0 */\n      0x00\n        /* \"LoyaltyProgram.sol\":1354:1366  userProfiles */\n      0x01\n        /* \"LoyaltyProgram.sol\":1354:1372  userProfiles[user] */\n      0x00\n        /* \"LoyaltyProgram.sol\":1367:1371  user */\n      dup4\n        /* \"LoyaltyProgram.sol\":1354:1372  userProfiles[user] */\n      0xffffffffffffffffffffffffffffffffffffffff\n      and\n      0xffffffffffffffffffffffffffffffffffffffff\n      and\n      dup2\n      mstore\n      0x20\n      add\n      swap1\n      dup2\n      mstore\n      0x20\n      add\n      0x00\n      keccak256\n        /* \"LoyaltyProgram.sol\":1354:1384  userProfiles[user].memberSince */\n      0x04\n      add\n      sload\n        /* \"LoyaltyProgram.sol\":1354:1388  userProfiles[user].memberSince > 0 */\n      gt\n        /* \"LoyaltyProgram.sol\":1346:1412  require(userProfiles[user].memberSince > 0, \"User not registered\") */\n      tag_74\n      jumpi\n      mload(0x40)\n      0x08c379a000000000000000000000000000000000000000000000000000000000\n      dup2\n      mstore\n      0x04\n      add\n      tag_75\n      swap1\n      tag_76\n      jump\t// in\n    tag_75:\n      mload(0x40)\n      dup1\n      swap2\n      sub\n      swap1\n      revert\n    tag_74:\n        /* \"LoyaltyProgram.sol\":635:638  100 */\n      0x64\n        /* \"LoyaltyProgram.sol\":2153:2165  userProfiles */\n      0x01\n        /* \"LoyaltyProgram.sol\":2153:2171  userProfiles[user] */\n      0x00\n        /* \"LoyaltyProgram.sol\":2166:2170  user */\n      dup5\n        /* \"LoyaltyProgram.sol\":2153:2171  userProfiles[user] */\n      0xffffffffffffffffffffffffffffffffffffffff\n      and\n      0xffffffffffffffffffffffffffffffffffffffff\n      and\n      dup2\n      mstore\n      0x20\n      add\n      swap1\n      dup2\n      mstore\n      0x20\n      add\n      0x00\n      keccak256\n        /* \"LoyaltyProgram.sol\":2153:2189  userProfiles[user].lastPurchaseBlock */\n      0x03\n      add\n      sload\n        /* \"LoyaltyProgram.sol\":2153:2213  userProfiles[user].lastPurchaseBlock + BLOCKS_BETWEEN_POINTS */\n      tag_78\n      swap2\n      swap1\n      tag_79\n      jump\t// in\n    tag_78:\n        /* \"LoyaltyProgram.sol\":2137:2149  block.number */\n      number\n        /* \"LoyaltyProgram.sol\":2137:2213  block.number >= userProfiles[user].lastPurchaseBlock + BLOCKS_BETWEEN_POINTS */\n      lt\n      iszero\n        /* \"LoyaltyProgram.sol\":2115:2264  require(... */\n      tag_80\n      jumpi\n      mload(0x40)\n      0x08c379a000000000000000000000000000000000000000000000000000000000\n      dup2\n      mstore\n      0x04\n      add\n      tag_81\n      swap1\n      tag_82\n      jump\t// in\n    tag_81:\n      mload(0x40)\n      dup1\n      swap2\n      sub\n      swap1\n      revert\n    tag_80:\n        /* \"LoyaltyProgram.sol\":2277:2304  UserProfile storage profile */\n      0x00\n        /* \"LoyaltyProgram.sol\":2307:2319  userProfiles */\n      0x01\n        /* \"LoyaltyProgram.sol\":2307:2325  userProfiles[user] */\n      0x00\n        /* \"LoyaltyProgram.sol\":2320:2324  user */\n      dup5\n        /* \"LoyaltyProgram.sol\":2307:2325  userProfiles[user] */\n      0xffffffffffffffffffffffffffffffffffffffff\n      and\n      0xffffffffffffffffffffffffffffffffffffffff\n      and\n      dup2\n      mstore\n      0x20\n      add\n      swap1\n      dup2\n      mstore\n      0x20\n      add\n      0x00\n      keccak256\n        /* \"LoyaltyProgram.sol\":2277:2325  UserProfile storage profile = userProfiles[user] */\n      swap1\n      pop\n        /* \"LoyaltyProgram.sol\":577:579  10 */\n      0x0a\n        /* \"LoyaltyProgram.sol\":2336:2343  profile */\n      dup2\n        /* \"LoyaltyProgram.sol\":2336:2350  profile.points */\n      0x00\n      add\n      0x00\n        /* \"LoyaltyProgram.sol\":2336:2373  profile.points += POINTS_PER_PURCHASE */\n      dup3\n      dup3\n      sload\n      tag_83\n      swap2\n      swap1\n      tag_79\n      jump\t// in\n    tag_83:\n      swap3\n      pop\n      pop\n      dup2\n      swap1\n      sstore\n      pop\n        /* \"LoyaltyProgram.sol\":577:579  10 */\n      0x0a\n        /* \"LoyaltyProgram.sol\":2384:2391  profile */\n      dup2\n        /* \"LoyaltyProgram.sol\":2384:2409  profile.totalPointsEarned */\n      0x01\n      add\n      0x00\n        /* \"LoyaltyProgram.sol\":2384:2432  profile.totalPointsEarned += POINTS_PER_PURCHASE */\n      dup3\n      dup3\n      sload\n      tag_84\n      swap2\n      swap1\n      tag_79\n      jump\t// in\n    tag_84:\n      swap3\n      pop\n      pop\n      dup2\n      swap1\n      sstore\n      pop\n        /* \"LoyaltyProgram.sol\":2471:2483  block.number */\n      number\n        /* \"LoyaltyProgram.sol\":2443:2450  profile */\n      dup2\n        /* \"LoyaltyProgram.sol\":2443:2468  profile.lastPurchaseBlock */\n      0x03\n      add\n        /* \"LoyaltyProgram.sol\":2443:2483  profile.lastPurchaseBlock = block.number */\n      dup2\n      swap1\n      sstore\n      pop\n        /* \"LoyaltyProgram.sol\":2527:2531  user */\n      dup3\n        /* \"LoyaltyProgram.sol\":2501:2635  PointsAdded(... */\n      0xffffffffffffffffffffffffffffffffffffffff\n      and\n      0x1a420b6f135da3e0f01110e6d24ef8d576423f138e06bae4da97b28929fcded0\n        /* \"LoyaltyProgram.sol\":577:579  10 */\n      0x0a\n        /* \"LoyaltyProgram.sol\":2580:2587  profile */\n      dup4\n        /* \"LoyaltyProgram.sol\":2580:2594  profile.points */\n      0x00\n      add\n      sload\n        /* \"LoyaltyProgram.sol\":2609:2624  block.timestamp */\n      timestamp\n        /* \"LoyaltyProgram.sol\":2501:2635  PointsAdded(... */\n      mload(0x40)\n      tag_85\n      swap4\n      swap3\n      swap2\n      swap1\n      tag_86\n      jump\t// in\n    tag_85:\n      mload(0x40)\n      dup1\n      swap2\n      sub\n      swap1\n      log2\n        /* \"LoyaltyProgram.sol\":2648:2673  _checkAndUpdateTier(user) */\n      tag_87\n        /* \"LoyaltyProgram.sol\":2668:2672  user */\n      dup4\n        /* \"LoyaltyProgram.sol\":2648:2667  _checkAndUpdateTier */\n      tag_88\n        /* \"LoyaltyProgram.sol\":2648:2673  _checkAndUpdateTier(user) */\n      jump\t// in\n    tag_87:\n        /* \"LoyaltyProgram.sol\":2104:2681  {... */\n      pop\n        /* \"LoyaltyProgram.sol\":2046:2681  function addPoints(address user) external validUser(user) {... */\n      pop\n      pop\n      jump\t// out\n        /* \"LoyaltyProgram.sol\":4566:4686  function getUserPoints(address user) external view returns (uint256) {... */\n    tag_34:\n        /* \"LoyaltyProgram.sol\":4626:4633  uint256 */\n      0x00\n        /* \"LoyaltyProgram.sol\":4653:4665  userProfiles */\n      0x01\n        /* \"LoyaltyProgram.sol\":4653:4671  userProfiles[user] */\n      0x00\n        /* \"LoyaltyProgram.sol\":4666:4670  user */\n      dup4\n        /* \"LoyaltyProgram.sol\":4653:4671  userProfiles[user] */\n      0xffffffffffffffffffffffffffffffffffffffff\n      and\n      0xffffffffffffffffffffffffffffffffffffffff\n      and\n      dup2\n      mstore\n      0x20\n      add\n      swap1\n      dup2\n      mstore\n      0x20\n      add\n      0x00\n      keccak256\n        /* \"LoyaltyProgram.sol\":4653:4678  userProfiles[user].points */\n      0x00\n      add\n      sload\n        /* \"LoyaltyProgram.sol\":4646:4678  return userProfiles[user].points */\n      swap1\n      pop\n        /* \"LoyaltyProgram.sol\":4566:4686  function getUserPoints(address user) external view returns (uint256) {... */\n      swap2\n      swap1\n      pop\n      jump\t// out\n        /* \"LoyaltyProgram.sol\":2689:3198  function redeemPoints(... */\n    tag_40:\n        /* \"LoyaltyProgram.sol\":2785:2789  user */\n      dup2\n        /* \"LoyaltyProgram.sol\":1308:1309  0 */\n      0x00\n        /* \"LoyaltyProgram.sol\":1292:1310  user != address(0) */\n      0xffffffffffffffffffffffffffffffffffffffff\n      and\n        /* \"LoyaltyProgram.sol\":1292:1296  user */\n      dup2\n        /* \"LoyaltyProgram.sol\":1292:1310  user != address(0) */\n      0xffffffffffffffffffffffffffffffffffffffff\n      and\n      sub\n        /* \"LoyaltyProgram.sol\":1284:1335  require(user != address(0), \"Invalid user address\") */\n      tag_91\n      jumpi\n      mload(0x40)\n      0x08c379a000000000000000000000000000000000000000000000000000000000\n      dup2\n      mstore\n      0x04\n      add\n      tag_92\n      swap1\n      tag_59\n      jump\t// in\n    tag_92:\n      mload(0x40)\n      dup1\n      swap2\n      sub\n      swap1\n      revert\n    tag_91:\n        /* \"LoyaltyProgram.sol\":1387:1388  0 */\n      0x00\n        /* \"LoyaltyProgram.sol\":1354:1366  userProfiles */\n      0x01\n        /* \"LoyaltyProgram.sol\":1354:1372  userProfiles[user] */\n      0x00\n        /* \"LoyaltyProgram.sol\":1367:1371  user */\n      dup4\n        /* \"LoyaltyProgram.sol\":1354:1372  userProfiles[user] */\n      0xffffffffffffffffffffffffffffffffffffffff\n      and\n      0xffffffffffffffffffffffffffffffffffffffff\n      and\n      dup2\n      mstore\n      0x20\n      add\n      swap1\n      dup2\n      mstore\n      0x20\n      add\n      0x00\n      keccak256\n        /* \"LoyaltyProgram.sol\":1354:1384  userProfiles[user].memberSince */\n      0x04\n      add\n      sload\n        /* \"LoyaltyProgram.sol\":1354:1388  userProfiles[user].memberSince > 0 */\n      gt\n        /* \"LoyaltyProgram.sol\":1346:1412  require(userProfiles[user].memberSince > 0, \"User not registered\") */\n      tag_93\n      jumpi\n      mload(0x40)\n      0x08c379a000000000000000000000000000000000000000000000000000000000\n      dup2\n      mstore\n      0x04\n      add\n      tag_94\n      swap1\n      tag_76\n      jump\t// in\n    tag_94:\n      mload(0x40)\n      dup1\n      swap2\n      sub\n      swap1\n      revert\n    tag_93:\n        /* \"LoyaltyProgram.sol\":2802:2829  UserProfile storage profile */\n      0x00\n        /* \"LoyaltyProgram.sol\":2832:2844  userProfiles */\n      0x01\n        /* \"LoyaltyProgram.sol\":2832:2850  userProfiles[user] */\n      0x00\n        /* \"LoyaltyProgram.sol\":2845:2849  user */\n      dup6\n        /* \"LoyaltyProgram.sol\":2832:2850  userProfiles[user] */\n      0xffffffffffffffffffffffffffffffffffffffff\n      and\n      0xffffffffffffffffffffffffffffffffffffffff\n      and\n      dup2\n      mstore\n      0x20\n      add\n      swap1\n      dup2\n      mstore\n      0x20\n      add\n      0x00\n      keccak256\n        /* \"LoyaltyProgram.sol\":2802:2850  UserProfile storage profile = userProfiles[user] */\n      swap1\n      pop\n        /* \"LoyaltyProgram.sol\":2887:2893  points */\n      dup3\n        /* \"LoyaltyProgram.sol\":2869:2876  profile */\n      dup2\n        /* \"LoyaltyProgram.sol\":2869:2883  profile.points */\n      0x00\n      add\n      sload\n        /* \"LoyaltyProgram.sol\":2869:2893  profile.points >= points */\n      lt\n      iszero\n        /* \"LoyaltyProgram.sol\":2861:2917  require(profile.points >= points, \"Insufficient points\") */\n      tag_96\n      jumpi\n      mload(0x40)\n      0x08c379a000000000000000000000000000000000000000000000000000000000\n      dup2\n      mstore\n      0x04\n      add\n      tag_97\n      swap1\n      tag_98\n      jump\t// in\n    tag_97:\n      mload(0x40)\n      dup1\n      swap2\n      sub\n      swap1\n      revert\n    tag_96:\n        /* \"LoyaltyProgram.sol\":2956:2962  points */\n      dup3\n        /* \"LoyaltyProgram.sol\":2938:2945  profile */\n      dup2\n        /* \"LoyaltyProgram.sol\":2938:2952  profile.points */\n      0x00\n      add\n      0x00\n        /* \"LoyaltyProgram.sol\":2938:2962  profile.points -= points */\n      dup3\n      dup3\n      sload\n      tag_99\n      swap2\n      swap1\n      tag_100\n      jump\t// in\n    tag_99:\n      swap3\n      pop\n      pop\n      dup2\n      swap1\n      sstore\n      pop\n        /* \"LoyaltyProgram.sol\":3004:3010  points */\n      dup3\n        /* \"LoyaltyProgram.sol\":2973:2980  profile */\n      dup2\n        /* \"LoyaltyProgram.sol\":2973:3000  profile.totalPointsRedeemed */\n      0x02\n      add\n      0x00\n        /* \"LoyaltyProgram.sol\":2973:3010  profile.totalPointsRedeemed += points */\n      dup3\n      dup3\n      sload\n      tag_101\n      swap2\n      swap1\n      tag_79\n      jump\t// in\n    tag_101:\n      swap3\n      pop\n      pop\n      dup2\n      swap1\n      sstore\n      pop\n        /* \"LoyaltyProgram.sol\":3057:3061  user */\n      dup4\n        /* \"LoyaltyProgram.sol\":3028:3152  PointsRedeemed(... */\n      0xffffffffffffffffffffffffffffffffffffffff\n      and\n      0x90138e15f43ce1520bd445151b279c8047b276f6dc4d41f9fae44cd7ecfe4e7e\n        /* \"LoyaltyProgram.sol\":3076:3082  points */\n      dup5\n        /* \"LoyaltyProgram.sol\":3097:3104  profile */\n      dup4\n        /* \"LoyaltyProgram.sol\":3097:3111  profile.points */\n      0x00\n      add\n      sload\n        /* \"LoyaltyProgram.sol\":3126:3141  block.timestamp */\n      timestamp\n        /* \"LoyaltyProgram.sol\":3028:3152  PointsRedeemed(... */\n      mload(0x40)\n      tag_102\n      swap4\n      swap3\n      swap2\n      swap1\n      tag_86\n      jump\t// in\n    tag_102:\n      mload(0x40)\n      dup1\n      swap2\n      sub\n      swap1\n      log2\n        /* \"LoyaltyProgram.sol\":3165:3190  _checkAndUpdateTier(user) */\n      tag_103\n        /* \"LoyaltyProgram.sol\":3185:3189  user */\n      dup5\n        /* \"LoyaltyProgram.sol\":3165:3184  _checkAndUpdateTier */\n      tag_88\n        /* \"LoyaltyProgram.sol\":3165:3190  _checkAndUpdateTier(user) */\n      jump\t// in\n    tag_103:\n        /* \"LoyaltyProgram.sol\":2791:3198  {... */\n      pop\n        /* \"LoyaltyProgram.sol\":2689:3198  function redeemPoints(... */\n      pop\n      pop\n      pop\n      jump\t// out\n        /* \"LoyaltyProgram.sol\":4818:5000  function getTierThreshold(uint256 tier) external view returns (uint256) {... */\n    tag_44:\n        /* \"LoyaltyProgram.sol\":4881:4888  uint256 */\n      0x00\n        /* \"LoyaltyProgram.sol\":4916:4930  tierThresholds */\n      0x02\n        /* \"LoyaltyProgram.sol\":4916:4937  tierThresholds.length */\n      dup1\n      sload\n      swap1\n      pop\n        /* \"LoyaltyProgram.sol\":4909:4913  tier */\n      dup3\n        /* \"LoyaltyProgram.sol\":4909:4937  tier < tierThresholds.length */\n      lt\n        /* \"LoyaltyProgram.sol\":4901:4954  require(tier < tierThresholds.length, \"Invalid tier\") */\n      tag_105\n      jumpi\n      mload(0x40)\n      0x08c379a000000000000000000000000000000000000000000000000000000000\n      dup2\n      mstore\n      0x04\n      add\n      tag_106\n      swap1\n      tag_107\n      jump\t// in\n    tag_106:\n      mload(0x40)\n      dup1\n      swap2\n      sub\n      swap1\n      revert\n    tag_105:\n        /* \"LoyaltyProgram.sol\":4972:4986  tierThresholds */\n      0x02\n        /* \"LoyaltyProgram.sol\":4987:4991  tier */\n      dup3\n        /* \"LoyaltyProgram.sol\":4972:4992  tierThresholds[tier] */\n      dup2\n      sload\n      dup2\n      lt\n      tag_108\n      jumpi\n      tag_109\n      tag_110\n      jump\t// in\n    tag_109:\n    tag_108:\n      swap1\n      0x00\n      mstore\n      keccak256(0x00, 0x20)\n      add\n      sload\n        /* \"LoyaltyProgram.sol\":4965:4992  return tierThresholds[tier] */\n      swap1\n      pop\n        /* \"LoyaltyProgram.sol\":4818:5000  function getTierThreshold(uint256 tier) external view returns (uint256) {... */\n      swap2\n      swap1\n      pop\n      jump\t// out\n        /* \"LoyaltyProgram.sol\":4694:4810  function getUserTier(address user) external view returns (uint256) {... */\n    tag_48:\n        /* \"LoyaltyProgram.sol\":4752:4759  uint256 */\n      0x00\n        /* \"LoyaltyProgram.sol\":4779:4791  userProfiles */\n      0x01\n        /* \"LoyaltyProgram.sol\":4779:4797  userProfiles[user] */\n      0x00\n        /* \"LoyaltyProgram.sol\":4792:4796  user */\n      dup4\n        /* \"LoyaltyProgram.sol\":4779:4797  userProfiles[user] */\n      0xffffffffffffffffffffffffffffffffffffffff\n      and\n      0xffffffffffffffffffffffffffffffffffffffff\n      and\n      dup2\n      mstore\n      0x20\n      add\n      swap1\n      dup2\n      mstore\n      0x20\n      add\n      0x00\n      keccak256\n        /* \"LoyaltyProgram.sol\":4779:4802  userProfiles[user].tier */\n      0x05\n      add\n      sload\n        /* \"LoyaltyProgram.sol\":4772:4802  return userProfiles[user].tier */\n      swap1\n      pop\n        /* \"LoyaltyProgram.sol\":4694:4810  function getUserTier(address user) external view returns (uint256) {... */\n      swap2\n      swap1\n      pop\n      jump\t// out\n        /* \"@openzeppelin/contracts/access/Ownable.sol\":2543:2758  function transferOwnership(address newOwner) public virtual onlyOwner {... */\n    tag_52:\n        /* \"@openzeppelin/contracts/access/Ownable.sol\":1531:1544  _checkOwner() */\n      tag_114\n        /* \"@openzeppelin/contracts/access/Ownable.sol\":1531:1542  _checkOwner */\n      tag_55\n        /* \"@openzeppelin/contracts/access/Ownable.sol\":1531:1544  _checkOwner() */\n      jump\t// in\n    tag_114:\n        /* \"@openzeppelin/contracts/access/Ownable.sol\":2647:2648  0 */\n      0x00\n        /* \"@openzeppelin/contracts/access/Ownable.sol\":2627:2649  newOwner == address(0) */\n      0xffffffffffffffffffffffffffffffffffffffff\n      and\n        /* \"@openzeppelin/contracts/access/Ownable.sol\":2627:2635  newOwner */\n      dup2\n        /* \"@openzeppelin/contracts/access/Ownable.sol\":2627:2649  newOwner == address(0) */\n      0xffffffffffffffffffffffffffffffffffffffff\n      and\n      sub\n        /* \"@openzeppelin/contracts/access/Ownable.sol\":2623:2714  if (newOwner == address(0)) {... */\n      tag_116\n      jumpi\n        /* \"@openzeppelin/contracts/access/Ownable.sol\":2700:2701  0 */\n      0x00\n        /* \"@openzeppelin/contracts/access/Ownable.sol\":2672:2703  OwnableInvalidOwner(address(0)) */\n      mload(0x40)\n      0x1e4fbdf700000000000000000000000000000000000000000000000000000000\n      dup2\n      mstore\n      0x04\n      add\n      tag_117\n      swap2\n      swap1\n      tag_23\n      jump\t// in\n    tag_117:\n      mload(0x40)\n      dup1\n      swap2\n      sub\n      swap1\n      revert\n        /* \"@openzeppelin/contracts/access/Ownable.sol\":2623:2714  if (newOwner == address(0)) {... */\n    tag_116:\n        /* \"@openzeppelin/contracts/access/Ownable.sol\":2723:2751  _transferOwnership(newOwner) */\n      tag_118\n        /* \"@openzeppelin/contracts/access/Ownable.sol\":2742:2750  newOwner */\n      dup2\n        /* \"@openzeppelin/contracts/access/Ownable.sol\":2723:2741  _transferOwnership */\n      tag_68\n        /* \"@openzeppelin/contracts/access/Ownable.sol\":2723:2751  _transferOwnership(newOwner) */\n      jump\t// in\n    tag_118:\n        /* \"@openzeppelin/contracts/access/Ownable.sol\":2543:2758  function transferOwnership(address newOwner) public virtual onlyOwner {... */\n      pop\n      jump\t// out\n        /* \"@openzeppelin/contracts/access/Ownable.sol\":1796:1958  function _checkOwner() internal view virtual {... */\n    tag_55:\n        /* \"@openzeppelin/contracts/access/Ownable.sol\":1866:1878  _msgSender() */\n      tag_120\n        /* \"@openzeppelin/contracts/access/Ownable.sol\":1866:1876  _msgSender */\n      tag_121\n        /* \"@openzeppelin/contracts/access/Ownable.sol\":1866:1878  _msgSender() */\n      jump\t// in\n    tag_120:\n        /* \"@openzeppelin/contracts/access/Ownable.sol\":1855:1878  owner() != _msgSender() */\n      0xffffffffffffffffffffffffffffffffffffffff\n      and\n        /* \"@openzeppelin/contracts/access/Ownable.sol\":1855:1862  owner() */\n      tag_122\n        /* \"@openzeppelin/contracts/access/Ownable.sol\":1855:1860  owner */\n      tag_21\n        /* \"@openzeppelin/contracts/access/Ownable.sol\":1855:1862  owner() */\n      jump\t// in\n    tag_122:\n        /* \"@openzeppelin/contracts/access/Ownable.sol\":1855:1878  owner() != _msgSender() */\n      0xffffffffffffffffffffffffffffffffffffffff\n      and\n      eq\n        /* \"@openzeppelin/contracts/access/Ownable.sol\":1851:1952  if (owner() != _msgSender()) {... */\n      tag_123\n      jumpi\n        /* \"@openzeppelin/contracts/access/Ownable.sol\":1928:1940  _msgSender() */\n      tag_124\n        /* \"@openzeppelin/contracts/access/Ownable.sol\":1928:1938  _msgSender */\n      tag_121\n        /* \"@openzeppelin/contracts/access/Ownable.sol\":1928:1940  _msgSender() */\n      jump\t// in\n    tag_124:\n        /* \"@openzeppelin/contracts/access/Ownable.sol\":1901:1941  OwnableUnauthorizedAccount(_msgSender()) */\n      mload(0x40)\n      0x118cdaa700000000000000000000000000000000000000000000000000000000\n      dup2\n      mstore\n      0x04\n      add\n      tag_125\n      swap2\n      swap1\n      tag_23\n      jump\t// in\n    tag_125:\n      mload(0x40)\n      dup1\n      swap2\n      sub\n      swap1\n      revert\n        /* \"@openzeppelin/contracts/access/Ownable.sol\":1851:1952  if (owner() != _msgSender()) {... */\n    tag_123:\n        /* \"@openzeppelin/contracts/access/Ownable.sol\":1796:1958  function _checkOwner() internal view virtual {... */\n      jump\t// out\n        /* \"@openzeppelin/contracts/access/Ownable.sol\":2912:3099  function _transferOwnership(address newOwner) internal virtual {... */\n    tag_68:\n        /* \"@openzeppelin/contracts/access/Ownable.sol\":2985:3001  address oldOwner */\n      0x00\n        /* \"@openzeppelin/contracts/access/Ownable.sol\":3004:3010  _owner */\n      dup1\n      0x00\n      swap1\n      sload\n      swap1\n      0x0100\n      exp\n      swap1\n      div\n      0xffffffffffffffffffffffffffffffffffffffff\n      and\n        /* \"@openzeppelin/contracts/access/Ownable.sol\":2985:3010  address oldOwner = _owner */\n      swap1\n      pop\n        /* \"@openzeppelin/contracts/access/Ownable.sol\":3029:3037  newOwner */\n      dup2\n        /* \"@openzeppelin/contracts/access/Ownable.sol\":3020:3026  _owner */\n      0x00\n      dup1\n        /* \"@openzeppelin/contracts/access/Ownable.sol\":3020:3037  _owner = newOwner */\n      0x0100\n      exp\n      dup2\n      sload\n      dup2\n      0xffffffffffffffffffffffffffffffffffffffff\n      mul\n      not\n      and\n      swap1\n      dup4\n      0xffffffffffffffffffffffffffffffffffffffff\n      and\n      mul\n      or\n      swap1\n      sstore\n      pop\n        /* \"@openzeppelin/contracts/access/Ownable.sol\":3083:3091  newOwner */\n      dup2\n        /* \"@openzeppelin/contracts/access/Ownable.sol\":3052:3092  OwnershipTransferred(oldOwner, newOwner) */\n      0xffffffffffffffffffffffffffffffffffffffff\n      and\n        /* \"@openzeppelin/contracts/access/Ownable.sol\":3073:3081  oldOwner */\n      dup2\n        /* \"@openzeppelin/contracts/access/Ownable.sol\":3052:3092  OwnershipTransferred(oldOwner, newOwner) */\n      0xffffffffffffffffffffffffffffffffffffffff\n      and\n      0x8be0079c531659141344cd1fd0a4f28419497f9722a3daafe3b4186f6b6457e0\n      mload(0x40)\n      mload(0x40)\n      dup1\n      swap2\n      sub\n      swap1\n      log3\n        /* \"@openzeppelin/contracts/access/Ownable.sol\":2975:3099  {... */\n      pop\n        /* \"@openzeppelin/contracts/access/Ownable.sol\":2912:3099  function _transferOwnership(address newOwner) internal virtual {... */\n      pop\n      jump\t// out\n        /* \"LoyaltyProgram.sol\":3206:4036  function _checkAndUpdateTier(address user) internal {... */\n    tag_88:\n        /* \"LoyaltyProgram.sol\":3269:3296  UserProfile storage profile */\n      0x00\n        /* \"LoyaltyProgram.sol\":3299:3311  userProfiles */\n      0x01\n        /* \"LoyaltyProgram.sol\":3299:3317  userProfiles[user] */\n      0x00\n        /* \"LoyaltyProgram.sol\":3312:3316  user */\n      dup4\n        /* \"LoyaltyProgram.sol\":3299:3317  userProfiles[user] */\n      0xffffffffffffffffffffffffffffffffffffffff\n      and\n      0xffffffffffffffffffffffffffffffffffffffff\n      and\n      dup2\n      mstore\n      0x20\n      add\n      swap1\n      dup2\n      mstore\n      0x20\n      add\n      0x00\n      keccak256\n        /* \"LoyaltyProgram.sol\":3269:3317  UserProfile storage profile = userProfiles[user] */\n      swap1\n      pop\n        /* \"LoyaltyProgram.sol\":3328:3347  uint256 currentTier */\n      0x00\n        /* \"LoyaltyProgram.sol\":3350:3357  profile */\n      dup2\n        /* \"LoyaltyProgram.sol\":3350:3362  profile.tier */\n      0x05\n      add\n      sload\n        /* \"LoyaltyProgram.sol\":3328:3362  uint256 currentTier = profile.tier */\n      swap1\n      pop\n        /* \"LoyaltyProgram.sol\":3373:3388  uint256 newTier */\n      0x00\n        /* \"LoyaltyProgram.sol\":3391:3402  currentTier */\n      dup2\n        /* \"LoyaltyProgram.sol\":3373:3402  uint256 newTier = currentTier */\n      swap1\n      pop\n        /* \"LoyaltyProgram.sol\":3472:3481  uint256 i */\n      0x00\n        /* \"LoyaltyProgram.sol\":3498:3499  1 */\n      0x01\n        /* \"LoyaltyProgram.sol\":3484:3495  currentTier */\n      dup4\n        /* \"LoyaltyProgram.sol\":3484:3499  currentTier + 1 */\n      tag_131\n      swap2\n      swap1\n      tag_79\n      jump\t// in\n    tag_131:\n        /* \"LoyaltyProgram.sol\":3472:3499  uint256 i = currentTier + 1 */\n      swap1\n      pop\n        /* \"LoyaltyProgram.sol\":3467:3646  for (uint256 i = currentTier + 1; i < tierThresholds.length; i++) {... */\n    tag_128:\n        /* \"LoyaltyProgram.sol\":3505:3519  tierThresholds */\n      0x02\n        /* \"LoyaltyProgram.sol\":3505:3526  tierThresholds.length */\n      dup1\n      sload\n      swap1\n      pop\n        /* \"LoyaltyProgram.sol\":3501:3502  i */\n      dup2\n        /* \"LoyaltyProgram.sol\":3501:3526  i < tierThresholds.length */\n      lt\n        /* \"LoyaltyProgram.sol\":3467:3646  for (uint256 i = currentTier + 1; i < tierThresholds.length; i++) {... */\n      iszero\n      tag_129\n      jumpi\n        /* \"LoyaltyProgram.sol\":3570:3584  tierThresholds */\n      0x02\n        /* \"LoyaltyProgram.sol\":3585:3586  i */\n      dup2\n        /* \"LoyaltyProgram.sol\":3570:3587  tierThresholds[i] */\n      dup2\n      sload\n      dup2\n      lt\n      tag_132\n      jumpi\n      tag_133\n      tag_110\n      jump\t// in\n    tag_133:\n    tag_132:\n      swap1\n      0x00\n      mstore\n      keccak256(0x00, 0x20)\n      add\n      sload\n        /* \"LoyaltyProgram.sol\":3552:3559  profile */\n      dup5\n        /* \"LoyaltyProgram.sol\":3552:3566  profile.points */\n      0x00\n      add\n      sload\n        /* \"LoyaltyProgram.sol\":3552:3587  profile.points >= tierThresholds[i] */\n      lt\n        /* \"LoyaltyProgram.sol\":3548:3635  if (profile.points >= tierThresholds[i]) {... */\n      tag_135\n      jumpi\n        /* \"LoyaltyProgram.sol\":3618:3619  i */\n      dup1\n        /* \"LoyaltyProgram.sol\":3608:3619  newTier = i */\n      swap2\n      pop\n        /* \"LoyaltyProgram.sol\":3548:3635  if (profile.points >= tierThresholds[i]) {... */\n    tag_135:\n        /* \"LoyaltyProgram.sol\":3528:3531  i++ */\n      dup1\n      dup1\n      0x01\n      add\n      swap2\n      pop\n      pop\n        /* \"LoyaltyProgram.sol\":3467:3646  for (uint256 i = currentTier + 1; i < tierThresholds.length; i++) {... */\n      jump(tag_128)\n    tag_129:\n      pop\n        /* \"LoyaltyProgram.sol\":3710:3719  uint256 i */\n      0x00\n        /* \"LoyaltyProgram.sol\":3722:3733  currentTier */\n      dup3\n        /* \"LoyaltyProgram.sol\":3710:3733  uint256 i = currentTier */\n      swap1\n      pop\n        /* \"LoyaltyProgram.sol\":3705:3863  for (uint256 i = currentTier; i > 0; i--) {... */\n    tag_136:\n        /* \"LoyaltyProgram.sol\":3739:3740  0 */\n      0x00\n        /* \"LoyaltyProgram.sol\":3735:3736  i */\n      dup2\n        /* \"LoyaltyProgram.sol\":3735:3740  i > 0 */\n      gt\n        /* \"LoyaltyProgram.sol\":3705:3863  for (uint256 i = currentTier; i > 0; i--) {... */\n      iszero\n      tag_137\n      jumpi\n        /* \"LoyaltyProgram.sol\":3783:3797  tierThresholds */\n      0x02\n        /* \"LoyaltyProgram.sol\":3798:3799  i */\n      dup2\n        /* \"LoyaltyProgram.sol\":3783:3800  tierThresholds[i] */\n      dup2\n      sload\n      dup2\n      lt\n      tag_139\n      jumpi\n      tag_140\n      tag_110\n      jump\t// in\n    tag_140:\n    tag_139:\n      swap1\n      0x00\n      mstore\n      keccak256(0x00, 0x20)\n      add\n      sload\n        /* \"LoyaltyProgram.sol\":3766:3773  profile */\n      dup5\n        /* \"LoyaltyProgram.sol\":3766:3780  profile.points */\n      0x00\n      add\n      sload\n        /* \"LoyaltyProgram.sol\":3766:3800  profile.points < tierThresholds[i] */\n      lt\n        /* \"LoyaltyProgram.sol\":3762:3852  if (profile.points < tierThresholds[i]) {... */\n      iszero\n      tag_142\n      jumpi\n        /* \"LoyaltyProgram.sol\":3835:3836  1 */\n      0x01\n        /* \"LoyaltyProgram.sol\":3831:3832  i */\n      dup2\n        /* \"LoyaltyProgram.sol\":3831:3836  i - 1 */\n      tag_143\n      swap2\n      swap1\n      tag_100\n      jump\t// in\n    tag_143:\n        /* \"LoyaltyProgram.sol\":3821:3836  newTier = i - 1 */\n      swap2\n      pop\n        /* \"LoyaltyProgram.sol\":3762:3852  if (profile.points < tierThresholds[i]) {... */\n    tag_142:\n        /* \"LoyaltyProgram.sol\":3742:3745  i-- */\n      dup1\n      dup1\n      tag_144\n      swap1\n      tag_145\n      jump\t// in\n    tag_144:\n      swap2\n      pop\n      pop\n        /* \"LoyaltyProgram.sol\":3705:3863  for (uint256 i = currentTier; i > 0; i--) {... */\n      jump(tag_136)\n    tag_137:\n      pop\n        /* \"LoyaltyProgram.sol\":3890:3901  currentTier */\n      dup2\n        /* \"LoyaltyProgram.sol\":3879:3886  newTier */\n      dup2\n        /* \"LoyaltyProgram.sol\":3879:3901  newTier != currentTier */\n      eq\n        /* \"LoyaltyProgram.sol\":3875:4029  if (newTier != currentTier) {... */\n      tag_146\n      jumpi\n        /* \"LoyaltyProgram.sol\":3933:3940  newTier */\n      dup1\n        /* \"LoyaltyProgram.sol\":3918:3925  profile */\n      dup4\n        /* \"LoyaltyProgram.sol\":3918:3930  profile.tier */\n      0x05\n      add\n        /* \"LoyaltyProgram.sol\":3918:3940  profile.tier = newTier */\n      dup2\n      swap1\n      sstore\n      pop\n        /* \"LoyaltyProgram.sol\":3973:3977  user */\n      dup4\n        /* \"LoyaltyProgram.sol\":3960:4017  TierUpgraded(user, currentTier, newTier, block.timestamp) */\n      0xffffffffffffffffffffffffffffffffffffffff\n      and\n      0x88d765a84878c2adcb81f6fe86f655749503ed376b92a4a9f27d4db1a6e7bceb\n        /* \"LoyaltyProgram.sol\":3979:3990  currentTier */\n      dup4\n        /* \"LoyaltyProgram.sol\":3992:3999  newTier */\n      dup4\n        /* \"LoyaltyProgram.sol\":4001:4016  block.timestamp */\n      timestamp\n        /* \"LoyaltyProgram.sol\":3960:4017  TierUpgraded(user, currentTier, newTier, block.timestamp) */\n      mload(0x40)\n      tag_147\n      swap4\n      swap3\n      swap2\n      swap1\n      tag_86\n      jump\t// in\n    tag_147:\n      mload(0x40)\n      dup1\n      swap2\n      sub\n      swap1\n      log2\n        /* \"LoyaltyProgram.sol\":3875:4029  if (newTier != currentTier) {... */\n    tag_146:\n        /* \"LoyaltyProgram.sol\":3258:4036  {... */\n      pop\n      pop\n      pop\n        /* \"LoyaltyProgram.sol\":3206:4036  function _checkAndUpdateTier(address user) internal {... */\n      pop\n      jump\t// out\n        /* \"@openzeppelin/contracts/utils/Context.sol\":656:752  function _msgSender() internal view virtual returns (address) {... */\n    tag_121:\n        /* \"@openzeppelin/contracts/utils/Context.sol\":709:716  address */\n      0x00\n        /* \"@openzeppelin/contracts/utils/Context.sol\":735:745  msg.sender */\n      caller\n        /* \"@openzeppelin/contracts/utils/Context.sol\":728:745  return msg.sender */\n      swap1\n      pop\n        /* \"@openzeppelin/contracts/utils/Context.sol\":656:752  function _msgSender() internal view virtual returns (address) {... */\n      swap1\n      jump\t// out\n        /* \"#utility.yul\":88:205   */\n    tag_150:\n        /* \"#utility.yul\":197:198   */\n      0x00\n        /* \"#utility.yul\":194:195   */\n      dup1\n        /* \"#utility.yul\":187:199   */\n      revert\n        /* \"#utility.yul\":334:460   */\n    tag_152:\n        /* \"#utility.yul\":371:378   */\n      0x00\n        /* \"#utility.yul\":411:453   */\n      0xffffffffffffffffffffffffffffffffffffffff\n        /* \"#utility.yul\":404:409   */\n      dup3\n        /* \"#utility.yul\":400:454   */\n      and\n        /* \"#utility.yul\":389:454   */\n      swap1\n      pop\n        /* \"#utility.yul\":334:460   */\n      swap2\n      swap1\n      pop\n      jump\t// out\n        /* \"#utility.yul\":466:562   */\n    tag_153:\n        /* \"#utility.yul\":503:510   */\n      0x00\n        /* \"#utility.yul\":532:556   */\n      tag_181\n        /* \"#utility.yul\":550:555   */\n      dup3\n        /* \"#utility.yul\":532:556   */\n      tag_152\n      jump\t// in\n    tag_181:\n        /* \"#utility.yul\":521:556   */\n      swap1\n      pop\n        /* \"#utility.yul\":466:562   */\n      swap2\n      swap1\n      pop\n      jump\t// out\n        /* \"#utility.yul\":568:690   */\n    tag_154:\n        /* \"#utility.yul\":641:665   */\n      tag_183\n        /* \"#utility.yul\":659:664   */\n      dup2\n        /* \"#utility.yul\":641:665   */\n      tag_153\n      jump\t// in\n    tag_183:\n        /* \"#utility.yul\":634:639   */\n      dup2\n        /* \"#utility.yul\":631:666   */\n      eq\n        /* \"#utility.yul\":621:684   */\n      tag_184\n      jumpi\n        /* \"#utility.yul\":680:681   */\n      0x00\n        /* \"#utility.yul\":677:678   */\n      dup1\n        /* \"#utility.yul\":670:682   */\n      revert\n        /* \"#utility.yul\":621:684   */\n    tag_184:\n        /* \"#utility.yul\":568:690   */\n      pop\n      jump\t// out\n        /* \"#utility.yul\":696:835   */\n    tag_155:\n        /* \"#utility.yul\":742:747   */\n      0x00\n        /* \"#utility.yul\":780:786   */\n      dup2\n        /* \"#utility.yul\":767:787   */\n      calldataload\n        /* \"#utility.yul\":758:787   */\n      swap1\n      pop\n        /* \"#utility.yul\":796:829   */\n      tag_186\n        /* \"#utility.yul\":823:828   */\n      dup2\n        /* \"#utility.yul\":796:829   */\n      tag_154\n      jump\t// in\n    tag_186:\n        /* \"#utility.yul\":696:835   */\n      swap3\n      swap2\n      pop\n      pop\n      jump\t// out\n        /* \"#utility.yul\":841:1170   */\n    tag_16:\n        /* \"#utility.yul\":900:906   */\n      0x00\n        /* \"#utility.yul\":949:951   */\n      0x20\n        /* \"#utility.yul\":937:946   */\n      dup3\n        /* \"#utility.yul\":928:935   */\n      dup5\n        /* \"#utility.yul\":924:947   */\n      sub\n        /* \"#utility.yul\":920:952   */\n      slt\n        /* \"#utility.yul\":917:1036   */\n      iszero\n      tag_188\n      jumpi\n        /* \"#utility.yul\":955:1034   */\n      tag_189\n      tag_150\n      jump\t// in\n    tag_189:\n        /* \"#utility.yul\":917:1036   */\n    tag_188:\n        /* \"#utility.yul\":1075:1076   */\n      0x00\n        /* \"#utility.yul\":1100:1153   */\n      tag_190\n        /* \"#utility.yul\":1145:1152   */\n      dup5\n        /* \"#utility.yul\":1136:1142   */\n      dup3\n        /* \"#utility.yul\":1125:1134   */\n      dup6\n        /* \"#utility.yul\":1121:1143   */\n      add\n        /* \"#utility.yul\":1100:1153   */\n      tag_155\n      jump\t// in\n    tag_190:\n        /* \"#utility.yul\":1090:1153   */\n      swap2\n      pop\n        /* \"#utility.yul\":1046:1163   */\n      pop\n        /* \"#utility.yul\":841:1170   */\n      swap3\n      swap2\n      pop\n      pop\n      jump\t// out\n        /* \"#utility.yul\":1176:1294   */\n    tag_156:\n        /* \"#utility.yul\":1263:1287   */\n      tag_192\n        /* \"#utility.yul\":1281:1286   */\n      dup2\n        /* \"#utility.yul\":1263:1287   */\n      tag_153\n      jump\t// in\n    tag_192:\n        /* \"#utility.yul\":1258:1261   */\n      dup3\n        /* \"#utility.yul\":1251:1288   */\n      mstore\n        /* \"#utility.yul\":1176:1294   */\n      pop\n      pop\n      jump\t// out\n        /* \"#utility.yul\":1300:1522   */\n    tag_23:\n        /* \"#utility.yul\":1393:1397   */\n      0x00\n        /* \"#utility.yul\":1431:1433   */\n      0x20\n        /* \"#utility.yul\":1420:1429   */\n      dup3\n        /* \"#utility.yul\":1416:1434   */\n      add\n        /* \"#utility.yul\":1408:1434   */\n      swap1\n      pop\n        /* \"#utility.yul\":1444:1515   */\n      tag_194\n        /* \"#utility.yul\":1512:1513   */\n      0x00\n        /* \"#utility.yul\":1501:1510   */\n      dup4\n        /* \"#utility.yul\":1497:1514   */\n      add\n        /* \"#utility.yul\":1488:1494   */\n      dup5\n        /* \"#utility.yul\":1444:1515   */\n      tag_156\n      jump\t// in\n    tag_194:\n        /* \"#utility.yul\":1300:1522   */\n      swap3\n      swap2\n      pop\n      pop\n      jump\t// out\n        /* \"#utility.yul\":1528:1605   */\n    tag_157:\n        /* \"#utility.yul\":1565:1572   */\n      0x00\n        /* \"#utility.yul\":1594:1599   */\n      dup2\n        /* \"#utility.yul\":1583:1599   */\n      swap1\n      pop\n        /* \"#utility.yul\":1528:1605   */\n      swap2\n      swap1\n      pop\n      jump\t// out\n        /* \"#utility.yul\":1611:1729   */\n    tag_158:\n        /* \"#utility.yul\":1698:1722   */\n      tag_197\n        /* \"#utility.yul\":1716:1721   */\n      dup2\n        /* \"#utility.yul\":1698:1722   */\n      tag_157\n      jump\t// in\n    tag_197:\n        /* \"#utility.yul\":1693:1696   */\n      dup3\n        /* \"#utility.yul\":1686:1723   */\n      mstore\n        /* \"#utility.yul\":1611:1729   */\n      pop\n      pop\n      jump\t// out\n        /* \"#utility.yul\":1735:2399   */\n    tag_28:\n        /* \"#utility.yul\":1940:1944   */\n      0x00\n        /* \"#utility.yul\":1978:1981   */\n      0xa0\n        /* \"#utility.yul\":1967:1976   */\n      dup3\n        /* \"#utility.yul\":1963:1982   */\n      add\n        /* \"#utility.yul\":1955:1982   */\n      swap1\n      pop\n        /* \"#utility.yul\":1992:2063   */\n      tag_199\n        /* \"#utility.yul\":2060:2061   */\n      0x00\n        /* \"#utility.yul\":2049:2058   */\n      dup4\n        /* \"#utility.yul\":2045:2062   */\n      add\n        /* \"#utility.yul\":2036:2042   */\n      dup9\n        /* \"#utility.yul\":1992:2063   */\n      tag_158\n      jump\t// in\n    tag_199:\n        /* \"#utility.yul\":2073:2145   */\n      tag_200\n        /* \"#utility.yul\":2141:2143   */\n      0x20\n        /* \"#utility.yul\":2130:2139   */\n      dup4\n        /* \"#utility.yul\":2126:2144   */\n      add\n        /* \"#utility.yul\":2117:2123   */\n      dup8\n        /* \"#utility.yul\":2073:2145   */\n      tag_158\n      jump\t// in\n    tag_200:\n        /* \"#utility.yul\":2155:2227   */\n      tag_201\n        /* \"#utility.yul\":2223:2225   */\n      0x40\n        /* \"#utility.yul\":2212:2221   */\n      dup4\n        /* \"#utility.yul\":2208:2226   */\n      add\n        /* \"#utility.yul\":2199:2205   */\n      dup7\n        /* \"#utility.yul\":2155:2227   */\n      tag_158\n      jump\t// in\n    tag_201:\n        /* \"#utility.yul\":2237:2309   */\n      tag_202\n        /* \"#utility.yul\":2305:2307   */\n      0x60\n        /* \"#utility.yul\":2294:2303   */\n      dup4\n        /* \"#utility.yul\":2290:2308   */\n      add\n        /* \"#utility.yul\":2281:2287   */\n      dup6\n        /* \"#utility.yul\":2237:2309   */\n      tag_158\n      jump\t// in\n    tag_202:\n        /* \"#utility.yul\":2319:2392   */\n      tag_203\n        /* \"#utility.yul\":2387:2390   */\n      0x80\n        /* \"#utility.yul\":2376:2385   */\n      dup4\n        /* \"#utility.yul\":2372:2391   */\n      add\n        /* \"#utility.yul\":2363:2369   */\n      dup5\n        /* \"#utility.yul\":2319:2392   */\n      tag_158\n      jump\t// in\n    tag_203:\n        /* \"#utility.yul\":1735:2399   */\n      swap7\n      swap6\n      pop\n      pop\n      pop\n      pop\n      pop\n      pop\n      jump\t// out\n        /* \"#utility.yul\":2405:2627   */\n    tag_36:\n        /* \"#utility.yul\":2498:2502   */\n      0x00\n        /* \"#utility.yul\":2536:2538   */\n      0x20\n        /* \"#utility.yul\":2525:2534   */\n      dup3\n        /* \"#utility.yul\":2521:2539   */\n      add\n        /* \"#utility.yul\":2513:2539   */\n      swap1\n      pop\n        /* \"#utility.yul\":2549:2620   */\n      tag_205\n        /* \"#utility.yul\":2617:2618   */\n      0x00\n        /* \"#utility.yul\":2606:2615   */\n      dup4\n        /* \"#utility.yul\":2602:2619   */\n      add\n        /* \"#utility.yul\":2593:2599   */\n      dup5\n        /* \"#utility.yul\":2549:2620   */\n      tag_158\n      jump\t// in\n    tag_205:\n        /* \"#utility.yul\":2405:2627   */\n      swap3\n      swap2\n      pop\n      pop\n      jump\t// out\n        /* \"#utility.yul\":2633:2755   */\n    tag_159:\n        /* \"#utility.yul\":2706:2730   */\n      tag_207\n        /* \"#utility.yul\":2724:2729   */\n      dup2\n        /* \"#utility.yul\":2706:2730   */\n      tag_157\n      jump\t// in\n    tag_207:\n        /* \"#utility.yul\":2699:2704   */\n      dup2\n        /* \"#utility.yul\":2696:2731   */\n      eq\n        /* \"#utility.yul\":2686:2749   */\n      tag_208\n      jumpi\n        /* \"#utility.yul\":2745:2746   */\n      0x00\n        /* \"#utility.yul\":2742:2743   */\n      dup1\n        /* \"#utility.yul\":2735:2747   */\n      revert\n        /* \"#utility.yul\":2686:2749   */\n    tag_208:\n        /* \"#utility.yul\":2633:2755   */\n      pop\n      jump\t// out\n        /* \"#utility.yul\":2761:2900   */\n    tag_160:\n        /* \"#utility.yul\":2807:2812   */\n      0x00\n        /* \"#utility.yul\":2845:2851   */\n      dup2\n        /* \"#utility.yul\":2832:2852   */\n      calldataload\n        /* \"#utility.yul\":2823:2852   */\n      swap1\n      pop\n        /* \"#utility.yul\":2861:2894   */\n      tag_210\n        /* \"#utility.yul\":2888:2893   */\n      dup2\n        /* \"#utility.yul\":2861:2894   */\n      tag_159\n      jump\t// in\n    tag_210:\n        /* \"#utility.yul\":2761:2900   */\n      swap3\n      swap2\n      pop\n      pop\n      jump\t// out\n        /* \"#utility.yul\":2906:3380   */\n    tag_39:\n        /* \"#utility.yul\":2974:2980   */\n      0x00\n        /* \"#utility.yul\":2982:2988   */\n      dup1\n        /* \"#utility.yul\":3031:3033   */\n      0x40\n        /* \"#utility.yul\":3019:3028   */\n      dup4\n        /* \"#utility.yul\":3010:3017   */\n      dup6\n        /* \"#utility.yul\":3006:3029   */\n      sub\n        /* \"#utility.yul\":3002:3034   */\n      slt\n        /* \"#utility.yul\":2999:3118   */\n      iszero\n      tag_212\n      jumpi\n        /* \"#utility.yul\":3037:3116   */\n      tag_213\n      tag_150\n      jump\t// in\n    tag_213:\n        /* \"#utility.yul\":2999:3118   */\n    tag_212:\n        /* \"#utility.yul\":3157:3158   */\n      0x00\n        /* \"#utility.yul\":3182:3235   */\n      tag_214\n        /* \"#utility.yul\":3227:3234   */\n      dup6\n        /* \"#utility.yul\":3218:3224   */\n      dup3\n        /* \"#utility.yul\":3207:3216   */\n      dup7\n        /* \"#utility.yul\":3203:3225   */\n      add\n        /* \"#utility.yul\":3182:3235   */\n      tag_155\n      jump\t// in\n    tag_214:\n        /* \"#utility.yul\":3172:3235   */\n      swap3\n      pop\n        /* \"#utility.yul\":3128:3245   */\n      pop\n        /* \"#utility.yul\":3284:3286   */\n      0x20\n        /* \"#utility.yul\":3310:3363   */\n      tag_215\n        /* \"#utility.yul\":3355:3362   */\n      dup6\n        /* \"#utility.yul\":3346:3352   */\n      dup3\n        /* \"#utility.yul\":3335:3344   */\n      dup7\n        /* \"#utility.yul\":3331:3353   */\n      add\n        /* \"#utility.yul\":3310:3363   */\n      tag_160\n      jump\t// in\n    tag_215:\n        /* \"#utility.yul\":3300:3363   */\n      swap2\n      pop\n        /* \"#utility.yul\":3255:3373   */\n      pop\n        /* \"#utility.yul\":2906:3380   */\n      swap3\n      pop\n      swap3\n      swap1\n      pop\n      jump\t// out\n        /* \"#utility.yul\":3386:3715   */\n    tag_43:\n        /* \"#utility.yul\":3445:3451   */\n      0x00\n        /* \"#utility.yul\":3494:3496   */\n      0x20\n        /* \"#utility.yul\":3482:3491   */\n      dup3\n        /* \"#utility.yul\":3473:3480   */\n      dup5\n        /* \"#utility.yul\":3469:3492   */\n      sub\n        /* \"#utility.yul\":3465:3497   */\n      slt\n        /* \"#utility.yul\":3462:3581   */\n      iszero\n      tag_217\n      jumpi\n        /* \"#utility.yul\":3500:3579   */\n      tag_218\n      tag_150\n      jump\t// in\n    tag_218:\n        /* \"#utility.yul\":3462:3581   */\n    tag_217:\n        /* \"#utility.yul\":3620:3621   */\n      0x00\n        /* \"#utility.yul\":3645:3698   */\n      tag_219\n        /* \"#utility.yul\":3690:3697   */\n      dup5\n        /* \"#utility.yul\":3681:3687   */\n      dup3\n        /* \"#utility.yul\":3670:3679   */\n      dup6\n        /* \"#utility.yul\":3666:3688   */\n      add\n        /* \"#utility.yul\":3645:3698   */\n      tag_160\n      jump\t// in\n    tag_219:\n        /* \"#utility.yul\":3635:3698   */\n      swap2\n      pop\n        /* \"#utility.yul\":3591:3708   */\n      pop\n        /* \"#utility.yul\":3386:3715   */\n      swap3\n      swap2\n      pop\n      pop\n      jump\t// out\n        /* \"#utility.yul\":3721:3890   */\n    tag_161:\n        /* \"#utility.yul\":3805:3816   */\n      0x00\n        /* \"#utility.yul\":3839:3845   */\n      dup3\n        /* \"#utility.yul\":3834:3837   */\n      dup3\n        /* \"#utility.yul\":3827:3846   */\n      mstore\n        /* \"#utility.yul\":3879:3883   */\n      0x20\n        /* \"#utility.yul\":3874:3877   */\n      dup3\n        /* \"#utility.yul\":3870:3884   */\n      add\n        /* \"#utility.yul\":3855:3884   */\n      swap1\n      pop\n        /* \"#utility.yul\":3721:3890   */\n      swap3\n      swap2\n      pop\n      pop\n      jump\t// out\n        /* \"#utility.yul\":3896:4066   */\n    tag_162:\n        /* \"#utility.yul\":4036:4058   */\n      0x496e76616c696420757365722061646472657373000000000000000000000000\n        /* \"#utility.yul\":4032:4033   */\n      0x00\n        /* \"#utility.yul\":4024:4030   */\n      dup3\n        /* \"#utility.yul\":4020:4034   */\n      add\n        /* \"#utility.yul\":4013:4059   */\n      mstore\n        /* \"#utility.yul\":3896:4066   */\n      pop\n      jump\t// out\n        /* \"#utility.yul\":4072:4438   */\n    tag_163:\n        /* \"#utility.yul\":4214:4217   */\n      0x00\n        /* \"#utility.yul\":4235:4302   */\n      tag_223\n        /* \"#utility.yul\":4299:4301   */\n      0x14\n        /* \"#utility.yul\":4294:4297   */\n      dup4\n        /* \"#utility.yul\":4235:4302   */\n      tag_161\n      jump\t// in\n    tag_223:\n        /* \"#utility.yul\":4228:4302   */\n      swap2\n      pop\n        /* \"#utility.yul\":4311:4404   */\n      tag_224\n        /* \"#utility.yul\":4400:4403   */\n      dup3\n        /* \"#utility.yul\":4311:4404   */\n      tag_162\n      jump\t// in\n    tag_224:\n        /* \"#utility.yul\":4429:4431   */\n      0x20\n        /* \"#utility.yul\":4424:4427   */\n      dup3\n        /* \"#utility.yul\":4420:4432   */\n      add\n        /* \"#utility.yul\":4413:4432   */\n      swap1\n      pop\n        /* \"#utility.yul\":4072:4438   */\n      swap2\n      swap1\n      pop\n      jump\t// out\n        /* \"#utility.yul\":4444:4863   */\n    tag_59:\n        /* \"#utility.yul\":4610:4614   */\n      0x00\n        /* \"#utility.yul\":4648:4650   */\n      0x20\n        /* \"#utility.yul\":4637:4646   */\n      dup3\n        /* \"#utility.yul\":4633:4651   */\n      add\n        /* \"#utility.yul\":4625:4651   */\n      swap1\n      pop\n        /* \"#utility.yul\":4697:4706   */\n      dup2\n        /* \"#utility.yul\":4691:4695   */\n      dup2\n        /* \"#utility.yul\":4687:4707   */\n      sub\n        /* \"#utility.yul\":4683:4684   */\n      0x00\n        /* \"#utility.yul\":4672:4681   */\n      dup4\n        /* \"#utility.yul\":4668:4685   */\n      add\n        /* \"#utility.yul\":4661:4708   */\n      mstore\n        /* \"#utility.yul\":4725:4856   */\n      tag_226\n        /* \"#utility.yul\":4851:4855   */\n      dup2\n        /* \"#utility.yul\":4725:4856   */\n      tag_163\n      jump\t// in\n    tag_226:\n        /* \"#utility.yul\":4717:4856   */\n      swap1\n      pop\n        /* \"#utility.yul\":4444:4863   */\n      swap2\n      swap1\n      pop\n      jump\t// out\n        /* \"#utility.yul\":4869:5042   */\n    tag_164:\n        /* \"#utility.yul\":5009:5034   */\n      0x5573657220616c72656164792072656769737465726564000000000000000000\n        /* \"#utility.yul\":5005:5006   */\n      0x00\n        /* \"#utility.yul\":4997:5003   */\n      dup3\n        /* \"#utility.yul\":4993:5007   */\n      add\n        /* \"#utility.yul\":4986:5035   */\n      mstore\n        /* \"#utility.yul\":4869:5042   */\n      pop\n      jump\t// out\n        /* \"#utility.yul\":5048:5414   */\n    tag_165:\n        /* \"#utility.yul\":5190:5193   */\n      0x00\n        /* \"#utility.yul\":5211:5278   */\n      tag_229\n        /* \"#utility.yul\":5275:5277   */\n      0x17\n        /* \"#utility.yul\":5270:5273   */\n      dup4\n        /* \"#utility.yul\":5211:5278   */\n      tag_161\n      jump\t// in\n    tag_229:\n        /* \"#utility.yul\":5204:5278   */\n      swap2\n      pop\n        /* \"#utility.yul\":5287:5380   */\n      tag_230\n        /* \"#utility.yul\":5376:5379   */\n      dup3\n        /* \"#utility.yul\":5287:5380   */\n      tag_164\n      jump\t// in\n    tag_230:\n        /* \"#utility.yul\":5405:5407   */\n      0x20\n        /* \"#utility.yul\":5400:5403   */\n      dup3\n        /* \"#utility.yul\":5396:5408   */\n      add\n        /* \"#utility.yul\":5389:5408   */\n      swap1\n      pop\n        /* \"#utility.yul\":5048:5414   */\n      swap2\n      swap1\n      pop\n      jump\t// out\n        /* \"#utility.yul\":5420:5839   */\n    tag_62:\n        /* \"#utility.yul\":5586:5590   */\n      0x00\n        /* \"#utility.yul\":5624:5626   */\n      0x20\n        /* \"#utility.yul\":5613:5622   */\n      dup3\n        /* \"#utility.yul\":5609:5627   */\n      add\n        /* \"#utility.yul\":5601:5627   */\n      swap1\n      pop\n        /* \"#utility.yul\":5673:5682   */\n      dup2\n        /* \"#utility.yul\":5667:5671   */\n      dup2\n        /* \"#utility.yul\":5663:5683   */\n      sub\n        /* \"#utility.yul\":5659:5660   */\n      0x00\n        /* \"#utility.yul\":5648:5657   */\n      dup4\n        /* \"#utility.yul\":5644:5661   */\n      add\n        /* \"#utility.yul\":5637:5684   */\n      mstore\n        /* \"#utility.yul\":5701:5832   */\n      tag_232\n        /* \"#utility.yul\":5827:5831   */\n      dup2\n        /* \"#utility.yul\":5701:5832   */\n      tag_165\n      jump\t// in\n    tag_232:\n        /* \"#utility.yul\":5693:5832   */\n      swap1\n      pop\n        /* \"#utility.yul\":5420:5839   */\n      swap2\n      swap1\n      pop\n      jump\t// out\n        /* \"#utility.yul\":5845:6014   */\n    tag_166:\n        /* \"#utility.yul\":5985:6006   */\n      0x55736572206e6f74207265676973746572656400000000000000000000000000\n        /* \"#utility.yul\":5981:5982   */\n      0x00\n        /* \"#utility.yul\":5973:5979   */\n      dup3\n        /* \"#utility.yul\":5969:5983   */\n      add\n        /* \"#utility.yul\":5962:6007   */\n      mstore\n        /* \"#utility.yul\":5845:6014   */\n      pop\n      jump\t// out\n        /* \"#utility.yul\":6020:6386   */\n    tag_167:\n        /* \"#utility.yul\":6162:6165   */\n      0x00\n        /* \"#utility.yul\":6183:6250   */\n      tag_235\n        /* \"#utility.yul\":6247:6249   */\n      0x13\n        /* \"#utility.yul\":6242:6245   */\n      dup4\n        /* \"#utility.yul\":6183:6250   */\n      tag_161\n      jump\t// in\n    tag_235:\n        /* \"#utility.yul\":6176:6250   */\n      swap2\n      pop\n        /* \"#utility.yul\":6259:6352   */\n      tag_236\n        /* \"#utility.yul\":6348:6351   */\n      dup3\n        /* \"#utility.yul\":6259:6352   */\n      tag_166\n      jump\t// in\n    tag_236:\n        /* \"#utility.yul\":6377:6379   */\n      0x20\n        /* \"#utility.yul\":6372:6375   */\n      dup3\n        /* \"#utility.yul\":6368:6380   */\n      add\n        /* \"#utility.yul\":6361:6380   */\n      swap1\n      pop\n        /* \"#utility.yul\":6020:6386   */\n      swap2\n      swap1\n      pop\n      jump\t// out\n        /* \"#utility.yul\":6392:6811   */\n    tag_76:\n        /* \"#utility.yul\":6558:6562   */\n      0x00\n        /* \"#utility.yul\":6596:6598   */\n      0x20\n        /* \"#utility.yul\":6585:6594   */\n      dup3\n        /* \"#utility.yul\":6581:6599   */\n      add\n        /* \"#utility.yul\":6573:6599   */\n      swap1\n      pop\n        /* \"#utility.yul\":6645:6654   */\n      dup2\n        /* \"#utility.yul\":6639:6643   */\n      dup2\n        /* \"#utility.yul\":6635:6655   */\n      sub\n        /* \"#utility.yul\":6631:6632   */\n      0x00\n        /* \"#utility.yul\":6620:6629   */\n      dup4\n        /* \"#utility.yul\":6616:6633   */\n      add\n        /* \"#utility.yul\":6609:6656   */\n      mstore\n        /* \"#utility.yul\":6673:6804   */\n      tag_238\n        /* \"#utility.yul\":6799:6803   */\n      dup2\n        /* \"#utility.yul\":6673:6804   */\n      tag_167\n      jump\t// in\n    tag_238:\n        /* \"#utility.yul\":6665:6804   */\n      swap1\n      pop\n        /* \"#utility.yul\":6392:6811   */\n      swap2\n      swap1\n      pop\n      jump\t// out\n        /* \"#utility.yul\":6817:6997   */\n    tag_168:\n        /* \"#utility.yul\":6865:6942   */\n      0x4e487b7100000000000000000000000000000000000000000000000000000000\n        /* \"#utility.yul\":6862:6863   */\n      0x00\n        /* \"#utility.yul\":6855:6943   */\n      mstore\n        /* \"#utility.yul\":6962:6966   */\n      0x11\n        /* \"#utility.yul\":6959:6960   */\n      0x04\n        /* \"#utility.yul\":6952:6967   */\n      mstore\n        /* \"#utility.yul\":6986:6990   */\n      0x24\n        /* \"#utility.yul\":6983:6984   */\n      0x00\n        /* \"#utility.yul\":6976:6991   */\n      revert\n        /* \"#utility.yul\":7003:7194   */\n    tag_79:\n        /* \"#utility.yul\":7043:7046   */\n      0x00\n        /* \"#utility.yul\":7062:7082   */\n      tag_241\n        /* \"#utility.yul\":7080:7081   */\n      dup3\n        /* \"#utility.yul\":7062:7082   */\n      tag_157\n      jump\t// in\n    tag_241:\n        /* \"#utility.yul\":7057:7082   */\n      swap2\n      pop\n        /* \"#utility.yul\":7096:7116   */\n      tag_242\n        /* \"#utility.yul\":7114:7115   */\n      dup4\n        /* \"#utility.yul\":7096:7116   */\n      tag_157\n      jump\t// in\n    tag_242:\n        /* \"#utility.yul\":7091:7116   */\n      swap3\n      pop\n        /* \"#utility.yul\":7139:7140   */\n      dup3\n        /* \"#utility.yul\":7136:7137   */\n      dup3\n        /* \"#utility.yul\":7132:7141   */\n      add\n        /* \"#utility.yul\":7125:7141   */\n      swap1\n      pop\n        /* \"#utility.yul\":7160:7163   */\n      dup1\n        /* \"#utility.yul\":7157:7158   */\n      dup3\n        /* \"#utility.yul\":7154:7164   */\n      gt\n        /* \"#utility.yul\":7151:7187   */\n      iszero\n      tag_243\n      jumpi\n        /* \"#utility.yul\":7167:7185   */\n      tag_244\n      tag_168\n      jump\t// in\n    tag_244:\n        /* \"#utility.yul\":7151:7187   */\n    tag_243:\n        /* \"#utility.yul\":7003:7194   */\n      swap3\n      swap2\n      pop\n      pop\n      jump\t// out\n        /* \"#utility.yul\":7200:7373   */\n    tag_169:\n        /* \"#utility.yul\":7340:7365   */\n      0x546f6f20736f6f6e20666f72206e657720706f696e7473000000000000000000\n        /* \"#utility.yul\":7336:7337   */\n      0x00\n        /* \"#utility.yul\":7328:7334   */\n      dup3\n        /* \"#utility.yul\":7324:7338   */\n      add\n        /* \"#utility.yul\":7317:7366   */\n      mstore\n        /* \"#utility.yul\":7200:7373   */\n      pop\n      jump\t// out\n        /* \"#utility.yul\":7379:7745   */\n    tag_170:\n        /* \"#utility.yul\":7521:7524   */\n      0x00\n        /* \"#utility.yul\":7542:7609   */\n      tag_247\n        /* \"#utility.yul\":7606:7608   */\n      0x17\n        /* \"#utility.yul\":7601:7604   */\n      dup4\n        /* \"#utility.yul\":7542:7609   */\n      tag_161\n      jump\t// in\n    tag_247:\n        /* \"#utility.yul\":7535:7609   */\n      swap2\n      pop\n        /* \"#utility.yul\":7618:7711   */\n      tag_248\n        /* \"#utility.yul\":7707:7710   */\n      dup3\n        /* \"#utility.yul\":7618:7711   */\n      tag_169\n      jump\t// in\n    tag_248:\n        /* \"#utility.yul\":7736:7738   */\n      0x20\n        /* \"#utility.yul\":7731:7734   */\n      dup3\n        /* \"#utility.yul\":7727:7739   */\n      add\n        /* \"#utility.yul\":7720:7739   */\n      swap1\n      pop\n        /* \"#utility.yul\":7379:7745   */\n      swap2\n      swap1\n      pop\n      jump\t// out\n        /* \"#utility.yul\":7751:8170   */\n    tag_82:\n        /* \"#utility.yul\":7917:7921   */\n      0x00\n        /* \"#utility.yul\":7955:7957   */\n      0x20\n        /* \"#utility.yul\":7944:7953   */\n      dup3\n        /* \"#utility.yul\":7940:7958   */\n      add\n        /* \"#utility.yul\":7932:7958   */\n      swap1\n      pop\n        /* \"#utility.yul\":8004:8013   */\n      dup2\n        /* \"#utility.yul\":7998:8002   */\n      dup2\n        /* \"#utility.yul\":7994:8014   */\n      sub\n        /* \"#utility.yul\":7990:7991   */\n      0x00\n        /* \"#utility.yul\":7979:7988   */\n      dup4\n        /* \"#utility.yul\":7975:7992   */\n      add\n        /* \"#utility.yul\":7968:8015   */\n      mstore\n        /* \"#utility.yul\":8032:8163   */\n      tag_250\n        /* \"#utility.yul\":8158:8162   */\n      dup2\n        /* \"#utility.yul\":8032:8163   */\n      tag_170\n      jump\t// in\n    tag_250:\n        /* \"#utility.yul\":8024:8163   */\n      swap1\n      pop\n        /* \"#utility.yul\":7751:8170   */\n      swap2\n      swap1\n      pop\n      jump\t// out\n        /* \"#utility.yul\":8176:8618   */\n    tag_86:\n        /* \"#utility.yul\":8325:8329   */\n      0x00\n        /* \"#utility.yul\":8363:8365   */\n      0x60\n        /* \"#utility.yul\":8352:8361   */\n      dup3\n        /* \"#utility.yul\":8348:8366   */\n      add\n        /* \"#utility.yul\":8340:8366   */\n      swap1\n      pop\n        /* \"#utility.yul\":8376:8447   */\n      tag_252\n        /* \"#utility.yul\":8444:8445   */\n      0x00\n        /* \"#utility.yul\":8433:8442   */\n      dup4\n        /* \"#utility.yul\":8429:8446   */\n      add\n        /* \"#utility.yul\":8420:8426   */\n      dup7\n        /* \"#utility.yul\":8376:8447   */\n      tag_158\n      jump\t// in\n    tag_252:\n        /* \"#utility.yul\":8457:8529   */\n      tag_253\n        /* \"#utility.yul\":8525:8527   */\n      0x20\n        /* \"#utility.yul\":8514:8523   */\n      dup4\n        /* \"#utility.yul\":8510:8528   */\n      add\n        /* \"#utility.yul\":8501:8507   */\n      dup6\n        /* \"#utility.yul\":8457:8529   */\n      tag_158\n      jump\t// in\n    tag_253:\n        /* \"#utility.yul\":8539:8611   */\n      tag_254\n        /* \"#utility.yul\":8607:8609   */\n      0x40\n        /* \"#utility.yul\":8596:8605   */\n      dup4\n        /* \"#utility.yul\":8592:8610   */\n      add\n        /* \"#utility.yul\":8583:8589   */\n      dup5\n        /* \"#utility.yul\":8539:8611   */\n      tag_158\n      jump\t// in\n    tag_254:\n        /* \"#utility.yul\":8176:8618   */\n      swap5\n      swap4\n      pop\n      pop\n      pop\n      pop\n      jump\t// out\n        /* \"#utility.yul\":8624:8793   */\n    tag_171:\n        /* \"#utility.yul\":8764:8785   */\n      0x496e73756666696369656e7420706f696e747300000000000000000000000000\n        /* \"#utility.yul\":8760:8761   */\n      0x00\n        /* \"#utility.yul\":8752:8758   */\n      dup3\n        /* \"#utility.yul\":8748:8762   */\n      add\n        /* \"#utility.yul\":8741:8786   */\n      mstore\n        /* \"#utility.yul\":8624:8793   */\n      pop\n      jump\t// out\n        /* \"#utility.yul\":8799:9165   */\n    tag_172:\n        /* \"#utility.yul\":8941:8944   */\n      0x00\n        /* \"#utility.yul\":8962:9029   */\n      tag_257\n        /* \"#utility.yul\":9026:9028   */\n      0x13\n        /* \"#utility.yul\":9021:9024   */\n      dup4\n        /* \"#utility.yul\":8962:9029   */\n      tag_161\n      jump\t// in\n    tag_257:\n        /* \"#utility.yul\":8955:9029   */\n      swap2\n      pop\n        /* \"#utility.yul\":9038:9131   */\n      tag_258\n        /* \"#utility.yul\":9127:9130   */\n      dup3\n        /* \"#utility.yul\":9038:9131   */\n      tag_171\n      jump\t// in\n    tag_258:\n        /* \"#utility.yul\":9156:9158   */\n      0x20\n        /* \"#utility.yul\":9151:9154   */\n      dup3\n        /* \"#utility.yul\":9147:9159   */\n      add\n        /* \"#utility.yul\":9140:9159   */\n      swap1\n      pop\n        /* \"#utility.yul\":8799:9165   */\n      swap2\n      swap1\n      pop\n      jump\t// out\n        /* \"#utility.yul\":9171:9590   */\n    tag_98:\n        /* \"#utility.yul\":9337:9341   */\n      0x00\n        /* \"#utility.yul\":9375:9377   */\n      0x20\n        /* \"#utility.yul\":9364:9373   */\n      dup3\n        /* \"#utility.yul\":9360:9378   */\n      add\n        /* \"#utility.yul\":9352:9378   */\n      swap1\n      pop\n        /* \"#utility.yul\":9424:9433   */\n      dup2\n        /* \"#utility.yul\":9418:9422   */\n      dup2\n        /* \"#utility.yul\":9414:9434   */\n      sub\n        /* \"#utility.yul\":9410:9411   */\n      0x00\n        /* \"#utility.yul\":9399:9408   */\n      dup4\n        /* \"#utility.yul\":9395:9412   */\n      add\n        /* \"#utility.yul\":9388:9435   */\n      mstore\n        /* \"#utility.yul\":9452:9583   */\n      tag_260\n        /* \"#utility.yul\":9578:9582   */\n      dup2\n        /* \"#utility.yul\":9452:9583   */\n      tag_172\n      jump\t// in\n    tag_260:\n        /* \"#utility.yul\":9444:9583   */\n      swap1\n      pop\n        /* \"#utility.yul\":9171:9590   */\n      swap2\n      swap1\n      pop\n      jump\t// out\n        /* \"#utility.yul\":9596:9790   */\n    tag_100:\n        /* \"#utility.yul\":9636:9640   */\n      0x00\n        /* \"#utility.yul\":9656:9676   */\n      tag_262\n        /* \"#utility.yul\":9674:9675   */\n      dup3\n        /* \"#utility.yul\":9656:9676   */\n      tag_157\n      jump\t// in\n    tag_262:\n        /* \"#utility.yul\":9651:9676   */\n      swap2\n      pop\n        /* \"#utility.yul\":9690:9710   */\n      tag_263\n        /* \"#utility.yul\":9708:9709   */\n      dup4\n        /* \"#utility.yul\":9690:9710   */\n      tag_157\n      jump\t// in\n    tag_263:\n        /* \"#utility.yul\":9685:9710   */\n      swap3\n      pop\n        /* \"#utility.yul\":9734:9735   */\n      dup3\n        /* \"#utility.yul\":9731:9732   */\n      dup3\n        /* \"#utility.yul\":9727:9736   */\n      sub\n        /* \"#utility.yul\":9719:9736   */\n      swap1\n      pop\n        /* \"#utility.yul\":9758:9759   */\n      dup2\n        /* \"#utility.yul\":9752:9756   */\n      dup2\n        /* \"#utility.yul\":9749:9760   */\n      gt\n        /* \"#utility.yul\":9746:9783   */\n      iszero\n      tag_264\n      jumpi\n        /* \"#utility.yul\":9763:9781   */\n      tag_265\n      tag_168\n      jump\t// in\n    tag_265:\n        /* \"#utility.yul\":9746:9783   */\n    tag_264:\n        /* \"#utility.yul\":9596:9790   */\n      swap3\n      swap2\n      pop\n      pop\n      jump\t// out\n        /* \"#utility.yul\":9796:9958   */\n    tag_173:\n        /* \"#utility.yul\":9936:9950   */\n      0x496e76616c696420746965720000000000000000000000000000000000000000\n        /* \"#utility.yul\":9932:9933   */\n      0x00\n        /* \"#utility.yul\":9924:9930   */\n      dup3\n        /* \"#utility.yul\":9920:9934   */\n      add\n        /* \"#utility.yul\":9913:9951   */\n      mstore\n        /* \"#utility.yul\":9796:9958   */\n      pop\n      jump\t// out\n        /* \"#utility.yul\":9964:10330   */\n    tag_174:\n        /* \"#utility.yul\":10106:10109   */\n      0x00\n        /* \"#utility.yul\":10127:10194   */\n      tag_268\n        /* \"#utility.yul\":10191:10193   */\n      0x0c\n        /* \"#utility.yul\":10186:10189   */\n      dup4\n        /* \"#utility.yul\":10127:10194   */\n      tag_161\n      jump\t// in\n    tag_268:\n        /* \"#utility.yul\":10120:10194   */\n      swap2\n      pop\n        /* \"#utility.yul\":10203:10296   */\n      tag_269\n        /* \"#utility.yul\":10292:10295   */\n      dup3\n        /* \"#utility.yul\":10203:10296   */\n      tag_173\n      jump\t// in\n    tag_269:\n        /* \"#utility.yul\":10321:10323   */\n      0x20\n        /* \"#utility.yul\":10316:10319   */\n      dup3\n        /* \"#utility.yul\":10312:10324   */\n      add\n        /* \"#utility.yul\":10305:10324   */\n      swap1\n      pop\n        /* \"#utility.yul\":9964:10330   */\n      swap2\n      swap1\n      pop\n      jump\t// out\n        /* \"#utility.yul\":10336:10755   */\n    tag_107:\n        /* \"#utility.yul\":10502:10506   */\n      0x00\n        /* \"#utility.yul\":10540:10542   */\n      0x20\n        /* \"#utility.yul\":10529:10538   */\n      dup3\n        /* \"#utility.yul\":10525:10543   */\n      add\n        /* \"#utility.yul\":10517:10543   */\n      swap1\n      pop\n        /* \"#utility.yul\":10589:10598   */\n      dup2\n        /* \"#utility.yul\":10583:10587   */\n      dup2\n        /* \"#utility.yul\":10579:10599   */\n      sub\n        /* \"#utility.yul\":10575:10576   */\n      0x00\n        /* \"#utility.yul\":10564:10573   */\n      dup4\n        /* \"#utility.yul\":10560:10577   */\n      add\n        /* \"#utility.yul\":10553:10600   */\n      mstore\n        /* \"#utility.yul\":10617:10748   */\n      tag_271\n        /* \"#utility.yul\":10743:10747   */\n      dup2\n        /* \"#utility.yul\":10617:10748   */\n      tag_174\n      jump\t// in\n    tag_271:\n        /* \"#utility.yul\":10609:10748   */\n      swap1\n      pop\n        /* \"#utility.yul\":10336:10755   */\n      swap2\n      swap1\n      pop\n      jump\t// out\n        /* \"#utility.yul\":10761:10941   */\n    tag_110:\n        /* \"#utility.yul\":10809:10886   */\n      0x4e487b7100000000000000000000000000000000000000000000000000000000\n        /* \"#utility.yul\":10806:10807   */\n      0x00\n        /* \"#utility.yul\":10799:10887   */\n      mstore\n        /* \"#utility.yul\":10906:10910   */\n      0x32\n        /* \"#utility.yul\":10903:10904   */\n      0x04\n        /* \"#utility.yul\":10896:10911   */\n      mstore\n        /* \"#utility.yul\":10930:10934   */\n      0x24\n        /* \"#utility.yul\":10927:10928   */\n      0x00\n        /* \"#utility.yul\":10920:10935   */\n      revert\n        /* \"#utility.yul\":10947:11118   */\n    tag_145:\n        /* \"#utility.yul\":10986:10989   */\n      0x00\n        /* \"#utility.yul\":11009:11033   */\n      tag_274\n        /* \"#utility.yul\":11027:11032   */\n      dup3\n        /* \"#utility.yul\":11009:11033   */\n      tag_157\n      jump\t// in\n    tag_274:\n        /* \"#utility.yul\":11000:11033   */\n      swap2\n      pop\n        /* \"#utility.yul\":11055:11059   */\n      0x00\n        /* \"#utility.yul\":11048:11053   */\n      dup3\n        /* \"#utility.yul\":11045:11060   */\n      sub\n        /* \"#utility.yul\":11042:11083   */\n      tag_275\n      jumpi\n        /* \"#utility.yul\":11063:11081   */\n      tag_276\n      tag_168\n      jump\t// in\n    tag_276:\n        /* \"#utility.yul\":11042:11083   */\n    tag_275:\n        /* \"#utility.yul\":11110:11111   */\n      0x01\n        /* \"#utility.yul\":11103:11108   */\n      dup3\n        /* \"#utility.yul\":11099:11112   */\n      sub\n        /* \"#utility.yul\":11092:11112   */\n      swap1\n      pop\n        /* \"#utility.yul\":10947:11118   */\n      swap2\n      swap1\n      pop\n      jump\t// out\n\n    auxdata: 0xa26469706673582212208ac713b0219eedebb418e8678d7bad959f4c08ea8bc58b53d4c4290ab52117de64736f6c634300081a0033\n}\n",
				"bytecode": {
					"linkReferences": {},
					"object": "608060405260405180608001604052805f61ffff168152602001606461ffff1681526020016101f461ffff1681526020016103e861ffff16815250600290600461004a92919061019e565b50348015610056575f80fd5b50335f73ffffffffffffffffffffffffffffffffffffffff168173ffffffffffffffffffffffffffffffffffffffff16036100c8575f6040517f1e4fbdf70000000000000000000000000000000000000000000000000000000081526004016100bf9190610249565b60405180910390fd5b6100d7816100dd60201b60201c565b50610262565b5f805f9054906101000a900473ffffffffffffffffffffffffffffffffffffffff169050815f806101000a81548173ffffffffffffffffffffffffffffffffffffffff021916908373ffffffffffffffffffffffffffffffffffffffff1602179055508173ffffffffffffffffffffffffffffffffffffffff168173ffffffffffffffffffffffffffffffffffffffff167f8be0079c531659141344cd1fd0a4f28419497f9722a3daafe3b4186f6b6457e060405160405180910390a35050565b828054828255905f5260205f209081019282156101de579160200282015b828111156101dd578251829061ffff169055916020019190600101906101bc565b5b5090506101eb91906101ef565b5090565b5b80821115610206575f815f9055506001016101f0565b5090565b5f73ffffffffffffffffffffffffffffffffffffffff82169050919050565b5f6102338261020a565b9050919050565b61024381610229565b82525050565b5f60208201905061025c5f83018461023a565b92915050565b6113188061026f5f395ff3fe608060405234801561000f575f80fd5b506004361061009c575f3560e01c8063aeefe31f11610064578063aeefe31f14610134578063b85da8d214610164578063de8f4c4914610180578063e4d2620e146101b0578063f2fde38b146101e05761009c565b80632199d5cd146100a0578063715018a6146100bc5780638da5cb5b146100c6578063987ee156146100e4578063ad7b985e14610118575b5f80fd5b6100ba60048036038101906100b59190610dde565b6101fc565b005b6100c46103ec565b005b6100ce6103ff565b6040516100db9190610e18565b60405180910390f35b6100fe60048036038101906100f99190610dde565b610426565b60405161010f959493929190610e49565b60405180910390f35b610132600480360381019061012d9190610dde565b6104dd565b005b61014e60048036038101906101499190610dde565b61073f565b60405161015b9190610e9a565b60405180910390f35b61017e60048036038101906101799190610edd565b610787565b005b61019a60048036038101906101959190610f1b565b610995565b6040516101a79190610e9a565b60405180910390f35b6101ca60048036038101906101c59190610dde565b610a01565b6040516101d79190610e9a565b60405180910390f35b6101fa60048036038101906101f59190610dde565b610a4a565b005b610204610ace565b5f73ffffffffffffffffffffffffffffffffffffffff168173ffffffffffffffffffffffffffffffffffffffff1603610272576040517f08c379a000000000000000000000000000000000000000000000000000000000815260040161026990610fa0565b60405180910390fd5b5f60015f8373ffffffffffffffffffffffffffffffffffffffff1673ffffffffffffffffffffffffffffffffffffffff1681526020019081526020015f2060040154146102f4576040517f08c379a00000000000000000000000000000000000000000000000000000000081526004016102eb90611008565b60405180910390fd5b6040518060c001604052805f81526020015f81526020015f81526020015f81526020014281526020015f81525060015f8373ffffffffffffffffffffffffffffffffffffffff1673ffffffffffffffffffffffffffffffffffffffff1681526020019081526020015f205f820151815f01556020820151816001015560408201518160020155606082015181600301556080820151816004015560a082015181600501559050508073ffffffffffffffffffffffffffffffffffffffff167fe29d35093005f4d575e1003753426b57a7f64378ba73332eef9c6ccc2b8decd6426040516103e19190610e9a565b60405180910390a250565b6103f4610ace565b6103fd5f610b55565b565b5f805f9054906101000a900473ffffffffffffffffffffffffffffffffffffffff16905090565b5f805f805f8060015f8873ffffffffffffffffffffffffffffffffffffffff1673ffffffffffffffffffffffffffffffffffffffff1681526020019081526020015f206040518060c00160405290815f8201548152602001600182015481526020016002820154815260200160038201548152602001600482015481526020016005820154815250509050805f01518160200151826040015183608001518460a00151955095509550955095505091939590929450565b805f73ffffffffffffffffffffffffffffffffffffffff168173ffffffffffffffffffffffffffffffffffffffff160361054c576040517f08c379a000000000000000000000000000000000000000000000000000000000815260040161054390610fa0565b60405180910390fd5b5f60015f8373ffffffffffffffffffffffffffffffffffffffff1673ffffffffffffffffffffffffffffffffffffffff1681526020019081526020015f2060040154116105ce576040517f08c379a00000000000000000000000000000000000000000000000000000000081526004016105c590611070565b60405180910390fd5b606460015f8473ffffffffffffffffffffffffffffffffffffffff1673ffffffffffffffffffffffffffffffffffffffff1681526020019081526020015f206003015461061b91906110bb565b43101561065d576040517f08c379a000000000000000000000000000000000000000000000000000000000815260040161065490611138565b60405180910390fd5b5f60015f8473ffffffffffffffffffffffffffffffffffffffff1673ffffffffffffffffffffffffffffffffffffffff1681526020019081526020015f209050600a815f015f8282546106b091906110bb565b92505081905550600a816001015f8282546106cb91906110bb565b925050819055504381600301819055508273ffffffffffffffffffffffffffffffffffffffff167f1a420b6f135da3e0f01110e6d24ef8d576423f138e06bae4da97b28929fcded0600a835f01544260405161072993929190611156565b60405180910390a261073a83610c16565b505050565b5f60015f8373ffffffffffffffffffffffffffffffffffffffff1673ffffffffffffffffffffffffffffffffffffffff1681526020019081526020015f205f01549050919050565b815f73ffffffffffffffffffffffffffffffffffffffff168173ffffffffffffffffffffffffffffffffffffffff16036107f6576040517f08c379a00000000000000000000000000000000000000000000000000000000081526004016107ed90610fa0565b60405180910390fd5b5f60015f8373ffffffffffffffffffffffffffffffffffffffff1673ffffffffffffffffffffffffffffffffffffffff1681526020019081526020015f206004015411610878576040517f08c379a000000000000000000000000000000000000000000000000000000000815260040161086f90611070565b60405180910390fd5b5f60015f8573ffffffffffffffffffffffffffffffffffffffff1673ffffffffffffffffffffffffffffffffffffffff1681526020019081526020015f20905082815f015410156108fe576040517f08c379a00000000000000000000000000000000000000000000000000000000081526004016108f5906111d5565b60405180910390fd5b82815f015f82825461091091906111f3565b9250508190555082816002015f82825461092a91906110bb565b925050819055508373ffffffffffffffffffffffffffffffffffffffff167f90138e15f43ce1520bd445151b279c8047b276f6dc4d41f9fae44cd7ecfe4e7e84835f01544260405161097e93929190611156565b60405180910390a261098f84610c16565b50505050565b5f60028054905082106109dd576040517f08c379a00000000000000000000000000000000000000000000000000000000081526004016109d490611270565b60405180910390fd5b600282815481106109f1576109f061128e565b5b905f5260205f2001549050919050565b5f60015f8373ffffffffffffffffffffffffffffffffffffffff1673ffffffffffffffffffffffffffffffffffffffff1681526020019081526020015f20600501549050919050565b610a52610ace565b5f73ffffffffffffffffffffffffffffffffffffffff168173ffffffffffffffffffffffffffffffffffffffff1603610ac2575f6040517f1e4fbdf7000000000000000000000000000000000000000000000000000000008152600401610ab99190610e18565b60405180910390fd5b610acb81610b55565b50565b610ad6610d79565b73ffffffffffffffffffffffffffffffffffffffff16610af46103ff565b73ffffffffffffffffffffffffffffffffffffffff1614610b5357610b17610d79565b6040517f118cdaa7000000000000000000000000000000000000000000000000000000008152600401610b4a9190610e18565b60405180910390fd5b565b5f805f9054906101000a900473ffffffffffffffffffffffffffffffffffffffff169050815f806101000a81548173ffffffffffffffffffffffffffffffffffffffff021916908373ffffffffffffffffffffffffffffffffffffffff1602179055508173ffffffffffffffffffffffffffffffffffffffff168173ffffffffffffffffffffffffffffffffffffffff167f8be0079c531659141344cd1fd0a4f28419497f9722a3daafe3b4186f6b6457e060405160405180910390a35050565b5f60015f8373ffffffffffffffffffffffffffffffffffffffff1673ffffffffffffffffffffffffffffffffffffffff1681526020019081526020015f2090505f816005015490505f8190505f600183610c7091906110bb565b90505b600280549050811015610cb75760028181548110610c9457610c9361128e565b5b905f5260205f200154845f015410610caa578091505b8080600101915050610c73565b505f8290505b5f811115610d0f5760028181548110610cd957610cd861128e565b5b905f5260205f200154845f01541015610cfc57600181610cf991906111f3565b91505b8080610d07906112bb565b915050610cbd565b50818114610d73578083600501819055508373ffffffffffffffffffffffffffffffffffffffff167f88d765a84878c2adcb81f6fe86f655749503ed376b92a4a9f27d4db1a6e7bceb838342604051610d6a93929190611156565b60405180910390a25b50505050565b5f33905090565b5f80fd5b5f73ffffffffffffffffffffffffffffffffffffffff82169050919050565b5f610dad82610d84565b9050919050565b610dbd81610da3565b8114610dc7575f80fd5b50565b5f81359050610dd881610db4565b92915050565b5f60208284031215610df357610df2610d80565b5b5f610e0084828501610dca565b91505092915050565b610e1281610da3565b82525050565b5f602082019050610e2b5f830184610e09565b92915050565b5f819050919050565b610e4381610e31565b82525050565b5f60a082019050610e5c5f830188610e3a565b610e696020830187610e3a565b610e766040830186610e3a565b610e836060830185610e3a565b610e906080830184610e3a565b9695505050505050565b5f602082019050610ead5f830184610e3a565b92915050565b610ebc81610e31565b8114610ec6575f80fd5b50565b5f81359050610ed781610eb3565b92915050565b5f8060408385031215610ef357610ef2610d80565b5b5f610f0085828601610dca565b9250506020610f1185828601610ec9565b9150509250929050565b5f60208284031215610f3057610f2f610d80565b5b5f610f3d84828501610ec9565b91505092915050565b5f82825260208201905092915050565b7f496e76616c6964207573657220616464726573730000000000000000000000005f82015250565b5f610f8a601483610f46565b9150610f9582610f56565b602082019050919050565b5f6020820190508181035f830152610fb781610f7e565b9050919050565b7f5573657220616c726561647920726567697374657265640000000000000000005f82015250565b5f610ff2601783610f46565b9150610ffd82610fbe565b602082019050919050565b5f6020820190508181035f83015261101f81610fe6565b9050919050565b7f55736572206e6f742072656769737465726564000000000000000000000000005f82015250565b5f61105a601383610f46565b915061106582611026565b602082019050919050565b5f6020820190508181035f8301526110878161104e565b9050919050565b7f4e487b71000000000000000000000000000000000000000000000000000000005f52601160045260245ffd5b5f6110c582610e31565b91506110d083610e31565b92508282019050808211156110e8576110e761108e565b5b92915050565b7f546f6f20736f6f6e20666f72206e657720706f696e74730000000000000000005f82015250565b5f611122601783610f46565b915061112d826110ee565b602082019050919050565b5f6020820190508181035f83015261114f81611116565b9050919050565b5f6060820190506111695f830186610e3a565b6111766020830185610e3a565b6111836040830184610e3a565b949350505050565b7f496e73756666696369656e7420706f696e7473000000000000000000000000005f82015250565b5f6111bf601383610f46565b91506111ca8261118b565b602082019050919050565b5f6020820190508181035f8301526111ec816111b3565b9050919050565b5f6111fd82610e31565b915061120883610e31565b92508282039050818111156112205761121f61108e565b5b92915050565b7f496e76616c6964207469657200000000000000000000000000000000000000005f82015250565b5f61125a600c83610f46565b915061126582611226565b602082019050919050565b5f6020820190508181035f8301526112878161124e565b9050919050565b7f4e487b71000000000000000000000000000000000000000000000000000000005f52603260045260245ffd5b5f6112c582610e31565b91505f82036112d7576112d661108e565b5b60018203905091905056fea26469706673582212208ac713b0219eedebb418e8678d7bad959f4c08ea8bc58b53d4c4290ab52117de64736f6c634300081a0033",
					"opcodes": "PUSH1 0x80 PUSH1 0x40 MSTORE PUSH1 0x40 MLOAD DUP1 PUSH1 0x80 ADD PUSH1 0x40 MSTORE DUP1 PUSH0 PUSH2 0xFFFF AND DUP2 MSTORE PUSH1 0x20 ADD PUSH1 0x64 PUSH2 0xFFFF AND DUP2 MSTORE PUSH1 0x20 ADD PUSH2 0x1F4 PUSH2 0xFFFF AND DUP2 MSTORE PUSH1 0x20 ADD PUSH2 0x3E8 PUSH2 0xFFFF AND DUP2 MSTORE POP PUSH1 0x2 SWAP1 PUSH1 0x4 PUSH2 0x4A SWAP3 SWAP2 SWAP1 PUSH2 0x19E JUMP JUMPDEST POP CALLVALUE DUP1 ISZERO PUSH2 0x56 JUMPI PUSH0 DUP1 REVERT JUMPDEST POP CALLER PUSH0 PUSH20 0xFFFFFFFFFFFFFFFFFFFFFFFFFFFFFFFFFFFFFFFF AND DUP2 PUSH20 0xFFFFFFFFFFFFFFFFFFFFFFFFFFFFFFFFFFFFFFFF AND SUB PUSH2 0xC8 JUMPI PUSH0 PUSH1 0x40 MLOAD PUSH32 0x1E4FBDF700000000000000000000000000000000000000000000000000000000 DUP2 MSTORE PUSH1 0x4 ADD PUSH2 0xBF SWAP2 SWAP1 PUSH2 0x249 JUMP JUMPDEST PUSH1 0x40 MLOAD DUP1 SWAP2 SUB SWAP1 REVERT JUMPDEST PUSH2 0xD7 DUP2 PUSH2 0xDD PUSH1 0x20 SHL PUSH1 0x20 SHR JUMP JUMPDEST POP PUSH2 0x262 JUMP JUMPDEST PUSH0 DUP1 PUSH0 SWAP1 SLOAD SWAP1 PUSH2 0x100 EXP SWAP1 DIV PUSH20 0xFFFFFFFFFFFFFFFFFFFFFFFFFFFFFFFFFFFFFFFF AND SWAP1 POP DUP2 PUSH0 DUP1 PUSH2 0x100 EXP DUP2 SLOAD DUP2 PUSH20 0xFFFFFFFFFFFFFFFFFFFFFFFFFFFFFFFFFFFFFFFF MUL NOT AND SWAP1 DUP4 PUSH20 0xFFFFFFFFFFFFFFFFFFFFFFFFFFFFFFFFFFFFFFFF AND MUL OR SWAP1 SSTORE POP DUP2 PUSH20 0xFFFFFFFFFFFFFFFFFFFFFFFFFFFFFFFFFFFFFFFF AND DUP2 PUSH20 0xFFFFFFFFFFFFFFFFFFFFFFFFFFFFFFFFFFFFFFFF AND PUSH32 0x8BE0079C531659141344CD1FD0A4F28419497F9722A3DAAFE3B4186F6B6457E0 PUSH1 0x40 MLOAD PUSH1 0x40 MLOAD DUP1 SWAP2 SUB SWAP1 LOG3 POP POP JUMP JUMPDEST DUP3 DUP1 SLOAD DUP3 DUP3 SSTORE SWAP1 PUSH0 MSTORE PUSH1 0x20 PUSH0 KECCAK256 SWAP1 DUP2 ADD SWAP3 DUP3 ISZERO PUSH2 0x1DE JUMPI SWAP2 PUSH1 0x20 MUL DUP3 ADD JUMPDEST DUP3 DUP2 GT ISZERO PUSH2 0x1DD JUMPI DUP3 MLOAD DUP3 SWAP1 PUSH2 0xFFFF AND SWAP1 SSTORE SWAP2 PUSH1 0x20 ADD SWAP2 SWAP1 PUSH1 0x1 ADD SWAP1 PUSH2 0x1BC JUMP JUMPDEST JUMPDEST POP SWAP1 POP PUSH2 0x1EB SWAP2 SWAP1 PUSH2 0x1EF JUMP JUMPDEST POP SWAP1 JUMP JUMPDEST JUMPDEST DUP1 DUP3 GT ISZERO PUSH2 0x206 JUMPI PUSH0 DUP2 PUSH0 SWAP1 SSTORE POP PUSH1 0x1 ADD PUSH2 0x1F0 JUMP JUMPDEST POP SWAP1 JUMP JUMPDEST PUSH0 PUSH20 0xFFFFFFFFFFFFFFFFFFFFFFFFFFFFFFFFFFFFFFFF DUP3 AND SWAP1 POP SWAP2 SWAP1 POP JUMP JUMPDEST PUSH0 PUSH2 0x233 DUP3 PUSH2 0x20A JUMP JUMPDEST SWAP1 POP SWAP2 SWAP1 POP JUMP JUMPDEST PUSH2 0x243 DUP2 PUSH2 0x229 JUMP JUMPDEST DUP3 MSTORE POP POP JUMP JUMPDEST PUSH0 PUSH1 0x20 DUP3 ADD SWAP1 POP PUSH2 0x25C PUSH0 DUP4 ADD DUP5 PUSH2 0x23A JUMP JUMPDEST SWAP3 SWAP2 POP POP JUMP JUMPDEST PUSH2 0x1318 DUP1 PUSH2 0x26F PUSH0 CODECOPY PUSH0 RETURN INVALID PUSH1 0x80 PUSH1 0x40 MSTORE CALLVALUE DUP1 ISZERO PUSH2 0xF JUMPI PUSH0 DUP1 REVERT JUMPDEST POP PUSH1 0x4 CALLDATASIZE LT PUSH2 0x9C JUMPI PUSH0 CALLDATALOAD PUSH1 0xE0 SHR DUP1 PUSH4 0xAEEFE31F GT PUSH2 0x64 JUMPI DUP1 PUSH4 0xAEEFE31F EQ PUSH2 0x134 JUMPI DUP1 PUSH4 0xB85DA8D2 EQ PUSH2 0x164 JUMPI DUP1 PUSH4 0xDE8F4C49 EQ PUSH2 0x180 JUMPI DUP1 PUSH4 0xE4D2620E EQ PUSH2 0x1B0 JUMPI DUP1 PUSH4 0xF2FDE38B EQ PUSH2 0x1E0 JUMPI PUSH2 0x9C JUMP JUMPDEST DUP1 PUSH4 0x2199D5CD EQ PUSH2 0xA0 JUMPI DUP1 PUSH4 0x715018A6 EQ PUSH2 0xBC JUMPI DUP1 PUSH4 0x8DA5CB5B EQ PUSH2 0xC6 JUMPI DUP1 PUSH4 0x987EE156 EQ PUSH2 0xE4 JUMPI DUP1 PUSH4 0xAD7B985E EQ PUSH2 0x118 JUMPI JUMPDEST PUSH0 DUP1 REVERT JUMPDEST PUSH2 0xBA PUSH1 0x4 DUP1 CALLDATASIZE SUB DUP2 ADD SWAP1 PUSH2 0xB5 SWAP2 SWAP1 PUSH2 0xDDE JUMP JUMPDEST PUSH2 0x1FC JUMP JUMPDEST STOP JUMPDEST PUSH2 0xC4 PUSH2 0x3EC JUMP JUMPDEST STOP JUMPDEST PUSH2 0xCE PUSH2 0x3FF JUMP JUMPDEST PUSH1 0x40 MLOAD PUSH2 0xDB SWAP2 SWAP1 PUSH2 0xE18 JUMP JUMPDEST PUSH1 0x40 MLOAD DUP1 SWAP2 SUB SWAP1 RETURN JUMPDEST PUSH2 0xFE PUSH1 0x4 DUP1 CALLDATASIZE SUB DUP2 ADD SWAP1 PUSH2 0xF9 SWAP2 SWAP1 PUSH2 0xDDE JUMP JUMPDEST PUSH2 0x426 JUMP JUMPDEST PUSH1 0x40 MLOAD PUSH2 0x10F SWAP6 SWAP5 SWAP4 SWAP3 SWAP2 SWAP1 PUSH2 0xE49 JUMP JUMPDEST PUSH1 0x40 MLOAD DUP1 SWAP2 SUB SWAP1 RETURN JUMPDEST PUSH2 0x132 PUSH1 0x4 DUP1 CALLDATASIZE SUB DUP2 ADD SWAP1 PUSH2 0x12D SWAP2 SWAP1 PUSH2 0xDDE JUMP JUMPDEST PUSH2 0x4DD JUMP JUMPDEST STOP JUMPDEST PUSH2 0x14E PUSH1 0x4 DUP1 CALLDATASIZE SUB DUP2 ADD SWAP1 PUSH2 0x149 SWAP2 SWAP1 PUSH2 0xDDE JUMP JUMPDEST PUSH2 0x73F JUMP JUMPDEST PUSH1 0x40 MLOAD PUSH2 0x15B SWAP2 SWAP1 PUSH2 0xE9A JUMP JUMPDEST PUSH1 0x40 MLOAD DUP1 SWAP2 SUB SWAP1 RETURN JUMPDEST PUSH2 0x17E PUSH1 0x4 DUP1 CALLDATASIZE SUB DUP2 ADD SWAP1 PUSH2 0x179 SWAP2 SWAP1 PUSH2 0xEDD JUMP JUMPDEST PUSH2 0x787 JUMP JUMPDEST STOP JUMPDEST PUSH2 0x19A PUSH1 0x4 DUP1 CALLDATASIZE SUB DUP2 ADD SWAP1 PUSH2 0x195 SWAP2 SWAP1 PUSH2 0xF1B JUMP JUMPDEST PUSH2 0x995 JUMP JUMPDEST PUSH1 0x40 MLOAD PUSH2 0x1A7 SWAP2 SWAP1 PUSH2 0xE9A JUMP JUMPDEST PUSH1 0x40 MLOAD DUP1 SWAP2 SUB SWAP1 RETURN JUMPDEST PUSH2 0x1CA PUSH1 0x4 DUP1 CALLDATASIZE SUB DUP2 ADD SWAP1 PUSH2 0x1C5 SWAP2 SWAP1 PUSH2 0xDDE JUMP JUMPDEST PUSH2 0xA01 JUMP JUMPDEST PUSH1 0x40 MLOAD PUSH2 0x1D7 SWAP2 SWAP1 PUSH2 0xE9A JUMP JUMPDEST PUSH1 0x40 MLOAD DUP1 SWAP2 SUB SWAP1 RETURN JUMPDEST PUSH2 0x1FA PUSH1 0x4 DUP1 CALLDATASIZE SUB DUP2 ADD SWAP1 PUSH2 0x1F5 SWAP2 SWAP1 PUSH2 0xDDE JUMP JUMPDEST PUSH2 0xA4A JUMP JUMPDEST STOP JUMPDEST PUSH2 0x204 PUSH2 0xACE JUMP JUMPDEST PUSH0 PUSH20 0xFFFFFFFFFFFFFFFFFFFFFFFFFFFFFFFFFFFFFFFF AND DUP2 PUSH20 0xFFFFFFFFFFFFFFFFFFFFFFFFFFFFFFFFFFFFFFFF AND SUB PUSH2 0x272 JUMPI PUSH1 0x40 MLOAD PUSH32 0x8C379A000000000000000000000000000000000000000000000000000000000 DUP2 MSTORE PUSH1 0x4 ADD PUSH2 0x269 SWAP1 PUSH2 0xFA0 JUMP JUMPDEST PUSH1 0x40 MLOAD DUP1 SWAP2 SUB SWAP1 REVERT JUMPDEST PUSH0 PUSH1 0x1 PUSH0 DUP4 PUSH20 0xFFFFFFFFFFFFFFFFFFFFFFFFFFFFFFFFFFFFFFFF AND PUSH20 0xFFFFFFFFFFFFFFFFFFFFFFFFFFFFFFFFFFFFFFFF AND DUP2 MSTORE PUSH1 0x20 ADD SWAP1 DUP2 MSTORE PUSH1 0x20 ADD PUSH0 KECCAK256 PUSH1 0x4 ADD SLOAD EQ PUSH2 0x2F4 JUMPI PUSH1 0x40 MLOAD PUSH32 0x8C379A000000000000000000000000000000000000000000000000000000000 DUP2 MSTORE PUSH1 0x4 ADD PUSH2 0x2EB SWAP1 PUSH2 0x1008 JUMP JUMPDEST PUSH1 0x40 MLOAD DUP1 SWAP2 SUB SWAP1 REVERT JUMPDEST PUSH1 0x40 MLOAD DUP1 PUSH1 0xC0 ADD PUSH1 0x40 MSTORE DUP1 PUSH0 DUP2 MSTORE PUSH1 0x20 ADD PUSH0 DUP2 MSTORE PUSH1 0x20 ADD PUSH0 DUP2 MSTORE PUSH1 0x20 ADD PUSH0 DUP2 MSTORE PUSH1 0x20 ADD TIMESTAMP DUP2 MSTORE PUSH1 0x20 ADD PUSH0 DUP2 MSTORE POP PUSH1 0x1 PUSH0 DUP4 PUSH20 0xFFFFFFFFFFFFFFFFFFFFFFFFFFFFFFFFFFFFFFFF AND PUSH20 0xFFFFFFFFFFFFFFFFFFFFFFFFFFFFFFFFFFFFFFFF AND DUP2 MSTORE PUSH1 0x20 ADD SWAP1 DUP2 MSTORE PUSH1 0x20 ADD PUSH0 KECCAK256 PUSH0 DUP3 ADD MLOAD DUP2 PUSH0 ADD SSTORE PUSH1 0x20 DUP3 ADD MLOAD DUP2 PUSH1 0x1 ADD SSTORE PUSH1 0x40 DUP3 ADD MLOAD DUP2 PUSH1 0x2 ADD SSTORE PUSH1 0x60 DUP3 ADD MLOAD DUP2 PUSH1 0x3 ADD SSTORE PUSH1 0x80 DUP3 ADD MLOAD DUP2 PUSH1 0x4 ADD SSTORE PUSH1 0xA0 DUP3 ADD MLOAD DUP2 PUSH1 0x5 ADD SSTORE SWAP1 POP POP DUP1 PUSH20 0xFFFFFFFFFFFFFFFFFFFFFFFFFFFFFFFFFFFFFFFF AND PUSH32 0xE29D35093005F4D575E1003753426B57A7F64378BA73332EEF9C6CCC2B8DECD6 TIMESTAMP PUSH1 0x40 MLOAD PUSH2 0x3E1 SWAP2 SWAP1 PUSH2 0xE9A JUMP JUMPDEST PUSH1 0x40 MLOAD DUP1 SWAP2 SUB SWAP1 LOG2 POP JUMP JUMPDEST PUSH2 0x3F4 PUSH2 0xACE JUMP JUMPDEST PUSH2 0x3FD PUSH0 PUSH2 0xB55 JUMP JUMPDEST JUMP JUMPDEST PUSH0 DUP1 PUSH0 SWAP1 SLOAD SWAP1 PUSH2 0x100 EXP SWAP1 DIV PUSH20 0xFFFFFFFFFFFFFFFFFFFFFFFFFFFFFFFFFFFFFFFF AND SWAP1 POP SWAP1 JUMP JUMPDEST PUSH0 DUP1 PUSH0 DUP1 PUSH0 DUP1 PUSH1 0x1 PUSH0 DUP9 PUSH20 0xFFFFFFFFFFFFFFFFFFFFFFFFFFFFFFFFFFFFFFFF AND PUSH20 0xFFFFFFFFFFFFFFFFFFFFFFFFFFFFFFFFFFFFFFFF AND DUP2 MSTORE PUSH1 0x20 ADD SWAP1 DUP2 MSTORE PUSH1 0x20 ADD PUSH0 KECCAK256 PUSH1 0x40 MLOAD DUP1 PUSH1 0xC0 ADD PUSH1 0x40 MSTORE SWAP1 DUP2 PUSH0 DUP3 ADD SLOAD DUP2 MSTORE PUSH1 0x20 ADD PUSH1 0x1 DUP3 ADD SLOAD DUP2 MSTORE PUSH1 0x20 ADD PUSH1 0x2 DUP3 ADD SLOAD DUP2 MSTORE PUSH1 0x20 ADD PUSH1 0x3 DUP3 ADD SLOAD DUP2 MSTORE PUSH1 0x20 ADD PUSH1 0x4 DUP3 ADD SLOAD DUP2 MSTORE PUSH1 0x20 ADD PUSH1 0x5 DUP3 ADD SLOAD DUP2 MSTORE POP POP SWAP1 POP DUP1 PUSH0 ADD MLOAD DUP2 PUSH1 0x20 ADD MLOAD DUP3 PUSH1 0x40 ADD MLOAD DUP4 PUSH1 0x80 ADD MLOAD DUP5 PUSH1 0xA0 ADD MLOAD SWAP6 POP SWAP6 POP SWAP6 POP SWAP6 POP SWAP6 POP POP SWAP2 SWAP4 SWAP6 SWAP1 SWAP3 SWAP5 POP JUMP JUMPDEST DUP1 PUSH0 PUSH20 0xFFFFFFFFFFFFFFFFFFFFFFFFFFFFFFFFFFFFFFFF AND DUP2 PUSH20 0xFFFFFFFFFFFFFFFFFFFFFFFFFFFFFFFFFFFFFFFF AND SUB PUSH2 0x54C JUMPI PUSH1 0x40 MLOAD PUSH32 0x8C379A000000000000000000000000000000000000000000000000000000000 DUP2 MSTORE PUSH1 0x4 ADD PUSH2 0x543 SWAP1 PUSH2 0xFA0 JUMP JUMPDEST PUSH1 0x40 MLOAD DUP1 SWAP2 SUB SWAP1 REVERT JUMPDEST PUSH0 PUSH1 0x1 PUSH0 DUP4 PUSH20 0xFFFFFFFFFFFFFFFFFFFFFFFFFFFFFFFFFFFFFFFF AND PUSH20 0xFFFFFFFFFFFFFFFFFFFFFFFFFFFFFFFFFFFFFFFF AND DUP2 MSTORE PUSH1 0x20 ADD SWAP1 DUP2 MSTORE PUSH1 0x20 ADD PUSH0 KECCAK256 PUSH1 0x4 ADD SLOAD GT PUSH2 0x5CE JUMPI PUSH1 0x40 MLOAD PUSH32 0x8C379A000000000000000000000000000000000000000000000000000000000 DUP2 MSTORE PUSH1 0x4 ADD PUSH2 0x5C5 SWAP1 PUSH2 0x1070 JUMP JUMPDEST PUSH1 0x40 MLOAD DUP1 SWAP2 SUB SWAP1 REVERT JUMPDEST PUSH1 0x64 PUSH1 0x1 PUSH0 DUP5 PUSH20 0xFFFFFFFFFFFFFFFFFFFFFFFFFFFFFFFFFFFFFFFF AND PUSH20 0xFFFFFFFFFFFFFFFFFFFFFFFFFFFFFFFFFFFFFFFF AND DUP2 MSTORE PUSH1 0x20 ADD SWAP1 DUP2 MSTORE PUSH1 0x20 ADD PUSH0 KECCAK256 PUSH1 0x3 ADD SLOAD PUSH2 0x61B SWAP2 SWAP1 PUSH2 0x10BB JUMP JUMPDEST NUMBER LT ISZERO PUSH2 0x65D JUMPI PUSH1 0x40 MLOAD PUSH32 0x8C379A000000000000000000000000000000000000000000000000000000000 DUP2 MSTORE PUSH1 0x4 ADD PUSH2 0x654 SWAP1 PUSH2 0x1138 JUMP JUMPDEST PUSH1 0x40 MLOAD DUP1 SWAP2 SUB SWAP1 REVERT JUMPDEST PUSH0 PUSH1 0x1 PUSH0 DUP5 PUSH20 0xFFFFFFFFFFFFFFFFFFFFFFFFFFFFFFFFFFFFFFFF AND PUSH20 0xFFFFFFFFFFFFFFFFFFFFFFFFFFFFFFFFFFFFFFFF AND DUP2 MSTORE PUSH1 0x20 ADD SWAP1 DUP2 MSTORE PUSH1 0x20 ADD PUSH0 KECCAK256 SWAP1 POP PUSH1 0xA DUP2 PUSH0 ADD PUSH0 DUP3 DUP3 SLOAD PUSH2 0x6B0 SWAP2 SWAP1 PUSH2 0x10BB JUMP JUMPDEST SWAP3 POP POP DUP2 SWAP1 SSTORE POP PUSH1 0xA DUP2 PUSH1 0x1 ADD PUSH0 DUP3 DUP3 SLOAD PUSH2 0x6CB SWAP2 SWAP1 PUSH2 0x10BB JUMP JUMPDEST SWAP3 POP POP DUP2 SWAP1 SSTORE POP NUMBER DUP2 PUSH1 0x3 ADD DUP2 SWAP1 SSTORE POP DUP3 PUSH20 0xFFFFFFFFFFFFFFFFFFFFFFFFFFFFFFFFFFFFFFFF AND PUSH32 0x1A420B6F135DA3E0F01110E6D24EF8D576423F138E06BAE4DA97B28929FCDED0 PUSH1 0xA DUP4 PUSH0 ADD SLOAD TIMESTAMP PUSH1 0x40 MLOAD PUSH2 0x729 SWAP4 SWAP3 SWAP2 SWAP1 PUSH2 0x1156 JUMP JUMPDEST PUSH1 0x40 MLOAD DUP1 SWAP2 SUB SWAP1 LOG2 PUSH2 0x73A DUP4 PUSH2 0xC16 JUMP JUMPDEST POP POP POP JUMP JUMPDEST PUSH0 PUSH1 0x1 PUSH0 DUP4 PUSH20 0xFFFFFFFFFFFFFFFFFFFFFFFFFFFFFFFFFFFFFFFF AND PUSH20 0xFFFFFFFFFFFFFFFFFFFFFFFFFFFFFFFFFFFFFFFF AND DUP2 MSTORE PUSH1 0x20 ADD SWAP1 DUP2 MSTORE PUSH1 0x20 ADD PUSH0 KECCAK256 PUSH0 ADD SLOAD SWAP1 POP SWAP2 SWAP1 POP JUMP JUMPDEST DUP2 PUSH0 PUSH20 0xFFFFFFFFFFFFFFFFFFFFFFFFFFFFFFFFFFFFFFFF AND DUP2 PUSH20 0xFFFFFFFFFFFFFFFFFFFFFFFFFFFFFFFFFFFFFFFF AND SUB PUSH2 0x7F6 JUMPI PUSH1 0x40 MLOAD PUSH32 0x8C379A000000000000000000000000000000000000000000000000000000000 DUP2 MSTORE PUSH1 0x4 ADD PUSH2 0x7ED SWAP1 PUSH2 0xFA0 JUMP JUMPDEST PUSH1 0x40 MLOAD DUP1 SWAP2 SUB SWAP1 REVERT JUMPDEST PUSH0 PUSH1 0x1 PUSH0 DUP4 PUSH20 0xFFFFFFFFFFFFFFFFFFFFFFFFFFFFFFFFFFFFFFFF AND PUSH20 0xFFFFFFFFFFFFFFFFFFFFFFFFFFFFFFFFFFFFFFFF AND DUP2 MSTORE PUSH1 0x20 ADD SWAP1 DUP2 MSTORE PUSH1 0x20 ADD PUSH0 KECCAK256 PUSH1 0x4 ADD SLOAD GT PUSH2 0x878 JUMPI PUSH1 0x40 MLOAD PUSH32 0x8C379A000000000000000000000000000000000000000000000000000000000 DUP2 MSTORE PUSH1 0x4 ADD PUSH2 0x86F SWAP1 PUSH2 0x1070 JUMP JUMPDEST PUSH1 0x40 MLOAD DUP1 SWAP2 SUB SWAP1 REVERT JUMPDEST PUSH0 PUSH1 0x1 PUSH0 DUP6 PUSH20 0xFFFFFFFFFFFFFFFFFFFFFFFFFFFFFFFFFFFFFFFF AND PUSH20 0xFFFFFFFFFFFFFFFFFFFFFFFFFFFFFFFFFFFFFFFF AND DUP2 MSTORE PUSH1 0x20 ADD SWAP1 DUP2 MSTORE PUSH1 0x20 ADD PUSH0 KECCAK256 SWAP1 POP DUP3 DUP2 PUSH0 ADD SLOAD LT ISZERO PUSH2 0x8FE JUMPI PUSH1 0x40 MLOAD PUSH32 0x8C379A000000000000000000000000000000000000000000000000000000000 DUP2 MSTORE PUSH1 0x4 ADD PUSH2 0x8F5 SWAP1 PUSH2 0x11D5 JUMP JUMPDEST PUSH1 0x40 MLOAD DUP1 SWAP2 SUB SWAP1 REVERT JUMPDEST DUP3 DUP2 PUSH0 ADD PUSH0 DUP3 DUP3 SLOAD PUSH2 0x910 SWAP2 SWAP1 PUSH2 0x11F3 JUMP JUMPDEST SWAP3 POP POP DUP2 SWAP1 SSTORE POP DUP3 DUP2 PUSH1 0x2 ADD PUSH0 DUP3 DUP3 SLOAD PUSH2 0x92A SWAP2 SWAP1 PUSH2 0x10BB JUMP JUMPDEST SWAP3 POP POP DUP2 SWAP1 SSTORE POP DUP4 PUSH20 0xFFFFFFFFFFFFFFFFFFFFFFFFFFFFFFFFFFFFFFFF AND PUSH32 0x90138E15F43CE1520BD445151B279C8047B276F6DC4D41F9FAE44CD7ECFE4E7E DUP5 DUP4 PUSH0 ADD SLOAD TIMESTAMP PUSH1 0x40 MLOAD PUSH2 0x97E SWAP4 SWAP3 SWAP2 SWAP1 PUSH2 0x1156 JUMP JUMPDEST PUSH1 0x40 MLOAD DUP1 SWAP2 SUB SWAP1 LOG2 PUSH2 0x98F DUP5 PUSH2 0xC16 JUMP JUMPDEST POP POP POP POP JUMP JUMPDEST PUSH0 PUSH1 0x2 DUP1 SLOAD SWAP1 POP DUP3 LT PUSH2 0x9DD JUMPI PUSH1 0x40 MLOAD PUSH32 0x8C379A000000000000000000000000000000000000000000000000000000000 DUP2 MSTORE PUSH1 0x4 ADD PUSH2 0x9D4 SWAP1 PUSH2 0x1270 JUMP JUMPDEST PUSH1 0x40 MLOAD DUP1 SWAP2 SUB SWAP1 REVERT JUMPDEST PUSH1 0x2 DUP3 DUP2 SLOAD DUP2 LT PUSH2 0x9F1 JUMPI PUSH2 0x9F0 PUSH2 0x128E JUMP JUMPDEST JUMPDEST SWAP1 PUSH0 MSTORE PUSH1 0x20 PUSH0 KECCAK256 ADD SLOAD SWAP1 POP SWAP2 SWAP1 POP JUMP JUMPDEST PUSH0 PUSH1 0x1 PUSH0 DUP4 PUSH20 0xFFFFFFFFFFFFFFFFFFFFFFFFFFFFFFFFFFFFFFFF AND PUSH20 0xFFFFFFFFFFFFFFFFFFFFFFFFFFFFFFFFFFFFFFFF AND DUP2 MSTORE PUSH1 0x20 ADD SWAP1 DUP2 MSTORE PUSH1 0x20 ADD PUSH0 KECCAK256 PUSH1 0x5 ADD SLOAD SWAP1 POP SWAP2 SWAP1 POP JUMP JUMPDEST PUSH2 0xA52 PUSH2 0xACE JUMP JUMPDEST PUSH0 PUSH20 0xFFFFFFFFFFFFFFFFFFFFFFFFFFFFFFFFFFFFFFFF AND DUP2 PUSH20 0xFFFFFFFFFFFFFFFFFFFFFFFFFFFFFFFFFFFFFFFF AND SUB PUSH2 0xAC2 JUMPI PUSH0 PUSH1 0x40 MLOAD PUSH32 0x1E4FBDF700000000000000000000000000000000000000000000000000000000 DUP2 MSTORE PUSH1 0x4 ADD PUSH2 0xAB9 SWAP2 SWAP1 PUSH2 0xE18 JUMP JUMPDEST PUSH1 0x40 MLOAD DUP1 SWAP2 SUB SWAP1 REVERT JUMPDEST PUSH2 0xACB DUP2 PUSH2 0xB55 JUMP JUMPDEST POP JUMP JUMPDEST PUSH2 0xAD6 PUSH2 0xD79 JUMP JUMPDEST PUSH20 0xFFFFFFFFFFFFFFFFFFFFFFFFFFFFFFFFFFFFFFFF AND PUSH2 0xAF4 PUSH2 0x3FF JUMP JUMPDEST PUSH20 0xFFFFFFFFFFFFFFFFFFFFFFFFFFFFFFFFFFFFFFFF AND EQ PUSH2 0xB53 JUMPI PUSH2 0xB17 PUSH2 0xD79 JUMP JUMPDEST PUSH1 0x40 MLOAD PUSH32 0x118CDAA700000000000000000000000000000000000000000000000000000000 DUP2 MSTORE PUSH1 0x4 ADD PUSH2 0xB4A SWAP2 SWAP1 PUSH2 0xE18 JUMP JUMPDEST PUSH1 0x40 MLOAD DUP1 SWAP2 SUB SWAP1 REVERT JUMPDEST JUMP JUMPDEST PUSH0 DUP1 PUSH0 SWAP1 SLOAD SWAP1 PUSH2 0x100 EXP SWAP1 DIV PUSH20 0xFFFFFFFFFFFFFFFFFFFFFFFFFFFFFFFFFFFFFFFF AND SWAP1 POP DUP2 PUSH0 DUP1 PUSH2 0x100 EXP DUP2 SLOAD DUP2 PUSH20 0xFFFFFFFFFFFFFFFFFFFFFFFFFFFFFFFFFFFFFFFF MUL NOT AND SWAP1 DUP4 PUSH20 0xFFFFFFFFFFFFFFFFFFFFFFFFFFFFFFFFFFFFFFFF AND MUL OR SWAP1 SSTORE POP DUP2 PUSH20 0xFFFFFFFFFFFFFFFFFFFFFFFFFFFFFFFFFFFFFFFF AND DUP2 PUSH20 0xFFFFFFFFFFFFFFFFFFFFFFFFFFFFFFFFFFFFFFFF AND PUSH32 0x8BE0079C531659141344CD1FD0A4F28419497F9722A3DAAFE3B4186F6B6457E0 PUSH1 0x40 MLOAD PUSH1 0x40 MLOAD DUP1 SWAP2 SUB SWAP1 LOG3 POP POP JUMP JUMPDEST PUSH0 PUSH1 0x1 PUSH0 DUP4 PUSH20 0xFFFFFFFFFFFFFFFFFFFFFFFFFFFFFFFFFFFFFFFF AND PUSH20 0xFFFFFFFFFFFFFFFFFFFFFFFFFFFFFFFFFFFFFFFF AND DUP2 MSTORE PUSH1 0x20 ADD SWAP1 DUP2 MSTORE PUSH1 0x20 ADD PUSH0 KECCAK256 SWAP1 POP PUSH0 DUP2 PUSH1 0x5 ADD SLOAD SWAP1 POP PUSH0 DUP2 SWAP1 POP PUSH0 PUSH1 0x1 DUP4 PUSH2 0xC70 SWAP2 SWAP1 PUSH2 0x10BB JUMP JUMPDEST SWAP1 POP JUMPDEST PUSH1 0x2 DUP1 SLOAD SWAP1 POP DUP2 LT ISZERO PUSH2 0xCB7 JUMPI PUSH1 0x2 DUP2 DUP2 SLOAD DUP2 LT PUSH2 0xC94 JUMPI PUSH2 0xC93 PUSH2 0x128E JUMP JUMPDEST JUMPDEST SWAP1 PUSH0 MSTORE PUSH1 0x20 PUSH0 KECCAK256 ADD SLOAD DUP5 PUSH0 ADD SLOAD LT PUSH2 0xCAA JUMPI DUP1 SWAP2 POP JUMPDEST DUP1 DUP1 PUSH1 0x1 ADD SWAP2 POP POP PUSH2 0xC73 JUMP JUMPDEST POP PUSH0 DUP3 SWAP1 POP JUMPDEST PUSH0 DUP2 GT ISZERO PUSH2 0xD0F JUMPI PUSH1 0x2 DUP2 DUP2 SLOAD DUP2 LT PUSH2 0xCD9 JUMPI PUSH2 0xCD8 PUSH2 0x128E JUMP JUMPDEST JUMPDEST SWAP1 PUSH0 MSTORE PUSH1 0x20 PUSH0 KECCAK256 ADD SLOAD DUP5 PUSH0 ADD SLOAD LT ISZERO PUSH2 0xCFC JUMPI PUSH1 0x1 DUP2 PUSH2 0xCF9 SWAP2 SWAP1 PUSH2 0x11F3 JUMP JUMPDEST SWAP2 POP JUMPDEST DUP1 DUP1 PUSH2 0xD07 SWAP1 PUSH2 0x12BB JUMP JUMPDEST SWAP2 POP POP PUSH2 0xCBD JUMP JUMPDEST POP DUP2 DUP2 EQ PUSH2 0xD73 JUMPI DUP1 DUP4 PUSH1 0x5 ADD DUP2 SWAP1 SSTORE POP DUP4 PUSH20 0xFFFFFFFFFFFFFFFFFFFFFFFFFFFFFFFFFFFFFFFF AND PUSH32 0x88D765A84878C2ADCB81F6FE86F655749503ED376B92A4A9F27D4DB1A6E7BCEB DUP4 DUP4 TIMESTAMP PUSH1 0x40 MLOAD PUSH2 0xD6A SWAP4 SWAP3 SWAP2 SWAP1 PUSH2 0x1156 JUMP JUMPDEST PUSH1 0x40 MLOAD DUP1 SWAP2 SUB SWAP1 LOG2 JUMPDEST POP POP POP POP JUMP JUMPDEST PUSH0 CALLER SWAP1 POP SWAP1 JUMP JUMPDEST PUSH0 DUP1 REVERT JUMPDEST PUSH0 PUSH20 0xFFFFFFFFFFFFFFFFFFFFFFFFFFFFFFFFFFFFFFFF DUP3 AND SWAP1 POP SWAP2 SWAP1 POP JUMP JUMPDEST PUSH0 PUSH2 0xDAD DUP3 PUSH2 0xD84 JUMP JUMPDEST SWAP1 POP SWAP2 SWAP1 POP JUMP JUMPDEST PUSH2 0xDBD DUP2 PUSH2 0xDA3 JUMP JUMPDEST DUP2 EQ PUSH2 0xDC7 JUMPI PUSH0 DUP1 REVERT JUMPDEST POP JUMP JUMPDEST PUSH0 DUP2 CALLDATALOAD SWAP1 POP PUSH2 0xDD8 DUP2 PUSH2 0xDB4 JUMP JUMPDEST SWAP3 SWAP2 POP POP JUMP JUMPDEST PUSH0 PUSH1 0x20 DUP3 DUP5 SUB SLT ISZERO PUSH2 0xDF3 JUMPI PUSH2 0xDF2 PUSH2 0xD80 JUMP JUMPDEST JUMPDEST PUSH0 PUSH2 0xE00 DUP5 DUP3 DUP6 ADD PUSH2 0xDCA JUMP JUMPDEST SWAP2 POP POP SWAP3 SWAP2 POP POP JUMP JUMPDEST PUSH2 0xE12 DUP2 PUSH2 0xDA3 JUMP JUMPDEST DUP3 MSTORE POP POP JUMP JUMPDEST PUSH0 PUSH1 0x20 DUP3 ADD SWAP1 POP PUSH2 0xE2B PUSH0 DUP4 ADD DUP5 PUSH2 0xE09 JUMP JUMPDEST SWAP3 SWAP2 POP POP JUMP JUMPDEST PUSH0 DUP2 SWAP1 POP SWAP2 SWAP1 POP JUMP JUMPDEST PUSH2 0xE43 DUP2 PUSH2 0xE31 JUMP JUMPDEST DUP3 MSTORE POP POP JUMP JUMPDEST PUSH0 PUSH1 0xA0 DUP3 ADD SWAP1 POP PUSH2 0xE5C PUSH0 DUP4 ADD DUP9 PUSH2 0xE3A JUMP JUMPDEST PUSH2 0xE69 PUSH1 0x20 DUP4 ADD DUP8 PUSH2 0xE3A JUMP JUMPDEST PUSH2 0xE76 PUSH1 0x40 DUP4 ADD DUP7 PUSH2 0xE3A JUMP JUMPDEST PUSH2 0xE83 PUSH1 0x60 DUP4 ADD DUP6 PUSH2 0xE3A JUMP JUMPDEST PUSH2 0xE90 PUSH1 0x80 DUP4 ADD DUP5 PUSH2 0xE3A JUMP JUMPDEST SWAP7 SWAP6 POP POP POP POP POP POP JUMP JUMPDEST PUSH0 PUSH1 0x20 DUP3 ADD SWAP1 POP PUSH2 0xEAD PUSH0 DUP4 ADD DUP5 PUSH2 0xE3A JUMP JUMPDEST SWAP3 SWAP2 POP POP JUMP JUMPDEST PUSH2 0xEBC DUP2 PUSH2 0xE31 JUMP JUMPDEST DUP2 EQ PUSH2 0xEC6 JUMPI PUSH0 DUP1 REVERT JUMPDEST POP JUMP JUMPDEST PUSH0 DUP2 CALLDATALOAD SWAP1 POP PUSH2 0xED7 DUP2 PUSH2 0xEB3 JUMP JUMPDEST SWAP3 SWAP2 POP POP JUMP JUMPDEST PUSH0 DUP1 PUSH1 0x40 DUP4 DUP6 SUB SLT ISZERO PUSH2 0xEF3 JUMPI PUSH2 0xEF2 PUSH2 0xD80 JUMP JUMPDEST JUMPDEST PUSH0 PUSH2 0xF00 DUP6 DUP3 DUP7 ADD PUSH2 0xDCA JUMP JUMPDEST SWAP3 POP POP PUSH1 0x20 PUSH2 0xF11 DUP6 DUP3 DUP7 ADD PUSH2 0xEC9 JUMP JUMPDEST SWAP2 POP POP SWAP3 POP SWAP3 SWAP1 POP JUMP JUMPDEST PUSH0 PUSH1 0x20 DUP3 DUP5 SUB SLT ISZERO PUSH2 0xF30 JUMPI PUSH2 0xF2F PUSH2 0xD80 JUMP JUMPDEST JUMPDEST PUSH0 PUSH2 0xF3D DUP5 DUP3 DUP6 ADD PUSH2 0xEC9 JUMP JUMPDEST SWAP2 POP POP SWAP3 SWAP2 POP POP JUMP JUMPDEST PUSH0 DUP3 DUP3 MSTORE PUSH1 0x20 DUP3 ADD SWAP1 POP SWAP3 SWAP2 POP POP JUMP JUMPDEST PUSH32 0x496E76616C696420757365722061646472657373000000000000000000000000 PUSH0 DUP3 ADD MSTORE POP JUMP JUMPDEST PUSH0 PUSH2 0xF8A PUSH1 0x14 DUP4 PUSH2 0xF46 JUMP JUMPDEST SWAP2 POP PUSH2 0xF95 DUP3 PUSH2 0xF56 JUMP JUMPDEST PUSH1 0x20 DUP3 ADD SWAP1 POP SWAP2 SWAP1 POP JUMP JUMPDEST PUSH0 PUSH1 0x20 DUP3 ADD SWAP1 POP DUP2 DUP2 SUB PUSH0 DUP4 ADD MSTORE PUSH2 0xFB7 DUP2 PUSH2 0xF7E JUMP JUMPDEST SWAP1 POP SWAP2 SWAP1 POP JUMP JUMPDEST PUSH32 0x5573657220616C72656164792072656769737465726564000000000000000000 PUSH0 DUP3 ADD MSTORE POP JUMP JUMPDEST PUSH0 PUSH2 0xFF2 PUSH1 0x17 DUP4 PUSH2 0xF46 JUMP JUMPDEST SWAP2 POP PUSH2 0xFFD DUP3 PUSH2 0xFBE JUMP JUMPDEST PUSH1 0x20 DUP3 ADD SWAP1 POP SWAP2 SWAP1 POP JUMP JUMPDEST PUSH0 PUSH1 0x20 DUP3 ADD SWAP1 POP DUP2 DUP2 SUB PUSH0 DUP4 ADD MSTORE PUSH2 0x101F DUP2 PUSH2 0xFE6 JUMP JUMPDEST SWAP1 POP SWAP2 SWAP1 POP JUMP JUMPDEST PUSH32 0x55736572206E6F74207265676973746572656400000000000000000000000000 PUSH0 DUP3 ADD MSTORE POP JUMP JUMPDEST PUSH0 PUSH2 0x105A PUSH1 0x13 DUP4 PUSH2 0xF46 JUMP JUMPDEST SWAP2 POP PUSH2 0x1065 DUP3 PUSH2 0x1026 JUMP JUMPDEST PUSH1 0x20 DUP3 ADD SWAP1 POP SWAP2 SWAP1 POP JUMP JUMPDEST PUSH0 PUSH1 0x20 DUP3 ADD SWAP1 POP DUP2 DUP2 SUB PUSH0 DUP4 ADD MSTORE PUSH2 0x1087 DUP2 PUSH2 0x104E JUMP JUMPDEST SWAP1 POP SWAP2 SWAP1 POP JUMP JUMPDEST PUSH32 0x4E487B7100000000000000000000000000000000000000000000000000000000 PUSH0 MSTORE PUSH1 0x11 PUSH1 0x4 MSTORE PUSH1 0x24 PUSH0 REVERT JUMPDEST PUSH0 PUSH2 0x10C5 DUP3 PUSH2 0xE31 JUMP JUMPDEST SWAP2 POP PUSH2 0x10D0 DUP4 PUSH2 0xE31 JUMP JUMPDEST SWAP3 POP DUP3 DUP3 ADD SWAP1 POP DUP1 DUP3 GT ISZERO PUSH2 0x10E8 JUMPI PUSH2 0x10E7 PUSH2 0x108E JUMP JUMPDEST JUMPDEST SWAP3 SWAP2 POP POP JUMP JUMPDEST PUSH32 0x546F6F20736F6F6E20666F72206E657720706F696E7473000000000000000000 PUSH0 DUP3 ADD MSTORE POP JUMP JUMPDEST PUSH0 PUSH2 0x1122 PUSH1 0x17 DUP4 PUSH2 0xF46 JUMP JUMPDEST SWAP2 POP PUSH2 0x112D DUP3 PUSH2 0x10EE JUMP JUMPDEST PUSH1 0x20 DUP3 ADD SWAP1 POP SWAP2 SWAP1 POP JUMP JUMPDEST PUSH0 PUSH1 0x20 DUP3 ADD SWAP1 POP DUP2 DUP2 SUB PUSH0 DUP4 ADD MSTORE PUSH2 0x114F DUP2 PUSH2 0x1116 JUMP JUMPDEST SWAP1 POP SWAP2 SWAP1 POP JUMP JUMPDEST PUSH0 PUSH1 0x60 DUP3 ADD SWAP1 POP PUSH2 0x1169 PUSH0 DUP4 ADD DUP7 PUSH2 0xE3A JUMP JUMPDEST PUSH2 0x1176 PUSH1 0x20 DUP4 ADD DUP6 PUSH2 0xE3A JUMP JUMPDEST PUSH2 0x1183 PUSH1 0x40 DUP4 ADD DUP5 PUSH2 0xE3A JUMP JUMPDEST SWAP5 SWAP4 POP POP POP POP JUMP JUMPDEST PUSH32 0x496E73756666696369656E7420706F696E747300000000000000000000000000 PUSH0 DUP3 ADD MSTORE POP JUMP JUMPDEST PUSH0 PUSH2 0x11BF PUSH1 0x13 DUP4 PUSH2 0xF46 JUMP JUMPDEST SWAP2 POP PUSH2 0x11CA DUP3 PUSH2 0x118B JUMP JUMPDEST PUSH1 0x20 DUP3 ADD SWAP1 POP SWAP2 SWAP1 POP JUMP JUMPDEST PUSH0 PUSH1 0x20 DUP3 ADD SWAP1 POP DUP2 DUP2 SUB PUSH0 DUP4 ADD MSTORE PUSH2 0x11EC DUP2 PUSH2 0x11B3 JUMP JUMPDEST SWAP1 POP SWAP2 SWAP1 POP JUMP JUMPDEST PUSH0 PUSH2 0x11FD DUP3 PUSH2 0xE31 JUMP JUMPDEST SWAP2 POP PUSH2 0x1208 DUP4 PUSH2 0xE31 JUMP JUMPDEST SWAP3 POP DUP3 DUP3 SUB SWAP1 POP DUP2 DUP2 GT ISZERO PUSH2 0x1220 JUMPI PUSH2 0x121F PUSH2 0x108E JUMP JUMPDEST JUMPDEST SWAP3 SWAP2 POP POP JUMP JUMPDEST PUSH32 0x496E76616C696420746965720000000000000000000000000000000000000000 PUSH0 DUP3 ADD MSTORE POP JUMP JUMPDEST PUSH0 PUSH2 0x125A PUSH1 0xC DUP4 PUSH2 0xF46 JUMP JUMPDEST SWAP2 POP PUSH2 0x1265 DUP3 PUSH2 0x1226 JUMP JUMPDEST PUSH1 0x20 DUP3 ADD SWAP1 POP SWAP2 SWAP1 POP JUMP JUMPDEST PUSH0 PUSH1 0x20 DUP3 ADD SWAP1 POP DUP2 DUP2 SUB PUSH0 DUP4 ADD MSTORE PUSH2 0x1287 DUP2 PUSH2 0x124E JUMP JUMPDEST SWAP1 POP SWAP2 SWAP1 POP JUMP JUMPDEST PUSH32 0x4E487B7100000000000000000000000000000000000000000000000000000000 PUSH0 MSTORE PUSH1 0x32 PUSH1 0x4 MSTORE PUSH1 0x24 PUSH0 REVERT JUMPDEST PUSH0 PUSH2 0x12C5 DUP3 PUSH2 0xE31 JUMP JUMPDEST SWAP2 POP PUSH0 DUP3 SUB PUSH2 0x12D7 JUMPI PUSH2 0x12D6 PUSH2 0x108E JUMP JUMPDEST JUMPDEST PUSH1 0x1 DUP3 SUB SWAP1 POP SWAP2 SWAP1 POP JUMP INVALID LOG2 PUSH5 0x6970667358 0x22 SLT KECCAK256 DUP11 0xC7 SGT 0xB0 0x21 SWAP15 0xED 0xEB 0xB4 XOR 0xE8 PUSH8 0x8D7BAD959F4C08EA DUP12 0xC5 DUP12 MSTORE8 0xD4 0xC4 0x29 EXP 0xB5 0x21 OR 0xDE PUSH5 0x736F6C6343 STOP ADDMOD BYTE STOP CALLER "
				},
				"gasEstimates": {
					"creation": {
						"codeDepositCost": "977600",
						"executionCost": "infinite",
						"totalCost": "infinite"
					},
					"external": {
						"addPoints(address)": "infinite",
						"getTierThreshold(uint256)": "infinite",
						"getUserPoints(address)": "2834",
						"getUserProfile(address)": "infinite",
						"getUserTier(address)": "2901",
						"owner()": "2560",
						"redeemPoints(address,uint256)": "infinite",
						"registerUser(address)": "infinite",
						"renounceOwnership()": "infinite",
						"transferOwnership(address)": "infinite"
					},
					"internal": {
						"_checkAndUpdateTier(address)": "infinite"
					}
				},
				"methodIdentifiers": {
					"addPoints(address)": "ad7b985e",
					"getTierThreshold(uint256)": "de8f4c49",
					"getUserPoints(address)": "aeefe31f",
					"getUserProfile(address)": "987ee156",
					"getUserTier(address)": "e4d2620e",
					"owner()": "8da5cb5b",
					"redeemPoints(address,uint256)": "b85da8d2",
					"registerUser(address)": "2199d5cd",
					"renounceOwnership()": "715018a6",
					"transferOwnership(address)": "f2fde38b"
				}
			},
			"storageLayout": {
				"storage": [
					{
						"astId": 8,
						"contract": "LoyaltyProgram.sol:LoyaltyProgram",
						"label": "_owner",
						"offset": 0,
						"slot": "0",
						"type": "t_address"
					},
					{
						"astId": 200,
						"contract": "LoyaltyProgram.sol:LoyaltyProgram",
						"label": "userProfiles",
						"offset": 0,
						"slot": "1",
						"type": "t_mapping(t_address,t_struct(UserProfile)195_storage)"
					},
					{
						"astId": 214,
						"contract": "LoyaltyProgram.sol:LoyaltyProgram",
						"label": "tierThresholds",
						"offset": 0,
						"slot": "2",
						"type": "t_array(t_uint256)dyn_storage"
					}
				],
				"types": {
					"t_address": {
						"encoding": "inplace",
						"label": "address",
						"numberOfBytes": "20"
					},
					"t_array(t_uint256)dyn_storage": {
						"base": "t_uint256",
						"encoding": "dynamic_array",
						"label": "uint256[]",
						"numberOfBytes": "32"
					},
					"t_mapping(t_address,t_struct(UserProfile)195_storage)": {
						"encoding": "mapping",
						"key": "t_address",
						"label": "mapping(address => struct LoyaltyProgram.UserProfile)",
						"numberOfBytes": "32",
						"value": "t_struct(UserProfile)195_storage"
					},
					"t_struct(UserProfile)195_storage": {
						"encoding": "inplace",
						"label": "struct LoyaltyProgram.UserProfile",
						"members": [
							{
								"astId": 184,
								"contract": "LoyaltyProgram.sol:LoyaltyProgram",
								"label": "points",
								"offset": 0,
								"slot": "0",
								"type": "t_uint256"
							},
							{
								"astId": 186,
								"contract": "LoyaltyProgram.sol:LoyaltyProgram",
								"label": "totalPointsEarned",
								"offset": 0,
								"slot": "1",
								"type": "t_uint256"
							},
							{
								"astId": 188,
								"contract": "LoyaltyProgram.sol:LoyaltyProgram",
								"label": "totalPointsRedeemed",
								"offset": 0,
								"slot": "2",
								"type": "t_uint256"
							},
							{
								"astId": 190,
								"contract": "LoyaltyProgram.sol:LoyaltyProgram",
								"label": "lastPurchaseBlock",
								"offset": 0,
								"slot": "3",
								"type": "t_uint256"
							},
							{
								"astId": 192,
								"contract": "LoyaltyProgram.sol:LoyaltyProgram",
								"label": "memberSince",
								"offset": 0,
								"slot": "4",
								"type": "t_uint256"
							},
							{
								"astId": 194,
								"contract": "LoyaltyProgram.sol:LoyaltyProgram",
								"label": "tier",
								"offset": 0,
								"slot": "5",
								"type": "t_uint256"
							}
						],
						"numberOfBytes": "192"
					},
					"t_uint256": {
						"encoding": "inplace",
						"label": "uint256",
						"numberOfBytes": "32"
					}
				}
			},
			"userdoc": {
				"kind": "user",
				"methods": {},
				"version": 1
			}
		}
	}
}