{
	"BookStore.sol": {
		"BookStore": {
			"abi": [
				{
					"inputs": [
						{
							"internalType": "address",
							"name": "_owner",
							"type": "address"
						}
					],
					"stateMutability": "nonpayable",
					"type": "constructor"
				},
				{
					"anonymous": false,
					"inputs": [
						{
							"indexed": true,
							"internalType": "uint256",
							"name": "bookId",
							"type": "uint256"
						},
						{
							"indexed": false,
							"internalType": "string",
							"name": "title",
							"type": "string"
						},
						{
							"indexed": false,
							"internalType": "string",
							"name": "author",
							"type": "string"
						},
						{
							"indexed": false,
							"internalType": "uint256",
							"name": "price",
							"type": "uint256"
						},
						{
							"indexed": false,
							"internalType": "uint256",
							"name": "stock",
							"type": "uint256"
						},
						{
							"indexed": true,
							"internalType": "address",
							"name": "addedBy",
							"type": "address"
						},
						{
							"indexed": false,
							"internalType": "uint256",
							"name": "timestamp",
							"type": "uint256"
						}
					],
					"name": "BookAdded",
					"type": "event"
				},
				{
					"anonymous": false,
					"inputs": [
						{
							"indexed": true,
							"internalType": "uint256",
							"name": "bookId",
							"type": "uint256"
						},
						{
							"indexed": true,
							"internalType": "address",
							"name": "buyer",
							"type": "address"
						},
						{
							"indexed": false,
							"internalType": "uint256",
							"name": "quantity",
							"type": "uint256"
						},
						{
							"indexed": false,
							"internalType": "uint256",
							"name": "totalAmount",
							"type": "uint256"
						},
						{
							"indexed": false,
							"internalType": "uint256",
							"name": "timestamp",
							"type": "uint256"
						}
					],
					"name": "BookSold",
					"type": "event"
				},
				{
					"anonymous": false,
					"inputs": [
						{
							"indexed": true,
							"internalType": "uint256",
							"name": "bookId",
							"type": "uint256"
						},
						{
							"indexed": false,
							"internalType": "uint256",
							"name": "newPrice",
							"type": "uint256"
						},
						{
							"indexed": false,
							"internalType": "uint256",
							"name": "newStock",
							"type": "uint256"
						},
						{
							"indexed": false,
							"internalType": "bool",
							"name": "isAvailable",
							"type": "bool"
						},
						{
							"indexed": true,
							"internalType": "address",
							"name": "updatedBy",
							"type": "address"
						},
						{
							"indexed": false,
							"internalType": "uint256",
							"name": "timestamp",
							"type": "uint256"
						}
					],
					"name": "BookUpdated",
					"type": "event"
				},
				{
					"anonymous": false,
					"inputs": [
						{
							"indexed": true,
							"internalType": "uint256",
							"name": "bookId",
							"type": "uint256"
						},
						{
							"indexed": false,
							"internalType": "uint256",
							"name": "currentStock",
							"type": "uint256"
						},
						{
							"indexed": false,
							"internalType": "uint256",
							"name": "timestamp",
							"type": "uint256"
						}
					],
					"name": "LowStockAlert",
					"type": "event"
				},
				{
					"anonymous": false,
					"inputs": [
						{
							"indexed": true,
							"internalType": "uint256",
							"name": "bookId",
							"type": "uint256"
						},
						{
							"indexed": true,
							"internalType": "address",
							"name": "buyer",
							"type": "address"
						},
						{
							"indexed": false,
							"internalType": "uint256",
							"name": "quantity",
							"type": "uint256"
						},
						{
							"indexed": false,
							"internalType": "uint256",
							"name": "totalAmount",
							"type": "uint256"
						},
						{
							"indexed": false,
							"internalType": "uint256",
							"name": "timestamp",
							"type": "uint256"
						}
					],
					"name": "PurchaseConfirmed",
					"type": "event"
				},
				{
					"anonymous": false,
					"inputs": [
						{
							"indexed": true,
							"internalType": "uint256",
							"name": "bookId",
							"type": "uint256"
						},
						{
							"indexed": true,
							"internalType": "address",
							"name": "buyer",
							"type": "address"
						},
						{
							"indexed": false,
							"internalType": "uint256",
							"name": "quantity",
							"type": "uint256"
						},
						{
							"indexed": false,
							"internalType": "string",
							"name": "reason",
							"type": "string"
						},
						{
							"indexed": false,
							"internalType": "uint256",
							"name": "timestamp",
							"type": "uint256"
						}
					],
					"name": "PurchaseFailed",
					"type": "event"
				},
				{
					"anonymous": false,
					"inputs": [
						{
							"indexed": true,
							"internalType": "uint256",
							"name": "bookId",
							"type": "uint256"
						},
						{
							"indexed": true,
							"internalType": "address",
							"name": "buyer",
							"type": "address"
						},
						{
							"indexed": false,
							"internalType": "uint256",
							"name": "quantity",
							"type": "uint256"
						},
						{
							"indexed": false,
							"internalType": "uint256",
							"name": "totalAmount",
							"type": "uint256"
						},
						{
							"indexed": false,
							"internalType": "uint256",
							"name": "timestamp",
							"type": "uint256"
						}
					],
					"name": "PurchaseInitiated",
					"type": "event"
				},
				{
					"anonymous": false,
					"inputs": [
						{
							"indexed": true,
							"internalType": "uint256",
							"name": "bookId",
							"type": "uint256"
						},
						{
							"indexed": false,
							"internalType": "uint256",
							"name": "addedStock",
							"type": "uint256"
						},
						{
							"indexed": false,
							"internalType": "uint256",
							"name": "newTotalStock",
							"type": "uint256"
						},
						{
							"indexed": false,
							"internalType": "uint256",
							"name": "timestamp",
							"type": "uint256"
						}
					],
					"name": "StockReplenished",
					"type": "event"
				},
				{
					"inputs": [
						{
							"internalType": "uint256",
							"name": "_bookId",
							"type": "uint256"
						},
						{
							"internalType": "string",
							"name": "_title",
							"type": "string"
						},
						{
							"internalType": "string",
							"name": "_author",
							"type": "string"
						},
						{
							"internalType": "uint256",
							"name": "_price",
							"type": "uint256"
						},
						{
							"internalType": "uint256",
							"name": "_stock",
							"type": "uint256"
						}
					],
					"name": "addBook",
					"outputs": [],
					"stateMutability": "nonpayable",
					"type": "function"
				},
				{
					"inputs": [
						{
							"internalType": "uint256",
							"name": "",
							"type": "uint256"
						}
					],
					"name": "bookIds",
					"outputs": [
						{
							"internalType": "uint256",
							"name": "",
							"type": "uint256"
						}
					],
					"stateMutability": "view",
					"type": "function"
				},
				{
					"inputs": [
						{
							"internalType": "uint256",
							"name": "",
							"type": "uint256"
						}
					],
					"name": "books",
					"outputs": [
						{
							"internalType": "string",
							"name": "title",
							"type": "string"
						},
						{
							"internalType": "string",
							"name": "author",
							"type": "string"
						},
						{
							"internalType": "uint256",
							"name": "price",
							"type": "uint256"
						},
						{
							"internalType": "uint256",
							"name": "stock",
							"type": "uint256"
						},
						{
							"internalType": "bool",
							"name": "isAvailable",
							"type": "bool"
						},
						{
							"internalType": "uint256",
							"name": "totalSold",
							"type": "uint256"
						},
						{
							"internalType": "uint256",
							"name": "lastRestockTime",
							"type": "uint256"
						}
					],
					"stateMutability": "view",
					"type": "function"
				},
				{
					"inputs": [],
					"name": "getAllBooks",
					"outputs": [
						{
							"internalType": "uint256[]",
							"name": "",
							"type": "uint256[]"
						}
					],
					"stateMutability": "view",
					"type": "function"
				},
				{
					"inputs": [
						{
							"internalType": "uint256",
							"name": "_bookId",
							"type": "uint256"
						}
					],
					"name": "getBook",
					"outputs": [
						{
							"internalType": "string",
							"name": "",
							"type": "string"
						},
						{
							"internalType": "string",
							"name": "",
							"type": "string"
						},
						{
							"internalType": "uint256",
							"name": "",
							"type": "uint256"
						},
						{
							"internalType": "uint256",
							"name": "",
							"type": "uint256"
						},
						{
							"internalType": "bool",
							"name": "",
							"type": "bool"
						},
						{
							"internalType": "uint256",
							"name": "",
							"type": "uint256"
						}
					],
					"stateMutability": "view",
					"type": "function"
				},
				{
					"inputs": [
						{
							"internalType": "uint256",
							"name": "_bookId",
							"type": "uint256"
						}
					],
					"name": "getBookSales",
					"outputs": [
						{
							"internalType": "uint256",
							"name": "",
							"type": "uint256"
						}
					],
					"stateMutability": "view",
					"type": "function"
				},
				{
					"inputs": [],
					"name": "getBooksCount",
					"outputs": [
						{
							"internalType": "uint256",
							"name": "",
							"type": "uint256"
						}
					],
					"stateMutability": "view",
					"type": "function"
				},
				{
					"inputs": [],
					"name": "getLowStockBooks",
					"outputs": [
						{
							"internalType": "uint256[]",
							"name": "",
							"type": "uint256[]"
						}
					],
					"stateMutability": "view",
					"type": "function"
				},
				{
					"inputs": [],
					"name": "owner",
					"outputs": [
						{
							"internalType": "address",
							"name": "",
							"type": "address"
						}
					],
					"stateMutability": "view",
					"type": "function"
				},
				{
					"inputs": [
						{
							"internalType": "uint256",
							"name": "_bookId",
							"type": "uint256"
						},
						{
							"internalType": "uint256",
							"name": "_quantity",
							"type": "uint256"
						}
					],
					"name": "purchaseBook",
					"outputs": [],
					"stateMutability": "payable",
					"type": "function"
				},
				{
					"inputs": [
						{
							"internalType": "uint256",
							"name": "_bookId",
							"type": "uint256"
						},
						{
							"internalType": "uint256",
							"name": "_newPrice",
							"type": "uint256"
						},
						{
							"internalType": "uint256",
							"name": "_additionalStock",
							"type": "uint256"
						}
					],
					"name": "updateBook",
					"outputs": [],
					"stateMutability": "nonpayable",
					"type": "function"
				}
			],
			"devdoc": {
				"kind": "dev",
				"methods": {},
				"version": 1
			},
			"evm": {
				"assembly": "    /* \"BookStore.sol\":1428:8644  contract BookStore {... */\n  mstore(0x40, 0x80)\n    /* \"BookStore.sol\":3220:3281  constructor(address _owner) {... */\n  callvalue\n  dup1\n  iszero\n  tag_1\n  jumpi\n  0x00\n  dup1\n  revert\ntag_1:\n  pop\n  mload(0x40)\n  sub(codesize, bytecodeSize)\n  dup1\n  bytecodeSize\n  dup4\n  codecopy\n  dup2\n  dup2\n  add\n  0x40\n  mstore\n  dup2\n  add\n  swap1\n  tag_2\n  swap2\n  swap1\n  tag_3\n  jump\t// in\ntag_2:\n    /* \"BookStore.sol\":3267:3273  _owner */\n  dup1\n    /* \"BookStore.sol\":3259:3264  owner */\n  0x00\n  dup1\n    /* \"BookStore.sol\":3259:3273  owner = _owner */\n  0x0100\n  exp\n  dup2\n  sload\n  dup2\n  0xffffffffffffffffffffffffffffffffffffffff\n  mul\n  not\n  and\n  swap1\n  dup4\n  0xffffffffffffffffffffffffffffffffffffffff\n  and\n  mul\n  or\n  swap1\n  sstore\n  pop\n    /* \"BookStore.sol\":3220:3281  constructor(address _owner) {... */\n  pop\n    /* \"BookStore.sol\":1428:8644  contract BookStore {... */\n  jump(tag_6)\n    /* \"#utility.yul\":88:205   */\ntag_8:\n    /* \"#utility.yul\":197:198   */\n  0x00\n    /* \"#utility.yul\":194:195   */\n  dup1\n    /* \"#utility.yul\":187:199   */\n  revert\n    /* \"#utility.yul\":334:460   */\ntag_10:\n    /* \"#utility.yul\":371:378   */\n  0x00\n    /* \"#utility.yul\":411:453   */\n  0xffffffffffffffffffffffffffffffffffffffff\n    /* \"#utility.yul\":404:409   */\n  dup3\n    /* \"#utility.yul\":400:454   */\n  and\n    /* \"#utility.yul\":389:454   */\n  swap1\n  pop\n    /* \"#utility.yul\":334:460   */\n  swap2\n  swap1\n  pop\n  jump\t// out\n    /* \"#utility.yul\":466:562   */\ntag_11:\n    /* \"#utility.yul\":503:510   */\n  0x00\n    /* \"#utility.yul\":532:556   */\n  tag_20\n    /* \"#utility.yul\":550:555   */\n  dup3\n    /* \"#utility.yul\":532:556   */\n  tag_10\n  jump\t// in\ntag_20:\n    /* \"#utility.yul\":521:556   */\n  swap1\n  pop\n    /* \"#utility.yul\":466:562   */\n  swap2\n  swap1\n  pop\n  jump\t// out\n    /* \"#utility.yul\":568:690   */\ntag_12:\n    /* \"#utility.yul\":641:665   */\n  tag_22\n    /* \"#utility.yul\":659:664   */\n  dup2\n    /* \"#utility.yul\":641:665   */\n  tag_11\n  jump\t// in\ntag_22:\n    /* \"#utility.yul\":634:639   */\n  dup2\n    /* \"#utility.yul\":631:666   */\n  eq\n    /* \"#utility.yul\":621:684   */\n  tag_23\n  jumpi\n    /* \"#utility.yul\":680:681   */\n  0x00\n    /* \"#utility.yul\":677:678   */\n  dup1\n    /* \"#utility.yul\":670:682   */\n  revert\n    /* \"#utility.yul\":621:684   */\ntag_23:\n    /* \"#utility.yul\":568:690   */\n  pop\n  jump\t// out\n    /* \"#utility.yul\":696:839   */\ntag_13:\n    /* \"#utility.yul\":753:758   */\n  0x00\n    /* \"#utility.yul\":784:790   */\n  dup2\n    /* \"#utility.yul\":778:791   */\n  mload\n    /* \"#utility.yul\":769:791   */\n  swap1\n  pop\n    /* \"#utility.yul\":800:833   */\n  tag_25\n    /* \"#utility.yul\":827:832   */\n  dup2\n    /* \"#utility.yul\":800:833   */\n  tag_12\n  jump\t// in\ntag_25:\n    /* \"#utility.yul\":696:839   */\n  swap3\n  swap2\n  pop\n  pop\n  jump\t// out\n    /* \"#utility.yul\":845:1196   */\ntag_3:\n    /* \"#utility.yul\":915:921   */\n  0x00\n    /* \"#utility.yul\":964:966   */\n  0x20\n    /* \"#utility.yul\":952:961   */\n  dup3\n    /* \"#utility.yul\":943:950   */\n  dup5\n    /* \"#utility.yul\":939:962   */\n  sub\n    /* \"#utility.yul\":935:967   */\n  slt\n    /* \"#utility.yul\":932:1051   */\n  iszero\n  tag_27\n  jumpi\n    /* \"#utility.yul\":970:1049   */\n  tag_28\n  tag_8\n  jump\t// in\ntag_28:\n    /* \"#utility.yul\":932:1051   */\ntag_27:\n    /* \"#utility.yul\":1090:1091   */\n  0x00\n    /* \"#utility.yul\":1115:1179   */\n  tag_29\n    /* \"#utility.yul\":1171:1178   */\n  dup5\n    /* \"#utility.yul\":1162:1168   */\n  dup3\n    /* \"#utility.yul\":1151:1160   */\n  dup6\n    /* \"#utility.yul\":1147:1169   */\n  add\n    /* \"#utility.yul\":1115:1179   */\n  tag_13\n  jump\t// in\ntag_29:\n    /* \"#utility.yul\":1105:1179   */\n  swap2\n  pop\n    /* \"#utility.yul\":1061:1189   */\n  pop\n    /* \"#utility.yul\":845:1196   */\n  swap3\n  swap2\n  pop\n  pop\n  jump\t// out\n    /* \"BookStore.sol\":1428:8644  contract BookStore {... */\ntag_6:\n  dataSize(sub_0)\n  dup1\n  dataOffset(sub_0)\n  0x00\n  codecopy\n  0x00\n  return\nstop\n\nsub_0: assembly {\n        /* \"BookStore.sol\":1428:8644  contract BookStore {... */\n      mstore(0x40, 0x80)\n      jumpi(tag_1, lt(calldatasize, 0x04))\n      shr(0xe0, calldataload(0x00))\n      dup1\n      0x8da5cb5b\n      gt\n      tag_13\n      jumpi\n      dup1\n      0x8da5cb5b\n      eq\n      tag_7\n      jumpi\n      dup1\n      0xc1997003\n      eq\n      tag_8\n      jumpi\n      dup1\n      0xc4e0cc8d\n      eq\n      tag_9\n      jumpi\n      dup1\n      0xdfd83d2a\n      eq\n      tag_10\n      jumpi\n      dup1\n      0xe0ff5b8b\n      eq\n      tag_11\n      jumpi\n      dup1\n      0xf733719c\n      eq\n      tag_12\n      jumpi\n      jump(tag_1)\n    tag_13:\n      dup1\n      0x0eed433b\n      eq\n      tag_2\n      jumpi\n      dup1\n      0x1fc88748\n      eq\n      tag_3\n      jumpi\n      dup1\n      0x354528e8\n      eq\n      tag_4\n      jumpi\n      dup1\n      0x513073b8\n      eq\n      tag_5\n      jumpi\n      dup1\n      0x68744046\n      eq\n      tag_6\n      jumpi\n    tag_1:\n      0x00\n      dup1\n      revert\n        /* \"BookStore.sol\":5918:7652  function purchaseBook(... */\n    tag_2:\n      tag_14\n      0x04\n      dup1\n      calldatasize\n      sub\n      dup2\n      add\n      swap1\n      tag_15\n      swap2\n      swap1\n      tag_16\n      jump\t// in\n    tag_15:\n      tag_17\n      jump\t// in\n    tag_14:\n      stop\n        /* \"BookStore.sol\":4434:5284  function updateBook( uint256 _bookId, uint256 _newPrice, uint256 _additionalStock) ... */\n    tag_3:\n      callvalue\n      dup1\n      iszero\n      tag_18\n      jumpi\n      0x00\n      dup1\n      revert\n    tag_18:\n      pop\n      tag_19\n      0x04\n      dup1\n      calldatasize\n      sub\n      dup2\n      add\n      swap1\n      tag_20\n      swap2\n      swap1\n      tag_21\n      jump\t// in\n    tag_20:\n      tag_22\n      jump\t// in\n    tag_19:\n      stop\n        /* \"BookStore.sol\":5815:5910  function getAllBooks() public view returns (uint256[] memory) {... */\n    tag_4:\n      callvalue\n      dup1\n      iszero\n      tag_23\n      jumpi\n      0x00\n      dup1\n      revert\n    tag_23:\n      pop\n      tag_24\n      tag_25\n      jump\t// in\n    tag_24:\n      mload(0x40)\n      tag_26\n      swap2\n      swap1\n      tag_27\n      jump\t// in\n    tag_26:\n      mload(0x40)\n      dup1\n      swap2\n      sub\n      swap1\n      return\n        /* \"BookStore.sol\":1794:1818  uint256[] public bookIds */\n    tag_5:\n      callvalue\n      dup1\n      iszero\n      tag_28\n      jumpi\n      0x00\n      dup1\n      revert\n    tag_28:\n      pop\n      tag_29\n      0x04\n      dup1\n      calldatasize\n      sub\n      dup2\n      add\n      swap1\n      tag_30\n      swap2\n      swap1\n      tag_31\n      jump\t// in\n    tag_30:\n      tag_32\n      jump\t// in\n    tag_29:\n      mload(0x40)\n      tag_33\n      swap2\n      swap1\n      tag_34\n      jump\t// in\n    tag_33:\n      mload(0x40)\n      dup1\n      swap2\n      sub\n      swap1\n      return\n        /* \"BookStore.sol\":1750:1787  mapping(uint256 => Book) public books */\n    tag_6:\n      callvalue\n      dup1\n      iszero\n      tag_35\n      jumpi\n      0x00\n      dup1\n      revert\n    tag_35:\n      pop\n      tag_36\n      0x04\n      dup1\n      calldatasize\n      sub\n      dup2\n      add\n      swap1\n      tag_37\n      swap2\n      swap1\n      tag_31\n      jump\t// in\n    tag_37:\n      tag_38\n      jump\t// in\n    tag_36:\n      mload(0x40)\n      tag_39\n      swap8\n      swap7\n      swap6\n      swap5\n      swap4\n      swap3\n      swap2\n      swap1\n      tag_40\n      jump\t// in\n    tag_39:\n      mload(0x40)\n      dup1\n      swap2\n      sub\n      swap1\n      return\n        /* \"BookStore.sol\":1454:1474  address public owner */\n    tag_7:\n      callvalue\n      dup1\n      iszero\n      tag_41\n      jumpi\n      0x00\n      dup1\n      revert\n    tag_41:\n      pop\n      tag_42\n      tag_43\n      jump\t// in\n    tag_42:\n      mload(0x40)\n      tag_44\n      swap2\n      swap1\n      tag_45\n      jump\t// in\n    tag_44:\n      mload(0x40)\n      dup1\n      swap2\n      sub\n      swap1\n      return\n        /* \"BookStore.sol\":7792:7977  function getBookSales(uint256 _bookId) ... */\n    tag_8:\n      callvalue\n      dup1\n      iszero\n      tag_46\n      jumpi\n      0x00\n      dup1\n      revert\n    tag_46:\n      pop\n      tag_47\n      0x04\n      dup1\n      calldatasize\n      sub\n      dup2\n      add\n      swap1\n      tag_48\n      swap2\n      swap1\n      tag_31\n      jump\t// in\n    tag_48:\n      tag_49\n      jump\t// in\n    tag_47:\n      mload(0x40)\n      tag_50\n      swap2\n      swap1\n      tag_34\n      jump\t// in\n    tag_50:\n      mload(0x40)\n      dup1\n      swap2\n      sub\n      swap1\n      return\n        /* \"BookStore.sol\":7985:8641  function getLowStockBooks() public view returns (uint256[] memory) {... */\n    tag_9:\n      callvalue\n      dup1\n      iszero\n      tag_51\n      jumpi\n      0x00\n      dup1\n      revert\n    tag_51:\n      pop\n      tag_52\n      tag_53\n      jump\t// in\n    tag_52:\n      mload(0x40)\n      tag_54\n      swap2\n      swap1\n      tag_27\n      jump\t// in\n    tag_54:\n      mload(0x40)\n      dup1\n      swap2\n      sub\n      swap1\n      return\n        /* \"BookStore.sol\":7689:7784  function getBooksCount() public view returns (uint256) {... */\n    tag_10:\n      callvalue\n      dup1\n      iszero\n      tag_55\n      jumpi\n      0x00\n      dup1\n      revert\n    tag_55:\n      pop\n      tag_56\n      tag_57\n      jump\t// in\n    tag_56:\n      mload(0x40)\n      tag_58\n      swap2\n      swap1\n      tag_34\n      jump\t// in\n    tag_58:\n      mload(0x40)\n      dup1\n      swap2\n      sub\n      swap1\n      return\n        /* \"BookStore.sol\":5292:5807  function getBook(uint256 _bookId) ... */\n    tag_11:\n      callvalue\n      dup1\n      iszero\n      tag_59\n      jumpi\n      0x00\n      dup1\n      revert\n    tag_59:\n      pop\n      tag_60\n      0x04\n      dup1\n      calldatasize\n      sub\n      dup2\n      add\n      swap1\n      tag_61\n      swap2\n      swap1\n      tag_31\n      jump\t// in\n    tag_61:\n      tag_62\n      jump\t// in\n    tag_60:\n      mload(0x40)\n      tag_63\n      swap7\n      swap6\n      swap5\n      swap4\n      swap3\n      swap2\n      swap1\n      tag_64\n      jump\t// in\n    tag_63:\n      mload(0x40)\n      dup1\n      swap2\n      sub\n      swap1\n      return\n        /* \"BookStore.sol\":3289:4426  function addBook(... */\n    tag_12:\n      callvalue\n      dup1\n      iszero\n      tag_65\n      jumpi\n      0x00\n      dup1\n      revert\n    tag_65:\n      pop\n      tag_66\n      0x04\n      dup1\n      calldatasize\n      sub\n      dup2\n      add\n      swap1\n      tag_67\n      swap2\n      swap1\n      tag_68\n      jump\t// in\n    tag_67:\n      tag_69\n      jump\t// in\n    tag_66:\n      stop\n        /* \"BookStore.sol\":5918:7652  function purchaseBook(... */\n    tag_17:\n        /* \"BookStore.sol\":6076:6083  _bookId */\n      dup2\n        /* \"BookStore.sol\":3166:3167  0 */\n      0x00\n        /* \"BookStore.sol\":3142:3147  books */\n      0x01\n        /* \"BookStore.sol\":3142:3156  books[_bookId] */\n      0x00\n        /* \"BookStore.sol\":3148:3155  _bookId */\n      dup4\n        /* \"BookStore.sol\":3142:3156  books[_bookId] */\n      dup2\n      mstore\n      0x20\n      add\n      swap1\n      dup2\n      mstore\n      0x20\n      add\n      0x00\n      keccak256\n        /* \"BookStore.sol\":3142:3162  books[_bookId].price */\n      0x02\n      add\n      sload\n        /* \"BookStore.sol\":3142:3167  books[_bookId].price != 0 */\n      sub\n        /* \"BookStore.sol\":3134:3192  require(books[_bookId].price != 0, \"Book does not exist.\") */\n      tag_71\n      jumpi\n      mload(0x40)\n      0x08c379a000000000000000000000000000000000000000000000000000000000\n      dup2\n      mstore\n      0x04\n      add\n      tag_72\n      swap1\n      tag_73\n      jump\t// in\n    tag_72:\n      mload(0x40)\n      dup1\n      swap2\n      sub\n      swap1\n      revert\n    tag_71:\n        /* \"BookStore.sol\":6096:6113  Book storage book */\n      0x00\n        /* \"BookStore.sol\":6116:6121  books */\n      0x01\n        /* \"BookStore.sol\":6116:6130  books[_bookId] */\n      0x00\n        /* \"BookStore.sol\":6122:6129  _bookId */\n      dup6\n        /* \"BookStore.sol\":6116:6130  books[_bookId] */\n      dup2\n      mstore\n      0x20\n      add\n      swap1\n      dup2\n      mstore\n      0x20\n      add\n      0x00\n      keccak256\n        /* \"BookStore.sol\":6096:6130  Book storage book = books[_bookId] */\n      swap1\n      pop\n        /* \"BookStore.sol\":6141:6160  uint256 totalAmount */\n      0x00\n        /* \"BookStore.sol\":6176:6185  _quantity */\n      dup4\n        /* \"BookStore.sol\":6163:6167  book */\n      dup3\n        /* \"BookStore.sol\":6163:6173  book.price */\n      0x02\n      add\n      sload\n        /* \"BookStore.sol\":6163:6185  book.price * _quantity */\n      tag_75\n      swap2\n      swap1\n      tag_76\n      jump\t// in\n    tag_75:\n        /* \"BookStore.sol\":6141:6185  uint256 totalAmount = book.price * _quantity */\n      swap1\n      pop\n        /* \"BookStore.sol\":6257:6267  msg.sender */\n      caller\n        /* \"BookStore.sol\":6203:6358  PurchaseInitiated(... */\n      0xffffffffffffffffffffffffffffffffffffffff\n      and\n        /* \"BookStore.sol\":6235:6242  _bookId */\n      dup6\n        /* \"BookStore.sol\":6203:6358  PurchaseInitiated(... */\n      0x28938d078ef5864f06e040c4aa314898fb92de306adf6dc64742ecac30648cbf\n        /* \"BookStore.sol\":6282:6291  _quantity */\n      dup7\n        /* \"BookStore.sol\":6306:6317  totalAmount */\n      dup5\n        /* \"BookStore.sol\":6332:6347  block.timestamp */\n      timestamp\n        /* \"BookStore.sol\":6203:6358  PurchaseInitiated(... */\n      mload(0x40)\n      tag_77\n      swap4\n      swap3\n      swap2\n      swap1\n      tag_78\n      jump\t// in\n    tag_77:\n      mload(0x40)\n      dup1\n      swap2\n      sub\n      swap1\n      log3\n        /* \"BookStore.sol\":6400:6404  book */\n      dup2\n        /* \"BookStore.sol\":6400:6416  book.isAvailable */\n      0x04\n      add\n      0x00\n      swap1\n      sload\n      swap1\n      0x0100\n      exp\n      swap1\n      div\n      0xff\n      and\n        /* \"BookStore.sol\":6395:6587  if (!book.isAvailable) {... */\n      tag_79\n      jumpi\n        /* \"BookStore.sol\":6462:6472  msg.sender */\n      caller\n        /* \"BookStore.sol\":6438:6523  PurchaseFailed(_bookId, msg.sender, _quantity, \"Book not available\", block.timestamp) */\n      0xffffffffffffffffffffffffffffffffffffffff\n      and\n        /* \"BookStore.sol\":6453:6460  _bookId */\n      dup6\n        /* \"BookStore.sol\":6438:6523  PurchaseFailed(_bookId, msg.sender, _quantity, \"Book not available\", block.timestamp) */\n      0xb8cffff501b10e25568509ab7916df0f5b02bf15e3d4208b4b32f1572fc145cf\n        /* \"BookStore.sol\":6474:6483  _quantity */\n      dup7\n        /* \"BookStore.sol\":6507:6522  block.timestamp */\n      timestamp\n        /* \"BookStore.sol\":6438:6523  PurchaseFailed(_bookId, msg.sender, _quantity, \"Book not available\", block.timestamp) */\n      mload(0x40)\n      tag_80\n      swap3\n      swap2\n      swap1\n      tag_81\n      jump\t// in\n    tag_80:\n      mload(0x40)\n      dup1\n      swap2\n      sub\n      swap1\n      log3\n        /* \"BookStore.sol\":6538:6575  revert(\"This book is not available.\") */\n      mload(0x40)\n      0x08c379a000000000000000000000000000000000000000000000000000000000\n      dup2\n      mstore\n      0x04\n      add\n      tag_82\n      swap1\n      tag_83\n      jump\t// in\n    tag_82:\n      mload(0x40)\n      dup1\n      swap2\n      sub\n      swap1\n      revert\n        /* \"BookStore.sol\":6395:6587  if (!book.isAvailable) {... */\n    tag_79:\n        /* \"BookStore.sol\":6624:6633  _quantity */\n      dup4\n        /* \"BookStore.sol\":6611:6615  book */\n      dup3\n        /* \"BookStore.sol\":6611:6621  book.stock */\n      0x03\n      add\n      sload\n        /* \"BookStore.sol\":6611:6633  book.stock < _quantity */\n      lt\n        /* \"BookStore.sol\":6607:6804  if (book.stock < _quantity) {... */\n      iszero\n      tag_84\n      jumpi\n        /* \"BookStore.sol\":6679:6689  msg.sender */\n      caller\n        /* \"BookStore.sol\":6655:6740  PurchaseFailed(_bookId, msg.sender, _quantity, \"Insufficient stock\", block.timestamp) */\n      0xffffffffffffffffffffffffffffffffffffffff\n      and\n        /* \"BookStore.sol\":6670:6677  _bookId */\n      dup6\n        /* \"BookStore.sol\":6655:6740  PurchaseFailed(_bookId, msg.sender, _quantity, \"Insufficient stock\", block.timestamp) */\n      0xb8cffff501b10e25568509ab7916df0f5b02bf15e3d4208b4b32f1572fc145cf\n        /* \"BookStore.sol\":6691:6700  _quantity */\n      dup7\n        /* \"BookStore.sol\":6724:6739  block.timestamp */\n      timestamp\n        /* \"BookStore.sol\":6655:6740  PurchaseFailed(_bookId, msg.sender, _quantity, \"Insufficient stock\", block.timestamp) */\n      mload(0x40)\n      tag_85\n      swap3\n      swap2\n      swap1\n      tag_86\n      jump\t// in\n    tag_85:\n      mload(0x40)\n      dup1\n      swap2\n      sub\n      swap1\n      log3\n        /* \"BookStore.sol\":6755:6792  revert(\"Not enough stock available.\") */\n      mload(0x40)\n      0x08c379a000000000000000000000000000000000000000000000000000000000\n      dup2\n      mstore\n      0x04\n      add\n      tag_87\n      swap1\n      tag_88\n      jump\t// in\n    tag_87:\n      mload(0x40)\n      dup1\n      swap2\n      sub\n      swap1\n      revert\n        /* \"BookStore.sol\":6607:6804  if (book.stock < _quantity) {... */\n    tag_84:\n        /* \"BookStore.sol\":6841:6852  totalAmount */\n      dup1\n        /* \"BookStore.sol\":6828:6837  msg.value */\n      callvalue\n        /* \"BookStore.sol\":6828:6852  msg.value != totalAmount */\n      eq\n        /* \"BookStore.sol\":6824:7020  if (msg.value != totalAmount) {... */\n      tag_89\n      jumpi\n        /* \"BookStore.sol\":6898:6908  msg.sender */\n      caller\n        /* \"BookStore.sol\":6874:6958  PurchaseFailed(_bookId, msg.sender, _quantity, \"Incorrect payment\", block.timestamp) */\n      0xffffffffffffffffffffffffffffffffffffffff\n      and\n        /* \"BookStore.sol\":6889:6896  _bookId */\n      dup6\n        /* \"BookStore.sol\":6874:6958  PurchaseFailed(_bookId, msg.sender, _quantity, \"Incorrect payment\", block.timestamp) */\n      0xb8cffff501b10e25568509ab7916df0f5b02bf15e3d4208b4b32f1572fc145cf\n        /* \"BookStore.sol\":6910:6919  _quantity */\n      dup7\n        /* \"BookStore.sol\":6942:6957  block.timestamp */\n      timestamp\n        /* \"BookStore.sol\":6874:6958  PurchaseFailed(_bookId, msg.sender, _quantity, \"Incorrect payment\", block.timestamp) */\n      mload(0x40)\n      tag_90\n      swap3\n      swap2\n      swap1\n      tag_91\n      jump\t// in\n    tag_90:\n      mload(0x40)\n      dup1\n      swap2\n      sub\n      swap1\n      log3\n        /* \"BookStore.sol\":6973:7008  revert(\"Incorrect payment amount.\") */\n      mload(0x40)\n      0x08c379a000000000000000000000000000000000000000000000000000000000\n      dup2\n      mstore\n      0x04\n      add\n      tag_92\n      swap1\n      tag_93\n      jump\t// in\n    tag_92:\n      mload(0x40)\n      dup1\n      swap2\n      sub\n      swap1\n      revert\n        /* \"BookStore.sol\":6824:7020  if (msg.value != totalAmount) {... */\n    tag_89:\n        /* \"BookStore.sol\":7075:7084  _quantity */\n      dup4\n        /* \"BookStore.sol\":7061:7065  book */\n      dup3\n        /* \"BookStore.sol\":7061:7071  book.stock */\n      0x03\n      add\n      0x00\n        /* \"BookStore.sol\":7061:7084  book.stock -= _quantity */\n      dup3\n      dup3\n      sload\n      tag_94\n      swap2\n      swap1\n      tag_95\n      jump\t// in\n    tag_94:\n      swap3\n      pop\n      pop\n      dup2\n      swap1\n      sstore\n      pop\n        /* \"BookStore.sol\":7113:7122  _quantity */\n      dup4\n        /* \"BookStore.sol\":7095:7099  book */\n      dup3\n        /* \"BookStore.sol\":7095:7109  book.totalSold */\n      0x05\n      add\n      0x00\n        /* \"BookStore.sol\":7095:7122  book.totalSold += _quantity */\n      dup3\n      dup3\n      sload\n      tag_96\n      swap2\n      swap1\n      tag_97\n      jump\t// in\n    tag_96:\n      swap3\n      pop\n      pop\n      dup2\n      swap1\n      sstore\n      pop\n        /* \"BookStore.sol\":7161:7162  0 */\n      0x00\n        /* \"BookStore.sol\":7147:7151  book */\n      dup3\n        /* \"BookStore.sol\":7147:7157  book.stock */\n      0x03\n      add\n      sload\n        /* \"BookStore.sol\":7147:7162  book.stock == 0 */\n      sub\n        /* \"BookStore.sol\":7143:7215  if (book.stock == 0) {... */\n      tag_98\n      jumpi\n        /* \"BookStore.sol\":7198:7203  false */\n      0x00\n        /* \"BookStore.sol\":7179:7183  book */\n      dup3\n        /* \"BookStore.sol\":7179:7195  book.isAvailable */\n      0x04\n      add\n      0x00\n        /* \"BookStore.sol\":7179:7203  book.isAvailable = false */\n      0x0100\n      exp\n      dup2\n      sload\n      dup2\n      0xff\n      mul\n      not\n      and\n      swap1\n      dup4\n      iszero\n      iszero\n      mul\n      or\n      swap1\n      sstore\n      pop\n        /* \"BookStore.sol\":7143:7215  if (book.stock == 0) {... */\n    tag_98:\n        /* \"BookStore.sol\":1528:1529  5 */\n      0x05\n        /* \"BookStore.sol\":7278:7282  book */\n      dup3\n        /* \"BookStore.sol\":7278:7288  book.stock */\n      0x03\n      add\n      sload\n        /* \"BookStore.sol\":7278:7311  book.stock <= LOW_STOCK_THRESHOLD */\n      gt\n        /* \"BookStore.sol\":7274:7396  if (book.stock <= LOW_STOCK_THRESHOLD) {... */\n      tag_99\n      jumpi\n        /* \"BookStore.sol\":7347:7354  _bookId */\n      dup5\n        /* \"BookStore.sol\":7333:7384  LowStockAlert(_bookId, book.stock, block.timestamp) */\n      0xd4861c7c49d2de3a568f2178030b6e45c2e7144a254917b544f9021d05e6033e\n        /* \"BookStore.sol\":7356:7360  book */\n      dup4\n        /* \"BookStore.sol\":7356:7366  book.stock */\n      0x03\n      add\n      sload\n        /* \"BookStore.sol\":7368:7383  block.timestamp */\n      timestamp\n        /* \"BookStore.sol\":7333:7384  LowStockAlert(_bookId, book.stock, block.timestamp) */\n      mload(0x40)\n      tag_100\n      swap3\n      swap2\n      swap1\n      tag_101\n      jump\t// in\n    tag_100:\n      mload(0x40)\n      dup1\n      swap2\n      sub\n      swap1\n      log2\n        /* \"BookStore.sol\":7274:7396  if (book.stock <= LOW_STOCK_THRESHOLD) {... */\n    tag_99:\n        /* \"BookStore.sol\":7445:7450  owner */\n      0x00\n      dup1\n      sload\n      swap1\n      0x0100\n      exp\n      swap1\n      div\n      0xffffffffffffffffffffffffffffffffffffffff\n      and\n        /* \"BookStore.sol\":7437:7460  payable(owner).transfer */\n      0xffffffffffffffffffffffffffffffffffffffff\n      and\n        /* \"BookStore.sol\":7437:7471  payable(owner).transfer(msg.value) */\n      0x08fc\n        /* \"BookStore.sol\":7461:7470  msg.value */\n      callvalue\n        /* \"BookStore.sol\":7437:7471  payable(owner).transfer(msg.value) */\n      swap1\n      dup2\n      iszero\n      mul\n      swap1\n      mload(0x40)\n      0x00\n      mload(0x40)\n      dup1\n      dup4\n      sub\n      dup2\n      dup6\n      dup9\n      dup9\n      call\n      swap4\n      pop\n      pop\n      pop\n      pop\n      iszero\n      dup1\n      iszero\n      tag_103\n      jumpi\n      returndatasize\n      0x00\n      dup1\n      returndatacopy\n      revert(0x00, returndatasize)\n    tag_103:\n      pop\n        /* \"BookStore.sol\":7543:7553  msg.sender */\n      caller\n        /* \"BookStore.sol\":7489:7644  PurchaseConfirmed(... */\n      0xffffffffffffffffffffffffffffffffffffffff\n      and\n        /* \"BookStore.sol\":7521:7528  _bookId */\n      dup6\n        /* \"BookStore.sol\":7489:7644  PurchaseConfirmed(... */\n      0xa399b1f029d5bbcf819c828392aeac8dd019ced8ba520a312da3c5e9ecdba909\n        /* \"BookStore.sol\":7568:7577  _quantity */\n      dup7\n        /* \"BookStore.sol\":7592:7603  totalAmount */\n      dup5\n        /* \"BookStore.sol\":7618:7633  block.timestamp */\n      timestamp\n        /* \"BookStore.sol\":7489:7644  PurchaseConfirmed(... */\n      mload(0x40)\n      tag_104\n      swap4\n      swap3\n      swap2\n      swap1\n      tag_78\n      jump\t// in\n    tag_104:\n      mload(0x40)\n      dup1\n      swap2\n      sub\n      swap1\n      log3\n        /* \"BookStore.sol\":6085:7652  {... */\n      pop\n      pop\n        /* \"BookStore.sol\":5918:7652  function purchaseBook(... */\n      pop\n      pop\n      pop\n      jump\t// out\n        /* \"BookStore.sol\":4434:5284  function updateBook( uint256 _bookId, uint256 _newPrice, uint256 _additionalStock) ... */\n    tag_22:\n        /* \"BookStore.sol\":3009:3014  owner */\n      0x00\n      dup1\n      sload\n      swap1\n      0x0100\n      exp\n      swap1\n      div\n      0xffffffffffffffffffffffffffffffffffffffff\n      and\n        /* \"BookStore.sol\":2995:3014  msg.sender == owner */\n      0xffffffffffffffffffffffffffffffffffffffff\n      and\n        /* \"BookStore.sol\":2995:3005  msg.sender */\n      caller\n        /* \"BookStore.sol\":2995:3014  msg.sender == owner */\n      0xffffffffffffffffffffffffffffffffffffffff\n      and\n      eq\n        /* \"BookStore.sol\":2987:3058  require(msg.sender == owner, \"Only the owner can perform this action.\") */\n      tag_106\n      jumpi\n      mload(0x40)\n      0x08c379a000000000000000000000000000000000000000000000000000000000\n      dup2\n      mstore\n      0x04\n      add\n      tag_107\n      swap1\n      tag_108\n      jump\t// in\n    tag_107:\n      mload(0x40)\n      dup1\n      swap2\n      sub\n      swap1\n      revert\n    tag_106:\n        /* \"BookStore.sol\":4553:4560  _bookId */\n      dup3\n        /* \"BookStore.sol\":3166:3167  0 */\n      0x00\n        /* \"BookStore.sol\":3142:3147  books */\n      0x01\n        /* \"BookStore.sol\":3142:3156  books[_bookId] */\n      0x00\n        /* \"BookStore.sol\":3148:3155  _bookId */\n      dup4\n        /* \"BookStore.sol\":3142:3156  books[_bookId] */\n      dup2\n      mstore\n      0x20\n      add\n      swap1\n      dup2\n      mstore\n      0x20\n      add\n      0x00\n      keccak256\n        /* \"BookStore.sol\":3142:3162  books[_bookId].price */\n      0x02\n      add\n      sload\n        /* \"BookStore.sol\":3142:3167  books[_bookId].price != 0 */\n      sub\n        /* \"BookStore.sol\":3134:3192  require(books[_bookId].price != 0, \"Book does not exist.\") */\n      tag_110\n      jumpi\n      mload(0x40)\n      0x08c379a000000000000000000000000000000000000000000000000000000000\n      dup2\n      mstore\n      0x04\n      add\n      tag_111\n      swap1\n      tag_73\n      jump\t// in\n    tag_111:\n      mload(0x40)\n      dup1\n      swap2\n      sub\n      swap1\n      revert\n    tag_110:\n        /* \"BookStore.sol\":4573:4590  Book storage book */\n      0x00\n        /* \"BookStore.sol\":4593:4598  books */\n      0x01\n        /* \"BookStore.sol\":4593:4607  books[_bookId] */\n      0x00\n        /* \"BookStore.sol\":4599:4606  _bookId */\n      dup7\n        /* \"BookStore.sol\":4593:4607  books[_bookId] */\n      dup2\n      mstore\n      0x20\n      add\n      swap1\n      dup2\n      mstore\n      0x20\n      add\n      0x00\n      keccak256\n        /* \"BookStore.sol\":4573:4607  Book storage book = books[_bookId] */\n      swap1\n      pop\n        /* \"BookStore.sol\":4644:4645  0 */\n      0x00\n        /* \"BookStore.sol\":4632:4641  _newPrice */\n      dup5\n        /* \"BookStore.sol\":4632:4645  _newPrice > 0 */\n      gt\n        /* \"BookStore.sol\":4628:4696  if (_newPrice > 0) {... */\n      iszero\n      tag_113\n      jumpi\n        /* \"BookStore.sol\":4675:4684  _newPrice */\n      dup4\n        /* \"BookStore.sol\":4662:4666  book */\n      dup2\n        /* \"BookStore.sol\":4662:4672  book.price */\n      0x02\n      add\n        /* \"BookStore.sol\":4662:4684  book.price = _newPrice */\n      dup2\n      swap1\n      sstore\n      pop\n        /* \"BookStore.sol\":4628:4696  if (_newPrice > 0) {... */\n    tag_113:\n        /* \"BookStore.sol\":4739:4740  0 */\n      0x00\n        /* \"BookStore.sol\":4720:4736  _additionalStock */\n      dup4\n        /* \"BookStore.sol\":4720:4740  _additionalStock > 0 */\n      gt\n        /* \"BookStore.sol\":4716:5079  if (_additionalStock > 0) {... */\n      iszero\n      tag_114\n      jumpi\n        /* \"BookStore.sol\":4771:4787  _additionalStock */\n      dup3\n        /* \"BookStore.sol\":4757:4761  book */\n      dup2\n        /* \"BookStore.sol\":4757:4767  book.stock */\n      0x03\n      add\n      0x00\n        /* \"BookStore.sol\":4757:4787  book.stock += _additionalStock */\n      dup3\n      dup3\n      sload\n      tag_115\n      swap2\n      swap1\n      tag_97\n      jump\t// in\n    tag_115:\n      swap3\n      pop\n      pop\n      dup2\n      swap1\n      sstore\n      pop\n        /* \"BookStore.sol\":4821:4825  true */\n      0x01\n        /* \"BookStore.sol\":4802:4806  book */\n      dup2\n        /* \"BookStore.sol\":4802:4818  book.isAvailable */\n      0x04\n      add\n      0x00\n        /* \"BookStore.sol\":4802:4825  book.isAvailable = true */\n      0x0100\n      exp\n      dup2\n      sload\n      dup2\n      0xff\n      mul\n      not\n      and\n      swap1\n      dup4\n      iszero\n      iszero\n      mul\n      or\n      swap1\n      sstore\n      pop\n        /* \"BookStore.sol\":4863:4878  block.timestamp */\n      timestamp\n        /* \"BookStore.sol\":4840:4844  book */\n      dup2\n        /* \"BookStore.sol\":4840:4860  book.lastRestockTime */\n      0x06\n      add\n        /* \"BookStore.sol\":4840:4878  book.lastRestockTime = block.timestamp */\n      dup2\n      swap1\n      sstore\n      pop\n        /* \"BookStore.sol\":4947:4954  _bookId */\n      dup5\n        /* \"BookStore.sol\":4912:5067  StockReplenished(... */\n      0xa5bdd9148276bc08459ae55ee4dc575a752f7a4a6882d4a0b5ff596d17704e8e\n        /* \"BookStore.sol\":4973:4989  _additionalStock */\n      dup5\n        /* \"BookStore.sol\":5008:5012  book */\n      dup4\n        /* \"BookStore.sol\":5008:5018  book.stock */\n      0x03\n      add\n      sload\n        /* \"BookStore.sol\":5037:5052  block.timestamp */\n      timestamp\n        /* \"BookStore.sol\":4912:5067  StockReplenished(... */\n      mload(0x40)\n      tag_116\n      swap4\n      swap3\n      swap2\n      swap1\n      tag_78\n      jump\t// in\n    tag_116:\n      mload(0x40)\n      dup1\n      swap2\n      sub\n      swap1\n      log2\n        /* \"BookStore.sol\":4716:5079  if (_additionalStock > 0) {... */\n    tag_114:\n        /* \"BookStore.sol\":5225:5235  msg.sender */\n      caller\n        /* \"BookStore.sol\":5096:5276  BookUpdated(... */\n      0xffffffffffffffffffffffffffffffffffffffff\n      and\n        /* \"BookStore.sol\":5122:5129  _bookId */\n      dup6\n        /* \"BookStore.sol\":5096:5276  BookUpdated(... */\n      0x210bd4a94de733d59dcb9d840fc91c1fc8bfe12e9a6b333893732cd9f180f60c\n        /* \"BookStore.sol\":5144:5148  book */\n      dup4\n        /* \"BookStore.sol\":5144:5154  book.price */\n      0x02\n      add\n      sload\n        /* \"BookStore.sol\":5169:5173  book */\n      dup5\n        /* \"BookStore.sol\":5169:5179  book.stock */\n      0x03\n      add\n      sload\n        /* \"BookStore.sol\":5194:5198  book */\n      dup6\n        /* \"BookStore.sol\":5194:5210  book.isAvailable */\n      0x04\n      add\n      0x00\n      swap1\n      sload\n      swap1\n      0x0100\n      exp\n      swap1\n      div\n      0xff\n      and\n        /* \"BookStore.sol\":5250:5265  block.timestamp */\n      timestamp\n        /* \"BookStore.sol\":5096:5276  BookUpdated(... */\n      mload(0x40)\n      tag_117\n      swap5\n      swap4\n      swap3\n      swap2\n      swap1\n      tag_118\n      jump\t// in\n    tag_117:\n      mload(0x40)\n      dup1\n      swap2\n      sub\n      swap1\n      log3\n        /* \"BookStore.sol\":4562:5284  {... */\n      pop\n        /* \"BookStore.sol\":3069:3070  _ */\n      pop\n        /* \"BookStore.sol\":4434:5284  function updateBook( uint256 _bookId, uint256 _newPrice, uint256 _additionalStock) ... */\n      pop\n      pop\n      pop\n      jump\t// out\n        /* \"BookStore.sol\":5815:5910  function getAllBooks() public view returns (uint256[] memory) {... */\n    tag_25:\n        /* \"BookStore.sol\":5859:5875  uint256[] memory */\n      0x60\n        /* \"BookStore.sol\":5895:5902  bookIds */\n      0x02\n        /* \"BookStore.sol\":5888:5902  return bookIds */\n      dup1\n      sload\n      dup1\n      0x20\n      mul\n      0x20\n      add\n      mload(0x40)\n      swap1\n      dup2\n      add\n      0x40\n      mstore\n      dup1\n      swap3\n      swap2\n      swap1\n      dup2\n      dup2\n      mstore\n      0x20\n      add\n      dup3\n      dup1\n      sload\n      dup1\n      iszero\n      tag_120\n      jumpi\n      0x20\n      mul\n      dup3\n      add\n      swap2\n      swap1\n      0x00\n      mstore\n      keccak256(0x00, 0x20)\n      swap1\n    tag_121:\n      dup2\n      sload\n      dup2\n      mstore\n      0x20\n      add\n      swap1\n      0x01\n      add\n      swap1\n      dup1\n      dup4\n      gt\n      tag_121\n      jumpi\n    tag_120:\n      pop\n      pop\n      pop\n      pop\n      pop\n      swap1\n      pop\n        /* \"BookStore.sol\":5815:5910  function getAllBooks() public view returns (uint256[] memory) {... */\n      swap1\n      jump\t// out\n        /* \"BookStore.sol\":1794:1818  uint256[] public bookIds */\n    tag_32:\n      0x02\n      dup2\n      dup2\n      sload\n      dup2\n      lt\n      tag_122\n      jumpi\n      0x00\n      dup1\n      revert\n    tag_122:\n      swap1\n      0x00\n      mstore\n      keccak256(0x00, 0x20)\n      add\n      0x00\n      swap2\n      pop\n      swap1\n      pop\n      sload\n      dup2\n      jump\t// out\n        /* \"BookStore.sol\":1750:1787  mapping(uint256 => Book) public books */\n    tag_38:\n      mstore(0x20, 0x01)\n      dup1\n      0x00\n      mstore\n      keccak256(0x00, 0x40)\n      0x00\n      swap2\n      pop\n      swap1\n      pop\n      dup1\n      0x00\n      add\n      dup1\n      sload\n      tag_124\n      swap1\n      tag_125\n      jump\t// in\n    tag_124:\n      dup1\n      0x1f\n      add\n      0x20\n      dup1\n      swap2\n      div\n      mul\n      0x20\n      add\n      mload(0x40)\n      swap1\n      dup2\n      add\n      0x40\n      mstore\n      dup1\n      swap3\n      swap2\n      swap1\n      dup2\n      dup2\n      mstore\n      0x20\n      add\n      dup3\n      dup1\n      sload\n      tag_126\n      swap1\n      tag_125\n      jump\t// in\n    tag_126:\n      dup1\n      iszero\n      tag_127\n      jumpi\n      dup1\n      0x1f\n      lt\n      tag_128\n      jumpi\n      0x0100\n      dup1\n      dup4\n      sload\n      div\n      mul\n      dup4\n      mstore\n      swap2\n      0x20\n      add\n      swap2\n      jump(tag_127)\n    tag_128:\n      dup3\n      add\n      swap2\n      swap1\n      0x00\n      mstore\n      keccak256(0x00, 0x20)\n      swap1\n    tag_129:\n      dup2\n      sload\n      dup2\n      mstore\n      swap1\n      0x01\n      add\n      swap1\n      0x20\n      add\n      dup1\n      dup4\n      gt\n      tag_129\n      jumpi\n      dup3\n      swap1\n      sub\n      0x1f\n      and\n      dup3\n      add\n      swap2\n    tag_127:\n      pop\n      pop\n      pop\n      pop\n      pop\n      swap1\n      dup1\n      0x01\n      add\n      dup1\n      sload\n      tag_130\n      swap1\n      tag_125\n      jump\t// in\n    tag_130:\n      dup1\n      0x1f\n      add\n      0x20\n      dup1\n      swap2\n      div\n      mul\n      0x20\n      add\n      mload(0x40)\n      swap1\n      dup2\n      add\n      0x40\n      mstore\n      dup1\n      swap3\n      swap2\n      swap1\n      dup2\n      dup2\n      mstore\n      0x20\n      add\n      dup3\n      dup1\n      sload\n      tag_131\n      swap1\n      tag_125\n      jump\t// in\n    tag_131:\n      dup1\n      iszero\n      tag_132\n      jumpi\n      dup1\n      0x1f\n      lt\n      tag_133\n      jumpi\n      0x0100\n      dup1\n      dup4\n      sload\n      div\n      mul\n      dup4\n      mstore\n      swap2\n      0x20\n      add\n      swap2\n      jump(tag_132)\n    tag_133:\n      dup3\n      add\n      swap2\n      swap1\n      0x00\n      mstore\n      keccak256(0x00, 0x20)\n      swap1\n    tag_134:\n      dup2\n      sload\n      dup2\n      mstore\n      swap1\n      0x01\n      add\n      swap1\n      0x20\n      add\n      dup1\n      dup4\n      gt\n      tag_134\n      jumpi\n      dup3\n      swap1\n      sub\n      0x1f\n      and\n      dup3\n      add\n      swap2\n    tag_132:\n      pop\n      pop\n      pop\n      pop\n      pop\n      swap1\n      dup1\n      0x02\n      add\n      sload\n      swap1\n      dup1\n      0x03\n      add\n      sload\n      swap1\n      dup1\n      0x04\n      add\n      0x00\n      swap1\n      sload\n      swap1\n      0x0100\n      exp\n      swap1\n      div\n      0xff\n      and\n      swap1\n      dup1\n      0x05\n      add\n      sload\n      swap1\n      dup1\n      0x06\n      add\n      sload\n      swap1\n      pop\n      dup8\n      jump\t// out\n        /* \"BookStore.sol\":1454:1474  address public owner */\n    tag_43:\n      0x00\n      dup1\n      sload\n      swap1\n      0x0100\n      exp\n      swap1\n      div\n      0xffffffffffffffffffffffffffffffffffffffff\n      and\n      dup2\n      jump\t// out\n        /* \"BookStore.sol\":7792:7977  function getBookSales(uint256 _bookId) ... */\n    tag_49:\n        /* \"BookStore.sol\":7912:7919  uint256 */\n      0x00\n        /* \"BookStore.sol\":7884:7891  _bookId */\n      dup2\n        /* \"BookStore.sol\":3166:3167  0 */\n      0x00\n        /* \"BookStore.sol\":3142:3147  books */\n      0x01\n        /* \"BookStore.sol\":3142:3156  books[_bookId] */\n      0x00\n        /* \"BookStore.sol\":3148:3155  _bookId */\n      dup4\n        /* \"BookStore.sol\":3142:3156  books[_bookId] */\n      dup2\n      mstore\n      0x20\n      add\n      swap1\n      dup2\n      mstore\n      0x20\n      add\n      0x00\n      keccak256\n        /* \"BookStore.sol\":3142:3162  books[_bookId].price */\n      0x02\n      add\n      sload\n        /* \"BookStore.sol\":3142:3167  books[_bookId].price != 0 */\n      sub\n        /* \"BookStore.sol\":3134:3192  require(books[_bookId].price != 0, \"Book does not exist.\") */\n      tag_136\n      jumpi\n      mload(0x40)\n      0x08c379a000000000000000000000000000000000000000000000000000000000\n      dup2\n      mstore\n      0x04\n      add\n      tag_137\n      swap1\n      tag_73\n      jump\t// in\n    tag_137:\n      mload(0x40)\n      dup1\n      swap2\n      sub\n      swap1\n      revert\n    tag_136:\n        /* \"BookStore.sol\":7945:7950  books */\n      0x01\n        /* \"BookStore.sol\":7945:7959  books[_bookId] */\n      0x00\n        /* \"BookStore.sol\":7951:7958  _bookId */\n      dup5\n        /* \"BookStore.sol\":7945:7959  books[_bookId] */\n      dup2\n      mstore\n      0x20\n      add\n      swap1\n      dup2\n      mstore\n      0x20\n      add\n      0x00\n      keccak256\n        /* \"BookStore.sol\":7945:7969  books[_bookId].totalSold */\n      0x05\n      add\n      sload\n        /* \"BookStore.sol\":7938:7969  return books[_bookId].totalSold */\n      swap2\n      pop\n        /* \"BookStore.sol\":7792:7977  function getBookSales(uint256 _bookId) ... */\n      pop\n      swap2\n      swap1\n      pop\n      jump\t// out\n        /* \"BookStore.sol\":7985:8641  function getLowStockBooks() public view returns (uint256[] memory) {... */\n    tag_53:\n        /* \"BookStore.sol\":8034:8050  uint256[] memory */\n      0x60\n        /* \"BookStore.sol\":8063:8093  uint256[] memory lowStockBooks */\n      0x00\n        /* \"BookStore.sol\":8110:8117  bookIds */\n      0x02\n        /* \"BookStore.sol\":8110:8124  bookIds.length */\n      dup1\n      sload\n      swap1\n      pop\n        /* \"BookStore.sol\":8096:8125  new uint256[](bookIds.length) */\n      0xffffffffffffffff\n      dup2\n      gt\n      iszero\n      tag_140\n      jumpi\n      tag_141\n      tag_142\n      jump\t// in\n    tag_141:\n    tag_140:\n      mload(0x40)\n      swap1\n      dup1\n      dup3\n      mstore\n      dup1\n      0x20\n      mul\n      0x20\n      add\n      dup3\n      add\n      0x40\n      mstore\n      dup1\n      iszero\n      tag_143\n      jumpi\n      dup2\n      0x20\n      add\n      0x20\n      dup3\n      mul\n      dup1\n      calldatasize\n      dup4\n      calldatacopy\n      dup1\n      dup3\n      add\n      swap2\n      pop\n      pop\n      swap1\n      pop\n    tag_143:\n      pop\n        /* \"BookStore.sol\":8063:8125  uint256[] memory lowStockBooks = new uint256[](bookIds.length) */\n      swap1\n      pop\n        /* \"BookStore.sol\":8136:8149  uint256 count */\n      0x00\n        /* \"BookStore.sol\":8179:8188  uint256 i */\n      dup1\n        /* \"BookStore.sol\":8174:8391  for (uint256 i = 0; i < bookIds.length; i++) {... */\n    tag_144:\n        /* \"BookStore.sol\":8198:8205  bookIds */\n      0x02\n        /* \"BookStore.sol\":8198:8212  bookIds.length */\n      dup1\n      sload\n      swap1\n      pop\n        /* \"BookStore.sol\":8194:8195  i */\n      dup2\n        /* \"BookStore.sol\":8194:8212  i < bookIds.length */\n      lt\n        /* \"BookStore.sol\":8174:8391  for (uint256 i = 0; i < bookIds.length; i++) {... */\n      iszero\n      tag_145\n      jumpi\n        /* \"BookStore.sol\":1528:1529  5 */\n      0x05\n        /* \"BookStore.sol\":8238:8243  books */\n      0x01\n        /* \"BookStore.sol\":8238:8255  books[bookIds[i]] */\n      0x00\n        /* \"BookStore.sol\":8244:8251  bookIds */\n      0x02\n        /* \"BookStore.sol\":8252:8253  i */\n      dup5\n        /* \"BookStore.sol\":8244:8254  bookIds[i] */\n      dup2\n      sload\n      dup2\n      lt\n      tag_147\n      jumpi\n      tag_148\n      tag_149\n      jump\t// in\n    tag_148:\n    tag_147:\n      swap1\n      0x00\n      mstore\n      keccak256(0x00, 0x20)\n      add\n      sload\n        /* \"BookStore.sol\":8238:8255  books[bookIds[i]] */\n      dup2\n      mstore\n      0x20\n      add\n      swap1\n      dup2\n      mstore\n      0x20\n      add\n      0x00\n      keccak256\n        /* \"BookStore.sol\":8238:8261  books[bookIds[i]].stock */\n      0x03\n      add\n      sload\n        /* \"BookStore.sol\":8238:8284  books[bookIds[i]].stock <= LOW_STOCK_THRESHOLD */\n      gt\n        /* \"BookStore.sol\":8234:8380  if (books[bookIds[i]].stock <= LOW_STOCK_THRESHOLD) {... */\n      tag_151\n      jumpi\n        /* \"BookStore.sol\":8328:8335  bookIds */\n      0x02\n        /* \"BookStore.sol\":8336:8337  i */\n      dup2\n        /* \"BookStore.sol\":8328:8338  bookIds[i] */\n      dup2\n      sload\n      dup2\n      lt\n      tag_152\n      jumpi\n      tag_153\n      tag_149\n      jump\t// in\n    tag_153:\n    tag_152:\n      swap1\n      0x00\n      mstore\n      keccak256(0x00, 0x20)\n      add\n      sload\n        /* \"BookStore.sol\":8305:8318  lowStockBooks */\n      dup4\n        /* \"BookStore.sol\":8319:8324  count */\n      dup4\n        /* \"BookStore.sol\":8305:8325  lowStockBooks[count] */\n      dup2\n      mload\n      dup2\n      lt\n      tag_155\n      jumpi\n      tag_156\n      tag_149\n      jump\t// in\n    tag_156:\n    tag_155:\n      0x20\n      mul\n      0x20\n      add\n      add\n        /* \"BookStore.sol\":8305:8338  lowStockBooks[count] = bookIds[i] */\n      dup2\n      dup2\n      mstore\n      pop\n      pop\n        /* \"BookStore.sol\":8357:8364  count++ */\n      dup2\n      dup1\n      tag_157\n      swap1\n      tag_158\n      jump\t// in\n    tag_157:\n      swap3\n      pop\n      pop\n        /* \"BookStore.sol\":8234:8380  if (books[bookIds[i]].stock <= LOW_STOCK_THRESHOLD) {... */\n    tag_151:\n        /* \"BookStore.sol\":8214:8217  i++ */\n      dup1\n      dup1\n      0x01\n      add\n      swap2\n      pop\n      pop\n        /* \"BookStore.sol\":8174:8391  for (uint256 i = 0; i < bookIds.length; i++) {... */\n      jump(tag_144)\n    tag_145:\n      pop\n        /* \"BookStore.sol\":8452:8475  uint256[] memory result */\n      0x00\n        /* \"BookStore.sol\":8492:8497  count */\n      dup2\n        /* \"BookStore.sol\":8478:8498  new uint256[](count) */\n      0xffffffffffffffff\n      dup2\n      gt\n      iszero\n      tag_159\n      jumpi\n      tag_160\n      tag_142\n      jump\t// in\n    tag_160:\n    tag_159:\n      mload(0x40)\n      swap1\n      dup1\n      dup3\n      mstore\n      dup1\n      0x20\n      mul\n      0x20\n      add\n      dup3\n      add\n      0x40\n      mstore\n      dup1\n      iszero\n      tag_161\n      jumpi\n      dup2\n      0x20\n      add\n      0x20\n      dup3\n      mul\n      dup1\n      calldatasize\n      dup4\n      calldatacopy\n      dup1\n      dup3\n      add\n      swap2\n      pop\n      pop\n      swap1\n      pop\n    tag_161:\n      pop\n        /* \"BookStore.sol\":8452:8498  uint256[] memory result = new uint256[](count) */\n      swap1\n      pop\n        /* \"BookStore.sol\":8514:8523  uint256 i */\n      0x00\n        /* \"BookStore.sol\":8509:8600  for (uint256 i = 0; i < count; i++) {... */\n    tag_162:\n        /* \"BookStore.sol\":8533:8538  count */\n      dup3\n        /* \"BookStore.sol\":8529:8530  i */\n      dup2\n        /* \"BookStore.sol\":8529:8538  i < count */\n      lt\n        /* \"BookStore.sol\":8509:8600  for (uint256 i = 0; i < count; i++) {... */\n      iszero\n      tag_163\n      jumpi\n        /* \"BookStore.sol\":8572:8585  lowStockBooks */\n      dup4\n        /* \"BookStore.sol\":8586:8587  i */\n      dup2\n        /* \"BookStore.sol\":8572:8588  lowStockBooks[i] */\n      dup2\n      mload\n      dup2\n      lt\n      tag_165\n      jumpi\n      tag_166\n      tag_149\n      jump\t// in\n    tag_166:\n    tag_165:\n      0x20\n      mul\n      0x20\n      add\n      add\n      mload\n        /* \"BookStore.sol\":8560:8566  result */\n      dup3\n        /* \"BookStore.sol\":8567:8568  i */\n      dup3\n        /* \"BookStore.sol\":8560:8569  result[i] */\n      dup2\n      mload\n      dup2\n      lt\n      tag_167\n      jumpi\n      tag_168\n      tag_149\n      jump\t// in\n    tag_168:\n    tag_167:\n      0x20\n      mul\n      0x20\n      add\n      add\n        /* \"BookStore.sol\":8560:8588  result[i] = lowStockBooks[i] */\n      dup2\n      dup2\n      mstore\n      pop\n      pop\n        /* \"BookStore.sol\":8540:8543  i++ */\n      dup1\n      dup1\n      0x01\n      add\n      swap2\n      pop\n      pop\n        /* \"BookStore.sol\":8509:8600  for (uint256 i = 0; i < count; i++) {... */\n      jump(tag_162)\n    tag_163:\n      pop\n        /* \"BookStore.sol\":8627:8633  result */\n      dup1\n        /* \"BookStore.sol\":8620:8633  return result */\n      swap4\n      pop\n      pop\n      pop\n      pop\n        /* \"BookStore.sol\":7985:8641  function getLowStockBooks() public view returns (uint256[] memory) {... */\n      swap1\n      jump\t// out\n        /* \"BookStore.sol\":7689:7784  function getBooksCount() public view returns (uint256) {... */\n    tag_57:\n        /* \"BookStore.sol\":7735:7742  uint256 */\n      0x00\n        /* \"BookStore.sol\":7762:7769  bookIds */\n      0x02\n        /* \"BookStore.sol\":7762:7776  bookIds.length */\n      dup1\n      sload\n      swap1\n      pop\n        /* \"BookStore.sol\":7755:7776  return bookIds.length */\n      swap1\n      pop\n        /* \"BookStore.sol\":7689:7784  function getBooksCount() public view returns (uint256) {... */\n      swap1\n      jump\t// out\n        /* \"BookStore.sol\":5292:5807  function getBook(uint256 _bookId) ... */\n    tag_62:\n        /* \"BookStore.sol\":5421:5434  string memory */\n      0x60\n        /* \"BookStore.sol\":5449:5462  string memory */\n      dup1\n        /* \"BookStore.sol\":5477:5484  uint256 */\n      0x00\n        /* \"BookStore.sol\":5499:5506  uint256 */\n      dup1\n        /* \"BookStore.sol\":5521:5525  bool */\n      0x00\n        /* \"BookStore.sol\":5540:5547  uint256 */\n      dup1\n        /* \"BookStore.sol\":5379:5386  _bookId */\n      dup7\n        /* \"BookStore.sol\":3166:3167  0 */\n      0x00\n        /* \"BookStore.sol\":3142:3147  books */\n      0x01\n        /* \"BookStore.sol\":3142:3156  books[_bookId] */\n      0x00\n        /* \"BookStore.sol\":3148:3155  _bookId */\n      dup4\n        /* \"BookStore.sol\":3142:3156  books[_bookId] */\n      dup2\n      mstore\n      0x20\n      add\n      swap1\n      dup2\n      mstore\n      0x20\n      add\n      0x00\n      keccak256\n        /* \"BookStore.sol\":3142:3162  books[_bookId].price */\n      0x02\n      add\n      sload\n        /* \"BookStore.sol\":3142:3167  books[_bookId].price != 0 */\n      sub\n        /* \"BookStore.sol\":3134:3192  require(books[_bookId].price != 0, \"Book does not exist.\") */\n      tag_171\n      jumpi\n      mload(0x40)\n      0x08c379a000000000000000000000000000000000000000000000000000000000\n      dup2\n      mstore\n      0x04\n      add\n      tag_172\n      swap1\n      tag_73\n      jump\t// in\n    tag_172:\n      mload(0x40)\n      dup1\n      swap2\n      sub\n      swap1\n      revert\n    tag_171:\n        /* \"BookStore.sol\":5576:5592  Book memory book */\n      0x00\n        /* \"BookStore.sol\":5595:5600  books */\n      0x01\n        /* \"BookStore.sol\":5595:5609  books[_bookId] */\n      0x00\n        /* \"BookStore.sol\":5601:5608  _bookId */\n      dup11\n        /* \"BookStore.sol\":5595:5609  books[_bookId] */\n      dup2\n      mstore\n      0x20\n      add\n      swap1\n      dup2\n      mstore\n      0x20\n      add\n      0x00\n      keccak256\n        /* \"BookStore.sol\":5576:5609  Book memory book = books[_bookId] */\n      mload(0x40)\n      dup1\n      0xe0\n      add\n      0x40\n      mstore\n      swap1\n      dup2\n      0x00\n      dup3\n      add\n      dup1\n      sload\n      tag_174\n      swap1\n      tag_125\n      jump\t// in\n    tag_174:\n      dup1\n      0x1f\n      add\n      0x20\n      dup1\n      swap2\n      div\n      mul\n      0x20\n      add\n      mload(0x40)\n      swap1\n      dup2\n      add\n      0x40\n      mstore\n      dup1\n      swap3\n      swap2\n      swap1\n      dup2\n      dup2\n      mstore\n      0x20\n      add\n      dup3\n      dup1\n      sload\n      tag_175\n      swap1\n      tag_125\n      jump\t// in\n    tag_175:\n      dup1\n      iszero\n      tag_176\n      jumpi\n      dup1\n      0x1f\n      lt\n      tag_177\n      jumpi\n      0x0100\n      dup1\n      dup4\n      sload\n      div\n      mul\n      dup4\n      mstore\n      swap2\n      0x20\n      add\n      swap2\n      jump(tag_176)\n    tag_177:\n      dup3\n      add\n      swap2\n      swap1\n      0x00\n      mstore\n      keccak256(0x00, 0x20)\n      swap1\n    tag_178:\n      dup2\n      sload\n      dup2\n      mstore\n      swap1\n      0x01\n      add\n      swap1\n      0x20\n      add\n      dup1\n      dup4\n      gt\n      tag_178\n      jumpi\n      dup3\n      swap1\n      sub\n      0x1f\n      and\n      dup3\n      add\n      swap2\n    tag_176:\n      pop\n      pop\n      pop\n      pop\n      pop\n      dup2\n      mstore\n      0x20\n      add\n      0x01\n      dup3\n      add\n      dup1\n      sload\n      tag_179\n      swap1\n      tag_125\n      jump\t// in\n    tag_179:\n      dup1\n      0x1f\n      add\n      0x20\n      dup1\n      swap2\n      div\n      mul\n      0x20\n      add\n      mload(0x40)\n      swap1\n      dup2\n      add\n      0x40\n      mstore\n      dup1\n      swap3\n      swap2\n      swap1\n      dup2\n      dup2\n      mstore\n      0x20\n      add\n      dup3\n      dup1\n      sload\n      tag_180\n      swap1\n      tag_125\n      jump\t// in\n    tag_180:\n      dup1\n      iszero\n      tag_181\n      jumpi\n      dup1\n      0x1f\n      lt\n      tag_182\n      jumpi\n      0x0100\n      dup1\n      dup4\n      sload\n      div\n      mul\n      dup4\n      mstore\n      swap2\n      0x20\n      add\n      swap2\n      jump(tag_181)\n    tag_182:\n      dup3\n      add\n      swap2\n      swap1\n      0x00\n      mstore\n      keccak256(0x00, 0x20)\n      swap1\n    tag_183:\n      dup2\n      sload\n      dup2\n      mstore\n      swap1\n      0x01\n      add\n      swap1\n      0x20\n      add\n      dup1\n      dup4\n      gt\n      tag_183\n      jumpi\n      dup3\n      swap1\n      sub\n      0x1f\n      and\n      dup3\n      add\n      swap2\n    tag_181:\n      pop\n      pop\n      pop\n      pop\n      pop\n      dup2\n      mstore\n      0x20\n      add\n      0x02\n      dup3\n      add\n      sload\n      dup2\n      mstore\n      0x20\n      add\n      0x03\n      dup3\n      add\n      sload\n      dup2\n      mstore\n      0x20\n      add\n      0x04\n      dup3\n      add\n      0x00\n      swap1\n      sload\n      swap1\n      0x0100\n      exp\n      swap1\n      div\n      0xff\n      and\n      iszero\n      iszero\n      iszero\n      iszero\n      dup2\n      mstore\n      0x20\n      add\n      0x05\n      dup3\n      add\n      sload\n      dup2\n      mstore\n      0x20\n      add\n      0x06\n      dup3\n      add\n      sload\n      dup2\n      mstore\n      pop\n      pop\n      swap1\n      pop\n        /* \"BookStore.sol\":5642:5646  book */\n      dup1\n        /* \"BookStore.sol\":5642:5652  book.title */\n      0x00\n      add\n      mload\n        /* \"BookStore.sol\":5667:5671  book */\n      dup2\n        /* \"BookStore.sol\":5667:5678  book.author */\n      0x20\n      add\n      mload\n        /* \"BookStore.sol\":5693:5697  book */\n      dup3\n        /* \"BookStore.sol\":5693:5703  book.price */\n      0x40\n      add\n      mload\n        /* \"BookStore.sol\":5718:5722  book */\n      dup4\n        /* \"BookStore.sol\":5718:5728  book.stock */\n      0x60\n      add\n      mload\n        /* \"BookStore.sol\":5743:5747  book */\n      dup5\n        /* \"BookStore.sol\":5743:5759  book.isAvailable */\n      0x80\n      add\n      mload\n        /* \"BookStore.sol\":5774:5778  book */\n      dup6\n        /* \"BookStore.sol\":5774:5788  book.totalSold */\n      0xa0\n      add\n      mload\n        /* \"BookStore.sol\":5620:5799  return (... */\n      swap8\n      pop\n      swap8\n      pop\n      swap8\n      pop\n      swap8\n      pop\n      swap8\n      pop\n      swap8\n      pop\n      pop\n        /* \"BookStore.sol\":5292:5807  function getBook(uint256 _bookId) ... */\n      pop\n      swap2\n      swap4\n      swap6\n      pop\n      swap2\n      swap4\n      swap6\n      jump\t// out\n        /* \"BookStore.sol\":3289:4426  function addBook(... */\n    tag_69:\n        /* \"BookStore.sol\":3009:3014  owner */\n      0x00\n      dup1\n      sload\n      swap1\n      0x0100\n      exp\n      swap1\n      div\n      0xffffffffffffffffffffffffffffffffffffffff\n      and\n        /* \"BookStore.sol\":2995:3014  msg.sender == owner */\n      0xffffffffffffffffffffffffffffffffffffffff\n      and\n        /* \"BookStore.sol\":2995:3005  msg.sender */\n      caller\n        /* \"BookStore.sol\":2995:3014  msg.sender == owner */\n      0xffffffffffffffffffffffffffffffffffffffff\n      and\n      eq\n        /* \"BookStore.sol\":2987:3058  require(msg.sender == owner, \"Only the owner can perform this action.\") */\n      tag_185\n      jumpi\n      mload(0x40)\n      0x08c379a000000000000000000000000000000000000000000000000000000000\n      dup2\n      mstore\n      0x04\n      add\n      tag_186\n      swap1\n      tag_108\n      jump\t// in\n    tag_186:\n      mload(0x40)\n      dup1\n      swap2\n      sub\n      swap1\n      revert\n    tag_185:\n        /* \"BookStore.sol\":3516:3517  0 */\n      0x00\n        /* \"BookStore.sol\":3492:3497  books */\n      0x01\n        /* \"BookStore.sol\":3492:3506  books[_bookId] */\n      0x00\n        /* \"BookStore.sol\":3498:3505  _bookId */\n      dup8\n        /* \"BookStore.sol\":3492:3506  books[_bookId] */\n      dup2\n      mstore\n      0x20\n      add\n      swap1\n      dup2\n      mstore\n      0x20\n      add\n      0x00\n      keccak256\n        /* \"BookStore.sol\":3492:3512  books[_bookId].price */\n      0x02\n      add\n      sload\n        /* \"BookStore.sol\":3492:3517  books[_bookId].price == 0 */\n      eq\n        /* \"BookStore.sol\":3484:3555  require(books[_bookId].price == 0, \"Book already exists with this ID.\") */\n      tag_188\n      jumpi\n      mload(0x40)\n      0x08c379a000000000000000000000000000000000000000000000000000000000\n      dup2\n      mstore\n      0x04\n      add\n      tag_189\n      swap1\n      tag_190\n      jump\t// in\n    tag_189:\n      mload(0x40)\n      dup1\n      swap2\n      sub\n      swap1\n      revert\n    tag_188:\n        /* \"BookStore.sol\":3597:3598  0 */\n      0x00\n        /* \"BookStore.sol\":3580:3586  _title */\n      dup5\n        /* \"BookStore.sol\":3574:3594  bytes(_title).length */\n      mload\n        /* \"BookStore.sol\":3574:3598  bytes(_title).length > 0 */\n      gt\n        /* \"BookStore.sol\":3566:3624  require(bytes(_title).length > 0, \"Title cannot be empty\") */\n      tag_191\n      jumpi\n      mload(0x40)\n      0x08c379a000000000000000000000000000000000000000000000000000000000\n      dup2\n      mstore\n      0x04\n      add\n      tag_192\n      swap1\n      tag_193\n      jump\t// in\n    tag_192:\n      mload(0x40)\n      dup1\n      swap2\n      sub\n      swap1\n      revert\n    tag_191:\n        /* \"BookStore.sol\":3667:3668  0 */\n      0x00\n        /* \"BookStore.sol\":3649:3656  _author */\n      dup4\n        /* \"BookStore.sol\":3643:3664  bytes(_author).length */\n      mload\n        /* \"BookStore.sol\":3643:3668  bytes(_author).length > 0 */\n      gt\n        /* \"BookStore.sol\":3635:3695  require(bytes(_author).length > 0, \"Author cannot be empty\") */\n      tag_194\n      jumpi\n      mload(0x40)\n      0x08c379a000000000000000000000000000000000000000000000000000000000\n      dup2\n      mstore\n      0x04\n      add\n      tag_195\n      swap1\n      tag_196\n      jump\t// in\n    tag_195:\n      mload(0x40)\n      dup1\n      swap2\n      sub\n      swap1\n      revert\n    tag_194:\n        /* \"BookStore.sol\":3723:3724  0 */\n      0x00\n        /* \"BookStore.sol\":3714:3720  _price */\n      dup3\n        /* \"BookStore.sol\":3714:3724  _price > 0 */\n      gt\n        /* \"BookStore.sol\":3706:3757  require(_price > 0, \"Price must be greater than 0\") */\n      tag_197\n      jumpi\n      mload(0x40)\n      0x08c379a000000000000000000000000000000000000000000000000000000000\n      dup2\n      mstore\n      0x04\n      add\n      tag_198\n      swap1\n      tag_199\n      jump\t// in\n    tag_198:\n      mload(0x40)\n      dup1\n      swap2\n      sub\n      swap1\n      revert\n    tag_197:\n        /* \"BookStore.sol\":3795:4038  Book({... */\n      mload(0x40)\n      dup1\n      0xe0\n      add\n      0x40\n      mstore\n      dup1\n        /* \"BookStore.sol\":3822:3828  _title */\n      dup6\n        /* \"BookStore.sol\":3795:4038  Book({... */\n      dup2\n      mstore\n      0x20\n      add\n        /* \"BookStore.sol\":3851:3858  _author */\n      dup5\n        /* \"BookStore.sol\":3795:4038  Book({... */\n      dup2\n      mstore\n      0x20\n      add\n        /* \"BookStore.sol\":3880:3886  _price */\n      dup4\n        /* \"BookStore.sol\":3795:4038  Book({... */\n      dup2\n      mstore\n      0x20\n      add\n        /* \"BookStore.sol\":3908:3914  _stock */\n      dup3\n        /* \"BookStore.sol\":3795:4038  Book({... */\n      dup2\n      mstore\n      0x20\n      add\n        /* \"BookStore.sol\":3951:3952  0 */\n      0x00\n        /* \"BookStore.sol\":3942:3948  _stock */\n      dup4\n        /* \"BookStore.sol\":3942:3952  _stock > 0 */\n      gt\n        /* \"BookStore.sol\":3795:4038  Book({... */\n      iszero\n      iszero\n      dup2\n      mstore\n      0x20\n      add\n        /* \"BookStore.sol\":3978:3979  0 */\n      0x00\n        /* \"BookStore.sol\":3795:4038  Book({... */\n      dup2\n      mstore\n      0x20\n      add\n        /* \"BookStore.sol\":4011:4026  block.timestamp */\n      timestamp\n        /* \"BookStore.sol\":3795:4038  Book({... */\n      dup2\n      mstore\n      pop\n        /* \"BookStore.sol\":3778:3783  books */\n      0x01\n        /* \"BookStore.sol\":3778:3792  books[_bookId] */\n      0x00\n        /* \"BookStore.sol\":3784:3791  _bookId */\n      dup8\n        /* \"BookStore.sol\":3778:3792  books[_bookId] */\n      dup2\n      mstore\n      0x20\n      add\n      swap1\n      dup2\n      mstore\n      0x20\n      add\n      0x00\n      keccak256\n        /* \"BookStore.sol\":3778:4038  books[_bookId] = Book({... */\n      0x00\n      dup3\n      add\n      mload\n      dup2\n      0x00\n      add\n      swap1\n      dup2\n      tag_200\n      swap2\n      swap1\n      tag_201\n      jump\t// in\n    tag_200:\n      pop\n      0x20\n      dup3\n      add\n      mload\n      dup2\n      0x01\n      add\n      swap1\n      dup2\n      tag_202\n      swap2\n      swap1\n      tag_201\n      jump\t// in\n    tag_202:\n      pop\n      0x40\n      dup3\n      add\n      mload\n      dup2\n      0x02\n      add\n      sstore\n      0x60\n      dup3\n      add\n      mload\n      dup2\n      0x03\n      add\n      sstore\n      0x80\n      dup3\n      add\n      mload\n      dup2\n      0x04\n      add\n      exp(0x0100, 0x00)\n      dup2\n      sload\n      dup2\n      0xff\n      mul\n      not\n      and\n      swap1\n      dup4\n      iszero\n      iszero\n      mul\n      or\n      swap1\n      sstore\n      pop\n      0xa0\n      dup3\n      add\n      mload\n      dup2\n      0x05\n      add\n      sstore\n      0xc0\n      dup3\n      add\n      mload\n      dup2\n      0x06\n      add\n      sstore\n      swap1\n      pop\n      pop\n        /* \"BookStore.sol\":4059:4066  bookIds */\n      0x02\n        /* \"BookStore.sol\":4072:4079  _bookId */\n      dup6\n        /* \"BookStore.sol\":4059:4080  bookIds.push(_bookId) */\n      swap1\n      dup1\n      0x01\n      dup2\n      sload\n      add\n      dup1\n      dup3\n      sstore\n      dup1\n      swap2\n      pop\n      pop\n      0x01\n      swap1\n      sub\n      swap1\n      0x00\n      mstore\n      keccak256(0x00, 0x20)\n      add\n      0x00\n      swap1\n      swap2\n      swap1\n      swap2\n      swap1\n      swap2\n      pop\n      sstore\n        /* \"BookStore.sol\":4241:4251  msg.sender */\n      caller\n        /* \"BookStore.sol\":4106:4292  BookAdded(... */\n      0xffffffffffffffffffffffffffffffffffffffff\n      and\n        /* \"BookStore.sol\":4130:4137  _bookId */\n      dup6\n        /* \"BookStore.sol\":4106:4292  BookAdded(... */\n      0x0aba03d640b7e89b89ad55697cd42b6d97fe767da110bd21d3e8c4155d960c6a\n        /* \"BookStore.sol\":4153:4159  _title */\n      dup7\n        /* \"BookStore.sol\":4175:4182  _author */\n      dup7\n        /* \"BookStore.sol\":4198:4204  _price */\n      dup7\n        /* \"BookStore.sol\":4220:4226  _stock */\n      dup7\n        /* \"BookStore.sol\":4266:4281  block.timestamp */\n      timestamp\n        /* \"BookStore.sol\":4106:4292  BookAdded(... */\n      mload(0x40)\n      tag_204\n      swap6\n      swap5\n      swap4\n      swap3\n      swap2\n      swap1\n      tag_205\n      jump\t// in\n    tag_204:\n      mload(0x40)\n      dup1\n      swap2\n      sub\n      swap1\n      log3\n        /* \"BookStore.sol\":1528:1529  5 */\n      0x05\n        /* \"BookStore.sol\":4309:4315  _stock */\n      dup2\n        /* \"BookStore.sol\":4309:4338  _stock <= LOW_STOCK_THRESHOLD */\n      gt\n        /* \"BookStore.sol\":4305:4419  if (_stock <= LOW_STOCK_THRESHOLD) {... */\n      tag_206\n      jumpi\n        /* \"BookStore.sol\":4374:4381  _bookId */\n      dup5\n        /* \"BookStore.sol\":4360:4407  LowStockAlert(_bookId, _stock, block.timestamp) */\n      0xd4861c7c49d2de3a568f2178030b6e45c2e7144a254917b544f9021d05e6033e\n        /* \"BookStore.sol\":4383:4389  _stock */\n      dup3\n        /* \"BookStore.sol\":4391:4406  block.timestamp */\n      timestamp\n        /* \"BookStore.sol\":4360:4407  LowStockAlert(_bookId, _stock, block.timestamp) */\n      mload(0x40)\n      tag_207\n      swap3\n      swap2\n      swap1\n      tag_101\n      jump\t// in\n    tag_207:\n      mload(0x40)\n      dup1\n      swap2\n      sub\n      swap1\n      log2\n        /* \"BookStore.sol\":4305:4419  if (_stock <= LOW_STOCK_THRESHOLD) {... */\n    tag_206:\n        /* \"BookStore.sol\":3289:4426  function addBook(... */\n      pop\n      pop\n      pop\n      pop\n      pop\n      jump\t// out\n        /* \"#utility.yul\":7:82   */\n    tag_208:\n        /* \"#utility.yul\":40:46   */\n      0x00\n        /* \"#utility.yul\":73:75   */\n      0x40\n        /* \"#utility.yul\":67:76   */\n      mload\n        /* \"#utility.yul\":57:76   */\n      swap1\n      pop\n        /* \"#utility.yul\":7:82   */\n      swap1\n      jump\t// out\n        /* \"#utility.yul\":88:205   */\n    tag_209:\n        /* \"#utility.yul\":197:198   */\n      0x00\n        /* \"#utility.yul\":194:195   */\n      dup1\n        /* \"#utility.yul\":187:199   */\n      revert\n        /* \"#utility.yul\":211:328   */\n    tag_210:\n        /* \"#utility.yul\":320:321   */\n      0x00\n        /* \"#utility.yul\":317:318   */\n      dup1\n        /* \"#utility.yul\":310:322   */\n      revert\n        /* \"#utility.yul\":334:411   */\n    tag_211:\n        /* \"#utility.yul\":371:378   */\n      0x00\n        /* \"#utility.yul\":400:405   */\n      dup2\n        /* \"#utility.yul\":389:405   */\n      swap1\n      pop\n        /* \"#utility.yul\":334:411   */\n      swap2\n      swap1\n      pop\n      jump\t// out\n        /* \"#utility.yul\":417:539   */\n    tag_212:\n        /* \"#utility.yul\":490:514   */\n      tag_287\n        /* \"#utility.yul\":508:513   */\n      dup2\n        /* \"#utility.yul\":490:514   */\n      tag_211\n      jump\t// in\n    tag_287:\n        /* \"#utility.yul\":483:488   */\n      dup2\n        /* \"#utility.yul\":480:515   */\n      eq\n        /* \"#utility.yul\":470:533   */\n      tag_288\n      jumpi\n        /* \"#utility.yul\":529:530   */\n      0x00\n        /* \"#utility.yul\":526:527   */\n      dup1\n        /* \"#utility.yul\":519:531   */\n      revert\n        /* \"#utility.yul\":470:533   */\n    tag_288:\n        /* \"#utility.yul\":417:539   */\n      pop\n      jump\t// out\n        /* \"#utility.yul\":545:684   */\n    tag_213:\n        /* \"#utility.yul\":591:596   */\n      0x00\n        /* \"#utility.yul\":629:635   */\n      dup2\n        /* \"#utility.yul\":616:636   */\n      calldataload\n        /* \"#utility.yul\":607:636   */\n      swap1\n      pop\n        /* \"#utility.yul\":645:678   */\n      tag_290\n        /* \"#utility.yul\":672:677   */\n      dup2\n        /* \"#utility.yul\":645:678   */\n      tag_212\n      jump\t// in\n    tag_290:\n        /* \"#utility.yul\":545:684   */\n      swap3\n      swap2\n      pop\n      pop\n      jump\t// out\n        /* \"#utility.yul\":690:1164   */\n    tag_16:\n        /* \"#utility.yul\":758:764   */\n      0x00\n        /* \"#utility.yul\":766:772   */\n      dup1\n        /* \"#utility.yul\":815:817   */\n      0x40\n        /* \"#utility.yul\":803:812   */\n      dup4\n        /* \"#utility.yul\":794:801   */\n      dup6\n        /* \"#utility.yul\":790:813   */\n      sub\n        /* \"#utility.yul\":786:818   */\n      slt\n        /* \"#utility.yul\":783:902   */\n      iszero\n      tag_292\n      jumpi\n        /* \"#utility.yul\":821:900   */\n      tag_293\n      tag_209\n      jump\t// in\n    tag_293:\n        /* \"#utility.yul\":783:902   */\n    tag_292:\n        /* \"#utility.yul\":941:942   */\n      0x00\n        /* \"#utility.yul\":966:1019   */\n      tag_294\n        /* \"#utility.yul\":1011:1018   */\n      dup6\n        /* \"#utility.yul\":1002:1008   */\n      dup3\n        /* \"#utility.yul\":991:1000   */\n      dup7\n        /* \"#utility.yul\":987:1009   */\n      add\n        /* \"#utility.yul\":966:1019   */\n      tag_213\n      jump\t// in\n    tag_294:\n        /* \"#utility.yul\":956:1019   */\n      swap3\n      pop\n        /* \"#utility.yul\":912:1029   */\n      pop\n        /* \"#utility.yul\":1068:1070   */\n      0x20\n        /* \"#utility.yul\":1094:1147   */\n      tag_295\n        /* \"#utility.yul\":1139:1146   */\n      dup6\n        /* \"#utility.yul\":1130:1136   */\n      dup3\n        /* \"#utility.yul\":1119:1128   */\n      dup7\n        /* \"#utility.yul\":1115:1137   */\n      add\n        /* \"#utility.yul\":1094:1147   */\n      tag_213\n      jump\t// in\n    tag_295:\n        /* \"#utility.yul\":1084:1147   */\n      swap2\n      pop\n        /* \"#utility.yul\":1039:1157   */\n      pop\n        /* \"#utility.yul\":690:1164   */\n      swap3\n      pop\n      swap3\n      swap1\n      pop\n      jump\t// out\n        /* \"#utility.yul\":1170:1789   */\n    tag_21:\n        /* \"#utility.yul\":1247:1253   */\n      0x00\n        /* \"#utility.yul\":1255:1261   */\n      dup1\n        /* \"#utility.yul\":1263:1269   */\n      0x00\n        /* \"#utility.yul\":1312:1314   */\n      0x60\n        /* \"#utility.yul\":1300:1309   */\n      dup5\n        /* \"#utility.yul\":1291:1298   */\n      dup7\n        /* \"#utility.yul\":1287:1310   */\n      sub\n        /* \"#utility.yul\":1283:1315   */\n      slt\n        /* \"#utility.yul\":1280:1399   */\n      iszero\n      tag_297\n      jumpi\n        /* \"#utility.yul\":1318:1397   */\n      tag_298\n      tag_209\n      jump\t// in\n    tag_298:\n        /* \"#utility.yul\":1280:1399   */\n    tag_297:\n        /* \"#utility.yul\":1438:1439   */\n      0x00\n        /* \"#utility.yul\":1463:1516   */\n      tag_299\n        /* \"#utility.yul\":1508:1515   */\n      dup7\n        /* \"#utility.yul\":1499:1505   */\n      dup3\n        /* \"#utility.yul\":1488:1497   */\n      dup8\n        /* \"#utility.yul\":1484:1506   */\n      add\n        /* \"#utility.yul\":1463:1516   */\n      tag_213\n      jump\t// in\n    tag_299:\n        /* \"#utility.yul\":1453:1516   */\n      swap4\n      pop\n        /* \"#utility.yul\":1409:1526   */\n      pop\n        /* \"#utility.yul\":1565:1567   */\n      0x20\n        /* \"#utility.yul\":1591:1644   */\n      tag_300\n        /* \"#utility.yul\":1636:1643   */\n      dup7\n        /* \"#utility.yul\":1627:1633   */\n      dup3\n        /* \"#utility.yul\":1616:1625   */\n      dup8\n        /* \"#utility.yul\":1612:1634   */\n      add\n        /* \"#utility.yul\":1591:1644   */\n      tag_213\n      jump\t// in\n    tag_300:\n        /* \"#utility.yul\":1581:1644   */\n      swap3\n      pop\n        /* \"#utility.yul\":1536:1654   */\n      pop\n        /* \"#utility.yul\":1693:1695   */\n      0x40\n        /* \"#utility.yul\":1719:1772   */\n      tag_301\n        /* \"#utility.yul\":1764:1771   */\n      dup7\n        /* \"#utility.yul\":1755:1761   */\n      dup3\n        /* \"#utility.yul\":1744:1753   */\n      dup8\n        /* \"#utility.yul\":1740:1762   */\n      add\n        /* \"#utility.yul\":1719:1772   */\n      tag_213\n      jump\t// in\n    tag_301:\n        /* \"#utility.yul\":1709:1772   */\n      swap2\n      pop\n        /* \"#utility.yul\":1664:1782   */\n      pop\n        /* \"#utility.yul\":1170:1789   */\n      swap3\n      pop\n      swap3\n      pop\n      swap3\n      jump\t// out\n        /* \"#utility.yul\":1795:1909   */\n    tag_214:\n        /* \"#utility.yul\":1862:1868   */\n      0x00\n        /* \"#utility.yul\":1896:1901   */\n      dup2\n        /* \"#utility.yul\":1890:1902   */\n      mload\n        /* \"#utility.yul\":1880:1902   */\n      swap1\n      pop\n        /* \"#utility.yul\":1795:1909   */\n      swap2\n      swap1\n      pop\n      jump\t// out\n        /* \"#utility.yul\":1915:2099   */\n    tag_215:\n        /* \"#utility.yul\":2014:2025   */\n      0x00\n        /* \"#utility.yul\":2048:2054   */\n      dup3\n        /* \"#utility.yul\":2043:2046   */\n      dup3\n        /* \"#utility.yul\":2036:2055   */\n      mstore\n        /* \"#utility.yul\":2088:2092   */\n      0x20\n        /* \"#utility.yul\":2083:2086   */\n      dup3\n        /* \"#utility.yul\":2079:2093   */\n      add\n        /* \"#utility.yul\":2064:2093   */\n      swap1\n      pop\n        /* \"#utility.yul\":1915:2099   */\n      swap3\n      swap2\n      pop\n      pop\n      jump\t// out\n        /* \"#utility.yul\":2105:2237   */\n    tag_216:\n        /* \"#utility.yul\":2172:2176   */\n      0x00\n        /* \"#utility.yul\":2195:2198   */\n      dup2\n        /* \"#utility.yul\":2187:2198   */\n      swap1\n      pop\n        /* \"#utility.yul\":2225:2229   */\n      0x20\n        /* \"#utility.yul\":2220:2223   */\n      dup3\n        /* \"#utility.yul\":2216:2230   */\n      add\n        /* \"#utility.yul\":2208:2230   */\n      swap1\n      pop\n        /* \"#utility.yul\":2105:2237   */\n      swap2\n      swap1\n      pop\n      jump\t// out\n        /* \"#utility.yul\":2243:2351   */\n    tag_217:\n        /* \"#utility.yul\":2320:2344   */\n      tag_306\n        /* \"#utility.yul\":2338:2343   */\n      dup2\n        /* \"#utility.yul\":2320:2344   */\n      tag_211\n      jump\t// in\n    tag_306:\n        /* \"#utility.yul\":2315:2318   */\n      dup3\n        /* \"#utility.yul\":2308:2345   */\n      mstore\n        /* \"#utility.yul\":2243:2351   */\n      pop\n      pop\n      jump\t// out\n        /* \"#utility.yul\":2357:2536   */\n    tag_218:\n        /* \"#utility.yul\":2426:2436   */\n      0x00\n        /* \"#utility.yul\":2447:2493   */\n      tag_308\n        /* \"#utility.yul\":2489:2492   */\n      dup4\n        /* \"#utility.yul\":2481:2487   */\n      dup4\n        /* \"#utility.yul\":2447:2493   */\n      tag_217\n      jump\t// in\n    tag_308:\n        /* \"#utility.yul\":2525:2529   */\n      0x20\n        /* \"#utility.yul\":2520:2523   */\n      dup4\n        /* \"#utility.yul\":2516:2530   */\n      add\n        /* \"#utility.yul\":2502:2530   */\n      swap1\n      pop\n        /* \"#utility.yul\":2357:2536   */\n      swap3\n      swap2\n      pop\n      pop\n      jump\t// out\n        /* \"#utility.yul\":2542:2655   */\n    tag_219:\n        /* \"#utility.yul\":2612:2616   */\n      0x00\n        /* \"#utility.yul\":2644:2648   */\n      0x20\n        /* \"#utility.yul\":2639:2642   */\n      dup3\n        /* \"#utility.yul\":2635:2649   */\n      add\n        /* \"#utility.yul\":2627:2649   */\n      swap1\n      pop\n        /* \"#utility.yul\":2542:2655   */\n      swap2\n      swap1\n      pop\n      jump\t// out\n        /* \"#utility.yul\":2691:3423   */\n    tag_220:\n        /* \"#utility.yul\":2810:2813   */\n      0x00\n        /* \"#utility.yul\":2839:2893   */\n      tag_311\n        /* \"#utility.yul\":2887:2892   */\n      dup3\n        /* \"#utility.yul\":2839:2893   */\n      tag_214\n      jump\t// in\n    tag_311:\n        /* \"#utility.yul\":2909:2995   */\n      tag_312\n        /* \"#utility.yul\":2988:2994   */\n      dup2\n        /* \"#utility.yul\":2983:2986   */\n      dup6\n        /* \"#utility.yul\":2909:2995   */\n      tag_215\n      jump\t// in\n    tag_312:\n        /* \"#utility.yul\":2902:2995   */\n      swap4\n      pop\n        /* \"#utility.yul\":3019:3075   */\n      tag_313\n        /* \"#utility.yul\":3069:3074   */\n      dup4\n        /* \"#utility.yul\":3019:3075   */\n      tag_216\n      jump\t// in\n    tag_313:\n        /* \"#utility.yul\":3098:3105   */\n      dup1\n        /* \"#utility.yul\":3129:3130   */\n      0x00\n        /* \"#utility.yul\":3114:3398   */\n    tag_314:\n        /* \"#utility.yul\":3139:3145   */\n      dup4\n        /* \"#utility.yul\":3136:3137   */\n      dup2\n        /* \"#utility.yul\":3133:3146   */\n      lt\n        /* \"#utility.yul\":3114:3398   */\n      iszero\n      tag_316\n      jumpi\n        /* \"#utility.yul\":3215:3221   */\n      dup2\n        /* \"#utility.yul\":3209:3222   */\n      mload\n        /* \"#utility.yul\":3242:3305   */\n      tag_317\n        /* \"#utility.yul\":3301:3304   */\n      dup9\n        /* \"#utility.yul\":3286:3299   */\n      dup3\n        /* \"#utility.yul\":3242:3305   */\n      tag_218\n      jump\t// in\n    tag_317:\n        /* \"#utility.yul\":3235:3305   */\n      swap8\n      pop\n        /* \"#utility.yul\":3328:3388   */\n      tag_318\n        /* \"#utility.yul\":3381:3387   */\n      dup4\n        /* \"#utility.yul\":3328:3388   */\n      tag_219\n      jump\t// in\n    tag_318:\n        /* \"#utility.yul\":3318:3388   */\n      swap3\n      pop\n        /* \"#utility.yul\":3174:3398   */\n      pop\n        /* \"#utility.yul\":3161:3162   */\n      0x01\n        /* \"#utility.yul\":3158:3159   */\n      dup2\n        /* \"#utility.yul\":3154:3163   */\n      add\n        /* \"#utility.yul\":3149:3163   */\n      swap1\n      pop\n        /* \"#utility.yul\":3114:3398   */\n      jump(tag_314)\n    tag_316:\n        /* \"#utility.yul\":3118:3132   */\n      pop\n        /* \"#utility.yul\":3414:3417   */\n      dup6\n        /* \"#utility.yul\":3407:3417   */\n      swap4\n      pop\n        /* \"#utility.yul\":2815:3423   */\n      pop\n      pop\n      pop\n        /* \"#utility.yul\":2691:3423   */\n      swap3\n      swap2\n      pop\n      pop\n      jump\t// out\n        /* \"#utility.yul\":3429:3802   */\n    tag_27:\n        /* \"#utility.yul\":3572:3576   */\n      0x00\n        /* \"#utility.yul\":3610:3612   */\n      0x20\n        /* \"#utility.yul\":3599:3608   */\n      dup3\n        /* \"#utility.yul\":3595:3613   */\n      add\n        /* \"#utility.yul\":3587:3613   */\n      swap1\n      pop\n        /* \"#utility.yul\":3659:3668   */\n      dup2\n        /* \"#utility.yul\":3653:3657   */\n      dup2\n        /* \"#utility.yul\":3649:3669   */\n      sub\n        /* \"#utility.yul\":3645:3646   */\n      0x00\n        /* \"#utility.yul\":3634:3643   */\n      dup4\n        /* \"#utility.yul\":3630:3647   */\n      add\n        /* \"#utility.yul\":3623:3670   */\n      mstore\n        /* \"#utility.yul\":3687:3795   */\n      tag_320\n        /* \"#utility.yul\":3790:3794   */\n      dup2\n        /* \"#utility.yul\":3781:3787   */\n      dup5\n        /* \"#utility.yul\":3687:3795   */\n      tag_220\n      jump\t// in\n    tag_320:\n        /* \"#utility.yul\":3679:3795   */\n      swap1\n      pop\n        /* \"#utility.yul\":3429:3802   */\n      swap3\n      swap2\n      pop\n      pop\n      jump\t// out\n        /* \"#utility.yul\":3808:4137   */\n    tag_31:\n        /* \"#utility.yul\":3867:3873   */\n      0x00\n        /* \"#utility.yul\":3916:3918   */\n      0x20\n        /* \"#utility.yul\":3904:3913   */\n      dup3\n        /* \"#utility.yul\":3895:3902   */\n      dup5\n        /* \"#utility.yul\":3891:3914   */\n      sub\n        /* \"#utility.yul\":3887:3919   */\n      slt\n        /* \"#utility.yul\":3884:4003   */\n      iszero\n      tag_322\n      jumpi\n        /* \"#utility.yul\":3922:4001   */\n      tag_323\n      tag_209\n      jump\t// in\n    tag_323:\n        /* \"#utility.yul\":3884:4003   */\n    tag_322:\n        /* \"#utility.yul\":4042:4043   */\n      0x00\n        /* \"#utility.yul\":4067:4120   */\n      tag_324\n        /* \"#utility.yul\":4112:4119   */\n      dup5\n        /* \"#utility.yul\":4103:4109   */\n      dup3\n        /* \"#utility.yul\":4092:4101   */\n      dup6\n        /* \"#utility.yul\":4088:4110   */\n      add\n        /* \"#utility.yul\":4067:4120   */\n      tag_213\n      jump\t// in\n    tag_324:\n        /* \"#utility.yul\":4057:4120   */\n      swap2\n      pop\n        /* \"#utility.yul\":4013:4130   */\n      pop\n        /* \"#utility.yul\":3808:4137   */\n      swap3\n      swap2\n      pop\n      pop\n      jump\t// out\n        /* \"#utility.yul\":4143:4261   */\n    tag_221:\n        /* \"#utility.yul\":4230:4254   */\n      tag_326\n        /* \"#utility.yul\":4248:4253   */\n      dup2\n        /* \"#utility.yul\":4230:4254   */\n      tag_211\n      jump\t// in\n    tag_326:\n        /* \"#utility.yul\":4225:4228   */\n      dup3\n        /* \"#utility.yul\":4218:4255   */\n      mstore\n        /* \"#utility.yul\":4143:4261   */\n      pop\n      pop\n      jump\t// out\n        /* \"#utility.yul\":4267:4489   */\n    tag_34:\n        /* \"#utility.yul\":4360:4364   */\n      0x00\n        /* \"#utility.yul\":4398:4400   */\n      0x20\n        /* \"#utility.yul\":4387:4396   */\n      dup3\n        /* \"#utility.yul\":4383:4401   */\n      add\n        /* \"#utility.yul\":4375:4401   */\n      swap1\n      pop\n        /* \"#utility.yul\":4411:4482   */\n      tag_328\n        /* \"#utility.yul\":4479:4480   */\n      0x00\n        /* \"#utility.yul\":4468:4477   */\n      dup4\n        /* \"#utility.yul\":4464:4481   */\n      add\n        /* \"#utility.yul\":4455:4461   */\n      dup5\n        /* \"#utility.yul\":4411:4482   */\n      tag_221\n      jump\t// in\n    tag_328:\n        /* \"#utility.yul\":4267:4489   */\n      swap3\n      swap2\n      pop\n      pop\n      jump\t// out\n        /* \"#utility.yul\":4495:4594   */\n    tag_222:\n        /* \"#utility.yul\":4547:4553   */\n      0x00\n        /* \"#utility.yul\":4581:4586   */\n      dup2\n        /* \"#utility.yul\":4575:4587   */\n      mload\n        /* \"#utility.yul\":4565:4587   */\n      swap1\n      pop\n        /* \"#utility.yul\":4495:4594   */\n      swap2\n      swap1\n      pop\n      jump\t// out\n        /* \"#utility.yul\":4600:4769   */\n    tag_223:\n        /* \"#utility.yul\":4684:4695   */\n      0x00\n        /* \"#utility.yul\":4718:4724   */\n      dup3\n        /* \"#utility.yul\":4713:4716   */\n      dup3\n        /* \"#utility.yul\":4706:4725   */\n      mstore\n        /* \"#utility.yul\":4758:4762   */\n      0x20\n        /* \"#utility.yul\":4753:4756   */\n      dup3\n        /* \"#utility.yul\":4749:4763   */\n      add\n        /* \"#utility.yul\":4734:4763   */\n      swap1\n      pop\n        /* \"#utility.yul\":4600:4769   */\n      swap3\n      swap2\n      pop\n      pop\n      jump\t// out\n        /* \"#utility.yul\":4775:4914   */\n    tag_224:\n        /* \"#utility.yul\":4864:4870   */\n      dup3\n        /* \"#utility.yul\":4859:4862   */\n      dup2\n        /* \"#utility.yul\":4854:4857   */\n      dup4\n        /* \"#utility.yul\":4848:4871   */\n      mcopy\n        /* \"#utility.yul\":4905:4906   */\n      0x00\n        /* \"#utility.yul\":4896:4902   */\n      dup4\n        /* \"#utility.yul\":4891:4894   */\n      dup4\n        /* \"#utility.yul\":4887:4903   */\n      add\n        /* \"#utility.yul\":4880:4907   */\n      mstore\n        /* \"#utility.yul\":4775:4914   */\n      pop\n      pop\n      pop\n      jump\t// out\n        /* \"#utility.yul\":4920:5022   */\n    tag_225:\n        /* \"#utility.yul\":4961:4967   */\n      0x00\n        /* \"#utility.yul\":5012:5014   */\n      0x1f\n        /* \"#utility.yul\":5008:5015   */\n      not\n        /* \"#utility.yul\":5003:5005   */\n      0x1f\n        /* \"#utility.yul\":4996:5001   */\n      dup4\n        /* \"#utility.yul\":4992:5006   */\n      add\n        /* \"#utility.yul\":4988:5016   */\n      and\n        /* \"#utility.yul\":4978:5016   */\n      swap1\n      pop\n        /* \"#utility.yul\":4920:5022   */\n      swap2\n      swap1\n      pop\n      jump\t// out\n        /* \"#utility.yul\":5028:5405   */\n    tag_226:\n        /* \"#utility.yul\":5116:5119   */\n      0x00\n        /* \"#utility.yul\":5144:5183   */\n      tag_334\n        /* \"#utility.yul\":5177:5182   */\n      dup3\n        /* \"#utility.yul\":5144:5183   */\n      tag_222\n      jump\t// in\n    tag_334:\n        /* \"#utility.yul\":5199:5270   */\n      tag_335\n        /* \"#utility.yul\":5263:5269   */\n      dup2\n        /* \"#utility.yul\":5258:5261   */\n      dup6\n        /* \"#utility.yul\":5199:5270   */\n      tag_223\n      jump\t// in\n    tag_335:\n        /* \"#utility.yul\":5192:5270   */\n      swap4\n      pop\n        /* \"#utility.yul\":5279:5344   */\n      tag_336\n        /* \"#utility.yul\":5337:5343   */\n      dup2\n        /* \"#utility.yul\":5332:5335   */\n      dup6\n        /* \"#utility.yul\":5325:5329   */\n      0x20\n        /* \"#utility.yul\":5318:5323   */\n      dup7\n        /* \"#utility.yul\":5314:5330   */\n      add\n        /* \"#utility.yul\":5279:5344   */\n      tag_224\n      jump\t// in\n    tag_336:\n        /* \"#utility.yul\":5369:5398   */\n      tag_337\n        /* \"#utility.yul\":5391:5397   */\n      dup2\n        /* \"#utility.yul\":5369:5398   */\n      tag_225\n      jump\t// in\n    tag_337:\n        /* \"#utility.yul\":5364:5367   */\n      dup5\n        /* \"#utility.yul\":5360:5399   */\n      add\n        /* \"#utility.yul\":5353:5399   */\n      swap2\n      pop\n        /* \"#utility.yul\":5120:5405   */\n      pop\n        /* \"#utility.yul\":5028:5405   */\n      swap3\n      swap2\n      pop\n      pop\n      jump\t// out\n        /* \"#utility.yul\":5411:5501   */\n    tag_227:\n        /* \"#utility.yul\":5445:5452   */\n      0x00\n        /* \"#utility.yul\":5488:5493   */\n      dup2\n        /* \"#utility.yul\":5481:5494   */\n      iszero\n        /* \"#utility.yul\":5474:5495   */\n      iszero\n        /* \"#utility.yul\":5463:5495   */\n      swap1\n      pop\n        /* \"#utility.yul\":5411:5501   */\n      swap2\n      swap1\n      pop\n      jump\t// out\n        /* \"#utility.yul\":5507:5616   */\n    tag_228:\n        /* \"#utility.yul\":5588:5609   */\n      tag_340\n        /* \"#utility.yul\":5603:5608   */\n      dup2\n        /* \"#utility.yul\":5588:5609   */\n      tag_227\n      jump\t// in\n    tag_340:\n        /* \"#utility.yul\":5583:5586   */\n      dup3\n        /* \"#utility.yul\":5576:5610   */\n      mstore\n        /* \"#utility.yul\":5507:5616   */\n      pop\n      pop\n      jump\t// out\n        /* \"#utility.yul\":5622:6678   */\n    tag_40:\n        /* \"#utility.yul\":5917:5921   */\n      0x00\n        /* \"#utility.yul\":5955:5958   */\n      0xe0\n        /* \"#utility.yul\":5944:5953   */\n      dup3\n        /* \"#utility.yul\":5940:5959   */\n      add\n        /* \"#utility.yul\":5932:5959   */\n      swap1\n      pop\n        /* \"#utility.yul\":6005:6014   */\n      dup2\n        /* \"#utility.yul\":5999:6003   */\n      dup2\n        /* \"#utility.yul\":5995:6015   */\n      sub\n        /* \"#utility.yul\":5991:5992   */\n      0x00\n        /* \"#utility.yul\":5980:5989   */\n      dup4\n        /* \"#utility.yul\":5976:5993   */\n      add\n        /* \"#utility.yul\":5969:6016   */\n      mstore\n        /* \"#utility.yul\":6033:6111   */\n      tag_342\n        /* \"#utility.yul\":6106:6110   */\n      dup2\n        /* \"#utility.yul\":6097:6103   */\n      dup11\n        /* \"#utility.yul\":6033:6111   */\n      tag_226\n      jump\t// in\n    tag_342:\n        /* \"#utility.yul\":6025:6111   */\n      swap1\n      pop\n        /* \"#utility.yul\":6158:6167   */\n      dup2\n        /* \"#utility.yul\":6152:6156   */\n      dup2\n        /* \"#utility.yul\":6148:6168   */\n      sub\n        /* \"#utility.yul\":6143:6145   */\n      0x20\n        /* \"#utility.yul\":6132:6141   */\n      dup4\n        /* \"#utility.yul\":6128:6146   */\n      add\n        /* \"#utility.yul\":6121:6169   */\n      mstore\n        /* \"#utility.yul\":6186:6264   */\n      tag_343\n        /* \"#utility.yul\":6259:6263   */\n      dup2\n        /* \"#utility.yul\":6250:6256   */\n      dup10\n        /* \"#utility.yul\":6186:6264   */\n      tag_226\n      jump\t// in\n    tag_343:\n        /* \"#utility.yul\":6178:6264   */\n      swap1\n      pop\n        /* \"#utility.yul\":6274:6346   */\n      tag_344\n        /* \"#utility.yul\":6342:6344   */\n      0x40\n        /* \"#utility.yul\":6331:6340   */\n      dup4\n        /* \"#utility.yul\":6327:6345   */\n      add\n        /* \"#utility.yul\":6318:6324   */\n      dup9\n        /* \"#utility.yul\":6274:6346   */\n      tag_221\n      jump\t// in\n    tag_344:\n        /* \"#utility.yul\":6356:6428   */\n      tag_345\n        /* \"#utility.yul\":6424:6426   */\n      0x60\n        /* \"#utility.yul\":6413:6422   */\n      dup4\n        /* \"#utility.yul\":6409:6427   */\n      add\n        /* \"#utility.yul\":6400:6406   */\n      dup8\n        /* \"#utility.yul\":6356:6428   */\n      tag_221\n      jump\t// in\n    tag_345:\n        /* \"#utility.yul\":6438:6505   */\n      tag_346\n        /* \"#utility.yul\":6500:6503   */\n      0x80\n        /* \"#utility.yul\":6489:6498   */\n      dup4\n        /* \"#utility.yul\":6485:6504   */\n      add\n        /* \"#utility.yul\":6476:6482   */\n      dup7\n        /* \"#utility.yul\":6438:6505   */\n      tag_228\n      jump\t// in\n    tag_346:\n        /* \"#utility.yul\":6515:6588   */\n      tag_347\n        /* \"#utility.yul\":6583:6586   */\n      0xa0\n        /* \"#utility.yul\":6572:6581   */\n      dup4\n        /* \"#utility.yul\":6568:6587   */\n      add\n        /* \"#utility.yul\":6559:6565   */\n      dup6\n        /* \"#utility.yul\":6515:6588   */\n      tag_221\n      jump\t// in\n    tag_347:\n        /* \"#utility.yul\":6598:6671   */\n      tag_348\n        /* \"#utility.yul\":6666:6669   */\n      0xc0\n        /* \"#utility.yul\":6655:6664   */\n      dup4\n        /* \"#utility.yul\":6651:6670   */\n      add\n        /* \"#utility.yul\":6642:6648   */\n      dup5\n        /* \"#utility.yul\":6598:6671   */\n      tag_221\n      jump\t// in\n    tag_348:\n        /* \"#utility.yul\":5622:6678   */\n      swap9\n      swap8\n      pop\n      pop\n      pop\n      pop\n      pop\n      pop\n      pop\n      pop\n      jump\t// out\n        /* \"#utility.yul\":6684:6810   */\n    tag_229:\n        /* \"#utility.yul\":6721:6728   */\n      0x00\n        /* \"#utility.yul\":6761:6803   */\n      0xffffffffffffffffffffffffffffffffffffffff\n        /* \"#utility.yul\":6754:6759   */\n      dup3\n        /* \"#utility.yul\":6750:6804   */\n      and\n        /* \"#utility.yul\":6739:6804   */\n      swap1\n      pop\n        /* \"#utility.yul\":6684:6810   */\n      swap2\n      swap1\n      pop\n      jump\t// out\n        /* \"#utility.yul\":6816:6912   */\n    tag_230:\n        /* \"#utility.yul\":6853:6860   */\n      0x00\n        /* \"#utility.yul\":6882:6906   */\n      tag_351\n        /* \"#utility.yul\":6900:6905   */\n      dup3\n        /* \"#utility.yul\":6882:6906   */\n      tag_229\n      jump\t// in\n    tag_351:\n        /* \"#utility.yul\":6871:6906   */\n      swap1\n      pop\n        /* \"#utility.yul\":6816:6912   */\n      swap2\n      swap1\n      pop\n      jump\t// out\n        /* \"#utility.yul\":6918:7036   */\n    tag_231:\n        /* \"#utility.yul\":7005:7029   */\n      tag_353\n        /* \"#utility.yul\":7023:7028   */\n      dup2\n        /* \"#utility.yul\":7005:7029   */\n      tag_230\n      jump\t// in\n    tag_353:\n        /* \"#utility.yul\":7000:7003   */\n      dup3\n        /* \"#utility.yul\":6993:7030   */\n      mstore\n        /* \"#utility.yul\":6918:7036   */\n      pop\n      pop\n      jump\t// out\n        /* \"#utility.yul\":7042:7264   */\n    tag_45:\n        /* \"#utility.yul\":7135:7139   */\n      0x00\n        /* \"#utility.yul\":7173:7175   */\n      0x20\n        /* \"#utility.yul\":7162:7171   */\n      dup3\n        /* \"#utility.yul\":7158:7176   */\n      add\n        /* \"#utility.yul\":7150:7176   */\n      swap1\n      pop\n        /* \"#utility.yul\":7186:7257   */\n      tag_355\n        /* \"#utility.yul\":7254:7255   */\n      0x00\n        /* \"#utility.yul\":7243:7252   */\n      dup4\n        /* \"#utility.yul\":7239:7256   */\n      add\n        /* \"#utility.yul\":7230:7236   */\n      dup5\n        /* \"#utility.yul\":7186:7257   */\n      tag_231\n      jump\t// in\n    tag_355:\n        /* \"#utility.yul\":7042:7264   */\n      swap3\n      swap2\n      pop\n      pop\n      jump\t// out\n        /* \"#utility.yul\":7270:8215   */\n    tag_64:\n        /* \"#utility.yul\":7537:7541   */\n      0x00\n        /* \"#utility.yul\":7575:7578   */\n      0xc0\n        /* \"#utility.yul\":7564:7573   */\n      dup3\n        /* \"#utility.yul\":7560:7579   */\n      add\n        /* \"#utility.yul\":7552:7579   */\n      swap1\n      pop\n        /* \"#utility.yul\":7625:7634   */\n      dup2\n        /* \"#utility.yul\":7619:7623   */\n      dup2\n        /* \"#utility.yul\":7615:7635   */\n      sub\n        /* \"#utility.yul\":7611:7612   */\n      0x00\n        /* \"#utility.yul\":7600:7609   */\n      dup4\n        /* \"#utility.yul\":7596:7613   */\n      add\n        /* \"#utility.yul\":7589:7636   */\n      mstore\n        /* \"#utility.yul\":7653:7731   */\n      tag_357\n        /* \"#utility.yul\":7726:7730   */\n      dup2\n        /* \"#utility.yul\":7717:7723   */\n      dup10\n        /* \"#utility.yul\":7653:7731   */\n      tag_226\n      jump\t// in\n    tag_357:\n        /* \"#utility.yul\":7645:7731   */\n      swap1\n      pop\n        /* \"#utility.yul\":7778:7787   */\n      dup2\n        /* \"#utility.yul\":7772:7776   */\n      dup2\n        /* \"#utility.yul\":7768:7788   */\n      sub\n        /* \"#utility.yul\":7763:7765   */\n      0x20\n        /* \"#utility.yul\":7752:7761   */\n      dup4\n        /* \"#utility.yul\":7748:7766   */\n      add\n        /* \"#utility.yul\":7741:7789   */\n      mstore\n        /* \"#utility.yul\":7806:7884   */\n      tag_358\n        /* \"#utility.yul\":7879:7883   */\n      dup2\n        /* \"#utility.yul\":7870:7876   */\n      dup9\n        /* \"#utility.yul\":7806:7884   */\n      tag_226\n      jump\t// in\n    tag_358:\n        /* \"#utility.yul\":7798:7884   */\n      swap1\n      pop\n        /* \"#utility.yul\":7894:7966   */\n      tag_359\n        /* \"#utility.yul\":7962:7964   */\n      0x40\n        /* \"#utility.yul\":7951:7960   */\n      dup4\n        /* \"#utility.yul\":7947:7965   */\n      add\n        /* \"#utility.yul\":7938:7944   */\n      dup8\n        /* \"#utility.yul\":7894:7966   */\n      tag_221\n      jump\t// in\n    tag_359:\n        /* \"#utility.yul\":7976:8048   */\n      tag_360\n        /* \"#utility.yul\":8044:8046   */\n      0x60\n        /* \"#utility.yul\":8033:8042   */\n      dup4\n        /* \"#utility.yul\":8029:8047   */\n      add\n        /* \"#utility.yul\":8020:8026   */\n      dup7\n        /* \"#utility.yul\":7976:8048   */\n      tag_221\n      jump\t// in\n    tag_360:\n        /* \"#utility.yul\":8058:8125   */\n      tag_361\n        /* \"#utility.yul\":8120:8123   */\n      0x80\n        /* \"#utility.yul\":8109:8118   */\n      dup4\n        /* \"#utility.yul\":8105:8124   */\n      add\n        /* \"#utility.yul\":8096:8102   */\n      dup6\n        /* \"#utility.yul\":8058:8125   */\n      tag_228\n      jump\t// in\n    tag_361:\n        /* \"#utility.yul\":8135:8208   */\n      tag_362\n        /* \"#utility.yul\":8203:8206   */\n      0xa0\n        /* \"#utility.yul\":8192:8201   */\n      dup4\n        /* \"#utility.yul\":8188:8207   */\n      add\n        /* \"#utility.yul\":8179:8185   */\n      dup5\n        /* \"#utility.yul\":8135:8208   */\n      tag_221\n      jump\t// in\n    tag_362:\n        /* \"#utility.yul\":7270:8215   */\n      swap8\n      swap7\n      pop\n      pop\n      pop\n      pop\n      pop\n      pop\n      pop\n      jump\t// out\n        /* \"#utility.yul\":8221:8338   */\n    tag_232:\n        /* \"#utility.yul\":8330:8331   */\n      0x00\n        /* \"#utility.yul\":8327:8328   */\n      dup1\n        /* \"#utility.yul\":8320:8332   */\n      revert\n        /* \"#utility.yul\":8344:8461   */\n    tag_233:\n        /* \"#utility.yul\":8453:8454   */\n      0x00\n        /* \"#utility.yul\":8450:8451   */\n      dup1\n        /* \"#utility.yul\":8443:8455   */\n      revert\n        /* \"#utility.yul\":8467:8647   */\n    tag_142:\n        /* \"#utility.yul\":8515:8592   */\n      0x4e487b7100000000000000000000000000000000000000000000000000000000\n        /* \"#utility.yul\":8512:8513   */\n      0x00\n        /* \"#utility.yul\":8505:8593   */\n      mstore\n        /* \"#utility.yul\":8612:8616   */\n      0x41\n        /* \"#utility.yul\":8609:8610   */\n      0x04\n        /* \"#utility.yul\":8602:8617   */\n      mstore\n        /* \"#utility.yul\":8636:8640   */\n      0x24\n        /* \"#utility.yul\":8633:8634   */\n      0x00\n        /* \"#utility.yul\":8626:8641   */\n      revert\n        /* \"#utility.yul\":8653:8934   */\n    tag_234:\n        /* \"#utility.yul\":8736:8763   */\n      tag_367\n        /* \"#utility.yul\":8758:8762   */\n      dup3\n        /* \"#utility.yul\":8736:8763   */\n      tag_225\n      jump\t// in\n    tag_367:\n        /* \"#utility.yul\":8728:8734   */\n      dup2\n        /* \"#utility.yul\":8724:8764   */\n      add\n        /* \"#utility.yul\":8866:8872   */\n      dup2\n        /* \"#utility.yul\":8854:8864   */\n      dup2\n        /* \"#utility.yul\":8851:8873   */\n      lt\n        /* \"#utility.yul\":8830:8848   */\n      0xffffffffffffffff\n        /* \"#utility.yul\":8818:8828   */\n      dup3\n        /* \"#utility.yul\":8815:8849   */\n      gt\n        /* \"#utility.yul\":8812:8874   */\n      or\n        /* \"#utility.yul\":8809:8897   */\n      iszero\n      tag_368\n      jumpi\n        /* \"#utility.yul\":8877:8895   */\n      tag_369\n      tag_142\n      jump\t// in\n    tag_369:\n        /* \"#utility.yul\":8809:8897   */\n    tag_368:\n        /* \"#utility.yul\":8917:8927   */\n      dup1\n        /* \"#utility.yul\":8913:8915   */\n      0x40\n        /* \"#utility.yul\":8906:8928   */\n      mstore\n        /* \"#utility.yul\":8696:8934   */\n      pop\n        /* \"#utility.yul\":8653:8934   */\n      pop\n      pop\n      jump\t// out\n        /* \"#utility.yul\":8940:9069   */\n    tag_235:\n        /* \"#utility.yul\":8974:8980   */\n      0x00\n        /* \"#utility.yul\":9001:9021   */\n      tag_371\n      tag_208\n      jump\t// in\n    tag_371:\n        /* \"#utility.yul\":8991:9021   */\n      swap1\n      pop\n        /* \"#utility.yul\":9030:9063   */\n      tag_372\n        /* \"#utility.yul\":9058:9062   */\n      dup3\n        /* \"#utility.yul\":9050:9056   */\n      dup3\n        /* \"#utility.yul\":9030:9063   */\n      tag_234\n      jump\t// in\n    tag_372:\n        /* \"#utility.yul\":8940:9069   */\n      swap2\n      swap1\n      pop\n      jump\t// out\n        /* \"#utility.yul\":9075:9383   */\n    tag_236:\n        /* \"#utility.yul\":9137:9141   */\n      0x00\n        /* \"#utility.yul\":9227:9245   */\n      0xffffffffffffffff\n        /* \"#utility.yul\":9219:9225   */\n      dup3\n        /* \"#utility.yul\":9216:9246   */\n      gt\n        /* \"#utility.yul\":9213:9269   */\n      iszero\n      tag_374\n      jumpi\n        /* \"#utility.yul\":9249:9267   */\n      tag_375\n      tag_142\n      jump\t// in\n    tag_375:\n        /* \"#utility.yul\":9213:9269   */\n    tag_374:\n        /* \"#utility.yul\":9287:9316   */\n      tag_376\n        /* \"#utility.yul\":9309:9315   */\n      dup3\n        /* \"#utility.yul\":9287:9316   */\n      tag_225\n      jump\t// in\n    tag_376:\n        /* \"#utility.yul\":9279:9316   */\n      swap1\n      pop\n        /* \"#utility.yul\":9371:9375   */\n      0x20\n        /* \"#utility.yul\":9365:9369   */\n      dup2\n        /* \"#utility.yul\":9361:9376   */\n      add\n        /* \"#utility.yul\":9353:9376   */\n      swap1\n      pop\n        /* \"#utility.yul\":9075:9383   */\n      swap2\n      swap1\n      pop\n      jump\t// out\n        /* \"#utility.yul\":9389:9537   */\n    tag_237:\n        /* \"#utility.yul\":9487:9493   */\n      dup3\n        /* \"#utility.yul\":9482:9485   */\n      dup2\n        /* \"#utility.yul\":9477:9480   */\n      dup4\n        /* \"#utility.yul\":9464:9494   */\n      calldatacopy\n        /* \"#utility.yul\":9528:9529   */\n      0x00\n        /* \"#utility.yul\":9519:9525   */\n      dup4\n        /* \"#utility.yul\":9514:9517   */\n      dup4\n        /* \"#utility.yul\":9510:9526   */\n      add\n        /* \"#utility.yul\":9503:9530   */\n      mstore\n        /* \"#utility.yul\":9389:9537   */\n      pop\n      pop\n      pop\n      jump\t// out\n        /* \"#utility.yul\":9543:9968   */\n    tag_238:\n        /* \"#utility.yul\":9621:9626   */\n      0x00\n        /* \"#utility.yul\":9646:9712   */\n      tag_379\n        /* \"#utility.yul\":9662:9711   */\n      tag_380\n        /* \"#utility.yul\":9704:9710   */\n      dup5\n        /* \"#utility.yul\":9662:9711   */\n      tag_236\n      jump\t// in\n    tag_380:\n        /* \"#utility.yul\":9646:9712   */\n      tag_235\n      jump\t// in\n    tag_379:\n        /* \"#utility.yul\":9637:9712   */\n      swap1\n      pop\n        /* \"#utility.yul\":9735:9741   */\n      dup3\n        /* \"#utility.yul\":9728:9733   */\n      dup2\n        /* \"#utility.yul\":9721:9742   */\n      mstore\n        /* \"#utility.yul\":9773:9777   */\n      0x20\n        /* \"#utility.yul\":9766:9771   */\n      dup2\n        /* \"#utility.yul\":9762:9778   */\n      add\n        /* \"#utility.yul\":9811:9814   */\n      dup5\n        /* \"#utility.yul\":9802:9808   */\n      dup5\n        /* \"#utility.yul\":9797:9800   */\n      dup5\n        /* \"#utility.yul\":9793:9809   */\n      add\n        /* \"#utility.yul\":9790:9815   */\n      gt\n        /* \"#utility.yul\":9787:9899   */\n      iszero\n      tag_381\n      jumpi\n        /* \"#utility.yul\":9818:9897   */\n      tag_382\n      tag_233\n      jump\t// in\n    tag_382:\n        /* \"#utility.yul\":9787:9899   */\n    tag_381:\n        /* \"#utility.yul\":9908:9962   */\n      tag_383\n        /* \"#utility.yul\":9955:9961   */\n      dup5\n        /* \"#utility.yul\":9950:9953   */\n      dup3\n        /* \"#utility.yul\":9945:9948   */\n      dup6\n        /* \"#utility.yul\":9908:9962   */\n      tag_237\n      jump\t// in\n    tag_383:\n        /* \"#utility.yul\":9627:9968   */\n      pop\n        /* \"#utility.yul\":9543:9968   */\n      swap4\n      swap3\n      pop\n      pop\n      pop\n      jump\t// out\n        /* \"#utility.yul\":9988:10328   */\n    tag_239:\n        /* \"#utility.yul\":10044:10049   */\n      0x00\n        /* \"#utility.yul\":10093:10096   */\n      dup3\n        /* \"#utility.yul\":10086:10090   */\n      0x1f\n        /* \"#utility.yul\":10078:10084   */\n      dup4\n        /* \"#utility.yul\":10074:10091   */\n      add\n        /* \"#utility.yul\":10070:10097   */\n      slt\n        /* \"#utility.yul\":10060:10182   */\n      tag_385\n      jumpi\n        /* \"#utility.yul\":10101:10180   */\n      tag_386\n      tag_232\n      jump\t// in\n    tag_386:\n        /* \"#utility.yul\":10060:10182   */\n    tag_385:\n        /* \"#utility.yul\":10218:10224   */\n      dup2\n        /* \"#utility.yul\":10205:10225   */\n      calldataload\n        /* \"#utility.yul\":10243:10322   */\n      tag_387\n        /* \"#utility.yul\":10318:10321   */\n      dup5\n        /* \"#utility.yul\":10310:10316   */\n      dup3\n        /* \"#utility.yul\":10303:10307   */\n      0x20\n        /* \"#utility.yul\":10295:10301   */\n      dup7\n        /* \"#utility.yul\":10291:10308   */\n      add\n        /* \"#utility.yul\":10243:10322   */\n      tag_238\n      jump\t// in\n    tag_387:\n        /* \"#utility.yul\":10234:10322   */\n      swap2\n      pop\n        /* \"#utility.yul\":10050:10328   */\n      pop\n        /* \"#utility.yul\":9988:10328   */\n      swap3\n      swap2\n      pop\n      pop\n      jump\t// out\n        /* \"#utility.yul\":10334:11605   */\n    tag_68:\n        /* \"#utility.yul\":10449:10455   */\n      0x00\n        /* \"#utility.yul\":10457:10463   */\n      dup1\n        /* \"#utility.yul\":10465:10471   */\n      0x00\n        /* \"#utility.yul\":10473:10479   */\n      dup1\n        /* \"#utility.yul\":10481:10487   */\n      0x00\n        /* \"#utility.yul\":10530:10533   */\n      0xa0\n        /* \"#utility.yul\":10518:10527   */\n      dup7\n        /* \"#utility.yul\":10509:10516   */\n      dup9\n        /* \"#utility.yul\":10505:10528   */\n      sub\n        /* \"#utility.yul\":10501:10534   */\n      slt\n        /* \"#utility.yul\":10498:10618   */\n      iszero\n      tag_389\n      jumpi\n        /* \"#utility.yul\":10537:10616   */\n      tag_390\n      tag_209\n      jump\t// in\n    tag_390:\n        /* \"#utility.yul\":10498:10618   */\n    tag_389:\n        /* \"#utility.yul\":10657:10658   */\n      0x00\n        /* \"#utility.yul\":10682:10735   */\n      tag_391\n        /* \"#utility.yul\":10727:10734   */\n      dup9\n        /* \"#utility.yul\":10718:10724   */\n      dup3\n        /* \"#utility.yul\":10707:10716   */\n      dup10\n        /* \"#utility.yul\":10703:10725   */\n      add\n        /* \"#utility.yul\":10682:10735   */\n      tag_213\n      jump\t// in\n    tag_391:\n        /* \"#utility.yul\":10672:10735   */\n      swap6\n      pop\n        /* \"#utility.yul\":10628:10745   */\n      pop\n        /* \"#utility.yul\":10812:10814   */\n      0x20\n        /* \"#utility.yul\":10801:10810   */\n      dup7\n        /* \"#utility.yul\":10797:10815   */\n      add\n        /* \"#utility.yul\":10784:10816   */\n      calldataload\n        /* \"#utility.yul\":10843:10861   */\n      0xffffffffffffffff\n        /* \"#utility.yul\":10835:10841   */\n      dup2\n        /* \"#utility.yul\":10832:10862   */\n      gt\n        /* \"#utility.yul\":10829:10946   */\n      iszero\n      tag_392\n      jumpi\n        /* \"#utility.yul\":10865:10944   */\n      tag_393\n      tag_210\n      jump\t// in\n    tag_393:\n        /* \"#utility.yul\":10829:10946   */\n    tag_392:\n        /* \"#utility.yul\":10970:11033   */\n      tag_394\n        /* \"#utility.yul\":11025:11032   */\n      dup9\n        /* \"#utility.yul\":11016:11022   */\n      dup3\n        /* \"#utility.yul\":11005:11014   */\n      dup10\n        /* \"#utility.yul\":11001:11023   */\n      add\n        /* \"#utility.yul\":10970:11033   */\n      tag_239\n      jump\t// in\n    tag_394:\n        /* \"#utility.yul\":10960:11033   */\n      swap5\n      pop\n        /* \"#utility.yul\":10755:11043   */\n      pop\n        /* \"#utility.yul\":11110:11112   */\n      0x40\n        /* \"#utility.yul\":11099:11108   */\n      dup7\n        /* \"#utility.yul\":11095:11113   */\n      add\n        /* \"#utility.yul\":11082:11114   */\n      calldataload\n        /* \"#utility.yul\":11141:11159   */\n      0xffffffffffffffff\n        /* \"#utility.yul\":11133:11139   */\n      dup2\n        /* \"#utility.yul\":11130:11160   */\n      gt\n        /* \"#utility.yul\":11127:11244   */\n      iszero\n      tag_395\n      jumpi\n        /* \"#utility.yul\":11163:11242   */\n      tag_396\n      tag_210\n      jump\t// in\n    tag_396:\n        /* \"#utility.yul\":11127:11244   */\n    tag_395:\n        /* \"#utility.yul\":11268:11331   */\n      tag_397\n        /* \"#utility.yul\":11323:11330   */\n      dup9\n        /* \"#utility.yul\":11314:11320   */\n      dup3\n        /* \"#utility.yul\":11303:11312   */\n      dup10\n        /* \"#utility.yul\":11299:11321   */\n      add\n        /* \"#utility.yul\":11268:11331   */\n      tag_239\n      jump\t// in\n    tag_397:\n        /* \"#utility.yul\":11258:11331   */\n      swap4\n      pop\n        /* \"#utility.yul\":11053:11341   */\n      pop\n        /* \"#utility.yul\":11380:11382   */\n      0x60\n        /* \"#utility.yul\":11406:11459   */\n      tag_398\n        /* \"#utility.yul\":11451:11458   */\n      dup9\n        /* \"#utility.yul\":11442:11448   */\n      dup3\n        /* \"#utility.yul\":11431:11440   */\n      dup10\n        /* \"#utility.yul\":11427:11449   */\n      add\n        /* \"#utility.yul\":11406:11459   */\n      tag_213\n      jump\t// in\n    tag_398:\n        /* \"#utility.yul\":11396:11459   */\n      swap3\n      pop\n        /* \"#utility.yul\":11351:11469   */\n      pop\n        /* \"#utility.yul\":11508:11511   */\n      0x80\n        /* \"#utility.yul\":11535:11588   */\n      tag_399\n        /* \"#utility.yul\":11580:11587   */\n      dup9\n        /* \"#utility.yul\":11571:11577   */\n      dup3\n        /* \"#utility.yul\":11560:11569   */\n      dup10\n        /* \"#utility.yul\":11556:11578   */\n      add\n        /* \"#utility.yul\":11535:11588   */\n      tag_213\n      jump\t// in\n    tag_399:\n        /* \"#utility.yul\":11525:11588   */\n      swap2\n      pop\n        /* \"#utility.yul\":11479:11598   */\n      pop\n        /* \"#utility.yul\":10334:11605   */\n      swap3\n      swap6\n      pop\n      swap3\n      swap6\n      swap1\n      swap4\n      pop\n      jump\t// out\n        /* \"#utility.yul\":11611:11781   */\n    tag_240:\n        /* \"#utility.yul\":11751:11773   */\n      0x426f6f6b20646f6573206e6f742065786973742e000000000000000000000000\n        /* \"#utility.yul\":11747:11748   */\n      0x00\n        /* \"#utility.yul\":11739:11745   */\n      dup3\n        /* \"#utility.yul\":11735:11749   */\n      add\n        /* \"#utility.yul\":11728:11774   */\n      mstore\n        /* \"#utility.yul\":11611:11781   */\n      pop\n      jump\t// out\n        /* \"#utility.yul\":11787:12153   */\n    tag_241:\n        /* \"#utility.yul\":11929:11932   */\n      0x00\n        /* \"#utility.yul\":11950:12017   */\n      tag_402\n        /* \"#utility.yul\":12014:12016   */\n      0x14\n        /* \"#utility.yul\":12009:12012   */\n      dup4\n        /* \"#utility.yul\":11950:12017   */\n      tag_223\n      jump\t// in\n    tag_402:\n        /* \"#utility.yul\":11943:12017   */\n      swap2\n      pop\n        /* \"#utility.yul\":12026:12119   */\n      tag_403\n        /* \"#utility.yul\":12115:12118   */\n      dup3\n        /* \"#utility.yul\":12026:12119   */\n      tag_240\n      jump\t// in\n    tag_403:\n        /* \"#utility.yul\":12144:12146   */\n      0x20\n        /* \"#utility.yul\":12139:12142   */\n      dup3\n        /* \"#utility.yul\":12135:12147   */\n      add\n        /* \"#utility.yul\":12128:12147   */\n      swap1\n      pop\n        /* \"#utility.yul\":11787:12153   */\n      swap2\n      swap1\n      pop\n      jump\t// out\n        /* \"#utility.yul\":12159:12578   */\n    tag_73:\n        /* \"#utility.yul\":12325:12329   */\n      0x00\n        /* \"#utility.yul\":12363:12365   */\n      0x20\n        /* \"#utility.yul\":12352:12361   */\n      dup3\n        /* \"#utility.yul\":12348:12366   */\n      add\n        /* \"#utility.yul\":12340:12366   */\n      swap1\n      pop\n        /* \"#utility.yul\":12412:12421   */\n      dup2\n        /* \"#utility.yul\":12406:12410   */\n      dup2\n        /* \"#utility.yul\":12402:12422   */\n      sub\n        /* \"#utility.yul\":12398:12399   */\n      0x00\n        /* \"#utility.yul\":12387:12396   */\n      dup4\n        /* \"#utility.yul\":12383:12400   */\n      add\n        /* \"#utility.yul\":12376:12423   */\n      mstore\n        /* \"#utility.yul\":12440:12571   */\n      tag_405\n        /* \"#utility.yul\":12566:12570   */\n      dup2\n        /* \"#utility.yul\":12440:12571   */\n      tag_241\n      jump\t// in\n    tag_405:\n        /* \"#utility.yul\":12432:12571   */\n      swap1\n      pop\n        /* \"#utility.yul\":12159:12578   */\n      swap2\n      swap1\n      pop\n      jump\t// out\n        /* \"#utility.yul\":12584:12764   */\n    tag_242:\n        /* \"#utility.yul\":12632:12709   */\n      0x4e487b7100000000000000000000000000000000000000000000000000000000\n        /* \"#utility.yul\":12629:12630   */\n      0x00\n        /* \"#utility.yul\":12622:12710   */\n      mstore\n        /* \"#utility.yul\":12729:12733   */\n      0x11\n        /* \"#utility.yul\":12726:12727   */\n      0x04\n        /* \"#utility.yul\":12719:12734   */\n      mstore\n        /* \"#utility.yul\":12753:12757   */\n      0x24\n        /* \"#utility.yul\":12750:12751   */\n      0x00\n        /* \"#utility.yul\":12743:12758   */\n      revert\n        /* \"#utility.yul\":12770:13180   */\n    tag_76:\n        /* \"#utility.yul\":12810:12817   */\n      0x00\n        /* \"#utility.yul\":12833:12853   */\n      tag_408\n        /* \"#utility.yul\":12851:12852   */\n      dup3\n        /* \"#utility.yul\":12833:12853   */\n      tag_211\n      jump\t// in\n    tag_408:\n        /* \"#utility.yul\":12828:12853   */\n      swap2\n      pop\n        /* \"#utility.yul\":12867:12887   */\n      tag_409\n        /* \"#utility.yul\":12885:12886   */\n      dup4\n        /* \"#utility.yul\":12867:12887   */\n      tag_211\n      jump\t// in\n    tag_409:\n        /* \"#utility.yul\":12862:12887   */\n      swap3\n      pop\n        /* \"#utility.yul\":12922:12923   */\n      dup3\n        /* \"#utility.yul\":12919:12920   */\n      dup3\n        /* \"#utility.yul\":12915:12924   */\n      mul\n        /* \"#utility.yul\":12944:12974   */\n      tag_410\n        /* \"#utility.yul\":12962:12973   */\n      dup2\n        /* \"#utility.yul\":12944:12974   */\n      tag_211\n      jump\t// in\n    tag_410:\n        /* \"#utility.yul\":12933:12974   */\n      swap2\n      pop\n        /* \"#utility.yul\":13123:13124   */\n      dup3\n        /* \"#utility.yul\":13114:13121   */\n      dup3\n        /* \"#utility.yul\":13110:13125   */\n      div\n        /* \"#utility.yul\":13107:13108   */\n      dup5\n        /* \"#utility.yul\":13104:13126   */\n      eq\n        /* \"#utility.yul\":13084:13085   */\n      dup4\n        /* \"#utility.yul\":13077:13086   */\n      iszero\n        /* \"#utility.yul\":13057:13140   */\n      or\n        /* \"#utility.yul\":13034:13173   */\n      tag_411\n      jumpi\n        /* \"#utility.yul\":13153:13171   */\n      tag_412\n      tag_242\n      jump\t// in\n    tag_412:\n        /* \"#utility.yul\":13034:13173   */\n    tag_411:\n        /* \"#utility.yul\":12818:13180   */\n      pop\n        /* \"#utility.yul\":12770:13180   */\n      swap3\n      swap2\n      pop\n      pop\n      jump\t// out\n        /* \"#utility.yul\":13186:13628   */\n    tag_78:\n        /* \"#utility.yul\":13335:13339   */\n      0x00\n        /* \"#utility.yul\":13373:13375   */\n      0x60\n        /* \"#utility.yul\":13362:13371   */\n      dup3\n        /* \"#utility.yul\":13358:13376   */\n      add\n        /* \"#utility.yul\":13350:13376   */\n      swap1\n      pop\n        /* \"#utility.yul\":13386:13457   */\n      tag_414\n        /* \"#utility.yul\":13454:13455   */\n      0x00\n        /* \"#utility.yul\":13443:13452   */\n      dup4\n        /* \"#utility.yul\":13439:13456   */\n      add\n        /* \"#utility.yul\":13430:13436   */\n      dup7\n        /* \"#utility.yul\":13386:13457   */\n      tag_221\n      jump\t// in\n    tag_414:\n        /* \"#utility.yul\":13467:13539   */\n      tag_415\n        /* \"#utility.yul\":13535:13537   */\n      0x20\n        /* \"#utility.yul\":13524:13533   */\n      dup4\n        /* \"#utility.yul\":13520:13538   */\n      add\n        /* \"#utility.yul\":13511:13517   */\n      dup6\n        /* \"#utility.yul\":13467:13539   */\n      tag_221\n      jump\t// in\n    tag_415:\n        /* \"#utility.yul\":13549:13621   */\n      tag_416\n        /* \"#utility.yul\":13617:13619   */\n      0x40\n        /* \"#utility.yul\":13606:13615   */\n      dup4\n        /* \"#utility.yul\":13602:13620   */\n      add\n        /* \"#utility.yul\":13593:13599   */\n      dup5\n        /* \"#utility.yul\":13549:13621   */\n      tag_221\n      jump\t// in\n    tag_416:\n        /* \"#utility.yul\":13186:13628   */\n      swap5\n      swap4\n      pop\n      pop\n      pop\n      pop\n      jump\t// out\n        /* \"#utility.yul\":13634:13802   */\n    tag_243:\n        /* \"#utility.yul\":13774:13794   */\n      0x426f6f6b206e6f7420617661696c61626c650000000000000000000000000000\n        /* \"#utility.yul\":13770:13771   */\n      0x00\n        /* \"#utility.yul\":13762:13768   */\n      dup3\n        /* \"#utility.yul\":13758:13772   */\n      add\n        /* \"#utility.yul\":13751:13795   */\n      mstore\n        /* \"#utility.yul\":13634:13802   */\n      pop\n      jump\t// out\n        /* \"#utility.yul\":13808:14174   */\n    tag_244:\n        /* \"#utility.yul\":13950:13953   */\n      0x00\n        /* \"#utility.yul\":13971:14038   */\n      tag_419\n        /* \"#utility.yul\":14035:14037   */\n      0x12\n        /* \"#utility.yul\":14030:14033   */\n      dup4\n        /* \"#utility.yul\":13971:14038   */\n      tag_223\n      jump\t// in\n    tag_419:\n        /* \"#utility.yul\":13964:14038   */\n      swap2\n      pop\n        /* \"#utility.yul\":14047:14140   */\n      tag_420\n        /* \"#utility.yul\":14136:14139   */\n      dup3\n        /* \"#utility.yul\":14047:14140   */\n      tag_243\n      jump\t// in\n    tag_420:\n        /* \"#utility.yul\":14165:14167   */\n      0x20\n        /* \"#utility.yul\":14160:14163   */\n      dup3\n        /* \"#utility.yul\":14156:14168   */\n      add\n        /* \"#utility.yul\":14149:14168   */\n      swap1\n      pop\n        /* \"#utility.yul\":13808:14174   */\n      swap2\n      swap1\n      pop\n      jump\t// out\n        /* \"#utility.yul\":14180:14819   */\n    tag_81:\n        /* \"#utility.yul\":14402:14406   */\n      0x00\n        /* \"#utility.yul\":14440:14442   */\n      0x60\n        /* \"#utility.yul\":14429:14438   */\n      dup3\n        /* \"#utility.yul\":14425:14443   */\n      add\n        /* \"#utility.yul\":14417:14443   */\n      swap1\n      pop\n        /* \"#utility.yul\":14453:14524   */\n      tag_422\n        /* \"#utility.yul\":14521:14522   */\n      0x00\n        /* \"#utility.yul\":14510:14519   */\n      dup4\n        /* \"#utility.yul\":14506:14523   */\n      add\n        /* \"#utility.yul\":14497:14503   */\n      dup6\n        /* \"#utility.yul\":14453:14524   */\n      tag_221\n      jump\t// in\n    tag_422:\n        /* \"#utility.yul\":14571:14580   */\n      dup2\n        /* \"#utility.yul\":14565:14569   */\n      dup2\n        /* \"#utility.yul\":14561:14581   */\n      sub\n        /* \"#utility.yul\":14556:14558   */\n      0x20\n        /* \"#utility.yul\":14545:14554   */\n      dup4\n        /* \"#utility.yul\":14541:14559   */\n      add\n        /* \"#utility.yul\":14534:14582   */\n      mstore\n        /* \"#utility.yul\":14599:14730   */\n      tag_423\n        /* \"#utility.yul\":14725:14729   */\n      dup2\n        /* \"#utility.yul\":14599:14730   */\n      tag_244\n      jump\t// in\n    tag_423:\n        /* \"#utility.yul\":14591:14730   */\n      swap1\n      pop\n        /* \"#utility.yul\":14740:14812   */\n      tag_424\n        /* \"#utility.yul\":14808:14810   */\n      0x40\n        /* \"#utility.yul\":14797:14806   */\n      dup4\n        /* \"#utility.yul\":14793:14811   */\n      add\n        /* \"#utility.yul\":14784:14790   */\n      dup5\n        /* \"#utility.yul\":14740:14812   */\n      tag_221\n      jump\t// in\n    tag_424:\n        /* \"#utility.yul\":14180:14819   */\n      swap4\n      swap3\n      pop\n      pop\n      pop\n      jump\t// out\n        /* \"#utility.yul\":14825:15002   */\n    tag_245:\n        /* \"#utility.yul\":14965:14994   */\n      0x5468697320626f6f6b206973206e6f7420617661696c61626c652e0000000000\n        /* \"#utility.yul\":14961:14962   */\n      0x00\n        /* \"#utility.yul\":14953:14959   */\n      dup3\n        /* \"#utility.yul\":14949:14963   */\n      add\n        /* \"#utility.yul\":14942:14995   */\n      mstore\n        /* \"#utility.yul\":14825:15002   */\n      pop\n      jump\t// out\n        /* \"#utility.yul\":15008:15374   */\n    tag_246:\n        /* \"#utility.yul\":15150:15153   */\n      0x00\n        /* \"#utility.yul\":15171:15238   */\n      tag_427\n        /* \"#utility.yul\":15235:15237   */\n      0x1b\n        /* \"#utility.yul\":15230:15233   */\n      dup4\n        /* \"#utility.yul\":15171:15238   */\n      tag_223\n      jump\t// in\n    tag_427:\n        /* \"#utility.yul\":15164:15238   */\n      swap2\n      pop\n        /* \"#utility.yul\":15247:15340   */\n      tag_428\n        /* \"#utility.yul\":15336:15339   */\n      dup3\n        /* \"#utility.yul\":15247:15340   */\n      tag_245\n      jump\t// in\n    tag_428:\n        /* \"#utility.yul\":15365:15367   */\n      0x20\n        /* \"#utility.yul\":15360:15363   */\n      dup3\n        /* \"#utility.yul\":15356:15368   */\n      add\n        /* \"#utility.yul\":15349:15368   */\n      swap1\n      pop\n        /* \"#utility.yul\":15008:15374   */\n      swap2\n      swap1\n      pop\n      jump\t// out\n        /* \"#utility.yul\":15380:15799   */\n    tag_83:\n        /* \"#utility.yul\":15546:15550   */\n      0x00\n        /* \"#utility.yul\":15584:15586   */\n      0x20\n        /* \"#utility.yul\":15573:15582   */\n      dup3\n        /* \"#utility.yul\":15569:15587   */\n      add\n        /* \"#utility.yul\":15561:15587   */\n      swap1\n      pop\n        /* \"#utility.yul\":15633:15642   */\n      dup2\n        /* \"#utility.yul\":15627:15631   */\n      dup2\n        /* \"#utility.yul\":15623:15643   */\n      sub\n        /* \"#utility.yul\":15619:15620   */\n      0x00\n        /* \"#utility.yul\":15608:15617   */\n      dup4\n        /* \"#utility.yul\":15604:15621   */\n      add\n        /* \"#utility.yul\":15597:15644   */\n      mstore\n        /* \"#utility.yul\":15661:15792   */\n      tag_430\n        /* \"#utility.yul\":15787:15791   */\n      dup2\n        /* \"#utility.yul\":15661:15792   */\n      tag_246\n      jump\t// in\n    tag_430:\n        /* \"#utility.yul\":15653:15792   */\n      swap1\n      pop\n        /* \"#utility.yul\":15380:15799   */\n      swap2\n      swap1\n      pop\n      jump\t// out\n        /* \"#utility.yul\":15805:15973   */\n    tag_247:\n        /* \"#utility.yul\":15945:15965   */\n      0x496e73756666696369656e742073746f636b0000000000000000000000000000\n        /* \"#utility.yul\":15941:15942   */\n      0x00\n        /* \"#utility.yul\":15933:15939   */\n      dup3\n        /* \"#utility.yul\":15929:15943   */\n      add\n        /* \"#utility.yul\":15922:15966   */\n      mstore\n        /* \"#utility.yul\":15805:15973   */\n      pop\n      jump\t// out\n        /* \"#utility.yul\":15979:16345   */\n    tag_248:\n        /* \"#utility.yul\":16121:16124   */\n      0x00\n        /* \"#utility.yul\":16142:16209   */\n      tag_433\n        /* \"#utility.yul\":16206:16208   */\n      0x12\n        /* \"#utility.yul\":16201:16204   */\n      dup4\n        /* \"#utility.yul\":16142:16209   */\n      tag_223\n      jump\t// in\n    tag_433:\n        /* \"#utility.yul\":16135:16209   */\n      swap2\n      pop\n        /* \"#utility.yul\":16218:16311   */\n      tag_434\n        /* \"#utility.yul\":16307:16310   */\n      dup3\n        /* \"#utility.yul\":16218:16311   */\n      tag_247\n      jump\t// in\n    tag_434:\n        /* \"#utility.yul\":16336:16338   */\n      0x20\n        /* \"#utility.yul\":16331:16334   */\n      dup3\n        /* \"#utility.yul\":16327:16339   */\n      add\n        /* \"#utility.yul\":16320:16339   */\n      swap1\n      pop\n        /* \"#utility.yul\":15979:16345   */\n      swap2\n      swap1\n      pop\n      jump\t// out\n        /* \"#utility.yul\":16351:16990   */\n    tag_86:\n        /* \"#utility.yul\":16573:16577   */\n      0x00\n        /* \"#utility.yul\":16611:16613   */\n      0x60\n        /* \"#utility.yul\":16600:16609   */\n      dup3\n        /* \"#utility.yul\":16596:16614   */\n      add\n        /* \"#utility.yul\":16588:16614   */\n      swap1\n      pop\n        /* \"#utility.yul\":16624:16695   */\n      tag_436\n        /* \"#utility.yul\":16692:16693   */\n      0x00\n        /* \"#utility.yul\":16681:16690   */\n      dup4\n        /* \"#utility.yul\":16677:16694   */\n      add\n        /* \"#utility.yul\":16668:16674   */\n      dup6\n        /* \"#utility.yul\":16624:16695   */\n      tag_221\n      jump\t// in\n    tag_436:\n        /* \"#utility.yul\":16742:16751   */\n      dup2\n        /* \"#utility.yul\":16736:16740   */\n      dup2\n        /* \"#utility.yul\":16732:16752   */\n      sub\n        /* \"#utility.yul\":16727:16729   */\n      0x20\n        /* \"#utility.yul\":16716:16725   */\n      dup4\n        /* \"#utility.yul\":16712:16730   */\n      add\n        /* \"#utility.yul\":16705:16753   */\n      mstore\n        /* \"#utility.yul\":16770:16901   */\n      tag_437\n        /* \"#utility.yul\":16896:16900   */\n      dup2\n        /* \"#utility.yul\":16770:16901   */\n      tag_248\n      jump\t// in\n    tag_437:\n        /* \"#utility.yul\":16762:16901   */\n      swap1\n      pop\n        /* \"#utility.yul\":16911:16983   */\n      tag_438\n        /* \"#utility.yul\":16979:16981   */\n      0x40\n        /* \"#utility.yul\":16968:16977   */\n      dup4\n        /* \"#utility.yul\":16964:16982   */\n      add\n        /* \"#utility.yul\":16955:16961   */\n      dup5\n        /* \"#utility.yul\":16911:16983   */\n      tag_221\n      jump\t// in\n    tag_438:\n        /* \"#utility.yul\":16351:16990   */\n      swap4\n      swap3\n      pop\n      pop\n      pop\n      jump\t// out\n        /* \"#utility.yul\":16996:17173   */\n    tag_249:\n        /* \"#utility.yul\":17136:17165   */\n      0x4e6f7420656e6f7567682073746f636b20617661696c61626c652e0000000000\n        /* \"#utility.yul\":17132:17133   */\n      0x00\n        /* \"#utility.yul\":17124:17130   */\n      dup3\n        /* \"#utility.yul\":17120:17134   */\n      add\n        /* \"#utility.yul\":17113:17166   */\n      mstore\n        /* \"#utility.yul\":16996:17173   */\n      pop\n      jump\t// out\n        /* \"#utility.yul\":17179:17545   */\n    tag_250:\n        /* \"#utility.yul\":17321:17324   */\n      0x00\n        /* \"#utility.yul\":17342:17409   */\n      tag_441\n        /* \"#utility.yul\":17406:17408   */\n      0x1b\n        /* \"#utility.yul\":17401:17404   */\n      dup4\n        /* \"#utility.yul\":17342:17409   */\n      tag_223\n      jump\t// in\n    tag_441:\n        /* \"#utility.yul\":17335:17409   */\n      swap2\n      pop\n        /* \"#utility.yul\":17418:17511   */\n      tag_442\n        /* \"#utility.yul\":17507:17510   */\n      dup3\n        /* \"#utility.yul\":17418:17511   */\n      tag_249\n      jump\t// in\n    tag_442:\n        /* \"#utility.yul\":17536:17538   */\n      0x20\n        /* \"#utility.yul\":17531:17534   */\n      dup3\n        /* \"#utility.yul\":17527:17539   */\n      add\n        /* \"#utility.yul\":17520:17539   */\n      swap1\n      pop\n        /* \"#utility.yul\":17179:17545   */\n      swap2\n      swap1\n      pop\n      jump\t// out\n        /* \"#utility.yul\":17551:17970   */\n    tag_88:\n        /* \"#utility.yul\":17717:17721   */\n      0x00\n        /* \"#utility.yul\":17755:17757   */\n      0x20\n        /* \"#utility.yul\":17744:17753   */\n      dup3\n        /* \"#utility.yul\":17740:17758   */\n      add\n        /* \"#utility.yul\":17732:17758   */\n      swap1\n      pop\n        /* \"#utility.yul\":17804:17813   */\n      dup2\n        /* \"#utility.yul\":17798:17802   */\n      dup2\n        /* \"#utility.yul\":17794:17814   */\n      sub\n        /* \"#utility.yul\":17790:17791   */\n      0x00\n        /* \"#utility.yul\":17779:17788   */\n      dup4\n        /* \"#utility.yul\":17775:17792   */\n      add\n        /* \"#utility.yul\":17768:17815   */\n      mstore\n        /* \"#utility.yul\":17832:17963   */\n      tag_444\n        /* \"#utility.yul\":17958:17962   */\n      dup2\n        /* \"#utility.yul\":17832:17963   */\n      tag_250\n      jump\t// in\n    tag_444:\n        /* \"#utility.yul\":17824:17963   */\n      swap1\n      pop\n        /* \"#utility.yul\":17551:17970   */\n      swap2\n      swap1\n      pop\n      jump\t// out\n        /* \"#utility.yul\":17976:18143   */\n    tag_251:\n        /* \"#utility.yul\":18116:18135   */\n      0x496e636f7272656374207061796d656e74000000000000000000000000000000\n        /* \"#utility.yul\":18112:18113   */\n      0x00\n        /* \"#utility.yul\":18104:18110   */\n      dup3\n        /* \"#utility.yul\":18100:18114   */\n      add\n        /* \"#utility.yul\":18093:18136   */\n      mstore\n        /* \"#utility.yul\":17976:18143   */\n      pop\n      jump\t// out\n        /* \"#utility.yul\":18149:18515   */\n    tag_252:\n        /* \"#utility.yul\":18291:18294   */\n      0x00\n        /* \"#utility.yul\":18312:18379   */\n      tag_447\n        /* \"#utility.yul\":18376:18378   */\n      0x11\n        /* \"#utility.yul\":18371:18374   */\n      dup4\n        /* \"#utility.yul\":18312:18379   */\n      tag_223\n      jump\t// in\n    tag_447:\n        /* \"#utility.yul\":18305:18379   */\n      swap2\n      pop\n        /* \"#utility.yul\":18388:18481   */\n      tag_448\n        /* \"#utility.yul\":18477:18480   */\n      dup3\n        /* \"#utility.yul\":18388:18481   */\n      tag_251\n      jump\t// in\n    tag_448:\n        /* \"#utility.yul\":18506:18508   */\n      0x20\n        /* \"#utility.yul\":18501:18504   */\n      dup3\n        /* \"#utility.yul\":18497:18509   */\n      add\n        /* \"#utility.yul\":18490:18509   */\n      swap1\n      pop\n        /* \"#utility.yul\":18149:18515   */\n      swap2\n      swap1\n      pop\n      jump\t// out\n        /* \"#utility.yul\":18521:19160   */\n    tag_91:\n        /* \"#utility.yul\":18743:18747   */\n      0x00\n        /* \"#utility.yul\":18781:18783   */\n      0x60\n        /* \"#utility.yul\":18770:18779   */\n      dup3\n        /* \"#utility.yul\":18766:18784   */\n      add\n        /* \"#utility.yul\":18758:18784   */\n      swap1\n      pop\n        /* \"#utility.yul\":18794:18865   */\n      tag_450\n        /* \"#utility.yul\":18862:18863   */\n      0x00\n        /* \"#utility.yul\":18851:18860   */\n      dup4\n        /* \"#utility.yul\":18847:18864   */\n      add\n        /* \"#utility.yul\":18838:18844   */\n      dup6\n        /* \"#utility.yul\":18794:18865   */\n      tag_221\n      jump\t// in\n    tag_450:\n        /* \"#utility.yul\":18912:18921   */\n      dup2\n        /* \"#utility.yul\":18906:18910   */\n      dup2\n        /* \"#utility.yul\":18902:18922   */\n      sub\n        /* \"#utility.yul\":18897:18899   */\n      0x20\n        /* \"#utility.yul\":18886:18895   */\n      dup4\n        /* \"#utility.yul\":18882:18900   */\n      add\n        /* \"#utility.yul\":18875:18923   */\n      mstore\n        /* \"#utility.yul\":18940:19071   */\n      tag_451\n        /* \"#utility.yul\":19066:19070   */\n      dup2\n        /* \"#utility.yul\":18940:19071   */\n      tag_252\n      jump\t// in\n    tag_451:\n        /* \"#utility.yul\":18932:19071   */\n      swap1\n      pop\n        /* \"#utility.yul\":19081:19153   */\n      tag_452\n        /* \"#utility.yul\":19149:19151   */\n      0x40\n        /* \"#utility.yul\":19138:19147   */\n      dup4\n        /* \"#utility.yul\":19134:19152   */\n      add\n        /* \"#utility.yul\":19125:19131   */\n      dup5\n        /* \"#utility.yul\":19081:19153   */\n      tag_221\n      jump\t// in\n    tag_452:\n        /* \"#utility.yul\":18521:19160   */\n      swap4\n      swap3\n      pop\n      pop\n      pop\n      jump\t// out\n        /* \"#utility.yul\":19166:19341   */\n    tag_253:\n        /* \"#utility.yul\":19306:19333   */\n      0x496e636f7272656374207061796d656e7420616d6f756e742e00000000000000\n        /* \"#utility.yul\":19302:19303   */\n      0x00\n        /* \"#utility.yul\":19294:19300   */\n      dup3\n        /* \"#utility.yul\":19290:19304   */\n      add\n        /* \"#utility.yul\":19283:19334   */\n      mstore\n        /* \"#utility.yul\":19166:19341   */\n      pop\n      jump\t// out\n        /* \"#utility.yul\":19347:19713   */\n    tag_254:\n        /* \"#utility.yul\":19489:19492   */\n      0x00\n        /* \"#utility.yul\":19510:19577   */\n      tag_455\n        /* \"#utility.yul\":19574:19576   */\n      0x19\n        /* \"#utility.yul\":19569:19572   */\n      dup4\n        /* \"#utility.yul\":19510:19577   */\n      tag_223\n      jump\t// in\n    tag_455:\n        /* \"#utility.yul\":19503:19577   */\n      swap2\n      pop\n        /* \"#utility.yul\":19586:19679   */\n      tag_456\n        /* \"#utility.yul\":19675:19678   */\n      dup3\n        /* \"#utility.yul\":19586:19679   */\n      tag_253\n      jump\t// in\n    tag_456:\n        /* \"#utility.yul\":19704:19706   */\n      0x20\n        /* \"#utility.yul\":19699:19702   */\n      dup3\n        /* \"#utility.yul\":19695:19707   */\n      add\n        /* \"#utility.yul\":19688:19707   */\n      swap1\n      pop\n        /* \"#utility.yul\":19347:19713   */\n      swap2\n      swap1\n      pop\n      jump\t// out\n        /* \"#utility.yul\":19719:20138   */\n    tag_93:\n        /* \"#utility.yul\":19885:19889   */\n      0x00\n        /* \"#utility.yul\":19923:19925   */\n      0x20\n        /* \"#utility.yul\":19912:19921   */\n      dup3\n        /* \"#utility.yul\":19908:19926   */\n      add\n        /* \"#utility.yul\":19900:19926   */\n      swap1\n      pop\n        /* \"#utility.yul\":19972:19981   */\n      dup2\n        /* \"#utility.yul\":19966:19970   */\n      dup2\n        /* \"#utility.yul\":19962:19982   */\n      sub\n        /* \"#utility.yul\":19958:19959   */\n      0x00\n        /* \"#utility.yul\":19947:19956   */\n      dup4\n        /* \"#utility.yul\":19943:19960   */\n      add\n        /* \"#utility.yul\":19936:19983   */\n      mstore\n        /* \"#utility.yul\":20000:20131   */\n      tag_458\n        /* \"#utility.yul\":20126:20130   */\n      dup2\n        /* \"#utility.yul\":20000:20131   */\n      tag_254\n      jump\t// in\n    tag_458:\n        /* \"#utility.yul\":19992:20131   */\n      swap1\n      pop\n        /* \"#utility.yul\":19719:20138   */\n      swap2\n      swap1\n      pop\n      jump\t// out\n        /* \"#utility.yul\":20144:20338   */\n    tag_95:\n        /* \"#utility.yul\":20184:20188   */\n      0x00\n        /* \"#utility.yul\":20204:20224   */\n      tag_460\n        /* \"#utility.yul\":20222:20223   */\n      dup3\n        /* \"#utility.yul\":20204:20224   */\n      tag_211\n      jump\t// in\n    tag_460:\n        /* \"#utility.yul\":20199:20224   */\n      swap2\n      pop\n        /* \"#utility.yul\":20238:20258   */\n      tag_461\n        /* \"#utility.yul\":20256:20257   */\n      dup4\n        /* \"#utility.yul\":20238:20258   */\n      tag_211\n      jump\t// in\n    tag_461:\n        /* \"#utility.yul\":20233:20258   */\n      swap3\n      pop\n        /* \"#utility.yul\":20282:20283   */\n      dup3\n        /* \"#utility.yul\":20279:20280   */\n      dup3\n        /* \"#utility.yul\":20275:20284   */\n      sub\n        /* \"#utility.yul\":20267:20284   */\n      swap1\n      pop\n        /* \"#utility.yul\":20306:20307   */\n      dup2\n        /* \"#utility.yul\":20300:20304   */\n      dup2\n        /* \"#utility.yul\":20297:20308   */\n      gt\n        /* \"#utility.yul\":20294:20331   */\n      iszero\n      tag_462\n      jumpi\n        /* \"#utility.yul\":20311:20329   */\n      tag_463\n      tag_242\n      jump\t// in\n    tag_463:\n        /* \"#utility.yul\":20294:20331   */\n    tag_462:\n        /* \"#utility.yul\":20144:20338   */\n      swap3\n      swap2\n      pop\n      pop\n      jump\t// out\n        /* \"#utility.yul\":20344:20535   */\n    tag_97:\n        /* \"#utility.yul\":20384:20387   */\n      0x00\n        /* \"#utility.yul\":20403:20423   */\n      tag_465\n        /* \"#utility.yul\":20421:20422   */\n      dup3\n        /* \"#utility.yul\":20403:20423   */\n      tag_211\n      jump\t// in\n    tag_465:\n        /* \"#utility.yul\":20398:20423   */\n      swap2\n      pop\n        /* \"#utility.yul\":20437:20457   */\n      tag_466\n        /* \"#utility.yul\":20455:20456   */\n      dup4\n        /* \"#utility.yul\":20437:20457   */\n      tag_211\n      jump\t// in\n    tag_466:\n        /* \"#utility.yul\":20432:20457   */\n      swap3\n      pop\n        /* \"#utility.yul\":20480:20481   */\n      dup3\n        /* \"#utility.yul\":20477:20478   */\n      dup3\n        /* \"#utility.yul\":20473:20482   */\n      add\n        /* \"#utility.yul\":20466:20482   */\n      swap1\n      pop\n        /* \"#utility.yul\":20501:20504   */\n      dup1\n        /* \"#utility.yul\":20498:20499   */\n      dup3\n        /* \"#utility.yul\":20495:20505   */\n      gt\n        /* \"#utility.yul\":20492:20528   */\n      iszero\n      tag_467\n      jumpi\n        /* \"#utility.yul\":20508:20526   */\n      tag_468\n      tag_242\n      jump\t// in\n    tag_468:\n        /* \"#utility.yul\":20492:20528   */\n    tag_467:\n        /* \"#utility.yul\":20344:20535   */\n      swap3\n      swap2\n      pop\n      pop\n      jump\t// out\n        /* \"#utility.yul\":20541:20873   */\n    tag_101:\n        /* \"#utility.yul\":20662:20666   */\n      0x00\n        /* \"#utility.yul\":20700:20702   */\n      0x40\n        /* \"#utility.yul\":20689:20698   */\n      dup3\n        /* \"#utility.yul\":20685:20703   */\n      add\n        /* \"#utility.yul\":20677:20703   */\n      swap1\n      pop\n        /* \"#utility.yul\":20713:20784   */\n      tag_470\n        /* \"#utility.yul\":20781:20782   */\n      0x00\n        /* \"#utility.yul\":20770:20779   */\n      dup4\n        /* \"#utility.yul\":20766:20783   */\n      add\n        /* \"#utility.yul\":20757:20763   */\n      dup6\n        /* \"#utility.yul\":20713:20784   */\n      tag_221\n      jump\t// in\n    tag_470:\n        /* \"#utility.yul\":20794:20866   */\n      tag_471\n        /* \"#utility.yul\":20862:20864   */\n      0x20\n        /* \"#utility.yul\":20851:20860   */\n      dup4\n        /* \"#utility.yul\":20847:20865   */\n      add\n        /* \"#utility.yul\":20838:20844   */\n      dup5\n        /* \"#utility.yul\":20794:20866   */\n      tag_221\n      jump\t// in\n    tag_471:\n        /* \"#utility.yul\":20541:20873   */\n      swap4\n      swap3\n      pop\n      pop\n      pop\n      jump\t// out\n        /* \"#utility.yul\":20879:21105   */\n    tag_255:\n        /* \"#utility.yul\":21019:21053   */\n      0x4f6e6c7920746865206f776e65722063616e20706572666f726d207468697320\n        /* \"#utility.yul\":21015:21016   */\n      0x00\n        /* \"#utility.yul\":21007:21013   */\n      dup3\n        /* \"#utility.yul\":21003:21017   */\n      add\n        /* \"#utility.yul\":20996:21054   */\n      mstore\n        /* \"#utility.yul\":21088:21097   */\n      0x616374696f6e2e00000000000000000000000000000000000000000000000000\n        /* \"#utility.yul\":21083:21085   */\n      0x20\n        /* \"#utility.yul\":21075:21081   */\n      dup3\n        /* \"#utility.yul\":21071:21086   */\n      add\n        /* \"#utility.yul\":21064:21098   */\n      mstore\n        /* \"#utility.yul\":20879:21105   */\n      pop\n      jump\t// out\n        /* \"#utility.yul\":21111:21477   */\n    tag_256:\n        /* \"#utility.yul\":21253:21256   */\n      0x00\n        /* \"#utility.yul\":21274:21341   */\n      tag_474\n        /* \"#utility.yul\":21338:21340   */\n      0x27\n        /* \"#utility.yul\":21333:21336   */\n      dup4\n        /* \"#utility.yul\":21274:21341   */\n      tag_223\n      jump\t// in\n    tag_474:\n        /* \"#utility.yul\":21267:21341   */\n      swap2\n      pop\n        /* \"#utility.yul\":21350:21443   */\n      tag_475\n        /* \"#utility.yul\":21439:21442   */\n      dup3\n        /* \"#utility.yul\":21350:21443   */\n      tag_255\n      jump\t// in\n    tag_475:\n        /* \"#utility.yul\":21468:21470   */\n      0x40\n        /* \"#utility.yul\":21463:21466   */\n      dup3\n        /* \"#utility.yul\":21459:21471   */\n      add\n        /* \"#utility.yul\":21452:21471   */\n      swap1\n      pop\n        /* \"#utility.yul\":21111:21477   */\n      swap2\n      swap1\n      pop\n      jump\t// out\n        /* \"#utility.yul\":21483:21902   */\n    tag_108:\n        /* \"#utility.yul\":21649:21653   */\n      0x00\n        /* \"#utility.yul\":21687:21689   */\n      0x20\n        /* \"#utility.yul\":21676:21685   */\n      dup3\n        /* \"#utility.yul\":21672:21690   */\n      add\n        /* \"#utility.yul\":21664:21690   */\n      swap1\n      pop\n        /* \"#utility.yul\":21736:21745   */\n      dup2\n        /* \"#utility.yul\":21730:21734   */\n      dup2\n        /* \"#utility.yul\":21726:21746   */\n      sub\n        /* \"#utility.yul\":21722:21723   */\n      0x00\n        /* \"#utility.yul\":21711:21720   */\n      dup4\n        /* \"#utility.yul\":21707:21724   */\n      add\n        /* \"#utility.yul\":21700:21747   */\n      mstore\n        /* \"#utility.yul\":21764:21895   */\n      tag_477\n        /* \"#utility.yul\":21890:21894   */\n      dup2\n        /* \"#utility.yul\":21764:21895   */\n      tag_256\n      jump\t// in\n    tag_477:\n        /* \"#utility.yul\":21756:21895   */\n      swap1\n      pop\n        /* \"#utility.yul\":21483:21902   */\n      swap2\n      swap1\n      pop\n      jump\t// out\n        /* \"#utility.yul\":21908:22449   */\n    tag_118:\n        /* \"#utility.yul\":22079:22083   */\n      0x00\n        /* \"#utility.yul\":22117:22120   */\n      0x80\n        /* \"#utility.yul\":22106:22115   */\n      dup3\n        /* \"#utility.yul\":22102:22121   */\n      add\n        /* \"#utility.yul\":22094:22121   */\n      swap1\n      pop\n        /* \"#utility.yul\":22131:22202   */\n      tag_479\n        /* \"#utility.yul\":22199:22200   */\n      0x00\n        /* \"#utility.yul\":22188:22197   */\n      dup4\n        /* \"#utility.yul\":22184:22201   */\n      add\n        /* \"#utility.yul\":22175:22181   */\n      dup8\n        /* \"#utility.yul\":22131:22202   */\n      tag_221\n      jump\t// in\n    tag_479:\n        /* \"#utility.yul\":22212:22284   */\n      tag_480\n        /* \"#utility.yul\":22280:22282   */\n      0x20\n        /* \"#utility.yul\":22269:22278   */\n      dup4\n        /* \"#utility.yul\":22265:22283   */\n      add\n        /* \"#utility.yul\":22256:22262   */\n      dup7\n        /* \"#utility.yul\":22212:22284   */\n      tag_221\n      jump\t// in\n    tag_480:\n        /* \"#utility.yul\":22294:22360   */\n      tag_481\n        /* \"#utility.yul\":22356:22358   */\n      0x40\n        /* \"#utility.yul\":22345:22354   */\n      dup4\n        /* \"#utility.yul\":22341:22359   */\n      add\n        /* \"#utility.yul\":22332:22338   */\n      dup6\n        /* \"#utility.yul\":22294:22360   */\n      tag_228\n      jump\t// in\n    tag_481:\n        /* \"#utility.yul\":22370:22442   */\n      tag_482\n        /* \"#utility.yul\":22438:22440   */\n      0x60\n        /* \"#utility.yul\":22427:22436   */\n      dup4\n        /* \"#utility.yul\":22423:22441   */\n      add\n        /* \"#utility.yul\":22414:22420   */\n      dup5\n        /* \"#utility.yul\":22370:22442   */\n      tag_221\n      jump\t// in\n    tag_482:\n        /* \"#utility.yul\":21908:22449   */\n      swap6\n      swap5\n      pop\n      pop\n      pop\n      pop\n      pop\n      jump\t// out\n        /* \"#utility.yul\":22455:22635   */\n    tag_257:\n        /* \"#utility.yul\":22503:22580   */\n      0x4e487b7100000000000000000000000000000000000000000000000000000000\n        /* \"#utility.yul\":22500:22501   */\n      0x00\n        /* \"#utility.yul\":22493:22581   */\n      mstore\n        /* \"#utility.yul\":22600:22604   */\n      0x22\n        /* \"#utility.yul\":22597:22598   */\n      0x04\n        /* \"#utility.yul\":22590:22605   */\n      mstore\n        /* \"#utility.yul\":22624:22628   */\n      0x24\n        /* \"#utility.yul\":22621:22622   */\n      0x00\n        /* \"#utility.yul\":22614:22629   */\n      revert\n        /* \"#utility.yul\":22641:22961   */\n    tag_125:\n        /* \"#utility.yul\":22685:22691   */\n      0x00\n        /* \"#utility.yul\":22722:22723   */\n      0x02\n        /* \"#utility.yul\":22716:22720   */\n      dup3\n        /* \"#utility.yul\":22712:22724   */\n      div\n        /* \"#utility.yul\":22702:22724   */\n      swap1\n      pop\n        /* \"#utility.yul\":22769:22770   */\n      0x01\n        /* \"#utility.yul\":22763:22767   */\n      dup3\n        /* \"#utility.yul\":22759:22771   */\n      and\n        /* \"#utility.yul\":22790:22808   */\n      dup1\n        /* \"#utility.yul\":22780:22861   */\n      tag_485\n      jumpi\n        /* \"#utility.yul\":22846:22850   */\n      0x7f\n        /* \"#utility.yul\":22838:22844   */\n      dup3\n        /* \"#utility.yul\":22834:22851   */\n      and\n        /* \"#utility.yul\":22824:22851   */\n      swap2\n      pop\n        /* \"#utility.yul\":22780:22861   */\n    tag_485:\n        /* \"#utility.yul\":22908:22910   */\n      0x20\n        /* \"#utility.yul\":22900:22906   */\n      dup3\n        /* \"#utility.yul\":22897:22911   */\n      lt\n        /* \"#utility.yul\":22877:22895   */\n      dup2\n        /* \"#utility.yul\":22874:22912   */\n      sub\n        /* \"#utility.yul\":22871:22955   */\n      tag_486\n      jumpi\n        /* \"#utility.yul\":22927:22945   */\n      tag_487\n      tag_257\n      jump\t// in\n    tag_487:\n        /* \"#utility.yul\":22871:22955   */\n    tag_486:\n        /* \"#utility.yul\":22692:22961   */\n      pop\n        /* \"#utility.yul\":22641:22961   */\n      swap2\n      swap1\n      pop\n      jump\t// out\n        /* \"#utility.yul\":22967:23147   */\n    tag_149:\n        /* \"#utility.yul\":23015:23092   */\n      0x4e487b7100000000000000000000000000000000000000000000000000000000\n        /* \"#utility.yul\":23012:23013   */\n      0x00\n        /* \"#utility.yul\":23005:23093   */\n      mstore\n        /* \"#utility.yul\":23112:23116   */\n      0x32\n        /* \"#utility.yul\":23109:23110   */\n      0x04\n        /* \"#utility.yul\":23102:23117   */\n      mstore\n        /* \"#utility.yul\":23136:23140   */\n      0x24\n        /* \"#utility.yul\":23133:23134   */\n      0x00\n        /* \"#utility.yul\":23126:23141   */\n      revert\n        /* \"#utility.yul\":23153:23386   */\n    tag_158:\n        /* \"#utility.yul\":23192:23195   */\n      0x00\n        /* \"#utility.yul\":23215:23239   */\n      tag_490\n        /* \"#utility.yul\":23233:23238   */\n      dup3\n        /* \"#utility.yul\":23215:23239   */\n      tag_211\n      jump\t// in\n    tag_490:\n        /* \"#utility.yul\":23206:23239   */\n      swap2\n      pop\n        /* \"#utility.yul\":23261:23327   */\n      0xffffffffffffffffffffffffffffffffffffffffffffffffffffffffffffffff\n        /* \"#utility.yul\":23254:23259   */\n      dup3\n        /* \"#utility.yul\":23251:23328   */\n      sub\n        /* \"#utility.yul\":23248:23351   */\n      tag_491\n      jumpi\n        /* \"#utility.yul\":23331:23349   */\n      tag_492\n      tag_242\n      jump\t// in\n    tag_492:\n        /* \"#utility.yul\":23248:23351   */\n    tag_491:\n        /* \"#utility.yul\":23378:23379   */\n      0x01\n        /* \"#utility.yul\":23371:23376   */\n      dup3\n        /* \"#utility.yul\":23367:23380   */\n      add\n        /* \"#utility.yul\":23360:23380   */\n      swap1\n      pop\n        /* \"#utility.yul\":23153:23386   */\n      swap2\n      swap1\n      pop\n      jump\t// out\n        /* \"#utility.yul\":23392:23612   */\n    tag_258:\n        /* \"#utility.yul\":23532:23566   */\n      0x426f6f6b20616c72656164792065786973747320776974682074686973204944\n        /* \"#utility.yul\":23528:23529   */\n      0x00\n        /* \"#utility.yul\":23520:23526   */\n      dup3\n        /* \"#utility.yul\":23516:23530   */\n      add\n        /* \"#utility.yul\":23509:23567   */\n      mstore\n        /* \"#utility.yul\":23601:23604   */\n      0x2e00000000000000000000000000000000000000000000000000000000000000\n        /* \"#utility.yul\":23596:23598   */\n      0x20\n        /* \"#utility.yul\":23588:23594   */\n      dup3\n        /* \"#utility.yul\":23584:23599   */\n      add\n        /* \"#utility.yul\":23577:23605   */\n      mstore\n        /* \"#utility.yul\":23392:23612   */\n      pop\n      jump\t// out\n        /* \"#utility.yul\":23618:23984   */\n    tag_259:\n        /* \"#utility.yul\":23760:23763   */\n      0x00\n        /* \"#utility.yul\":23781:23848   */\n      tag_495\n        /* \"#utility.yul\":23845:23847   */\n      0x21\n        /* \"#utility.yul\":23840:23843   */\n      dup4\n        /* \"#utility.yul\":23781:23848   */\n      tag_223\n      jump\t// in\n    tag_495:\n        /* \"#utility.yul\":23774:23848   */\n      swap2\n      pop\n        /* \"#utility.yul\":23857:23950   */\n      tag_496\n        /* \"#utility.yul\":23946:23949   */\n      dup3\n        /* \"#utility.yul\":23857:23950   */\n      tag_258\n      jump\t// in\n    tag_496:\n        /* \"#utility.yul\":23975:23977   */\n      0x40\n        /* \"#utility.yul\":23970:23973   */\n      dup3\n        /* \"#utility.yul\":23966:23978   */\n      add\n        /* \"#utility.yul\":23959:23978   */\n      swap1\n      pop\n        /* \"#utility.yul\":23618:23984   */\n      swap2\n      swap1\n      pop\n      jump\t// out\n        /* \"#utility.yul\":23990:24409   */\n    tag_190:\n        /* \"#utility.yul\":24156:24160   */\n      0x00\n        /* \"#utility.yul\":24194:24196   */\n      0x20\n        /* \"#utility.yul\":24183:24192   */\n      dup3\n        /* \"#utility.yul\":24179:24197   */\n      add\n        /* \"#utility.yul\":24171:24197   */\n      swap1\n      pop\n        /* \"#utility.yul\":24243:24252   */\n      dup2\n        /* \"#utility.yul\":24237:24241   */\n      dup2\n        /* \"#utility.yul\":24233:24253   */\n      sub\n        /* \"#utility.yul\":24229:24230   */\n      0x00\n        /* \"#utility.yul\":24218:24227   */\n      dup4\n        /* \"#utility.yul\":24214:24231   */\n      add\n        /* \"#utility.yul\":24207:24254   */\n      mstore\n        /* \"#utility.yul\":24271:24402   */\n      tag_498\n        /* \"#utility.yul\":24397:24401   */\n      dup2\n        /* \"#utility.yul\":24271:24402   */\n      tag_259\n      jump\t// in\n    tag_498:\n        /* \"#utility.yul\":24263:24402   */\n      swap1\n      pop\n        /* \"#utility.yul\":23990:24409   */\n      swap2\n      swap1\n      pop\n      jump\t// out\n        /* \"#utility.yul\":24415:24586   */\n    tag_260:\n        /* \"#utility.yul\":24555:24578   */\n      0x5469746c652063616e6e6f7420626520656d7074790000000000000000000000\n        /* \"#utility.yul\":24551:24552   */\n      0x00\n        /* \"#utility.yul\":24543:24549   */\n      dup3\n        /* \"#utility.yul\":24539:24553   */\n      add\n        /* \"#utility.yul\":24532:24579   */\n      mstore\n        /* \"#utility.yul\":24415:24586   */\n      pop\n      jump\t// out\n        /* \"#utility.yul\":24592:24958   */\n    tag_261:\n        /* \"#utility.yul\":24734:24737   */\n      0x00\n        /* \"#utility.yul\":24755:24822   */\n      tag_501\n        /* \"#utility.yul\":24819:24821   */\n      0x15\n        /* \"#utility.yul\":24814:24817   */\n      dup4\n        /* \"#utility.yul\":24755:24822   */\n      tag_223\n      jump\t// in\n    tag_501:\n        /* \"#utility.yul\":24748:24822   */\n      swap2\n      pop\n        /* \"#utility.yul\":24831:24924   */\n      tag_502\n        /* \"#utility.yul\":24920:24923   */\n      dup3\n        /* \"#utility.yul\":24831:24924   */\n      tag_260\n      jump\t// in\n    tag_502:\n        /* \"#utility.yul\":24949:24951   */\n      0x20\n        /* \"#utility.yul\":24944:24947   */\n      dup3\n        /* \"#utility.yul\":24940:24952   */\n      add\n        /* \"#utility.yul\":24933:24952   */\n      swap1\n      pop\n        /* \"#utility.yul\":24592:24958   */\n      swap2\n      swap1\n      pop\n      jump\t// out\n        /* \"#utility.yul\":24964:25383   */\n    tag_193:\n        /* \"#utility.yul\":25130:25134   */\n      0x00\n        /* \"#utility.yul\":25168:25170   */\n      0x20\n        /* \"#utility.yul\":25157:25166   */\n      dup3\n        /* \"#utility.yul\":25153:25171   */\n      add\n        /* \"#utility.yul\":25145:25171   */\n      swap1\n      pop\n        /* \"#utility.yul\":25217:25226   */\n      dup2\n        /* \"#utility.yul\":25211:25215   */\n      dup2\n        /* \"#utility.yul\":25207:25227   */\n      sub\n        /* \"#utility.yul\":25203:25204   */\n      0x00\n        /* \"#utility.yul\":25192:25201   */\n      dup4\n        /* \"#utility.yul\":25188:25205   */\n      add\n        /* \"#utility.yul\":25181:25228   */\n      mstore\n        /* \"#utility.yul\":25245:25376   */\n      tag_504\n        /* \"#utility.yul\":25371:25375   */\n      dup2\n        /* \"#utility.yul\":25245:25376   */\n      tag_261\n      jump\t// in\n    tag_504:\n        /* \"#utility.yul\":25237:25376   */\n      swap1\n      pop\n        /* \"#utility.yul\":24964:25383   */\n      swap2\n      swap1\n      pop\n      jump\t// out\n        /* \"#utility.yul\":25389:25561   */\n    tag_262:\n        /* \"#utility.yul\":25529:25553   */\n      0x417574686f722063616e6e6f7420626520656d70747900000000000000000000\n        /* \"#utility.yul\":25525:25526   */\n      0x00\n        /* \"#utility.yul\":25517:25523   */\n      dup3\n        /* \"#utility.yul\":25513:25527   */\n      add\n        /* \"#utility.yul\":25506:25554   */\n      mstore\n        /* \"#utility.yul\":25389:25561   */\n      pop\n      jump\t// out\n        /* \"#utility.yul\":25567:25933   */\n    tag_263:\n        /* \"#utility.yul\":25709:25712   */\n      0x00\n        /* \"#utility.yul\":25730:25797   */\n      tag_507\n        /* \"#utility.yul\":25794:25796   */\n      0x16\n        /* \"#utility.yul\":25789:25792   */\n      dup4\n        /* \"#utility.yul\":25730:25797   */\n      tag_223\n      jump\t// in\n    tag_507:\n        /* \"#utility.yul\":25723:25797   */\n      swap2\n      pop\n        /* \"#utility.yul\":25806:25899   */\n      tag_508\n        /* \"#utility.yul\":25895:25898   */\n      dup3\n        /* \"#utility.yul\":25806:25899   */\n      tag_262\n      jump\t// in\n    tag_508:\n        /* \"#utility.yul\":25924:25926   */\n      0x20\n        /* \"#utility.yul\":25919:25922   */\n      dup3\n        /* \"#utility.yul\":25915:25927   */\n      add\n        /* \"#utility.yul\":25908:25927   */\n      swap1\n      pop\n        /* \"#utility.yul\":25567:25933   */\n      swap2\n      swap1\n      pop\n      jump\t// out\n        /* \"#utility.yul\":25939:26358   */\n    tag_196:\n        /* \"#utility.yul\":26105:26109   */\n      0x00\n        /* \"#utility.yul\":26143:26145   */\n      0x20\n        /* \"#utility.yul\":26132:26141   */\n      dup3\n        /* \"#utility.yul\":26128:26146   */\n      add\n        /* \"#utility.yul\":26120:26146   */\n      swap1\n      pop\n        /* \"#utility.yul\":26192:26201   */\n      dup2\n        /* \"#utility.yul\":26186:26190   */\n      dup2\n        /* \"#utility.yul\":26182:26202   */\n      sub\n        /* \"#utility.yul\":26178:26179   */\n      0x00\n        /* \"#utility.yul\":26167:26176   */\n      dup4\n        /* \"#utility.yul\":26163:26180   */\n      add\n        /* \"#utility.yul\":26156:26203   */\n      mstore\n        /* \"#utility.yul\":26220:26351   */\n      tag_510\n        /* \"#utility.yul\":26346:26350   */\n      dup2\n        /* \"#utility.yul\":26220:26351   */\n      tag_263\n      jump\t// in\n    tag_510:\n        /* \"#utility.yul\":26212:26351   */\n      swap1\n      pop\n        /* \"#utility.yul\":25939:26358   */\n      swap2\n      swap1\n      pop\n      jump\t// out\n        /* \"#utility.yul\":26364:26542   */\n    tag_264:\n        /* \"#utility.yul\":26504:26534   */\n      0x5072696365206d7573742062652067726561746572207468616e203000000000\n        /* \"#utility.yul\":26500:26501   */\n      0x00\n        /* \"#utility.yul\":26492:26498   */\n      dup3\n        /* \"#utility.yul\":26488:26502   */\n      add\n        /* \"#utility.yul\":26481:26535   */\n      mstore\n        /* \"#utility.yul\":26364:26542   */\n      pop\n      jump\t// out\n        /* \"#utility.yul\":26548:26914   */\n    tag_265:\n        /* \"#utility.yul\":26690:26693   */\n      0x00\n        /* \"#utility.yul\":26711:26778   */\n      tag_513\n        /* \"#utility.yul\":26775:26777   */\n      0x1c\n        /* \"#utility.yul\":26770:26773   */\n      dup4\n        /* \"#utility.yul\":26711:26778   */\n      tag_223\n      jump\t// in\n    tag_513:\n        /* \"#utility.yul\":26704:26778   */\n      swap2\n      pop\n        /* \"#utility.yul\":26787:26880   */\n      tag_514\n        /* \"#utility.yul\":26876:26879   */\n      dup3\n        /* \"#utility.yul\":26787:26880   */\n      tag_264\n      jump\t// in\n    tag_514:\n        /* \"#utility.yul\":26905:26907   */\n      0x20\n        /* \"#utility.yul\":26900:26903   */\n      dup3\n        /* \"#utility.yul\":26896:26908   */\n      add\n        /* \"#utility.yul\":26889:26908   */\n      swap1\n      pop\n        /* \"#utility.yul\":26548:26914   */\n      swap2\n      swap1\n      pop\n      jump\t// out\n        /* \"#utility.yul\":26920:27339   */\n    tag_199:\n        /* \"#utility.yul\":27086:27090   */\n      0x00\n        /* \"#utility.yul\":27124:27126   */\n      0x20\n        /* \"#utility.yul\":27113:27122   */\n      dup3\n        /* \"#utility.yul\":27109:27127   */\n      add\n        /* \"#utility.yul\":27101:27127   */\n      swap1\n      pop\n        /* \"#utility.yul\":27173:27182   */\n      dup2\n        /* \"#utility.yul\":27167:27171   */\n      dup2\n        /* \"#utility.yul\":27163:27183   */\n      sub\n        /* \"#utility.yul\":27159:27160   */\n      0x00\n        /* \"#utility.yul\":27148:27157   */\n      dup4\n        /* \"#utility.yul\":27144:27161   */\n      add\n        /* \"#utility.yul\":27137:27184   */\n      mstore\n        /* \"#utility.yul\":27201:27332   */\n      tag_516\n        /* \"#utility.yul\":27327:27331   */\n      dup2\n        /* \"#utility.yul\":27201:27332   */\n      tag_265\n      jump\t// in\n    tag_516:\n        /* \"#utility.yul\":27193:27332   */\n      swap1\n      pop\n        /* \"#utility.yul\":26920:27339   */\n      swap2\n      swap1\n      pop\n      jump\t// out\n        /* \"#utility.yul\":27345:27486   */\n    tag_266:\n        /* \"#utility.yul\":27394:27398   */\n      0x00\n        /* \"#utility.yul\":27417:27420   */\n      dup2\n        /* \"#utility.yul\":27409:27420   */\n      swap1\n      pop\n        /* \"#utility.yul\":27440:27443   */\n      dup2\n        /* \"#utility.yul\":27437:27438   */\n      0x00\n        /* \"#utility.yul\":27430:27444   */\n      mstore\n        /* \"#utility.yul\":27474:27478   */\n      0x20\n        /* \"#utility.yul\":27471:27472   */\n      0x00\n        /* \"#utility.yul\":27461:27479   */\n      keccak256\n        /* \"#utility.yul\":27453:27479   */\n      swap1\n      pop\n        /* \"#utility.yul\":27345:27486   */\n      swap2\n      swap1\n      pop\n      jump\t// out\n        /* \"#utility.yul\":27492:27585   */\n    tag_267:\n        /* \"#utility.yul\":27529:27535   */\n      0x00\n        /* \"#utility.yul\":27576:27578   */\n      0x20\n        /* \"#utility.yul\":27571:27573   */\n      0x1f\n        /* \"#utility.yul\":27564:27569   */\n      dup4\n        /* \"#utility.yul\":27560:27574   */\n      add\n        /* \"#utility.yul\":27556:27579   */\n      div\n        /* \"#utility.yul\":27546:27579   */\n      swap1\n      pop\n        /* \"#utility.yul\":27492:27585   */\n      swap2\n      swap1\n      pop\n      jump\t// out\n        /* \"#utility.yul\":27591:27698   */\n    tag_268:\n        /* \"#utility.yul\":27635:27643   */\n      0x00\n        /* \"#utility.yul\":27685:27690   */\n      dup3\n        /* \"#utility.yul\":27679:27683   */\n      dup3\n        /* \"#utility.yul\":27675:27691   */\n      shl\n        /* \"#utility.yul\":27654:27691   */\n      swap1\n      pop\n        /* \"#utility.yul\":27591:27698   */\n      swap3\n      swap2\n      pop\n      pop\n      jump\t// out\n        /* \"#utility.yul\":27704:28097   */\n    tag_269:\n        /* \"#utility.yul\":27773:27779   */\n      0x00\n        /* \"#utility.yul\":27823:27824   */\n      0x08\n        /* \"#utility.yul\":27811:27821   */\n      dup4\n        /* \"#utility.yul\":27807:27825   */\n      mul\n        /* \"#utility.yul\":27846:27943   */\n      tag_521\n        /* \"#utility.yul\":27876:27942   */\n      0xffffffffffffffffffffffffffffffffffffffffffffffffffffffffffffffff\n        /* \"#utility.yul\":27865:27874   */\n      dup3\n        /* \"#utility.yul\":27846:27943   */\n      tag_268\n      jump\t// in\n    tag_521:\n        /* \"#utility.yul\":27964:28003   */\n      tag_522\n        /* \"#utility.yul\":27994:28002   */\n      dup7\n        /* \"#utility.yul\":27983:27992   */\n      dup4\n        /* \"#utility.yul\":27964:28003   */\n      tag_268\n      jump\t// in\n    tag_522:\n        /* \"#utility.yul\":27952:28003   */\n      swap6\n      pop\n        /* \"#utility.yul\":28036:28040   */\n      dup1\n        /* \"#utility.yul\":28032:28041   */\n      not\n        /* \"#utility.yul\":28025:28030   */\n      dup5\n        /* \"#utility.yul\":28021:28042   */\n      and\n        /* \"#utility.yul\":28012:28042   */\n      swap4\n      pop\n        /* \"#utility.yul\":28085:28089   */\n      dup1\n        /* \"#utility.yul\":28075:28083   */\n      dup7\n        /* \"#utility.yul\":28071:28090   */\n      and\n        /* \"#utility.yul\":28064:28069   */\n      dup5\n        /* \"#utility.yul\":28061:28091   */\n      or\n        /* \"#utility.yul\":28051:28091   */\n      swap3\n      pop\n        /* \"#utility.yul\":27780:28097   */\n      pop\n      pop\n        /* \"#utility.yul\":27704:28097   */\n      swap4\n      swap3\n      pop\n      pop\n      pop\n      jump\t// out\n        /* \"#utility.yul\":28103:28163   */\n    tag_270:\n        /* \"#utility.yul\":28131:28134   */\n      0x00\n        /* \"#utility.yul\":28152:28157   */\n      dup2\n        /* \"#utility.yul\":28145:28157   */\n      swap1\n      pop\n        /* \"#utility.yul\":28103:28163   */\n      swap2\n      swap1\n      pop\n      jump\t// out\n        /* \"#utility.yul\":28169:28311   */\n    tag_271:\n        /* \"#utility.yul\":28219:28228   */\n      0x00\n        /* \"#utility.yul\":28252:28305   */\n      tag_525\n        /* \"#utility.yul\":28270:28304   */\n      tag_526\n        /* \"#utility.yul\":28279:28303   */\n      tag_527\n        /* \"#utility.yul\":28297:28302   */\n      dup5\n        /* \"#utility.yul\":28279:28303   */\n      tag_211\n      jump\t// in\n    tag_527:\n        /* \"#utility.yul\":28270:28304   */\n      tag_270\n      jump\t// in\n    tag_526:\n        /* \"#utility.yul\":28252:28305   */\n      tag_211\n      jump\t// in\n    tag_525:\n        /* \"#utility.yul\":28239:28305   */\n      swap1\n      pop\n        /* \"#utility.yul\":28169:28311   */\n      swap2\n      swap1\n      pop\n      jump\t// out\n        /* \"#utility.yul\":28317:28392   */\n    tag_272:\n        /* \"#utility.yul\":28360:28363   */\n      0x00\n        /* \"#utility.yul\":28381:28386   */\n      dup2\n        /* \"#utility.yul\":28374:28386   */\n      swap1\n      pop\n        /* \"#utility.yul\":28317:28392   */\n      swap2\n      swap1\n      pop\n      jump\t// out\n        /* \"#utility.yul\":28398:28667   */\n    tag_273:\n        /* \"#utility.yul\":28508:28547   */\n      tag_530\n        /* \"#utility.yul\":28539:28546   */\n      dup4\n        /* \"#utility.yul\":28508:28547   */\n      tag_271\n      jump\t// in\n    tag_530:\n        /* \"#utility.yul\":28569:28660   */\n      tag_531\n        /* \"#utility.yul\":28618:28659   */\n      tag_532\n        /* \"#utility.yul\":28642:28658   */\n      dup3\n        /* \"#utility.yul\":28618:28659   */\n      tag_272\n      jump\t// in\n    tag_532:\n        /* \"#utility.yul\":28610:28616   */\n      dup5\n        /* \"#utility.yul\":28603:28607   */\n      dup5\n        /* \"#utility.yul\":28597:28608   */\n      sload\n        /* \"#utility.yul\":28569:28660   */\n      tag_269\n      jump\t// in\n    tag_531:\n        /* \"#utility.yul\":28563:28567   */\n      dup3\n        /* \"#utility.yul\":28556:28661   */\n      sstore\n        /* \"#utility.yul\":28474:28667   */\n      pop\n        /* \"#utility.yul\":28398:28667   */\n      pop\n      pop\n      pop\n      jump\t// out\n        /* \"#utility.yul\":28673:28746   */\n    tag_274:\n        /* \"#utility.yul\":28718:28721   */\n      0x00\n        /* \"#utility.yul\":28673:28746   */\n      swap1\n      jump\t// out\n        /* \"#utility.yul\":28752:28941   */\n    tag_275:\n        /* \"#utility.yul\":28829:28861   */\n      tag_535\n      tag_274\n      jump\t// in\n    tag_535:\n        /* \"#utility.yul\":28870:28935   */\n      tag_536\n        /* \"#utility.yul\":28928:28934   */\n      dup2\n        /* \"#utility.yul\":28920:28926   */\n      dup5\n        /* \"#utility.yul\":28914:28918   */\n      dup5\n        /* \"#utility.yul\":28870:28935   */\n      tag_273\n      jump\t// in\n    tag_536:\n        /* \"#utility.yul\":28805:28941   */\n      pop\n        /* \"#utility.yul\":28752:28941   */\n      pop\n      pop\n      jump\t// out\n        /* \"#utility.yul\":28947:29133   */\n    tag_276:\n        /* \"#utility.yul\":29007:29127   */\n    tag_538:\n        /* \"#utility.yul\":29024:29027   */\n      dup2\n        /* \"#utility.yul\":29017:29022   */\n      dup2\n        /* \"#utility.yul\":29014:29028   */\n      lt\n        /* \"#utility.yul\":29007:29127   */\n      iszero\n      tag_540\n      jumpi\n        /* \"#utility.yul\":29078:29117   */\n      tag_541\n        /* \"#utility.yul\":29115:29116   */\n      0x00\n        /* \"#utility.yul\":29108:29113   */\n      dup3\n        /* \"#utility.yul\":29078:29117   */\n      tag_275\n      jump\t// in\n    tag_541:\n        /* \"#utility.yul\":29051:29052   */\n      0x01\n        /* \"#utility.yul\":29044:29049   */\n      dup2\n        /* \"#utility.yul\":29040:29053   */\n      add\n        /* \"#utility.yul\":29031:29053   */\n      swap1\n      pop\n        /* \"#utility.yul\":29007:29127   */\n      jump(tag_538)\n    tag_540:\n        /* \"#utility.yul\":28947:29133   */\n      pop\n      pop\n      jump\t// out\n        /* \"#utility.yul\":29139:29682   */\n    tag_277:\n        /* \"#utility.yul\":29240:29242   */\n      0x1f\n        /* \"#utility.yul\":29235:29238   */\n      dup3\n        /* \"#utility.yul\":29232:29243   */\n      gt\n        /* \"#utility.yul\":29229:29675   */\n      iszero\n      tag_543\n      jumpi\n        /* \"#utility.yul\":29274:29312   */\n      tag_544\n        /* \"#utility.yul\":29306:29311   */\n      dup2\n        /* \"#utility.yul\":29274:29312   */\n      tag_266\n      jump\t// in\n    tag_544:\n        /* \"#utility.yul\":29358:29387   */\n      tag_545\n        /* \"#utility.yul\":29376:29386   */\n      dup5\n        /* \"#utility.yul\":29358:29387   */\n      tag_267\n      jump\t// in\n    tag_545:\n        /* \"#utility.yul\":29348:29356   */\n      dup2\n        /* \"#utility.yul\":29344:29388   */\n      add\n        /* \"#utility.yul\":29541:29543   */\n      0x20\n        /* \"#utility.yul\":29529:29539   */\n      dup6\n        /* \"#utility.yul\":29526:29544   */\n      lt\n        /* \"#utility.yul\":29523:29572   */\n      iszero\n      tag_546\n      jumpi\n        /* \"#utility.yul\":29562:29570   */\n      dup2\n        /* \"#utility.yul\":29547:29570   */\n      swap1\n      pop\n        /* \"#utility.yul\":29523:29572   */\n    tag_546:\n        /* \"#utility.yul\":29585:29665   */\n      tag_547\n        /* \"#utility.yul\":29641:29663   */\n      tag_548\n        /* \"#utility.yul\":29659:29662   */\n      dup6\n        /* \"#utility.yul\":29641:29663   */\n      tag_267\n      jump\t// in\n    tag_548:\n        /* \"#utility.yul\":29631:29639   */\n      dup4\n        /* \"#utility.yul\":29627:29664   */\n      add\n        /* \"#utility.yul\":29614:29625   */\n      dup3\n        /* \"#utility.yul\":29585:29665   */\n      tag_276\n      jump\t// in\n    tag_547:\n        /* \"#utility.yul\":29244:29675   */\n      pop\n      pop\n        /* \"#utility.yul\":29229:29675   */\n    tag_543:\n        /* \"#utility.yul\":29139:29682   */\n      pop\n      pop\n      pop\n      jump\t// out\n        /* \"#utility.yul\":29688:29805   */\n    tag_278:\n        /* \"#utility.yul\":29742:29750   */\n      0x00\n        /* \"#utility.yul\":29792:29797   */\n      dup3\n        /* \"#utility.yul\":29786:29790   */\n      dup3\n        /* \"#utility.yul\":29782:29798   */\n      shr\n        /* \"#utility.yul\":29761:29798   */\n      swap1\n      pop\n        /* \"#utility.yul\":29688:29805   */\n      swap3\n      swap2\n      pop\n      pop\n      jump\t// out\n        /* \"#utility.yul\":29811:29980   */\n    tag_279:\n        /* \"#utility.yul\":29855:29861   */\n      0x00\n        /* \"#utility.yul\":29888:29939   */\n      tag_551\n        /* \"#utility.yul\":29936:29937   */\n      0x00\n        /* \"#utility.yul\":29932:29938   */\n      not\n        /* \"#utility.yul\":29924:29929   */\n      dup5\n        /* \"#utility.yul\":29921:29922   */\n      0x08\n        /* \"#utility.yul\":29917:29930   */\n      mul\n        /* \"#utility.yul\":29888:29939   */\n      tag_278\n      jump\t// in\n    tag_551:\n        /* \"#utility.yul\":29884:29940   */\n      not\n        /* \"#utility.yul\":29969:29973   */\n      dup1\n        /* \"#utility.yul\":29963:29967   */\n      dup4\n        /* \"#utility.yul\":29959:29974   */\n      and\n        /* \"#utility.yul\":29949:29974   */\n      swap2\n      pop\n        /* \"#utility.yul\":29862:29980   */\n      pop\n        /* \"#utility.yul\":29811:29980   */\n      swap3\n      swap2\n      pop\n      pop\n      jump\t// out\n        /* \"#utility.yul\":29985:30280   */\n    tag_280:\n        /* \"#utility.yul\":30061:30065   */\n      0x00\n        /* \"#utility.yul\":30207:30236   */\n      tag_553\n        /* \"#utility.yul\":30232:30235   */\n      dup4\n        /* \"#utility.yul\":30226:30230   */\n      dup4\n        /* \"#utility.yul\":30207:30236   */\n      tag_279\n      jump\t// in\n    tag_553:\n        /* \"#utility.yul\":30199:30236   */\n      swap2\n      pop\n        /* \"#utility.yul\":30269:30272   */\n      dup3\n        /* \"#utility.yul\":30266:30267   */\n      0x02\n        /* \"#utility.yul\":30262:30273   */\n      mul\n        /* \"#utility.yul\":30256:30260   */\n      dup3\n        /* \"#utility.yul\":30253:30274   */\n      or\n        /* \"#utility.yul\":30245:30274   */\n      swap1\n      pop\n        /* \"#utility.yul\":29985:30280   */\n      swap3\n      swap2\n      pop\n      pop\n      jump\t// out\n        /* \"#utility.yul\":30285:31680   */\n    tag_201:\n        /* \"#utility.yul\":30402:30439   */\n      tag_555\n        /* \"#utility.yul\":30435:30438   */\n      dup3\n        /* \"#utility.yul\":30402:30439   */\n      tag_222\n      jump\t// in\n    tag_555:\n        /* \"#utility.yul\":30504:30522   */\n      0xffffffffffffffff\n        /* \"#utility.yul\":30496:30502   */\n      dup2\n        /* \"#utility.yul\":30493:30523   */\n      gt\n        /* \"#utility.yul\":30490:30546   */\n      iszero\n      tag_556\n      jumpi\n        /* \"#utility.yul\":30526:30544   */\n      tag_557\n      tag_142\n      jump\t// in\n    tag_557:\n        /* \"#utility.yul\":30490:30546   */\n    tag_556:\n        /* \"#utility.yul\":30570:30608   */\n      tag_558\n        /* \"#utility.yul\":30602:30606   */\n      dup3\n        /* \"#utility.yul\":30596:30607   */\n      sload\n        /* \"#utility.yul\":30570:30608   */\n      tag_125\n      jump\t// in\n    tag_558:\n        /* \"#utility.yul\":30655:30722   */\n      tag_559\n        /* \"#utility.yul\":30715:30721   */\n      dup3\n        /* \"#utility.yul\":30707:30713   */\n      dup3\n        /* \"#utility.yul\":30701:30705   */\n      dup6\n        /* \"#utility.yul\":30655:30722   */\n      tag_277\n      jump\t// in\n    tag_559:\n        /* \"#utility.yul\":30749:30750   */\n      0x00\n        /* \"#utility.yul\":30773:30777   */\n      0x20\n        /* \"#utility.yul\":30760:30777   */\n      swap1\n      pop\n        /* \"#utility.yul\":30805:30807   */\n      0x1f\n        /* \"#utility.yul\":30797:30803   */\n      dup4\n        /* \"#utility.yul\":30794:30808   */\n      gt\n        /* \"#utility.yul\":30822:30823   */\n      0x01\n        /* \"#utility.yul\":30817:31435   */\n      dup2\n      eq\n      tag_561\n      jumpi\n        /* \"#utility.yul\":31479:31480   */\n      0x00\n        /* \"#utility.yul\":31496:31502   */\n      dup5\n        /* \"#utility.yul\":31493:31570   */\n      iszero\n      tag_562\n      jumpi\n        /* \"#utility.yul\":31545:31554   */\n      dup3\n        /* \"#utility.yul\":31540:31543   */\n      dup8\n        /* \"#utility.yul\":31536:31555   */\n      add\n        /* \"#utility.yul\":31530:31556   */\n      mload\n        /* \"#utility.yul\":31521:31556   */\n      swap1\n      pop\n        /* \"#utility.yul\":31493:31570   */\n    tag_562:\n        /* \"#utility.yul\":31596:31663   */\n      tag_563\n        /* \"#utility.yul\":31656:31662   */\n      dup6\n        /* \"#utility.yul\":31649:31654   */\n      dup3\n        /* \"#utility.yul\":31596:31663   */\n      tag_280\n      jump\t// in\n    tag_563:\n        /* \"#utility.yul\":31590:31594   */\n      dup7\n        /* \"#utility.yul\":31583:31664   */\n      sstore\n        /* \"#utility.yul\":31452:31674   */\n      pop\n        /* \"#utility.yul\":30787:31674   */\n      jump(tag_560)\n        /* \"#utility.yul\":30817:31435   */\n    tag_561:\n        /* \"#utility.yul\":30869:30873   */\n      0x1f\n        /* \"#utility.yul\":30865:30874   */\n      not\n        /* \"#utility.yul\":30857:30863   */\n      dup5\n        /* \"#utility.yul\":30853:30875   */\n      and\n        /* \"#utility.yul\":30903:30940   */\n      tag_564\n        /* \"#utility.yul\":30935:30939   */\n      dup7\n        /* \"#utility.yul\":30903:30940   */\n      tag_266\n      jump\t// in\n    tag_564:\n        /* \"#utility.yul\":30962:30963   */\n      0x00\n        /* \"#utility.yul\":30976:31184   */\n    tag_565:\n        /* \"#utility.yul\":30990:30997   */\n      dup3\n        /* \"#utility.yul\":30987:30988   */\n      dup2\n        /* \"#utility.yul\":30984:30998   */\n      lt\n        /* \"#utility.yul\":30976:31184   */\n      iszero\n      tag_567\n      jumpi\n        /* \"#utility.yul\":31069:31078   */\n      dup5\n        /* \"#utility.yul\":31064:31067   */\n      dup10\n        /* \"#utility.yul\":31060:31079   */\n      add\n        /* \"#utility.yul\":31054:31080   */\n      mload\n        /* \"#utility.yul\":31046:31052   */\n      dup3\n        /* \"#utility.yul\":31039:31081   */\n      sstore\n        /* \"#utility.yul\":31120:31121   */\n      0x01\n        /* \"#utility.yul\":31112:31118   */\n      dup3\n        /* \"#utility.yul\":31108:31122   */\n      add\n        /* \"#utility.yul\":31098:31122   */\n      swap2\n      pop\n        /* \"#utility.yul\":31167:31169   */\n      0x20\n        /* \"#utility.yul\":31156:31165   */\n      dup6\n        /* \"#utility.yul\":31152:31170   */\n      add\n        /* \"#utility.yul\":31139:31170   */\n      swap5\n      pop\n        /* \"#utility.yul\":31013:31017   */\n      0x20\n        /* \"#utility.yul\":31010:31011   */\n      dup2\n        /* \"#utility.yul\":31006:31018   */\n      add\n        /* \"#utility.yul\":31001:31018   */\n      swap1\n      pop\n        /* \"#utility.yul\":30976:31184   */\n      jump(tag_565)\n    tag_567:\n        /* \"#utility.yul\":31212:31218   */\n      dup7\n        /* \"#utility.yul\":31203:31210   */\n      dup4\n        /* \"#utility.yul\":31200:31219   */\n      lt\n        /* \"#utility.yul\":31197:31376   */\n      iszero\n      tag_568\n      jumpi\n        /* \"#utility.yul\":31270:31279   */\n      dup5\n        /* \"#utility.yul\":31265:31268   */\n      dup10\n        /* \"#utility.yul\":31261:31280   */\n      add\n        /* \"#utility.yul\":31255:31281   */\n      mload\n        /* \"#utility.yul\":31313:31361   */\n      tag_569\n        /* \"#utility.yul\":31355:31359   */\n      0x1f\n        /* \"#utility.yul\":31347:31353   */\n      dup10\n        /* \"#utility.yul\":31343:31360   */\n      and\n        /* \"#utility.yul\":31332:31341   */\n      dup3\n        /* \"#utility.yul\":31313:31361   */\n      tag_279\n      jump\t// in\n    tag_569:\n        /* \"#utility.yul\":31305:31311   */\n      dup4\n        /* \"#utility.yul\":31298:31362   */\n      sstore\n        /* \"#utility.yul\":31220:31376   */\n      pop\n        /* \"#utility.yul\":31197:31376   */\n    tag_568:\n        /* \"#utility.yul\":31422:31423   */\n      0x01\n        /* \"#utility.yul\":31418:31419   */\n      0x02\n        /* \"#utility.yul\":31410:31416   */\n      dup9\n        /* \"#utility.yul\":31406:31420   */\n      mul\n        /* \"#utility.yul\":31402:31424   */\n      add\n        /* \"#utility.yul\":31396:31400   */\n      dup9\n        /* \"#utility.yul\":31389:31425   */\n      sstore\n        /* \"#utility.yul\":30824:31435   */\n      pop\n      pop\n      pop\n        /* \"#utility.yul\":30787:31674   */\n    tag_560:\n      pop\n        /* \"#utility.yul\":30377:31680   */\n      pop\n      pop\n      pop\n        /* \"#utility.yul\":30285:31680   */\n      pop\n      pop\n      jump\t// out\n        /* \"#utility.yul\":31686:32532   */\n    tag_205:\n        /* \"#utility.yul\":31931:31935   */\n      0x00\n        /* \"#utility.yul\":31969:31972   */\n      0xa0\n        /* \"#utility.yul\":31958:31967   */\n      dup3\n        /* \"#utility.yul\":31954:31973   */\n      add\n        /* \"#utility.yul\":31946:31973   */\n      swap1\n      pop\n        /* \"#utility.yul\":32019:32028   */\n      dup2\n        /* \"#utility.yul\":32013:32017   */\n      dup2\n        /* \"#utility.yul\":32009:32029   */\n      sub\n        /* \"#utility.yul\":32005:32006   */\n      0x00\n        /* \"#utility.yul\":31994:32003   */\n      dup4\n        /* \"#utility.yul\":31990:32007   */\n      add\n        /* \"#utility.yul\":31983:32030   */\n      mstore\n        /* \"#utility.yul\":32047:32125   */\n      tag_571\n        /* \"#utility.yul\":32120:32124   */\n      dup2\n        /* \"#utility.yul\":32111:32117   */\n      dup9\n        /* \"#utility.yul\":32047:32125   */\n      tag_226\n      jump\t// in\n    tag_571:\n        /* \"#utility.yul\":32039:32125   */\n      swap1\n      pop\n        /* \"#utility.yul\":32172:32181   */\n      dup2\n        /* \"#utility.yul\":32166:32170   */\n      dup2\n        /* \"#utility.yul\":32162:32182   */\n      sub\n        /* \"#utility.yul\":32157:32159   */\n      0x20\n        /* \"#utility.yul\":32146:32155   */\n      dup4\n        /* \"#utility.yul\":32142:32160   */\n      add\n        /* \"#utility.yul\":32135:32183   */\n      mstore\n        /* \"#utility.yul\":32200:32278   */\n      tag_572\n        /* \"#utility.yul\":32273:32277   */\n      dup2\n        /* \"#utility.yul\":32264:32270   */\n      dup8\n        /* \"#utility.yul\":32200:32278   */\n      tag_226\n      jump\t// in\n    tag_572:\n        /* \"#utility.yul\":32192:32278   */\n      swap1\n      pop\n        /* \"#utility.yul\":32288:32360   */\n      tag_573\n        /* \"#utility.yul\":32356:32358   */\n      0x40\n        /* \"#utility.yul\":32345:32354   */\n      dup4\n        /* \"#utility.yul\":32341:32359   */\n      add\n        /* \"#utility.yul\":32332:32338   */\n      dup7\n        /* \"#utility.yul\":32288:32360   */\n      tag_221\n      jump\t// in\n    tag_573:\n        /* \"#utility.yul\":32370:32442   */\n      tag_574\n        /* \"#utility.yul\":32438:32440   */\n      0x60\n        /* \"#utility.yul\":32427:32436   */\n      dup4\n        /* \"#utility.yul\":32423:32441   */\n      add\n        /* \"#utility.yul\":32414:32420   */\n      dup6\n        /* \"#utility.yul\":32370:32442   */\n      tag_221\n      jump\t// in\n    tag_574:\n        /* \"#utility.yul\":32452:32525   */\n      tag_575\n        /* \"#utility.yul\":32520:32523   */\n      0x80\n        /* \"#utility.yul\":32509:32518   */\n      dup4\n        /* \"#utility.yul\":32505:32524   */\n      add\n        /* \"#utility.yul\":32496:32502   */\n      dup5\n        /* \"#utility.yul\":32452:32525   */\n      tag_221\n      jump\t// in\n    tag_575:\n        /* \"#utility.yul\":31686:32532   */\n      swap7\n      swap6\n      pop\n      pop\n      pop\n      pop\n      pop\n      pop\n      jump\t// out\n\n    auxdata: 0xa264697066735822122030720480ecbdac0c9244a8f93faf4bb4ba7acdc98b1d8ab42d96e481c04a8e5964736f6c634300081a0033\n}\n",
				"bytecode": {
					"linkReferences": {},
					"object": "608060405234801561000f575f80fd5b50604051612371380380612371833981810160405281019061003191906100d4565b805f806101000a81548173ffffffffffffffffffffffffffffffffffffffff021916908373ffffffffffffffffffffffffffffffffffffffff160217905550506100ff565b5f80fd5b5f73ffffffffffffffffffffffffffffffffffffffff82169050919050565b5f6100a38261007a565b9050919050565b6100b381610099565b81146100bd575f80fd5b50565b5f815190506100ce816100aa565b92915050565b5f602082840312156100e9576100e8610076565b5b5f6100f6848285016100c0565b91505092915050565b6122658061010c5f395ff3fe60806040526004361061009b575f3560e01c80638da5cb5b116100635780638da5cb5b1461018b578063c1997003146101b5578063c4e0cc8d146101f1578063dfd83d2a1461021b578063e0ff5b8b14610245578063f733719c146102865761009b565b80630eed433b1461009f5780631fc88748146100bb578063354528e8146100e3578063513073b81461010d5780636874404614610149575b5f80fd5b6100b960048036038101906100b49190611243565b6102ae565b005b3480156100c6575f80fd5b506100e160048036038101906100dc9190611281565b6106ae565b005b3480156100ee575f80fd5b506100f76108b4565b6040516101049190611388565b60405180910390f35b348015610118575f80fd5b50610133600480360381019061012e91906113a8565b61090a565b60405161014091906113e2565b60405180910390f35b348015610154575f80fd5b5061016f600480360381019061016a91906113a8565b61092a565b6040516101829796959493929190611485565b60405180910390f35b348015610196575f80fd5b5061019f610a80565b6040516101ac919061153f565b60405180910390f35b3480156101c0575f80fd5b506101db60048036038101906101d691906113a8565b610aa3565b6040516101e891906113e2565b60405180910390f35b3480156101fc575f80fd5b50610205610b18565b6040516102129190611388565b60405180910390f35b348015610226575f80fd5b5061022f610cb3565b60405161023c91906113e2565b60405180910390f35b348015610250575f80fd5b5061026b600480360381019061026691906113a8565b610cbf565b60405161027d96959493929190611558565b60405180910390f35b348015610291575f80fd5b506102ac60048036038101906102a791906116f1565b610ed1565b005b815f60015f8381526020019081526020015f206002015403610305576040517f08c379a00000000000000000000000000000000000000000000000000000000081526004016102fc906117ea565b60405180910390fd5b5f60015f8581526020019081526020015f2090505f83826002015461032a9190611835565b90503373ffffffffffffffffffffffffffffffffffffffff16857f28938d078ef5864f06e040c4aa314898fb92de306adf6dc64742ecac30648cbf86844260405161037793929190611876565b60405180910390a3816004015f9054906101000a900460ff16610420573373ffffffffffffffffffffffffffffffffffffffff16857fb8cffff501b10e25568509ab7916df0f5b02bf15e3d4208b4b32f1572fc145cf86426040516103dd9291906118f5565b60405180910390a36040517f08c379a000000000000000000000000000000000000000000000000000000000815260040161041790611979565b60405180910390fd5b83826003015410156104b8573373ffffffffffffffffffffffffffffffffffffffff16857fb8cffff501b10e25568509ab7916df0f5b02bf15e3d4208b4b32f1572fc145cf86426040516104759291906119e1565b60405180910390a36040517f08c379a00000000000000000000000000000000000000000000000000000000081526004016104af90611a65565b60405180910390fd5b80341461054b573373ffffffffffffffffffffffffffffffffffffffff16857fb8cffff501b10e25568509ab7916df0f5b02bf15e3d4208b4b32f1572fc145cf8642604051610508929190611acd565b60405180910390a36040517f08c379a000000000000000000000000000000000000000000000000000000000815260040161054290611b51565b60405180910390fd5b83826003015f82825461055e9190611b6f565b9250508190555083826005015f8282546105789190611ba2565b925050819055505f8260030154036105a6575f826004015f6101000a81548160ff0219169083151502179055505b60058260030154116105f157847fd4861c7c49d2de3a568f2178030b6e45c2e7144a254917b544f9021d05e6033e8360030154426040516105e8929190611bd5565b60405180910390a25b5f8054906101000a900473ffffffffffffffffffffffffffffffffffffffff1673ffffffffffffffffffffffffffffffffffffffff166108fc3490811502906040515f60405180830381858888f19350505050158015610653573d5f803e3d5ffd5b503373ffffffffffffffffffffffffffffffffffffffff16857fa399b1f029d5bbcf819c828392aeac8dd019ced8ba520a312da3c5e9ecdba90986844260405161069f93929190611876565b60405180910390a35050505050565b5f8054906101000a900473ffffffffffffffffffffffffffffffffffffffff1673ffffffffffffffffffffffffffffffffffffffff163373ffffffffffffffffffffffffffffffffffffffff161461073b576040517f08c379a000000000000000000000000000000000000000000000000000000000815260040161073290611c6c565b60405180910390fd5b825f60015f8381526020019081526020015f206002015403610792576040517f08c379a0000000000000000000000000000000000000000000000000000000008152600401610789906117ea565b60405180910390fd5b5f60015f8681526020019081526020015f2090505f8411156107b8578381600201819055505b5f8311156108405782816003015f8282546107d39190611ba2565b925050819055506001816004015f6101000a81548160ff021916908315150217905550428160060181905550847fa5bdd9148276bc08459ae55ee4dc575a752f7a4a6882d4a0b5ff596d17704e8e8483600301544260405161083793929190611876565b60405180910390a25b3373ffffffffffffffffffffffffffffffffffffffff16857f210bd4a94de733d59dcb9d840fc91c1fc8bfe12e9a6b333893732cd9f180f60c83600201548460030154856004015f9054906101000a900460ff16426040516108a59493929190611c8a565b60405180910390a35050505050565b6060600280548060200260200160405190810160405280929190818152602001828054801561090057602002820191905f5260205f20905b8154815260200190600101908083116108ec575b5050505050905090565b60028181548110610919575f80fd5b905f5260205f20015f915090505481565b6001602052805f5260405f205f91509050805f01805461094990611cfa565b80601f016020809104026020016040519081016040528092919081815260200182805461097590611cfa565b80156109c05780601f10610997576101008083540402835291602001916109c0565b820191905f5260205f20905b8154815290600101906020018083116109a357829003601f168201915b5050505050908060010180546109d590611cfa565b80601f0160208091040260200160405190810160405280929190818152602001828054610a0190611cfa565b8015610a4c5780601f10610a2357610100808354040283529160200191610a4c565b820191905f5260205f20905b815481529060010190602001808311610a2f57829003601f168201915b505050505090806002015490806003015490806004015f9054906101000a900460ff16908060050154908060060154905087565b5f8054906101000a900473ffffffffffffffffffffffffffffffffffffffff1681565b5f815f60015f8381526020019081526020015f206002015403610afb576040517f08c379a0000000000000000000000000000000000000000000000000000000008152600401610af2906117ea565b60405180910390fd5b60015f8481526020019081526020015f2060050154915050919050565b60605f60028054905067ffffffffffffffff811115610b3a57610b396115cd565b5b604051908082528060200260200182016040528015610b685781602001602082028036833780820191505090505b5090505f805b600280549050811015610c0b57600560015f60028481548110610b9457610b93611d2a565b5b905f5260205f20015481526020019081526020015f206003015411610bfe5760028181548110610bc757610bc6611d2a565b5b905f5260205f200154838381518110610be357610be2611d2a565b5b6020026020010181815250508180610bfa90611d57565b9250505b8080600101915050610b6e565b505f8167ffffffffffffffff811115610c2757610c266115cd565b5b604051908082528060200260200182016040528015610c555781602001602082028036833780820191505090505b5090505f5b82811015610ca957838181518110610c7557610c74611d2a565b5b6020026020010151828281518110610c9057610c8f611d2a565b5b6020026020010181815250508080600101915050610c5a565b5080935050505090565b5f600280549050905090565b6060805f805f80865f60015f8381526020019081526020015f206002015403610d1d576040517f08c379a0000000000000000000000000000000000000000000000000000000008152600401610d14906117ea565b60405180910390fd5b5f60015f8a81526020019081526020015f206040518060e00160405290815f82018054610d4990611cfa565b80601f0160208091040260200160405190810160405280929190818152602001828054610d7590611cfa565b8015610dc05780601f10610d9757610100808354040283529160200191610dc0565b820191905f5260205f20905b815481529060010190602001808311610da357829003601f168201915b50505050508152602001600182018054610dd990611cfa565b80601f0160208091040260200160405190810160405280929190818152602001828054610e0590611cfa565b8015610e505780601f10610e2757610100808354040283529160200191610e50565b820191905f5260205f20905b815481529060010190602001808311610e3357829003601f168201915b505050505081526020016002820154815260200160038201548152602001600482015f9054906101000a900460ff16151515158152602001600582015481526020016006820154815250509050805f015181602001518260400151836060015184608001518560a00151975097509750975097509750505091939550919395565b5f8054906101000a900473ffffffffffffffffffffffffffffffffffffffff1673ffffffffffffffffffffffffffffffffffffffff163373ffffffffffffffffffffffffffffffffffffffff1614610f5e576040517f08c379a0000000000000000000000000000000000000000000000000000000008152600401610f5590611c6c565b60405180910390fd5b5f60015f8781526020019081526020015f206002015414610fb4576040517f08c379a0000000000000000000000000000000000000000000000000000000008152600401610fab90611e0e565b60405180910390fd5b5f845111610ff7576040517f08c379a0000000000000000000000000000000000000000000000000000000008152600401610fee90611e76565b60405180910390fd5b5f83511161103a576040517f08c379a000000000000000000000000000000000000000000000000000000000815260040161103190611ede565b60405180910390fd5b5f821161107c576040517f08c379a000000000000000000000000000000000000000000000000000000000815260040161107390611f46565b60405180910390fd5b6040518060e001604052808581526020018481526020018381526020018281526020015f8311151581526020015f81526020014281525060015f8781526020019081526020015f205f820151815f0190816110d79190612101565b5060208201518160010190816110ed9190612101565b5060408201518160020155606082015181600301556080820151816004015f6101000a81548160ff02191690831515021790555060a0820151816005015560c08201518160060155905050600285908060018154018082558091505060019003905f5260205f20015f90919091909150553373ffffffffffffffffffffffffffffffffffffffff16857f0aba03d640b7e89b89ad55697cd42b6d97fe767da110bd21d3e8c4155d960c6a86868686426040516111ad9594939291906121d0565b60405180910390a3600581116111f857847fd4861c7c49d2de3a568f2178030b6e45c2e7144a254917b544f9021d05e6033e82426040516111ef929190611bd5565b60405180910390a25b5050505050565b5f604051905090565b5f80fd5b5f80fd5b5f819050919050565b61122281611210565b811461122c575f80fd5b50565b5f8135905061123d81611219565b92915050565b5f806040838503121561125957611258611208565b5b5f6112668582860161122f565b92505060206112778582860161122f565b9150509250929050565b5f805f6060848603121561129857611297611208565b5b5f6112a58682870161122f565b93505060206112b68682870161122f565b92505060406112c78682870161122f565b9150509250925092565b5f81519050919050565b5f82825260208201905092915050565b5f819050602082019050919050565b61130381611210565b82525050565b5f61131483836112fa565b60208301905092915050565b5f602082019050919050565b5f611336826112d1565b61134081856112db565b935061134b836112eb565b805f5b8381101561137b5781516113628882611309565b975061136d83611320565b92505060018101905061134e565b5085935050505092915050565b5f6020820190508181035f8301526113a0818461132c565b905092915050565b5f602082840312156113bd576113bc611208565b5b5f6113ca8482850161122f565b91505092915050565b6113dc81611210565b82525050565b5f6020820190506113f55f8301846113d3565b92915050565b5f81519050919050565b5f82825260208201905092915050565b8281835e5f83830152505050565b5f601f19601f8301169050919050565b5f61143d826113fb565b6114478185611405565b9350611457818560208601611415565b61146081611423565b840191505092915050565b5f8115159050919050565b61147f8161146b565b82525050565b5f60e0820190508181035f83015261149d818a611433565b905081810360208301526114b18189611433565b90506114c060408301886113d3565b6114cd60608301876113d3565b6114da6080830186611476565b6114e760a08301856113d3565b6114f460c08301846113d3565b98975050505050505050565b5f73ffffffffffffffffffffffffffffffffffffffff82169050919050565b5f61152982611500565b9050919050565b6115398161151f565b82525050565b5f6020820190506115525f830184611530565b92915050565b5f60c0820190508181035f8301526115708189611433565b905081810360208301526115848188611433565b905061159360408301876113d3565b6115a060608301866113d3565b6115ad6080830185611476565b6115ba60a08301846113d3565b979650505050505050565b5f80fd5b5f80fd5b7f4e487b71000000000000000000000000000000000000000000000000000000005f52604160045260245ffd5b61160382611423565b810181811067ffffffffffffffff82111715611622576116216115cd565b5b80604052505050565b5f6116346111ff565b905061164082826115fa565b919050565b5f67ffffffffffffffff82111561165f5761165e6115cd565b5b61166882611423565b9050602081019050919050565b828183375f83830152505050565b5f61169561169084611645565b61162b565b9050828152602081018484840111156116b1576116b06115c9565b5b6116bc848285611675565b509392505050565b5f82601f8301126116d8576116d76115c5565b5b81356116e8848260208601611683565b91505092915050565b5f805f805f60a0868803121561170a57611709611208565b5b5f6117178882890161122f565b955050602086013567ffffffffffffffff8111156117385761173761120c565b5b611744888289016116c4565b945050604086013567ffffffffffffffff8111156117655761176461120c565b5b611771888289016116c4565b93505060606117828882890161122f565b92505060806117938882890161122f565b9150509295509295909350565b7f426f6f6b20646f6573206e6f742065786973742e0000000000000000000000005f82015250565b5f6117d4601483611405565b91506117df826117a0565b602082019050919050565b5f6020820190508181035f830152611801816117c8565b9050919050565b7f4e487b71000000000000000000000000000000000000000000000000000000005f52601160045260245ffd5b5f61183f82611210565b915061184a83611210565b925082820261185881611210565b9150828204841483151761186f5761186e611808565b5b5092915050565b5f6060820190506118895f8301866113d3565b61189660208301856113d3565b6118a360408301846113d3565b949350505050565b7f426f6f6b206e6f7420617661696c61626c6500000000000000000000000000005f82015250565b5f6118df601283611405565b91506118ea826118ab565b602082019050919050565b5f6060820190506119085f8301856113d3565b8181036020830152611919816118d3565b905061192860408301846113d3565b9392505050565b7f5468697320626f6f6b206973206e6f7420617661696c61626c652e00000000005f82015250565b5f611963601b83611405565b915061196e8261192f565b602082019050919050565b5f6020820190508181035f83015261199081611957565b9050919050565b7f496e73756666696369656e742073746f636b00000000000000000000000000005f82015250565b5f6119cb601283611405565b91506119d682611997565b602082019050919050565b5f6060820190506119f45f8301856113d3565b8181036020830152611a05816119bf565b9050611a1460408301846113d3565b9392505050565b7f4e6f7420656e6f7567682073746f636b20617661696c61626c652e00000000005f82015250565b5f611a4f601b83611405565b9150611a5a82611a1b565b602082019050919050565b5f6020820190508181035f830152611a7c81611a43565b9050919050565b7f496e636f7272656374207061796d656e740000000000000000000000000000005f82015250565b5f611ab7601183611405565b9150611ac282611a83565b602082019050919050565b5f606082019050611ae05f8301856113d3565b8181036020830152611af181611aab565b9050611b0060408301846113d3565b9392505050565b7f496e636f7272656374207061796d656e7420616d6f756e742e000000000000005f82015250565b5f611b3b601983611405565b9150611b4682611b07565b602082019050919050565b5f6020820190508181035f830152611b6881611b2f565b9050919050565b5f611b7982611210565b9150611b8483611210565b9250828203905081811115611b9c57611b9b611808565b5b92915050565b5f611bac82611210565b9150611bb783611210565b9250828201905080821115611bcf57611bce611808565b5b92915050565b5f604082019050611be85f8301856113d3565b611bf560208301846113d3565b9392505050565b7f4f6e6c7920746865206f776e65722063616e20706572666f726d2074686973205f8201527f616374696f6e2e00000000000000000000000000000000000000000000000000602082015250565b5f611c56602783611405565b9150611c6182611bfc565b604082019050919050565b5f6020820190508181035f830152611c8381611c4a565b9050919050565b5f608082019050611c9d5f8301876113d3565b611caa60208301866113d3565b611cb76040830185611476565b611cc460608301846113d3565b95945050505050565b7f4e487b71000000000000000000000000000000000000000000000000000000005f52602260045260245ffd5b5f6002820490506001821680611d1157607f821691505b602082108103611d2457611d23611ccd565b5b50919050565b7f4e487b71000000000000000000000000000000000000000000000000000000005f52603260045260245ffd5b5f611d6182611210565b91507fffffffffffffffffffffffffffffffffffffffffffffffffffffffffffffffff8203611d9357611d92611808565b5b600182019050919050565b7f426f6f6b20616c726561647920657869737473207769746820746869732049445f8201527f2e00000000000000000000000000000000000000000000000000000000000000602082015250565b5f611df8602183611405565b9150611e0382611d9e565b604082019050919050565b5f6020820190508181035f830152611e2581611dec565b9050919050565b7f5469746c652063616e6e6f7420626520656d70747900000000000000000000005f82015250565b5f611e60601583611405565b9150611e6b82611e2c565b602082019050919050565b5f6020820190508181035f830152611e8d81611e54565b9050919050565b7f417574686f722063616e6e6f7420626520656d707479000000000000000000005f82015250565b5f611ec8601683611405565b9150611ed382611e94565b602082019050919050565b5f6020820190508181035f830152611ef581611ebc565b9050919050565b7f5072696365206d7573742062652067726561746572207468616e2030000000005f82015250565b5f611f30601c83611405565b9150611f3b82611efc565b602082019050919050565b5f6020820190508181035f830152611f5d81611f24565b9050919050565b5f819050815f5260205f209050919050565b5f6020601f8301049050919050565b5f82821b905092915050565b5f60088302611fc07fffffffffffffffffffffffffffffffffffffffffffffffffffffffffffffffff82611f85565b611fca8683611f85565b95508019841693508086168417925050509392505050565b5f819050919050565b5f612005612000611ffb84611210565b611fe2565b611210565b9050919050565b5f819050919050565b61201e83611feb565b61203261202a8261200c565b848454611f91565b825550505050565b5f90565b61204661203a565b612051818484612015565b505050565b5b81811015612074576120695f8261203e565b600181019050612057565b5050565b601f8211156120b95761208a81611f64565b61209384611f76565b810160208510156120a2578190505b6120b66120ae85611f76565b830182612056565b50505b505050565b5f82821c905092915050565b5f6120d95f19846008026120be565b1980831691505092915050565b5f6120f183836120ca565b9150826002028217905092915050565b61210a826113fb565b67ffffffffffffffff811115612123576121226115cd565b5b61212d8254611cfa565b612138828285612078565b5f60209050601f831160018114612169575f8415612157578287015190505b61216185826120e6565b8655506121c8565b601f19841661217786611f64565b5f5b8281101561219e57848901518255600182019150602085019450602081019050612179565b868310156121bb57848901516121b7601f8916826120ca565b8355505b6001600288020188555050505b505050505050565b5f60a0820190508181035f8301526121e88188611433565b905081810360208301526121fc8187611433565b905061220b60408301866113d3565b61221860608301856113d3565b61222560808301846113d3565b969550505050505056fea264697066735822122030720480ecbdac0c9244a8f93faf4bb4ba7acdc98b1d8ab42d96e481c04a8e5964736f6c634300081a0033",
					"opcodes": "PUSH1 0x80 PUSH1 0x40 MSTORE CALLVALUE DUP1 ISZERO PUSH2 0xF JUMPI PUSH0 DUP1 REVERT JUMPDEST POP PUSH1 0x40 MLOAD PUSH2 0x2371 CODESIZE SUB DUP1 PUSH2 0x2371 DUP4 CODECOPY DUP2 DUP2 ADD PUSH1 0x40 MSTORE DUP2 ADD SWAP1 PUSH2 0x31 SWAP2 SWAP1 PUSH2 0xD4 JUMP JUMPDEST DUP1 PUSH0 DUP1 PUSH2 0x100 EXP DUP2 SLOAD DUP2 PUSH20 0xFFFFFFFFFFFFFFFFFFFFFFFFFFFFFFFFFFFFFFFF MUL NOT AND SWAP1 DUP4 PUSH20 0xFFFFFFFFFFFFFFFFFFFFFFFFFFFFFFFFFFFFFFFF AND MUL OR SWAP1 SSTORE POP POP PUSH2 0xFF JUMP JUMPDEST PUSH0 DUP1 REVERT JUMPDEST PUSH0 PUSH20 0xFFFFFFFFFFFFFFFFFFFFFFFFFFFFFFFFFFFFFFFF DUP3 AND SWAP1 POP SWAP2 SWAP1 POP JUMP JUMPDEST PUSH0 PUSH2 0xA3 DUP3 PUSH2 0x7A JUMP JUMPDEST SWAP1 POP SWAP2 SWAP1 POP JUMP JUMPDEST PUSH2 0xB3 DUP2 PUSH2 0x99 JUMP JUMPDEST DUP2 EQ PUSH2 0xBD JUMPI PUSH0 DUP1 REVERT JUMPDEST POP JUMP JUMPDEST PUSH0 DUP2 MLOAD SWAP1 POP PUSH2 0xCE DUP2 PUSH2 0xAA JUMP JUMPDEST SWAP3 SWAP2 POP POP JUMP JUMPDEST PUSH0 PUSH1 0x20 DUP3 DUP5 SUB SLT ISZERO PUSH2 0xE9 JUMPI PUSH2 0xE8 PUSH2 0x76 JUMP JUMPDEST JUMPDEST PUSH0 PUSH2 0xF6 DUP5 DUP3 DUP6 ADD PUSH2 0xC0 JUMP JUMPDEST SWAP2 POP POP SWAP3 SWAP2 POP POP JUMP JUMPDEST PUSH2 0x2265 DUP1 PUSH2 0x10C PUSH0 CODECOPY PUSH0 RETURN INVALID PUSH1 0x80 PUSH1 0x40 MSTORE PUSH1 0x4 CALLDATASIZE LT PUSH2 0x9B JUMPI PUSH0 CALLDATALOAD PUSH1 0xE0 SHR DUP1 PUSH4 0x8DA5CB5B GT PUSH2 0x63 JUMPI DUP1 PUSH4 0x8DA5CB5B EQ PUSH2 0x18B JUMPI DUP1 PUSH4 0xC1997003 EQ PUSH2 0x1B5 JUMPI DUP1 PUSH4 0xC4E0CC8D EQ PUSH2 0x1F1 JUMPI DUP1 PUSH4 0xDFD83D2A EQ PUSH2 0x21B JUMPI DUP1 PUSH4 0xE0FF5B8B EQ PUSH2 0x245 JUMPI DUP1 PUSH4 0xF733719C EQ PUSH2 0x286 JUMPI PUSH2 0x9B JUMP JUMPDEST DUP1 PUSH4 0xEED433B EQ PUSH2 0x9F JUMPI DUP1 PUSH4 0x1FC88748 EQ PUSH2 0xBB JUMPI DUP1 PUSH4 0x354528E8 EQ PUSH2 0xE3 JUMPI DUP1 PUSH4 0x513073B8 EQ PUSH2 0x10D JUMPI DUP1 PUSH4 0x68744046 EQ PUSH2 0x149 JUMPI JUMPDEST PUSH0 DUP1 REVERT JUMPDEST PUSH2 0xB9 PUSH1 0x4 DUP1 CALLDATASIZE SUB DUP2 ADD SWAP1 PUSH2 0xB4 SWAP2 SWAP1 PUSH2 0x1243 JUMP JUMPDEST PUSH2 0x2AE JUMP JUMPDEST STOP JUMPDEST CALLVALUE DUP1 ISZERO PUSH2 0xC6 JUMPI PUSH0 DUP1 REVERT JUMPDEST POP PUSH2 0xE1 PUSH1 0x4 DUP1 CALLDATASIZE SUB DUP2 ADD SWAP1 PUSH2 0xDC SWAP2 SWAP1 PUSH2 0x1281 JUMP JUMPDEST PUSH2 0x6AE JUMP JUMPDEST STOP JUMPDEST CALLVALUE DUP1 ISZERO PUSH2 0xEE JUMPI PUSH0 DUP1 REVERT JUMPDEST POP PUSH2 0xF7 PUSH2 0x8B4 JUMP JUMPDEST PUSH1 0x40 MLOAD PUSH2 0x104 SWAP2 SWAP1 PUSH2 0x1388 JUMP JUMPDEST PUSH1 0x40 MLOAD DUP1 SWAP2 SUB SWAP1 RETURN JUMPDEST CALLVALUE DUP1 ISZERO PUSH2 0x118 JUMPI PUSH0 DUP1 REVERT JUMPDEST POP PUSH2 0x133 PUSH1 0x4 DUP1 CALLDATASIZE SUB DUP2 ADD SWAP1 PUSH2 0x12E SWAP2 SWAP1 PUSH2 0x13A8 JUMP JUMPDEST PUSH2 0x90A JUMP JUMPDEST PUSH1 0x40 MLOAD PUSH2 0x140 SWAP2 SWAP1 PUSH2 0x13E2 JUMP JUMPDEST PUSH1 0x40 MLOAD DUP1 SWAP2 SUB SWAP1 RETURN JUMPDEST CALLVALUE DUP1 ISZERO PUSH2 0x154 JUMPI PUSH0 DUP1 REVERT JUMPDEST POP PUSH2 0x16F PUSH1 0x4 DUP1 CALLDATASIZE SUB DUP2 ADD SWAP1 PUSH2 0x16A SWAP2 SWAP1 PUSH2 0x13A8 JUMP JUMPDEST PUSH2 0x92A JUMP JUMPDEST PUSH1 0x40 MLOAD PUSH2 0x182 SWAP8 SWAP7 SWAP6 SWAP5 SWAP4 SWAP3 SWAP2 SWAP1 PUSH2 0x1485 JUMP JUMPDEST PUSH1 0x40 MLOAD DUP1 SWAP2 SUB SWAP1 RETURN JUMPDEST CALLVALUE DUP1 ISZERO PUSH2 0x196 JUMPI PUSH0 DUP1 REVERT JUMPDEST POP PUSH2 0x19F PUSH2 0xA80 JUMP JUMPDEST PUSH1 0x40 MLOAD PUSH2 0x1AC SWAP2 SWAP1 PUSH2 0x153F JUMP JUMPDEST PUSH1 0x40 MLOAD DUP1 SWAP2 SUB SWAP1 RETURN JUMPDEST CALLVALUE DUP1 ISZERO PUSH2 0x1C0 JUMPI PUSH0 DUP1 REVERT JUMPDEST POP PUSH2 0x1DB PUSH1 0x4 DUP1 CALLDATASIZE SUB DUP2 ADD SWAP1 PUSH2 0x1D6 SWAP2 SWAP1 PUSH2 0x13A8 JUMP JUMPDEST PUSH2 0xAA3 JUMP JUMPDEST PUSH1 0x40 MLOAD PUSH2 0x1E8 SWAP2 SWAP1 PUSH2 0x13E2 JUMP JUMPDEST PUSH1 0x40 MLOAD DUP1 SWAP2 SUB SWAP1 RETURN JUMPDEST CALLVALUE DUP1 ISZERO PUSH2 0x1FC JUMPI PUSH0 DUP1 REVERT JUMPDEST POP PUSH2 0x205 PUSH2 0xB18 JUMP JUMPDEST PUSH1 0x40 MLOAD PUSH2 0x212 SWAP2 SWAP1 PUSH2 0x1388 JUMP JUMPDEST PUSH1 0x40 MLOAD DUP1 SWAP2 SUB SWAP1 RETURN JUMPDEST CALLVALUE DUP1 ISZERO PUSH2 0x226 JUMPI PUSH0 DUP1 REVERT JUMPDEST POP PUSH2 0x22F PUSH2 0xCB3 JUMP JUMPDEST PUSH1 0x40 MLOAD PUSH2 0x23C SWAP2 SWAP1 PUSH2 0x13E2 JUMP JUMPDEST PUSH1 0x40 MLOAD DUP1 SWAP2 SUB SWAP1 RETURN JUMPDEST CALLVALUE DUP1 ISZERO PUSH2 0x250 JUMPI PUSH0 DUP1 REVERT JUMPDEST POP PUSH2 0x26B PUSH1 0x4 DUP1 CALLDATASIZE SUB DUP2 ADD SWAP1 PUSH2 0x266 SWAP2 SWAP1 PUSH2 0x13A8 JUMP JUMPDEST PUSH2 0xCBF JUMP JUMPDEST PUSH1 0x40 MLOAD PUSH2 0x27D SWAP7 SWAP6 SWAP5 SWAP4 SWAP3 SWAP2 SWAP1 PUSH2 0x1558 JUMP JUMPDEST PUSH1 0x40 MLOAD DUP1 SWAP2 SUB SWAP1 RETURN JUMPDEST CALLVALUE DUP1 ISZERO PUSH2 0x291 JUMPI PUSH0 DUP1 REVERT JUMPDEST POP PUSH2 0x2AC PUSH1 0x4 DUP1 CALLDATASIZE SUB DUP2 ADD SWAP1 PUSH2 0x2A7 SWAP2 SWAP1 PUSH2 0x16F1 JUMP JUMPDEST PUSH2 0xED1 JUMP JUMPDEST STOP JUMPDEST DUP2 PUSH0 PUSH1 0x1 PUSH0 DUP4 DUP2 MSTORE PUSH1 0x20 ADD SWAP1 DUP2 MSTORE PUSH1 0x20 ADD PUSH0 KECCAK256 PUSH1 0x2 ADD SLOAD SUB PUSH2 0x305 JUMPI PUSH1 0x40 MLOAD PUSH32 0x8C379A000000000000000000000000000000000000000000000000000000000 DUP2 MSTORE PUSH1 0x4 ADD PUSH2 0x2FC SWAP1 PUSH2 0x17EA JUMP JUMPDEST PUSH1 0x40 MLOAD DUP1 SWAP2 SUB SWAP1 REVERT JUMPDEST PUSH0 PUSH1 0x1 PUSH0 DUP6 DUP2 MSTORE PUSH1 0x20 ADD SWAP1 DUP2 MSTORE PUSH1 0x20 ADD PUSH0 KECCAK256 SWAP1 POP PUSH0 DUP4 DUP3 PUSH1 0x2 ADD SLOAD PUSH2 0x32A SWAP2 SWAP1 PUSH2 0x1835 JUMP JUMPDEST SWAP1 POP CALLER PUSH20 0xFFFFFFFFFFFFFFFFFFFFFFFFFFFFFFFFFFFFFFFF AND DUP6 PUSH32 0x28938D078EF5864F06E040C4AA314898FB92DE306ADF6DC64742ECAC30648CBF DUP7 DUP5 TIMESTAMP PUSH1 0x40 MLOAD PUSH2 0x377 SWAP4 SWAP3 SWAP2 SWAP1 PUSH2 0x1876 JUMP JUMPDEST PUSH1 0x40 MLOAD DUP1 SWAP2 SUB SWAP1 LOG3 DUP2 PUSH1 0x4 ADD PUSH0 SWAP1 SLOAD SWAP1 PUSH2 0x100 EXP SWAP1 DIV PUSH1 0xFF AND PUSH2 0x420 JUMPI CALLER PUSH20 0xFFFFFFFFFFFFFFFFFFFFFFFFFFFFFFFFFFFFFFFF AND DUP6 PUSH32 0xB8CFFFF501B10E25568509AB7916DF0F5B02BF15E3D4208B4B32F1572FC145CF DUP7 TIMESTAMP PUSH1 0x40 MLOAD PUSH2 0x3DD SWAP3 SWAP2 SWAP1 PUSH2 0x18F5 JUMP JUMPDEST PUSH1 0x40 MLOAD DUP1 SWAP2 SUB SWAP1 LOG3 PUSH1 0x40 MLOAD PUSH32 0x8C379A000000000000000000000000000000000000000000000000000000000 DUP2 MSTORE PUSH1 0x4 ADD PUSH2 0x417 SWAP1 PUSH2 0x1979 JUMP JUMPDEST PUSH1 0x40 MLOAD DUP1 SWAP2 SUB SWAP1 REVERT JUMPDEST DUP4 DUP3 PUSH1 0x3 ADD SLOAD LT ISZERO PUSH2 0x4B8 JUMPI CALLER PUSH20 0xFFFFFFFFFFFFFFFFFFFFFFFFFFFFFFFFFFFFFFFF AND DUP6 PUSH32 0xB8CFFFF501B10E25568509AB7916DF0F5B02BF15E3D4208B4B32F1572FC145CF DUP7 TIMESTAMP PUSH1 0x40 MLOAD PUSH2 0x475 SWAP3 SWAP2 SWAP1 PUSH2 0x19E1 JUMP JUMPDEST PUSH1 0x40 MLOAD DUP1 SWAP2 SUB SWAP1 LOG3 PUSH1 0x40 MLOAD PUSH32 0x8C379A000000000000000000000000000000000000000000000000000000000 DUP2 MSTORE PUSH1 0x4 ADD PUSH2 0x4AF SWAP1 PUSH2 0x1A65 JUMP JUMPDEST PUSH1 0x40 MLOAD DUP1 SWAP2 SUB SWAP1 REVERT JUMPDEST DUP1 CALLVALUE EQ PUSH2 0x54B JUMPI CALLER PUSH20 0xFFFFFFFFFFFFFFFFFFFFFFFFFFFFFFFFFFFFFFFF AND DUP6 PUSH32 0xB8CFFFF501B10E25568509AB7916DF0F5B02BF15E3D4208B4B32F1572FC145CF DUP7 TIMESTAMP PUSH1 0x40 MLOAD PUSH2 0x508 SWAP3 SWAP2 SWAP1 PUSH2 0x1ACD JUMP JUMPDEST PUSH1 0x40 MLOAD DUP1 SWAP2 SUB SWAP1 LOG3 PUSH1 0x40 MLOAD PUSH32 0x8C379A000000000000000000000000000000000000000000000000000000000 DUP2 MSTORE PUSH1 0x4 ADD PUSH2 0x542 SWAP1 PUSH2 0x1B51 JUMP JUMPDEST PUSH1 0x40 MLOAD DUP1 SWAP2 SUB SWAP1 REVERT JUMPDEST DUP4 DUP3 PUSH1 0x3 ADD PUSH0 DUP3 DUP3 SLOAD PUSH2 0x55E SWAP2 SWAP1 PUSH2 0x1B6F JUMP JUMPDEST SWAP3 POP POP DUP2 SWAP1 SSTORE POP DUP4 DUP3 PUSH1 0x5 ADD PUSH0 DUP3 DUP3 SLOAD PUSH2 0x578 SWAP2 SWAP1 PUSH2 0x1BA2 JUMP JUMPDEST SWAP3 POP POP DUP2 SWAP1 SSTORE POP PUSH0 DUP3 PUSH1 0x3 ADD SLOAD SUB PUSH2 0x5A6 JUMPI PUSH0 DUP3 PUSH1 0x4 ADD PUSH0 PUSH2 0x100 EXP DUP2 SLOAD DUP2 PUSH1 0xFF MUL NOT AND SWAP1 DUP4 ISZERO ISZERO MUL OR SWAP1 SSTORE POP JUMPDEST PUSH1 0x5 DUP3 PUSH1 0x3 ADD SLOAD GT PUSH2 0x5F1 JUMPI DUP5 PUSH32 0xD4861C7C49D2DE3A568F2178030B6E45C2E7144A254917B544F9021D05E6033E DUP4 PUSH1 0x3 ADD SLOAD TIMESTAMP PUSH1 0x40 MLOAD PUSH2 0x5E8 SWAP3 SWAP2 SWAP1 PUSH2 0x1BD5 JUMP JUMPDEST PUSH1 0x40 MLOAD DUP1 SWAP2 SUB SWAP1 LOG2 JUMPDEST PUSH0 DUP1 SLOAD SWAP1 PUSH2 0x100 EXP SWAP1 DIV PUSH20 0xFFFFFFFFFFFFFFFFFFFFFFFFFFFFFFFFFFFFFFFF AND PUSH20 0xFFFFFFFFFFFFFFFFFFFFFFFFFFFFFFFFFFFFFFFF AND PUSH2 0x8FC CALLVALUE SWAP1 DUP2 ISZERO MUL SWAP1 PUSH1 0x40 MLOAD PUSH0 PUSH1 0x40 MLOAD DUP1 DUP4 SUB DUP2 DUP6 DUP9 DUP9 CALL SWAP4 POP POP POP POP ISZERO DUP1 ISZERO PUSH2 0x653 JUMPI RETURNDATASIZE PUSH0 DUP1 RETURNDATACOPY RETURNDATASIZE PUSH0 REVERT JUMPDEST POP CALLER PUSH20 0xFFFFFFFFFFFFFFFFFFFFFFFFFFFFFFFFFFFFFFFF AND DUP6 PUSH32 0xA399B1F029D5BBCF819C828392AEAC8DD019CED8BA520A312DA3C5E9ECDBA909 DUP7 DUP5 TIMESTAMP PUSH1 0x40 MLOAD PUSH2 0x69F SWAP4 SWAP3 SWAP2 SWAP1 PUSH2 0x1876 JUMP JUMPDEST PUSH1 0x40 MLOAD DUP1 SWAP2 SUB SWAP1 LOG3 POP POP POP POP POP JUMP JUMPDEST PUSH0 DUP1 SLOAD SWAP1 PUSH2 0x100 EXP SWAP1 DIV PUSH20 0xFFFFFFFFFFFFFFFFFFFFFFFFFFFFFFFFFFFFFFFF AND PUSH20 0xFFFFFFFFFFFFFFFFFFFFFFFFFFFFFFFFFFFFFFFF AND CALLER PUSH20 0xFFFFFFFFFFFFFFFFFFFFFFFFFFFFFFFFFFFFFFFF AND EQ PUSH2 0x73B JUMPI PUSH1 0x40 MLOAD PUSH32 0x8C379A000000000000000000000000000000000000000000000000000000000 DUP2 MSTORE PUSH1 0x4 ADD PUSH2 0x732 SWAP1 PUSH2 0x1C6C JUMP JUMPDEST PUSH1 0x40 MLOAD DUP1 SWAP2 SUB SWAP1 REVERT JUMPDEST DUP3 PUSH0 PUSH1 0x1 PUSH0 DUP4 DUP2 MSTORE PUSH1 0x20 ADD SWAP1 DUP2 MSTORE PUSH1 0x20 ADD PUSH0 KECCAK256 PUSH1 0x2 ADD SLOAD SUB PUSH2 0x792 JUMPI PUSH1 0x40 MLOAD PUSH32 0x8C379A000000000000000000000000000000000000000000000000000000000 DUP2 MSTORE PUSH1 0x4 ADD PUSH2 0x789 SWAP1 PUSH2 0x17EA JUMP JUMPDEST PUSH1 0x40 MLOAD DUP1 SWAP2 SUB SWAP1 REVERT JUMPDEST PUSH0 PUSH1 0x1 PUSH0 DUP7 DUP2 MSTORE PUSH1 0x20 ADD SWAP1 DUP2 MSTORE PUSH1 0x20 ADD PUSH0 KECCAK256 SWAP1 POP PUSH0 DUP5 GT ISZERO PUSH2 0x7B8 JUMPI DUP4 DUP2 PUSH1 0x2 ADD DUP2 SWAP1 SSTORE POP JUMPDEST PUSH0 DUP4 GT ISZERO PUSH2 0x840 JUMPI DUP3 DUP2 PUSH1 0x3 ADD PUSH0 DUP3 DUP3 SLOAD PUSH2 0x7D3 SWAP2 SWAP1 PUSH2 0x1BA2 JUMP JUMPDEST SWAP3 POP POP DUP2 SWAP1 SSTORE POP PUSH1 0x1 DUP2 PUSH1 0x4 ADD PUSH0 PUSH2 0x100 EXP DUP2 SLOAD DUP2 PUSH1 0xFF MUL NOT AND SWAP1 DUP4 ISZERO ISZERO MUL OR SWAP1 SSTORE POP TIMESTAMP DUP2 PUSH1 0x6 ADD DUP2 SWAP1 SSTORE POP DUP5 PUSH32 0xA5BDD9148276BC08459AE55EE4DC575A752F7A4A6882D4A0B5FF596D17704E8E DUP5 DUP4 PUSH1 0x3 ADD SLOAD TIMESTAMP PUSH1 0x40 MLOAD PUSH2 0x837 SWAP4 SWAP3 SWAP2 SWAP1 PUSH2 0x1876 JUMP JUMPDEST PUSH1 0x40 MLOAD DUP1 SWAP2 SUB SWAP1 LOG2 JUMPDEST CALLER PUSH20 0xFFFFFFFFFFFFFFFFFFFFFFFFFFFFFFFFFFFFFFFF AND DUP6 PUSH32 0x210BD4A94DE733D59DCB9D840FC91C1FC8BFE12E9A6B333893732CD9F180F60C DUP4 PUSH1 0x2 ADD SLOAD DUP5 PUSH1 0x3 ADD SLOAD DUP6 PUSH1 0x4 ADD PUSH0 SWAP1 SLOAD SWAP1 PUSH2 0x100 EXP SWAP1 DIV PUSH1 0xFF AND TIMESTAMP PUSH1 0x40 MLOAD PUSH2 0x8A5 SWAP5 SWAP4 SWAP3 SWAP2 SWAP1 PUSH2 0x1C8A JUMP JUMPDEST PUSH1 0x40 MLOAD DUP1 SWAP2 SUB SWAP1 LOG3 POP POP POP POP POP JUMP JUMPDEST PUSH1 0x60 PUSH1 0x2 DUP1 SLOAD DUP1 PUSH1 0x20 MUL PUSH1 0x20 ADD PUSH1 0x40 MLOAD SWAP1 DUP2 ADD PUSH1 0x40 MSTORE DUP1 SWAP3 SWAP2 SWAP1 DUP2 DUP2 MSTORE PUSH1 0x20 ADD DUP3 DUP1 SLOAD DUP1 ISZERO PUSH2 0x900 JUMPI PUSH1 0x20 MUL DUP3 ADD SWAP2 SWAP1 PUSH0 MSTORE PUSH1 0x20 PUSH0 KECCAK256 SWAP1 JUMPDEST DUP2 SLOAD DUP2 MSTORE PUSH1 0x20 ADD SWAP1 PUSH1 0x1 ADD SWAP1 DUP1 DUP4 GT PUSH2 0x8EC JUMPI JUMPDEST POP POP POP POP POP SWAP1 POP SWAP1 JUMP JUMPDEST PUSH1 0x2 DUP2 DUP2 SLOAD DUP2 LT PUSH2 0x919 JUMPI PUSH0 DUP1 REVERT JUMPDEST SWAP1 PUSH0 MSTORE PUSH1 0x20 PUSH0 KECCAK256 ADD PUSH0 SWAP2 POP SWAP1 POP SLOAD DUP2 JUMP JUMPDEST PUSH1 0x1 PUSH1 0x20 MSTORE DUP1 PUSH0 MSTORE PUSH1 0x40 PUSH0 KECCAK256 PUSH0 SWAP2 POP SWAP1 POP DUP1 PUSH0 ADD DUP1 SLOAD PUSH2 0x949 SWAP1 PUSH2 0x1CFA JUMP JUMPDEST DUP1 PUSH1 0x1F ADD PUSH1 0x20 DUP1 SWAP2 DIV MUL PUSH1 0x20 ADD PUSH1 0x40 MLOAD SWAP1 DUP2 ADD PUSH1 0x40 MSTORE DUP1 SWAP3 SWAP2 SWAP1 DUP2 DUP2 MSTORE PUSH1 0x20 ADD DUP3 DUP1 SLOAD PUSH2 0x975 SWAP1 PUSH2 0x1CFA JUMP JUMPDEST DUP1 ISZERO PUSH2 0x9C0 JUMPI DUP1 PUSH1 0x1F LT PUSH2 0x997 JUMPI PUSH2 0x100 DUP1 DUP4 SLOAD DIV MUL DUP4 MSTORE SWAP2 PUSH1 0x20 ADD SWAP2 PUSH2 0x9C0 JUMP JUMPDEST DUP3 ADD SWAP2 SWAP1 PUSH0 MSTORE PUSH1 0x20 PUSH0 KECCAK256 SWAP1 JUMPDEST DUP2 SLOAD DUP2 MSTORE SWAP1 PUSH1 0x1 ADD SWAP1 PUSH1 0x20 ADD DUP1 DUP4 GT PUSH2 0x9A3 JUMPI DUP3 SWAP1 SUB PUSH1 0x1F AND DUP3 ADD SWAP2 JUMPDEST POP POP POP POP POP SWAP1 DUP1 PUSH1 0x1 ADD DUP1 SLOAD PUSH2 0x9D5 SWAP1 PUSH2 0x1CFA JUMP JUMPDEST DUP1 PUSH1 0x1F ADD PUSH1 0x20 DUP1 SWAP2 DIV MUL PUSH1 0x20 ADD PUSH1 0x40 MLOAD SWAP1 DUP2 ADD PUSH1 0x40 MSTORE DUP1 SWAP3 SWAP2 SWAP1 DUP2 DUP2 MSTORE PUSH1 0x20 ADD DUP3 DUP1 SLOAD PUSH2 0xA01 SWAP1 PUSH2 0x1CFA JUMP JUMPDEST DUP1 ISZERO PUSH2 0xA4C JUMPI DUP1 PUSH1 0x1F LT PUSH2 0xA23 JUMPI PUSH2 0x100 DUP1 DUP4 SLOAD DIV MUL DUP4 MSTORE SWAP2 PUSH1 0x20 ADD SWAP2 PUSH2 0xA4C JUMP JUMPDEST DUP3 ADD SWAP2 SWAP1 PUSH0 MSTORE PUSH1 0x20 PUSH0 KECCAK256 SWAP1 JUMPDEST DUP2 SLOAD DUP2 MSTORE SWAP1 PUSH1 0x1 ADD SWAP1 PUSH1 0x20 ADD DUP1 DUP4 GT PUSH2 0xA2F JUMPI DUP3 SWAP1 SUB PUSH1 0x1F AND DUP3 ADD SWAP2 JUMPDEST POP POP POP POP POP SWAP1 DUP1 PUSH1 0x2 ADD SLOAD SWAP1 DUP1 PUSH1 0x3 ADD SLOAD SWAP1 DUP1 PUSH1 0x4 ADD PUSH0 SWAP1 SLOAD SWAP1 PUSH2 0x100 EXP SWAP1 DIV PUSH1 0xFF AND SWAP1 DUP1 PUSH1 0x5 ADD SLOAD SWAP1 DUP1 PUSH1 0x6 ADD SLOAD SWAP1 POP DUP8 JUMP JUMPDEST PUSH0 DUP1 SLOAD SWAP1 PUSH2 0x100 EXP SWAP1 DIV PUSH20 0xFFFFFFFFFFFFFFFFFFFFFFFFFFFFFFFFFFFFFFFF AND DUP2 JUMP JUMPDEST PUSH0 DUP2 PUSH0 PUSH1 0x1 PUSH0 DUP4 DUP2 MSTORE PUSH1 0x20 ADD SWAP1 DUP2 MSTORE PUSH1 0x20 ADD PUSH0 KECCAK256 PUSH1 0x2 ADD SLOAD SUB PUSH2 0xAFB JUMPI PUSH1 0x40 MLOAD PUSH32 0x8C379A000000000000000000000000000000000000000000000000000000000 DUP2 MSTORE PUSH1 0x4 ADD PUSH2 0xAF2 SWAP1 PUSH2 0x17EA JUMP JUMPDEST PUSH1 0x40 MLOAD DUP1 SWAP2 SUB SWAP1 REVERT JUMPDEST PUSH1 0x1 PUSH0 DUP5 DUP2 MSTORE PUSH1 0x20 ADD SWAP1 DUP2 MSTORE PUSH1 0x20 ADD PUSH0 KECCAK256 PUSH1 0x5 ADD SLOAD SWAP2 POP POP SWAP2 SWAP1 POP JUMP JUMPDEST PUSH1 0x60 PUSH0 PUSH1 0x2 DUP1 SLOAD SWAP1 POP PUSH8 0xFFFFFFFFFFFFFFFF DUP2 GT ISZERO PUSH2 0xB3A JUMPI PUSH2 0xB39 PUSH2 0x15CD JUMP JUMPDEST JUMPDEST PUSH1 0x40 MLOAD SWAP1 DUP1 DUP3 MSTORE DUP1 PUSH1 0x20 MUL PUSH1 0x20 ADD DUP3 ADD PUSH1 0x40 MSTORE DUP1 ISZERO PUSH2 0xB68 JUMPI DUP2 PUSH1 0x20 ADD PUSH1 0x20 DUP3 MUL DUP1 CALLDATASIZE DUP4 CALLDATACOPY DUP1 DUP3 ADD SWAP2 POP POP SWAP1 POP JUMPDEST POP SWAP1 POP PUSH0 DUP1 JUMPDEST PUSH1 0x2 DUP1 SLOAD SWAP1 POP DUP2 LT ISZERO PUSH2 0xC0B JUMPI PUSH1 0x5 PUSH1 0x1 PUSH0 PUSH1 0x2 DUP5 DUP2 SLOAD DUP2 LT PUSH2 0xB94 JUMPI PUSH2 0xB93 PUSH2 0x1D2A JUMP JUMPDEST JUMPDEST SWAP1 PUSH0 MSTORE PUSH1 0x20 PUSH0 KECCAK256 ADD SLOAD DUP2 MSTORE PUSH1 0x20 ADD SWAP1 DUP2 MSTORE PUSH1 0x20 ADD PUSH0 KECCAK256 PUSH1 0x3 ADD SLOAD GT PUSH2 0xBFE JUMPI PUSH1 0x2 DUP2 DUP2 SLOAD DUP2 LT PUSH2 0xBC7 JUMPI PUSH2 0xBC6 PUSH2 0x1D2A JUMP JUMPDEST JUMPDEST SWAP1 PUSH0 MSTORE PUSH1 0x20 PUSH0 KECCAK256 ADD SLOAD DUP4 DUP4 DUP2 MLOAD DUP2 LT PUSH2 0xBE3 JUMPI PUSH2 0xBE2 PUSH2 0x1D2A JUMP JUMPDEST JUMPDEST PUSH1 0x20 MUL PUSH1 0x20 ADD ADD DUP2 DUP2 MSTORE POP POP DUP2 DUP1 PUSH2 0xBFA SWAP1 PUSH2 0x1D57 JUMP JUMPDEST SWAP3 POP POP JUMPDEST DUP1 DUP1 PUSH1 0x1 ADD SWAP2 POP POP PUSH2 0xB6E JUMP JUMPDEST POP PUSH0 DUP2 PUSH8 0xFFFFFFFFFFFFFFFF DUP2 GT ISZERO PUSH2 0xC27 JUMPI PUSH2 0xC26 PUSH2 0x15CD JUMP JUMPDEST JUMPDEST PUSH1 0x40 MLOAD SWAP1 DUP1 DUP3 MSTORE DUP1 PUSH1 0x20 MUL PUSH1 0x20 ADD DUP3 ADD PUSH1 0x40 MSTORE DUP1 ISZERO PUSH2 0xC55 JUMPI DUP2 PUSH1 0x20 ADD PUSH1 0x20 DUP3 MUL DUP1 CALLDATASIZE DUP4 CALLDATACOPY DUP1 DUP3 ADD SWAP2 POP POP SWAP1 POP JUMPDEST POP SWAP1 POP PUSH0 JUMPDEST DUP3 DUP2 LT ISZERO PUSH2 0xCA9 JUMPI DUP4 DUP2 DUP2 MLOAD DUP2 LT PUSH2 0xC75 JUMPI PUSH2 0xC74 PUSH2 0x1D2A JUMP JUMPDEST JUMPDEST PUSH1 0x20 MUL PUSH1 0x20 ADD ADD MLOAD DUP3 DUP3 DUP2 MLOAD DUP2 LT PUSH2 0xC90 JUMPI PUSH2 0xC8F PUSH2 0x1D2A JUMP JUMPDEST JUMPDEST PUSH1 0x20 MUL PUSH1 0x20 ADD ADD DUP2 DUP2 MSTORE POP POP DUP1 DUP1 PUSH1 0x1 ADD SWAP2 POP POP PUSH2 0xC5A JUMP JUMPDEST POP DUP1 SWAP4 POP POP POP POP SWAP1 JUMP JUMPDEST PUSH0 PUSH1 0x2 DUP1 SLOAD SWAP1 POP SWAP1 POP SWAP1 JUMP JUMPDEST PUSH1 0x60 DUP1 PUSH0 DUP1 PUSH0 DUP1 DUP7 PUSH0 PUSH1 0x1 PUSH0 DUP4 DUP2 MSTORE PUSH1 0x20 ADD SWAP1 DUP2 MSTORE PUSH1 0x20 ADD PUSH0 KECCAK256 PUSH1 0x2 ADD SLOAD SUB PUSH2 0xD1D JUMPI PUSH1 0x40 MLOAD PUSH32 0x8C379A000000000000000000000000000000000000000000000000000000000 DUP2 MSTORE PUSH1 0x4 ADD PUSH2 0xD14 SWAP1 PUSH2 0x17EA JUMP JUMPDEST PUSH1 0x40 MLOAD DUP1 SWAP2 SUB SWAP1 REVERT JUMPDEST PUSH0 PUSH1 0x1 PUSH0 DUP11 DUP2 MSTORE PUSH1 0x20 ADD SWAP1 DUP2 MSTORE PUSH1 0x20 ADD PUSH0 KECCAK256 PUSH1 0x40 MLOAD DUP1 PUSH1 0xE0 ADD PUSH1 0x40 MSTORE SWAP1 DUP2 PUSH0 DUP3 ADD DUP1 SLOAD PUSH2 0xD49 SWAP1 PUSH2 0x1CFA JUMP JUMPDEST DUP1 PUSH1 0x1F ADD PUSH1 0x20 DUP1 SWAP2 DIV MUL PUSH1 0x20 ADD PUSH1 0x40 MLOAD SWAP1 DUP2 ADD PUSH1 0x40 MSTORE DUP1 SWAP3 SWAP2 SWAP1 DUP2 DUP2 MSTORE PUSH1 0x20 ADD DUP3 DUP1 SLOAD PUSH2 0xD75 SWAP1 PUSH2 0x1CFA JUMP JUMPDEST DUP1 ISZERO PUSH2 0xDC0 JUMPI DUP1 PUSH1 0x1F LT PUSH2 0xD97 JUMPI PUSH2 0x100 DUP1 DUP4 SLOAD DIV MUL DUP4 MSTORE SWAP2 PUSH1 0x20 ADD SWAP2 PUSH2 0xDC0 JUMP JUMPDEST DUP3 ADD SWAP2 SWAP1 PUSH0 MSTORE PUSH1 0x20 PUSH0 KECCAK256 SWAP1 JUMPDEST DUP2 SLOAD DUP2 MSTORE SWAP1 PUSH1 0x1 ADD SWAP1 PUSH1 0x20 ADD DUP1 DUP4 GT PUSH2 0xDA3 JUMPI DUP3 SWAP1 SUB PUSH1 0x1F AND DUP3 ADD SWAP2 JUMPDEST POP POP POP POP POP DUP2 MSTORE PUSH1 0x20 ADD PUSH1 0x1 DUP3 ADD DUP1 SLOAD PUSH2 0xDD9 SWAP1 PUSH2 0x1CFA JUMP JUMPDEST DUP1 PUSH1 0x1F ADD PUSH1 0x20 DUP1 SWAP2 DIV MUL PUSH1 0x20 ADD PUSH1 0x40 MLOAD SWAP1 DUP2 ADD PUSH1 0x40 MSTORE DUP1 SWAP3 SWAP2 SWAP1 DUP2 DUP2 MSTORE PUSH1 0x20 ADD DUP3 DUP1 SLOAD PUSH2 0xE05 SWAP1 PUSH2 0x1CFA JUMP JUMPDEST DUP1 ISZERO PUSH2 0xE50 JUMPI DUP1 PUSH1 0x1F LT PUSH2 0xE27 JUMPI PUSH2 0x100 DUP1 DUP4 SLOAD DIV MUL DUP4 MSTORE SWAP2 PUSH1 0x20 ADD SWAP2 PUSH2 0xE50 JUMP JUMPDEST DUP3 ADD SWAP2 SWAP1 PUSH0 MSTORE PUSH1 0x20 PUSH0 KECCAK256 SWAP1 JUMPDEST DUP2 SLOAD DUP2 MSTORE SWAP1 PUSH1 0x1 ADD SWAP1 PUSH1 0x20 ADD DUP1 DUP4 GT PUSH2 0xE33 JUMPI DUP3 SWAP1 SUB PUSH1 0x1F AND DUP3 ADD SWAP2 JUMPDEST POP POP POP POP POP DUP2 MSTORE PUSH1 0x20 ADD PUSH1 0x2 DUP3 ADD SLOAD DUP2 MSTORE PUSH1 0x20 ADD PUSH1 0x3 DUP3 ADD SLOAD DUP2 MSTORE PUSH1 0x20 ADD PUSH1 0x4 DUP3 ADD PUSH0 SWAP1 SLOAD SWAP1 PUSH2 0x100 EXP SWAP1 DIV PUSH1 0xFF AND ISZERO ISZERO ISZERO ISZERO DUP2 MSTORE PUSH1 0x20 ADD PUSH1 0x5 DUP3 ADD SLOAD DUP2 MSTORE PUSH1 0x20 ADD PUSH1 0x6 DUP3 ADD SLOAD DUP2 MSTORE POP POP SWAP1 POP DUP1 PUSH0 ADD MLOAD DUP2 PUSH1 0x20 ADD MLOAD DUP3 PUSH1 0x40 ADD MLOAD DUP4 PUSH1 0x60 ADD MLOAD DUP5 PUSH1 0x80 ADD MLOAD DUP6 PUSH1 0xA0 ADD MLOAD SWAP8 POP SWAP8 POP SWAP8 POP SWAP8 POP SWAP8 POP SWAP8 POP POP POP SWAP2 SWAP4 SWAP6 POP SWAP2 SWAP4 SWAP6 JUMP JUMPDEST PUSH0 DUP1 SLOAD SWAP1 PUSH2 0x100 EXP SWAP1 DIV PUSH20 0xFFFFFFFFFFFFFFFFFFFFFFFFFFFFFFFFFFFFFFFF AND PUSH20 0xFFFFFFFFFFFFFFFFFFFFFFFFFFFFFFFFFFFFFFFF AND CALLER PUSH20 0xFFFFFFFFFFFFFFFFFFFFFFFFFFFFFFFFFFFFFFFF AND EQ PUSH2 0xF5E JUMPI PUSH1 0x40 MLOAD PUSH32 0x8C379A000000000000000000000000000000000000000000000000000000000 DUP2 MSTORE PUSH1 0x4 ADD PUSH2 0xF55 SWAP1 PUSH2 0x1C6C JUMP JUMPDEST PUSH1 0x40 MLOAD DUP1 SWAP2 SUB SWAP1 REVERT JUMPDEST PUSH0 PUSH1 0x1 PUSH0 DUP8 DUP2 MSTORE PUSH1 0x20 ADD SWAP1 DUP2 MSTORE PUSH1 0x20 ADD PUSH0 KECCAK256 PUSH1 0x2 ADD SLOAD EQ PUSH2 0xFB4 JUMPI PUSH1 0x40 MLOAD PUSH32 0x8C379A000000000000000000000000000000000000000000000000000000000 DUP2 MSTORE PUSH1 0x4 ADD PUSH2 0xFAB SWAP1 PUSH2 0x1E0E JUMP JUMPDEST PUSH1 0x40 MLOAD DUP1 SWAP2 SUB SWAP1 REVERT JUMPDEST PUSH0 DUP5 MLOAD GT PUSH2 0xFF7 JUMPI PUSH1 0x40 MLOAD PUSH32 0x8C379A000000000000000000000000000000000000000000000000000000000 DUP2 MSTORE PUSH1 0x4 ADD PUSH2 0xFEE SWAP1 PUSH2 0x1E76 JUMP JUMPDEST PUSH1 0x40 MLOAD DUP1 SWAP2 SUB SWAP1 REVERT JUMPDEST PUSH0 DUP4 MLOAD GT PUSH2 0x103A JUMPI PUSH1 0x40 MLOAD PUSH32 0x8C379A000000000000000000000000000000000000000000000000000000000 DUP2 MSTORE PUSH1 0x4 ADD PUSH2 0x1031 SWAP1 PUSH2 0x1EDE JUMP JUMPDEST PUSH1 0x40 MLOAD DUP1 SWAP2 SUB SWAP1 REVERT JUMPDEST PUSH0 DUP3 GT PUSH2 0x107C JUMPI PUSH1 0x40 MLOAD PUSH32 0x8C379A000000000000000000000000000000000000000000000000000000000 DUP2 MSTORE PUSH1 0x4 ADD PUSH2 0x1073 SWAP1 PUSH2 0x1F46 JUMP JUMPDEST PUSH1 0x40 MLOAD DUP1 SWAP2 SUB SWAP1 REVERT JUMPDEST PUSH1 0x40 MLOAD DUP1 PUSH1 0xE0 ADD PUSH1 0x40 MSTORE DUP1 DUP6 DUP2 MSTORE PUSH1 0x20 ADD DUP5 DUP2 MSTORE PUSH1 0x20 ADD DUP4 DUP2 MSTORE PUSH1 0x20 ADD DUP3 DUP2 MSTORE PUSH1 0x20 ADD PUSH0 DUP4 GT ISZERO ISZERO DUP2 MSTORE PUSH1 0x20 ADD PUSH0 DUP2 MSTORE PUSH1 0x20 ADD TIMESTAMP DUP2 MSTORE POP PUSH1 0x1 PUSH0 DUP8 DUP2 MSTORE PUSH1 0x20 ADD SWAP1 DUP2 MSTORE PUSH1 0x20 ADD PUSH0 KECCAK256 PUSH0 DUP3 ADD MLOAD DUP2 PUSH0 ADD SWAP1 DUP2 PUSH2 0x10D7 SWAP2 SWAP1 PUSH2 0x2101 JUMP JUMPDEST POP PUSH1 0x20 DUP3 ADD MLOAD DUP2 PUSH1 0x1 ADD SWAP1 DUP2 PUSH2 0x10ED SWAP2 SWAP1 PUSH2 0x2101 JUMP JUMPDEST POP PUSH1 0x40 DUP3 ADD MLOAD DUP2 PUSH1 0x2 ADD SSTORE PUSH1 0x60 DUP3 ADD MLOAD DUP2 PUSH1 0x3 ADD SSTORE PUSH1 0x80 DUP3 ADD MLOAD DUP2 PUSH1 0x4 ADD PUSH0 PUSH2 0x100 EXP DUP2 SLOAD DUP2 PUSH1 0xFF MUL NOT AND SWAP1 DUP4 ISZERO ISZERO MUL OR SWAP1 SSTORE POP PUSH1 0xA0 DUP3 ADD MLOAD DUP2 PUSH1 0x5 ADD SSTORE PUSH1 0xC0 DUP3 ADD MLOAD DUP2 PUSH1 0x6 ADD SSTORE SWAP1 POP POP PUSH1 0x2 DUP6 SWAP1 DUP1 PUSH1 0x1 DUP2 SLOAD ADD DUP1 DUP3 SSTORE DUP1 SWAP2 POP POP PUSH1 0x1 SWAP1 SUB SWAP1 PUSH0 MSTORE PUSH1 0x20 PUSH0 KECCAK256 ADD PUSH0 SWAP1 SWAP2 SWAP1 SWAP2 SWAP1 SWAP2 POP SSTORE CALLER PUSH20 0xFFFFFFFFFFFFFFFFFFFFFFFFFFFFFFFFFFFFFFFF AND DUP6 PUSH32 0xABA03D640B7E89B89AD55697CD42B6D97FE767DA110BD21D3E8C4155D960C6A DUP7 DUP7 DUP7 DUP7 TIMESTAMP PUSH1 0x40 MLOAD PUSH2 0x11AD SWAP6 SWAP5 SWAP4 SWAP3 SWAP2 SWAP1 PUSH2 0x21D0 JUMP JUMPDEST PUSH1 0x40 MLOAD DUP1 SWAP2 SUB SWAP1 LOG3 PUSH1 0x5 DUP2 GT PUSH2 0x11F8 JUMPI DUP5 PUSH32 0xD4861C7C49D2DE3A568F2178030B6E45C2E7144A254917B544F9021D05E6033E DUP3 TIMESTAMP PUSH1 0x40 MLOAD PUSH2 0x11EF SWAP3 SWAP2 SWAP1 PUSH2 0x1BD5 JUMP JUMPDEST PUSH1 0x40 MLOAD DUP1 SWAP2 SUB SWAP1 LOG2 JUMPDEST POP POP POP POP POP JUMP JUMPDEST PUSH0 PUSH1 0x40 MLOAD SWAP1 POP SWAP1 JUMP JUMPDEST PUSH0 DUP1 REVERT JUMPDEST PUSH0 DUP1 REVERT JUMPDEST PUSH0 DUP2 SWAP1 POP SWAP2 SWAP1 POP JUMP JUMPDEST PUSH2 0x1222 DUP2 PUSH2 0x1210 JUMP JUMPDEST DUP2 EQ PUSH2 0x122C JUMPI PUSH0 DUP1 REVERT JUMPDEST POP JUMP JUMPDEST PUSH0 DUP2 CALLDATALOAD SWAP1 POP PUSH2 0x123D DUP2 PUSH2 0x1219 JUMP JUMPDEST SWAP3 SWAP2 POP POP JUMP JUMPDEST PUSH0 DUP1 PUSH1 0x40 DUP4 DUP6 SUB SLT ISZERO PUSH2 0x1259 JUMPI PUSH2 0x1258 PUSH2 0x1208 JUMP JUMPDEST JUMPDEST PUSH0 PUSH2 0x1266 DUP6 DUP3 DUP7 ADD PUSH2 0x122F JUMP JUMPDEST SWAP3 POP POP PUSH1 0x20 PUSH2 0x1277 DUP6 DUP3 DUP7 ADD PUSH2 0x122F JUMP JUMPDEST SWAP2 POP POP SWAP3 POP SWAP3 SWAP1 POP JUMP JUMPDEST PUSH0 DUP1 PUSH0 PUSH1 0x60 DUP5 DUP7 SUB SLT ISZERO PUSH2 0x1298 JUMPI PUSH2 0x1297 PUSH2 0x1208 JUMP JUMPDEST JUMPDEST PUSH0 PUSH2 0x12A5 DUP7 DUP3 DUP8 ADD PUSH2 0x122F JUMP JUMPDEST SWAP4 POP POP PUSH1 0x20 PUSH2 0x12B6 DUP7 DUP3 DUP8 ADD PUSH2 0x122F JUMP JUMPDEST SWAP3 POP POP PUSH1 0x40 PUSH2 0x12C7 DUP7 DUP3 DUP8 ADD PUSH2 0x122F JUMP JUMPDEST SWAP2 POP POP SWAP3 POP SWAP3 POP SWAP3 JUMP JUMPDEST PUSH0 DUP2 MLOAD SWAP1 POP SWAP2 SWAP1 POP JUMP JUMPDEST PUSH0 DUP3 DUP3 MSTORE PUSH1 0x20 DUP3 ADD SWAP1 POP SWAP3 SWAP2 POP POP JUMP JUMPDEST PUSH0 DUP2 SWAP1 POP PUSH1 0x20 DUP3 ADD SWAP1 POP SWAP2 SWAP1 POP JUMP JUMPDEST PUSH2 0x1303 DUP2 PUSH2 0x1210 JUMP JUMPDEST DUP3 MSTORE POP POP JUMP JUMPDEST PUSH0 PUSH2 0x1314 DUP4 DUP4 PUSH2 0x12FA JUMP JUMPDEST PUSH1 0x20 DUP4 ADD SWAP1 POP SWAP3 SWAP2 POP POP JUMP JUMPDEST PUSH0 PUSH1 0x20 DUP3 ADD SWAP1 POP SWAP2 SWAP1 POP JUMP JUMPDEST PUSH0 PUSH2 0x1336 DUP3 PUSH2 0x12D1 JUMP JUMPDEST PUSH2 0x1340 DUP2 DUP6 PUSH2 0x12DB JUMP JUMPDEST SWAP4 POP PUSH2 0x134B DUP4 PUSH2 0x12EB JUMP JUMPDEST DUP1 PUSH0 JUMPDEST DUP4 DUP2 LT ISZERO PUSH2 0x137B JUMPI DUP2 MLOAD PUSH2 0x1362 DUP9 DUP3 PUSH2 0x1309 JUMP JUMPDEST SWAP8 POP PUSH2 0x136D DUP4 PUSH2 0x1320 JUMP JUMPDEST SWAP3 POP POP PUSH1 0x1 DUP2 ADD SWAP1 POP PUSH2 0x134E JUMP JUMPDEST POP DUP6 SWAP4 POP POP POP POP SWAP3 SWAP2 POP POP JUMP JUMPDEST PUSH0 PUSH1 0x20 DUP3 ADD SWAP1 POP DUP2 DUP2 SUB PUSH0 DUP4 ADD MSTORE PUSH2 0x13A0 DUP2 DUP5 PUSH2 0x132C JUMP JUMPDEST SWAP1 POP SWAP3 SWAP2 POP POP JUMP JUMPDEST PUSH0 PUSH1 0x20 DUP3 DUP5 SUB SLT ISZERO PUSH2 0x13BD JUMPI PUSH2 0x13BC PUSH2 0x1208 JUMP JUMPDEST JUMPDEST PUSH0 PUSH2 0x13CA DUP5 DUP3 DUP6 ADD PUSH2 0x122F JUMP JUMPDEST SWAP2 POP POP SWAP3 SWAP2 POP POP JUMP JUMPDEST PUSH2 0x13DC DUP2 PUSH2 0x1210 JUMP JUMPDEST DUP3 MSTORE POP POP JUMP JUMPDEST PUSH0 PUSH1 0x20 DUP3 ADD SWAP1 POP PUSH2 0x13F5 PUSH0 DUP4 ADD DUP5 PUSH2 0x13D3 JUMP JUMPDEST SWAP3 SWAP2 POP POP JUMP JUMPDEST PUSH0 DUP2 MLOAD SWAP1 POP SWAP2 SWAP1 POP JUMP JUMPDEST PUSH0 DUP3 DUP3 MSTORE PUSH1 0x20 DUP3 ADD SWAP1 POP SWAP3 SWAP2 POP POP JUMP JUMPDEST DUP3 DUP2 DUP4 MCOPY PUSH0 DUP4 DUP4 ADD MSTORE POP POP POP JUMP JUMPDEST PUSH0 PUSH1 0x1F NOT PUSH1 0x1F DUP4 ADD AND SWAP1 POP SWAP2 SWAP1 POP JUMP JUMPDEST PUSH0 PUSH2 0x143D DUP3 PUSH2 0x13FB JUMP JUMPDEST PUSH2 0x1447 DUP2 DUP6 PUSH2 0x1405 JUMP JUMPDEST SWAP4 POP PUSH2 0x1457 DUP2 DUP6 PUSH1 0x20 DUP7 ADD PUSH2 0x1415 JUMP JUMPDEST PUSH2 0x1460 DUP2 PUSH2 0x1423 JUMP JUMPDEST DUP5 ADD SWAP2 POP POP SWAP3 SWAP2 POP POP JUMP JUMPDEST PUSH0 DUP2 ISZERO ISZERO SWAP1 POP SWAP2 SWAP1 POP JUMP JUMPDEST PUSH2 0x147F DUP2 PUSH2 0x146B JUMP JUMPDEST DUP3 MSTORE POP POP JUMP JUMPDEST PUSH0 PUSH1 0xE0 DUP3 ADD SWAP1 POP DUP2 DUP2 SUB PUSH0 DUP4 ADD MSTORE PUSH2 0x149D DUP2 DUP11 PUSH2 0x1433 JUMP JUMPDEST SWAP1 POP DUP2 DUP2 SUB PUSH1 0x20 DUP4 ADD MSTORE PUSH2 0x14B1 DUP2 DUP10 PUSH2 0x1433 JUMP JUMPDEST SWAP1 POP PUSH2 0x14C0 PUSH1 0x40 DUP4 ADD DUP9 PUSH2 0x13D3 JUMP JUMPDEST PUSH2 0x14CD PUSH1 0x60 DUP4 ADD DUP8 PUSH2 0x13D3 JUMP JUMPDEST PUSH2 0x14DA PUSH1 0x80 DUP4 ADD DUP7 PUSH2 0x1476 JUMP JUMPDEST PUSH2 0x14E7 PUSH1 0xA0 DUP4 ADD DUP6 PUSH2 0x13D3 JUMP JUMPDEST PUSH2 0x14F4 PUSH1 0xC0 DUP4 ADD DUP5 PUSH2 0x13D3 JUMP JUMPDEST SWAP9 SWAP8 POP POP POP POP POP POP POP POP JUMP JUMPDEST PUSH0 PUSH20 0xFFFFFFFFFFFFFFFFFFFFFFFFFFFFFFFFFFFFFFFF DUP3 AND SWAP1 POP SWAP2 SWAP1 POP JUMP JUMPDEST PUSH0 PUSH2 0x1529 DUP3 PUSH2 0x1500 JUMP JUMPDEST SWAP1 POP SWAP2 SWAP1 POP JUMP JUMPDEST PUSH2 0x1539 DUP2 PUSH2 0x151F JUMP JUMPDEST DUP3 MSTORE POP POP JUMP JUMPDEST PUSH0 PUSH1 0x20 DUP3 ADD SWAP1 POP PUSH2 0x1552 PUSH0 DUP4 ADD DUP5 PUSH2 0x1530 JUMP JUMPDEST SWAP3 SWAP2 POP POP JUMP JUMPDEST PUSH0 PUSH1 0xC0 DUP3 ADD SWAP1 POP DUP2 DUP2 SUB PUSH0 DUP4 ADD MSTORE PUSH2 0x1570 DUP2 DUP10 PUSH2 0x1433 JUMP JUMPDEST SWAP1 POP DUP2 DUP2 SUB PUSH1 0x20 DUP4 ADD MSTORE PUSH2 0x1584 DUP2 DUP9 PUSH2 0x1433 JUMP JUMPDEST SWAP1 POP PUSH2 0x1593 PUSH1 0x40 DUP4 ADD DUP8 PUSH2 0x13D3 JUMP JUMPDEST PUSH2 0x15A0 PUSH1 0x60 DUP4 ADD DUP7 PUSH2 0x13D3 JUMP JUMPDEST PUSH2 0x15AD PUSH1 0x80 DUP4 ADD DUP6 PUSH2 0x1476 JUMP JUMPDEST PUSH2 0x15BA PUSH1 0xA0 DUP4 ADD DUP5 PUSH2 0x13D3 JUMP JUMPDEST SWAP8 SWAP7 POP POP POP POP POP POP POP JUMP JUMPDEST PUSH0 DUP1 REVERT JUMPDEST PUSH0 DUP1 REVERT JUMPDEST PUSH32 0x4E487B7100000000000000000000000000000000000000000000000000000000 PUSH0 MSTORE PUSH1 0x41 PUSH1 0x4 MSTORE PUSH1 0x24 PUSH0 REVERT JUMPDEST PUSH2 0x1603 DUP3 PUSH2 0x1423 JUMP JUMPDEST DUP2 ADD DUP2 DUP2 LT PUSH8 0xFFFFFFFFFFFFFFFF DUP3 GT OR ISZERO PUSH2 0x1622 JUMPI PUSH2 0x1621 PUSH2 0x15CD JUMP JUMPDEST JUMPDEST DUP1 PUSH1 0x40 MSTORE POP POP POP JUMP JUMPDEST PUSH0 PUSH2 0x1634 PUSH2 0x11FF JUMP JUMPDEST SWAP1 POP PUSH2 0x1640 DUP3 DUP3 PUSH2 0x15FA JUMP JUMPDEST SWAP2 SWAP1 POP JUMP JUMPDEST PUSH0 PUSH8 0xFFFFFFFFFFFFFFFF DUP3 GT ISZERO PUSH2 0x165F JUMPI PUSH2 0x165E PUSH2 0x15CD JUMP JUMPDEST JUMPDEST PUSH2 0x1668 DUP3 PUSH2 0x1423 JUMP JUMPDEST SWAP1 POP PUSH1 0x20 DUP2 ADD SWAP1 POP SWAP2 SWAP1 POP JUMP JUMPDEST DUP3 DUP2 DUP4 CALLDATACOPY PUSH0 DUP4 DUP4 ADD MSTORE POP POP POP JUMP JUMPDEST PUSH0 PUSH2 0x1695 PUSH2 0x1690 DUP5 PUSH2 0x1645 JUMP JUMPDEST PUSH2 0x162B JUMP JUMPDEST SWAP1 POP DUP3 DUP2 MSTORE PUSH1 0x20 DUP2 ADD DUP5 DUP5 DUP5 ADD GT ISZERO PUSH2 0x16B1 JUMPI PUSH2 0x16B0 PUSH2 0x15C9 JUMP JUMPDEST JUMPDEST PUSH2 0x16BC DUP5 DUP3 DUP6 PUSH2 0x1675 JUMP JUMPDEST POP SWAP4 SWAP3 POP POP POP JUMP JUMPDEST PUSH0 DUP3 PUSH1 0x1F DUP4 ADD SLT PUSH2 0x16D8 JUMPI PUSH2 0x16D7 PUSH2 0x15C5 JUMP JUMPDEST JUMPDEST DUP2 CALLDATALOAD PUSH2 0x16E8 DUP5 DUP3 PUSH1 0x20 DUP7 ADD PUSH2 0x1683 JUMP JUMPDEST SWAP2 POP POP SWAP3 SWAP2 POP POP JUMP JUMPDEST PUSH0 DUP1 PUSH0 DUP1 PUSH0 PUSH1 0xA0 DUP7 DUP9 SUB SLT ISZERO PUSH2 0x170A JUMPI PUSH2 0x1709 PUSH2 0x1208 JUMP JUMPDEST JUMPDEST PUSH0 PUSH2 0x1717 DUP9 DUP3 DUP10 ADD PUSH2 0x122F JUMP JUMPDEST SWAP6 POP POP PUSH1 0x20 DUP7 ADD CALLDATALOAD PUSH8 0xFFFFFFFFFFFFFFFF DUP2 GT ISZERO PUSH2 0x1738 JUMPI PUSH2 0x1737 PUSH2 0x120C JUMP JUMPDEST JUMPDEST PUSH2 0x1744 DUP9 DUP3 DUP10 ADD PUSH2 0x16C4 JUMP JUMPDEST SWAP5 POP POP PUSH1 0x40 DUP7 ADD CALLDATALOAD PUSH8 0xFFFFFFFFFFFFFFFF DUP2 GT ISZERO PUSH2 0x1765 JUMPI PUSH2 0x1764 PUSH2 0x120C JUMP JUMPDEST JUMPDEST PUSH2 0x1771 DUP9 DUP3 DUP10 ADD PUSH2 0x16C4 JUMP JUMPDEST SWAP4 POP POP PUSH1 0x60 PUSH2 0x1782 DUP9 DUP3 DUP10 ADD PUSH2 0x122F JUMP JUMPDEST SWAP3 POP POP PUSH1 0x80 PUSH2 0x1793 DUP9 DUP3 DUP10 ADD PUSH2 0x122F JUMP JUMPDEST SWAP2 POP POP SWAP3 SWAP6 POP SWAP3 SWAP6 SWAP1 SWAP4 POP JUMP JUMPDEST PUSH32 0x426F6F6B20646F6573206E6F742065786973742E000000000000000000000000 PUSH0 DUP3 ADD MSTORE POP JUMP JUMPDEST PUSH0 PUSH2 0x17D4 PUSH1 0x14 DUP4 PUSH2 0x1405 JUMP JUMPDEST SWAP2 POP PUSH2 0x17DF DUP3 PUSH2 0x17A0 JUMP JUMPDEST PUSH1 0x20 DUP3 ADD SWAP1 POP SWAP2 SWAP1 POP JUMP JUMPDEST PUSH0 PUSH1 0x20 DUP3 ADD SWAP1 POP DUP2 DUP2 SUB PUSH0 DUP4 ADD MSTORE PUSH2 0x1801 DUP2 PUSH2 0x17C8 JUMP JUMPDEST SWAP1 POP SWAP2 SWAP1 POP JUMP JUMPDEST PUSH32 0x4E487B7100000000000000000000000000000000000000000000000000000000 PUSH0 MSTORE PUSH1 0x11 PUSH1 0x4 MSTORE PUSH1 0x24 PUSH0 REVERT JUMPDEST PUSH0 PUSH2 0x183F DUP3 PUSH2 0x1210 JUMP JUMPDEST SWAP2 POP PUSH2 0x184A DUP4 PUSH2 0x1210 JUMP JUMPDEST SWAP3 POP DUP3 DUP3 MUL PUSH2 0x1858 DUP2 PUSH2 0x1210 JUMP JUMPDEST SWAP2 POP DUP3 DUP3 DIV DUP5 EQ DUP4 ISZERO OR PUSH2 0x186F JUMPI PUSH2 0x186E PUSH2 0x1808 JUMP JUMPDEST JUMPDEST POP SWAP3 SWAP2 POP POP JUMP JUMPDEST PUSH0 PUSH1 0x60 DUP3 ADD SWAP1 POP PUSH2 0x1889 PUSH0 DUP4 ADD DUP7 PUSH2 0x13D3 JUMP JUMPDEST PUSH2 0x1896 PUSH1 0x20 DUP4 ADD DUP6 PUSH2 0x13D3 JUMP JUMPDEST PUSH2 0x18A3 PUSH1 0x40 DUP4 ADD DUP5 PUSH2 0x13D3 JUMP JUMPDEST SWAP5 SWAP4 POP POP POP POP JUMP JUMPDEST PUSH32 0x426F6F6B206E6F7420617661696C61626C650000000000000000000000000000 PUSH0 DUP3 ADD MSTORE POP JUMP JUMPDEST PUSH0 PUSH2 0x18DF PUSH1 0x12 DUP4 PUSH2 0x1405 JUMP JUMPDEST SWAP2 POP PUSH2 0x18EA DUP3 PUSH2 0x18AB JUMP JUMPDEST PUSH1 0x20 DUP3 ADD SWAP1 POP SWAP2 SWAP1 POP JUMP JUMPDEST PUSH0 PUSH1 0x60 DUP3 ADD SWAP1 POP PUSH2 0x1908 PUSH0 DUP4 ADD DUP6 PUSH2 0x13D3 JUMP JUMPDEST DUP2 DUP2 SUB PUSH1 0x20 DUP4 ADD MSTORE PUSH2 0x1919 DUP2 PUSH2 0x18D3 JUMP JUMPDEST SWAP1 POP PUSH2 0x1928 PUSH1 0x40 DUP4 ADD DUP5 PUSH2 0x13D3 JUMP JUMPDEST SWAP4 SWAP3 POP POP POP JUMP JUMPDEST PUSH32 0x5468697320626F6F6B206973206E6F7420617661696C61626C652E0000000000 PUSH0 DUP3 ADD MSTORE POP JUMP JUMPDEST PUSH0 PUSH2 0x1963 PUSH1 0x1B DUP4 PUSH2 0x1405 JUMP JUMPDEST SWAP2 POP PUSH2 0x196E DUP3 PUSH2 0x192F JUMP JUMPDEST PUSH1 0x20 DUP3 ADD SWAP1 POP SWAP2 SWAP1 POP JUMP JUMPDEST PUSH0 PUSH1 0x20 DUP3 ADD SWAP1 POP DUP2 DUP2 SUB PUSH0 DUP4 ADD MSTORE PUSH2 0x1990 DUP2 PUSH2 0x1957 JUMP JUMPDEST SWAP1 POP SWAP2 SWAP1 POP JUMP JUMPDEST PUSH32 0x496E73756666696369656E742073746F636B0000000000000000000000000000 PUSH0 DUP3 ADD MSTORE POP JUMP JUMPDEST PUSH0 PUSH2 0x19CB PUSH1 0x12 DUP4 PUSH2 0x1405 JUMP JUMPDEST SWAP2 POP PUSH2 0x19D6 DUP3 PUSH2 0x1997 JUMP JUMPDEST PUSH1 0x20 DUP3 ADD SWAP1 POP SWAP2 SWAP1 POP JUMP JUMPDEST PUSH0 PUSH1 0x60 DUP3 ADD SWAP1 POP PUSH2 0x19F4 PUSH0 DUP4 ADD DUP6 PUSH2 0x13D3 JUMP JUMPDEST DUP2 DUP2 SUB PUSH1 0x20 DUP4 ADD MSTORE PUSH2 0x1A05 DUP2 PUSH2 0x19BF JUMP JUMPDEST SWAP1 POP PUSH2 0x1A14 PUSH1 0x40 DUP4 ADD DUP5 PUSH2 0x13D3 JUMP JUMPDEST SWAP4 SWAP3 POP POP POP JUMP JUMPDEST PUSH32 0x4E6F7420656E6F7567682073746F636B20617661696C61626C652E0000000000 PUSH0 DUP3 ADD MSTORE POP JUMP JUMPDEST PUSH0 PUSH2 0x1A4F PUSH1 0x1B DUP4 PUSH2 0x1405 JUMP JUMPDEST SWAP2 POP PUSH2 0x1A5A DUP3 PUSH2 0x1A1B JUMP JUMPDEST PUSH1 0x20 DUP3 ADD SWAP1 POP SWAP2 SWAP1 POP JUMP JUMPDEST PUSH0 PUSH1 0x20 DUP3 ADD SWAP1 POP DUP2 DUP2 SUB PUSH0 DUP4 ADD MSTORE PUSH2 0x1A7C DUP2 PUSH2 0x1A43 JUMP JUMPDEST SWAP1 POP SWAP2 SWAP1 POP JUMP JUMPDEST PUSH32 0x496E636F7272656374207061796D656E74000000000000000000000000000000 PUSH0 DUP3 ADD MSTORE POP JUMP JUMPDEST PUSH0 PUSH2 0x1AB7 PUSH1 0x11 DUP4 PUSH2 0x1405 JUMP JUMPDEST SWAP2 POP PUSH2 0x1AC2 DUP3 PUSH2 0x1A83 JUMP JUMPDEST PUSH1 0x20 DUP3 ADD SWAP1 POP SWAP2 SWAP1 POP JUMP JUMPDEST PUSH0 PUSH1 0x60 DUP3 ADD SWAP1 POP PUSH2 0x1AE0 PUSH0 DUP4 ADD DUP6 PUSH2 0x13D3 JUMP JUMPDEST DUP2 DUP2 SUB PUSH1 0x20 DUP4 ADD MSTORE PUSH2 0x1AF1 DUP2 PUSH2 0x1AAB JUMP JUMPDEST SWAP1 POP PUSH2 0x1B00 PUSH1 0x40 DUP4 ADD DUP5 PUSH2 0x13D3 JUMP JUMPDEST SWAP4 SWAP3 POP POP POP JUMP JUMPDEST PUSH32 0x496E636F7272656374207061796D656E7420616D6F756E742E00000000000000 PUSH0 DUP3 ADD MSTORE POP JUMP JUMPDEST PUSH0 PUSH2 0x1B3B PUSH1 0x19 DUP4 PUSH2 0x1405 JUMP JUMPDEST SWAP2 POP PUSH2 0x1B46 DUP3 PUSH2 0x1B07 JUMP JUMPDEST PUSH1 0x20 DUP3 ADD SWAP1 POP SWAP2 SWAP1 POP JUMP JUMPDEST PUSH0 PUSH1 0x20 DUP3 ADD SWAP1 POP DUP2 DUP2 SUB PUSH0 DUP4 ADD MSTORE PUSH2 0x1B68 DUP2 PUSH2 0x1B2F JUMP JUMPDEST SWAP1 POP SWAP2 SWAP1 POP JUMP JUMPDEST PUSH0 PUSH2 0x1B79 DUP3 PUSH2 0x1210 JUMP JUMPDEST SWAP2 POP PUSH2 0x1B84 DUP4 PUSH2 0x1210 JUMP JUMPDEST SWAP3 POP DUP3 DUP3 SUB SWAP1 POP DUP2 DUP2 GT ISZERO PUSH2 0x1B9C JUMPI PUSH2 0x1B9B PUSH2 0x1808 JUMP JUMPDEST JUMPDEST SWAP3 SWAP2 POP POP JUMP JUMPDEST PUSH0 PUSH2 0x1BAC DUP3 PUSH2 0x1210 JUMP JUMPDEST SWAP2 POP PUSH2 0x1BB7 DUP4 PUSH2 0x1210 JUMP JUMPDEST SWAP3 POP DUP3 DUP3 ADD SWAP1 POP DUP1 DUP3 GT ISZERO PUSH2 0x1BCF JUMPI PUSH2 0x1BCE PUSH2 0x1808 JUMP JUMPDEST JUMPDEST SWAP3 SWAP2 POP POP JUMP JUMPDEST PUSH0 PUSH1 0x40 DUP3 ADD SWAP1 POP PUSH2 0x1BE8 PUSH0 DUP4 ADD DUP6 PUSH2 0x13D3 JUMP JUMPDEST PUSH2 0x1BF5 PUSH1 0x20 DUP4 ADD DUP5 PUSH2 0x13D3 JUMP JUMPDEST SWAP4 SWAP3 POP POP POP JUMP JUMPDEST PUSH32 0x4F6E6C7920746865206F776E65722063616E20706572666F726D207468697320 PUSH0 DUP3 ADD MSTORE PUSH32 0x616374696F6E2E00000000000000000000000000000000000000000000000000 PUSH1 0x20 DUP3 ADD MSTORE POP JUMP JUMPDEST PUSH0 PUSH2 0x1C56 PUSH1 0x27 DUP4 PUSH2 0x1405 JUMP JUMPDEST SWAP2 POP PUSH2 0x1C61 DUP3 PUSH2 0x1BFC JUMP JUMPDEST PUSH1 0x40 DUP3 ADD SWAP1 POP SWAP2 SWAP1 POP JUMP JUMPDEST PUSH0 PUSH1 0x20 DUP3 ADD SWAP1 POP DUP2 DUP2 SUB PUSH0 DUP4 ADD MSTORE PUSH2 0x1C83 DUP2 PUSH2 0x1C4A JUMP JUMPDEST SWAP1 POP SWAP2 SWAP1 POP JUMP JUMPDEST PUSH0 PUSH1 0x80 DUP3 ADD SWAP1 POP PUSH2 0x1C9D PUSH0 DUP4 ADD DUP8 PUSH2 0x13D3 JUMP JUMPDEST PUSH2 0x1CAA PUSH1 0x20 DUP4 ADD DUP7 PUSH2 0x13D3 JUMP JUMPDEST PUSH2 0x1CB7 PUSH1 0x40 DUP4 ADD DUP6 PUSH2 0x1476 JUMP JUMPDEST PUSH2 0x1CC4 PUSH1 0x60 DUP4 ADD DUP5 PUSH2 0x13D3 JUMP JUMPDEST SWAP6 SWAP5 POP POP POP POP POP JUMP JUMPDEST PUSH32 0x4E487B7100000000000000000000000000000000000000000000000000000000 PUSH0 MSTORE PUSH1 0x22 PUSH1 0x4 MSTORE PUSH1 0x24 PUSH0 REVERT JUMPDEST PUSH0 PUSH1 0x2 DUP3 DIV SWAP1 POP PUSH1 0x1 DUP3 AND DUP1 PUSH2 0x1D11 JUMPI PUSH1 0x7F DUP3 AND SWAP2 POP JUMPDEST PUSH1 0x20 DUP3 LT DUP2 SUB PUSH2 0x1D24 JUMPI PUSH2 0x1D23 PUSH2 0x1CCD JUMP JUMPDEST JUMPDEST POP SWAP2 SWAP1 POP JUMP JUMPDEST PUSH32 0x4E487B7100000000000000000000000000000000000000000000000000000000 PUSH0 MSTORE PUSH1 0x32 PUSH1 0x4 MSTORE PUSH1 0x24 PUSH0 REVERT JUMPDEST PUSH0 PUSH2 0x1D61 DUP3 PUSH2 0x1210 JUMP JUMPDEST SWAP2 POP PUSH32 0xFFFFFFFFFFFFFFFFFFFFFFFFFFFFFFFFFFFFFFFFFFFFFFFFFFFFFFFFFFFFFFFF DUP3 SUB PUSH2 0x1D93 JUMPI PUSH2 0x1D92 PUSH2 0x1808 JUMP JUMPDEST JUMPDEST PUSH1 0x1 DUP3 ADD SWAP1 POP SWAP2 SWAP1 POP JUMP JUMPDEST PUSH32 0x426F6F6B20616C72656164792065786973747320776974682074686973204944 PUSH0 DUP3 ADD MSTORE PUSH32 0x2E00000000000000000000000000000000000000000000000000000000000000 PUSH1 0x20 DUP3 ADD MSTORE POP JUMP JUMPDEST PUSH0 PUSH2 0x1DF8 PUSH1 0x21 DUP4 PUSH2 0x1405 JUMP JUMPDEST SWAP2 POP PUSH2 0x1E03 DUP3 PUSH2 0x1D9E JUMP JUMPDEST PUSH1 0x40 DUP3 ADD SWAP1 POP SWAP2 SWAP1 POP JUMP JUMPDEST PUSH0 PUSH1 0x20 DUP3 ADD SWAP1 POP DUP2 DUP2 SUB PUSH0 DUP4 ADD MSTORE PUSH2 0x1E25 DUP2 PUSH2 0x1DEC JUMP JUMPDEST SWAP1 POP SWAP2 SWAP1 POP JUMP JUMPDEST PUSH32 0x5469746C652063616E6E6F7420626520656D7074790000000000000000000000 PUSH0 DUP3 ADD MSTORE POP JUMP JUMPDEST PUSH0 PUSH2 0x1E60 PUSH1 0x15 DUP4 PUSH2 0x1405 JUMP JUMPDEST SWAP2 POP PUSH2 0x1E6B DUP3 PUSH2 0x1E2C JUMP JUMPDEST PUSH1 0x20 DUP3 ADD SWAP1 POP SWAP2 SWAP1 POP JUMP JUMPDEST PUSH0 PUSH1 0x20 DUP3 ADD SWAP1 POP DUP2 DUP2 SUB PUSH0 DUP4 ADD MSTORE PUSH2 0x1E8D DUP2 PUSH2 0x1E54 JUMP JUMPDEST SWAP1 POP SWAP2 SWAP1 POP JUMP JUMPDEST PUSH32 0x417574686F722063616E6E6F7420626520656D70747900000000000000000000 PUSH0 DUP3 ADD MSTORE POP JUMP JUMPDEST PUSH0 PUSH2 0x1EC8 PUSH1 0x16 DUP4 PUSH2 0x1405 JUMP JUMPDEST SWAP2 POP PUSH2 0x1ED3 DUP3 PUSH2 0x1E94 JUMP JUMPDEST PUSH1 0x20 DUP3 ADD SWAP1 POP SWAP2 SWAP1 POP JUMP JUMPDEST PUSH0 PUSH1 0x20 DUP3 ADD SWAP1 POP DUP2 DUP2 SUB PUSH0 DUP4 ADD MSTORE PUSH2 0x1EF5 DUP2 PUSH2 0x1EBC JUMP JUMPDEST SWAP1 POP SWAP2 SWAP1 POP JUMP JUMPDEST PUSH32 0x5072696365206D7573742062652067726561746572207468616E203000000000 PUSH0 DUP3 ADD MSTORE POP JUMP JUMPDEST PUSH0 PUSH2 0x1F30 PUSH1 0x1C DUP4 PUSH2 0x1405 JUMP JUMPDEST SWAP2 POP PUSH2 0x1F3B DUP3 PUSH2 0x1EFC JUMP JUMPDEST PUSH1 0x20 DUP3 ADD SWAP1 POP SWAP2 SWAP1 POP JUMP JUMPDEST PUSH0 PUSH1 0x20 DUP3 ADD SWAP1 POP DUP2 DUP2 SUB PUSH0 DUP4 ADD MSTORE PUSH2 0x1F5D DUP2 PUSH2 0x1F24 JUMP JUMPDEST SWAP1 POP SWAP2 SWAP1 POP JUMP JUMPDEST PUSH0 DUP2 SWAP1 POP DUP2 PUSH0 MSTORE PUSH1 0x20 PUSH0 KECCAK256 SWAP1 POP SWAP2 SWAP1 POP JUMP JUMPDEST PUSH0 PUSH1 0x20 PUSH1 0x1F DUP4 ADD DIV SWAP1 POP SWAP2 SWAP1 POP JUMP JUMPDEST PUSH0 DUP3 DUP3 SHL SWAP1 POP SWAP3 SWAP2 POP POP JUMP JUMPDEST PUSH0 PUSH1 0x8 DUP4 MUL PUSH2 0x1FC0 PUSH32 0xFFFFFFFFFFFFFFFFFFFFFFFFFFFFFFFFFFFFFFFFFFFFFFFFFFFFFFFFFFFFFFFF DUP3 PUSH2 0x1F85 JUMP JUMPDEST PUSH2 0x1FCA DUP7 DUP4 PUSH2 0x1F85 JUMP JUMPDEST SWAP6 POP DUP1 NOT DUP5 AND SWAP4 POP DUP1 DUP7 AND DUP5 OR SWAP3 POP POP POP SWAP4 SWAP3 POP POP POP JUMP JUMPDEST PUSH0 DUP2 SWAP1 POP SWAP2 SWAP1 POP JUMP JUMPDEST PUSH0 PUSH2 0x2005 PUSH2 0x2000 PUSH2 0x1FFB DUP5 PUSH2 0x1210 JUMP JUMPDEST PUSH2 0x1FE2 JUMP JUMPDEST PUSH2 0x1210 JUMP JUMPDEST SWAP1 POP SWAP2 SWAP1 POP JUMP JUMPDEST PUSH0 DUP2 SWAP1 POP SWAP2 SWAP1 POP JUMP JUMPDEST PUSH2 0x201E DUP4 PUSH2 0x1FEB JUMP JUMPDEST PUSH2 0x2032 PUSH2 0x202A DUP3 PUSH2 0x200C JUMP JUMPDEST DUP5 DUP5 SLOAD PUSH2 0x1F91 JUMP JUMPDEST DUP3 SSTORE POP POP POP POP JUMP JUMPDEST PUSH0 SWAP1 JUMP JUMPDEST PUSH2 0x2046 PUSH2 0x203A JUMP JUMPDEST PUSH2 0x2051 DUP2 DUP5 DUP5 PUSH2 0x2015 JUMP JUMPDEST POP POP POP JUMP JUMPDEST JUMPDEST DUP2 DUP2 LT ISZERO PUSH2 0x2074 JUMPI PUSH2 0x2069 PUSH0 DUP3 PUSH2 0x203E JUMP JUMPDEST PUSH1 0x1 DUP2 ADD SWAP1 POP PUSH2 0x2057 JUMP JUMPDEST POP POP JUMP JUMPDEST PUSH1 0x1F DUP3 GT ISZERO PUSH2 0x20B9 JUMPI PUSH2 0x208A DUP2 PUSH2 0x1F64 JUMP JUMPDEST PUSH2 0x2093 DUP5 PUSH2 0x1F76 JUMP JUMPDEST DUP2 ADD PUSH1 0x20 DUP6 LT ISZERO PUSH2 0x20A2 JUMPI DUP2 SWAP1 POP JUMPDEST PUSH2 0x20B6 PUSH2 0x20AE DUP6 PUSH2 0x1F76 JUMP JUMPDEST DUP4 ADD DUP3 PUSH2 0x2056 JUMP JUMPDEST POP POP JUMPDEST POP POP POP JUMP JUMPDEST PUSH0 DUP3 DUP3 SHR SWAP1 POP SWAP3 SWAP2 POP POP JUMP JUMPDEST PUSH0 PUSH2 0x20D9 PUSH0 NOT DUP5 PUSH1 0x8 MUL PUSH2 0x20BE JUMP JUMPDEST NOT DUP1 DUP4 AND SWAP2 POP POP SWAP3 SWAP2 POP POP JUMP JUMPDEST PUSH0 PUSH2 0x20F1 DUP4 DUP4 PUSH2 0x20CA JUMP JUMPDEST SWAP2 POP DUP3 PUSH1 0x2 MUL DUP3 OR SWAP1 POP SWAP3 SWAP2 POP POP JUMP JUMPDEST PUSH2 0x210A DUP3 PUSH2 0x13FB JUMP JUMPDEST PUSH8 0xFFFFFFFFFFFFFFFF DUP2 GT ISZERO PUSH2 0x2123 JUMPI PUSH2 0x2122 PUSH2 0x15CD JUMP JUMPDEST JUMPDEST PUSH2 0x212D DUP3 SLOAD PUSH2 0x1CFA JUMP JUMPDEST PUSH2 0x2138 DUP3 DUP3 DUP6 PUSH2 0x2078 JUMP JUMPDEST PUSH0 PUSH1 0x20 SWAP1 POP PUSH1 0x1F DUP4 GT PUSH1 0x1 DUP2 EQ PUSH2 0x2169 JUMPI PUSH0 DUP5 ISZERO PUSH2 0x2157 JUMPI DUP3 DUP8 ADD MLOAD SWAP1 POP JUMPDEST PUSH2 0x2161 DUP6 DUP3 PUSH2 0x20E6 JUMP JUMPDEST DUP7 SSTORE POP PUSH2 0x21C8 JUMP JUMPDEST PUSH1 0x1F NOT DUP5 AND PUSH2 0x2177 DUP7 PUSH2 0x1F64 JUMP JUMPDEST PUSH0 JUMPDEST DUP3 DUP2 LT ISZERO PUSH2 0x219E JUMPI DUP5 DUP10 ADD MLOAD DUP3 SSTORE PUSH1 0x1 DUP3 ADD SWAP2 POP PUSH1 0x20 DUP6 ADD SWAP5 POP PUSH1 0x20 DUP2 ADD SWAP1 POP PUSH2 0x2179 JUMP JUMPDEST DUP7 DUP4 LT ISZERO PUSH2 0x21BB JUMPI DUP5 DUP10 ADD MLOAD PUSH2 0x21B7 PUSH1 0x1F DUP10 AND DUP3 PUSH2 0x20CA JUMP JUMPDEST DUP4 SSTORE POP JUMPDEST PUSH1 0x1 PUSH1 0x2 DUP9 MUL ADD DUP9 SSTORE POP POP POP JUMPDEST POP POP POP POP POP POP JUMP JUMPDEST PUSH0 PUSH1 0xA0 DUP3 ADD SWAP1 POP DUP2 DUP2 SUB PUSH0 DUP4 ADD MSTORE PUSH2 0x21E8 DUP2 DUP9 PUSH2 0x1433 JUMP JUMPDEST SWAP1 POP DUP2 DUP2 SUB PUSH1 0x20 DUP4 ADD MSTORE PUSH2 0x21FC DUP2 DUP8 PUSH2 0x1433 JUMP JUMPDEST SWAP1 POP PUSH2 0x220B PUSH1 0x40 DUP4 ADD DUP7 PUSH2 0x13D3 JUMP JUMPDEST PUSH2 0x2218 PUSH1 0x60 DUP4 ADD DUP6 PUSH2 0x13D3 JUMP JUMPDEST PUSH2 0x2225 PUSH1 0x80 DUP4 ADD DUP5 PUSH2 0x13D3 JUMP JUMPDEST SWAP7 SWAP6 POP POP POP POP POP POP JUMP INVALID LOG2 PUSH5 0x6970667358 0x22 SLT KECCAK256 ADDRESS PUSH19 0x480ECBDAC0C9244A8F93FAF4BB4BA7ACDC98B SAR DUP11 0xB4 0x2D SWAP7 0xE4 DUP2 0xC0 BLOBBASEFEE DUP15 MSIZE PUSH5 0x736F6C6343 STOP ADDMOD BYTE STOP CALLER "
				},
				"gasEstimates": {
					"creation": {
						"codeDepositCost": "1761000",
						"executionCost": "infinite",
						"totalCost": "infinite"
					},
					"external": {
						"addBook(uint256,string,string,uint256,uint256)": "infinite",
						"bookIds(uint256)": "infinite",
						"books(uint256)": "infinite",
						"getAllBooks()": "infinite",
						"getBook(uint256)": "infinite",
						"getBookSales(uint256)": "infinite",
						"getBooksCount()": "2506",
						"getLowStockBooks()": "infinite",
						"owner()": "2505",
						"purchaseBook(uint256,uint256)": "infinite",
						"updateBook(uint256,uint256,uint256)": "infinite"
					}
				},
				"methodIdentifiers": {
					"addBook(uint256,string,string,uint256,uint256)": "f733719c",
					"bookIds(uint256)": "513073b8",
					"books(uint256)": "68744046",
					"getAllBooks()": "354528e8",
					"getBook(uint256)": "e0ff5b8b",
					"getBookSales(uint256)": "c1997003",
					"getBooksCount()": "dfd83d2a",
					"getLowStockBooks()": "c4e0cc8d",
					"owner()": "8da5cb5b",
					"purchaseBook(uint256,uint256)": "0eed433b",
					"updateBook(uint256,uint256,uint256)": "1fc88748"
				}
			},
			"storageLayout": {
				"storage": [
					{
						"astId": 3,
						"contract": "BookStore.sol:BookStore",
						"label": "owner",
						"offset": 0,
						"slot": "0",
						"type": "t_address"
					},
					{
						"astId": 26,
						"contract": "BookStore.sol:BookStore",
						"label": "books",
						"offset": 0,
						"slot": "1",
						"type": "t_mapping(t_uint256,t_struct(Book)21_storage)"
					},
					{
						"astId": 29,
						"contract": "BookStore.sol:BookStore",
						"label": "bookIds",
						"offset": 0,
						"slot": "2",
						"type": "t_array(t_uint256)dyn_storage"
					}
				],
				"types": {
					"t_address": {
						"encoding": "inplace",
						"label": "address",
						"numberOfBytes": "20"
					},
					"t_array(t_uint256)dyn_storage": {
						"base": "t_uint256",
						"encoding": "dynamic_array",
						"label": "uint256[]",
						"numberOfBytes": "32"
					},
					"t_bool": {
						"encoding": "inplace",
						"label": "bool",
						"numberOfBytes": "1"
					},
					"t_mapping(t_uint256,t_struct(Book)21_storage)": {
						"encoding": "mapping",
						"key": "t_uint256",
						"label": "mapping(uint256 => struct BookStore.Book)",
						"numberOfBytes": "32",
						"value": "t_struct(Book)21_storage"
					},
					"t_string_storage": {
						"encoding": "bytes",
						"label": "string",
						"numberOfBytes": "32"
					},
					"t_struct(Book)21_storage": {
						"encoding": "inplace",
						"label": "struct BookStore.Book",
						"members": [
							{
								"astId": 8,
								"contract": "BookStore.sol:BookStore",
								"label": "title",
								"offset": 0,
								"slot": "0",
								"type": "t_string_storage"
							},
							{
								"astId": 10,
								"contract": "BookStore.sol:BookStore",
								"label": "author",
								"offset": 0,
								"slot": "1",
								"type": "t_string_storage"
							},
							{
								"astId": 12,
								"contract": "BookStore.sol:BookStore",
								"label": "price",
								"offset": 0,
								"slot": "2",
								"type": "t_uint256"
							},
							{
								"astId": 14,
								"contract": "BookStore.sol:BookStore",
								"label": "stock",
								"offset": 0,
								"slot": "3",
								"type": "t_uint256"
							},
							{
								"astId": 16,
								"contract": "BookStore.sol:BookStore",
								"label": "isAvailable",
								"offset": 0,
								"slot": "4",
								"type": "t_bool"
							},
							{
								"astId": 18,
								"contract": "BookStore.sol:BookStore",
								"label": "totalSold",
								"offset": 0,
								"slot": "5",
								"type": "t_uint256"
							},
							{
								"astId": 20,
								"contract": "BookStore.sol:BookStore",
								"label": "lastRestockTime",
								"offset": 0,
								"slot": "6",
								"type": "t_uint256"
							}
						],
						"numberOfBytes": "224"
					},
					"t_uint256": {
						"encoding": "inplace",
						"label": "uint256",
						"numberOfBytes": "32"
					}
				}
			},
			"userdoc": {
				"kind": "user",
				"methods": {},
				"version": 1
			}
		}
	}
}