{
	"BookStore.sol": {
		"BookStore": {
			"abi": [
				{
					"inputs": [],
					"stateMutability": "nonpayable",
					"type": "constructor"
				},
				{
					"anonymous": false,
					"inputs": [
						{
							"indexed": true,
							"internalType": "uint256",
							"name": "bookId",
							"type": "uint256"
						},
						{
							"indexed": false,
							"internalType": "string",
							"name": "title",
							"type": "string"
						},
						{
							"indexed": false,
							"internalType": "string",
							"name": "author",
							"type": "string"
						},
						{
							"indexed": false,
							"internalType": "uint256",
							"name": "price",
							"type": "uint256"
						},
						{
							"indexed": false,
							"internalType": "uint256",
							"name": "stock",
							"type": "uint256"
						}
					],
					"name": "BookAdded",
					"type": "event"
				},
				{
					"anonymous": false,
					"inputs": [
						{
							"indexed": true,
							"internalType": "uint256",
							"name": "bookId",
							"type": "uint256"
						},
						{
							"indexed": true,
							"internalType": "address",
							"name": "buyer",
							"type": "address"
						},
						{
							"indexed": false,
							"internalType": "uint256",
							"name": "quantity",
							"type": "uint256"
						}
					],
					"name": "BookPurchased",
					"type": "event"
				},
				{
					"anonymous": false,
					"inputs": [
						{
							"indexed": true,
							"internalType": "uint256",
							"name": "bookId",
							"type": "uint256"
						}
					],
					"name": "BookRemoved",
					"type": "event"
				},
				{
					"inputs": [
						{
							"internalType": "uint256",
							"name": "_bookId",
							"type": "uint256"
						},
						{
							"internalType": "string",
							"name": "_title",
							"type": "string"
						},
						{
							"internalType": "string",
							"name": "_author",
							"type": "string"
						},
						{
							"internalType": "uint256",
							"name": "_price",
							"type": "uint256"
						},
						{
							"internalType": "uint256",
							"name": "_stock",
							"type": "uint256"
						}
					],
					"name": "addBook",
					"outputs": [],
					"stateMutability": "nonpayable",
					"type": "function"
				},
				{
					"inputs": [
						{
							"internalType": "uint256",
							"name": "",
							"type": "uint256"
						}
					],
					"name": "bookIds",
					"outputs": [
						{
							"internalType": "uint256",
							"name": "",
							"type": "uint256"
						}
					],
					"stateMutability": "view",
					"type": "function"
				},
				{
					"inputs": [
						{
							"internalType": "uint256",
							"name": "",
							"type": "uint256"
						}
					],
					"name": "books",
					"outputs": [
						{
							"internalType": "string",
							"name": "title",
							"type": "string"
						},
						{
							"internalType": "string",
							"name": "author",
							"type": "string"
						},
						{
							"internalType": "uint256",
							"name": "price",
							"type": "uint256"
						},
						{
							"internalType": "uint256",
							"name": "stock",
							"type": "uint256"
						},
						{
							"internalType": "bool",
							"name": "isAvailable",
							"type": "bool"
						},
						{
							"internalType": "uint256",
							"name": "totalSold",
							"type": "uint256"
						},
						{
							"internalType": "bool",
							"name": "isCreated",
							"type": "bool"
						}
					],
					"stateMutability": "view",
					"type": "function"
				},
				{
					"inputs": [
						{
							"internalType": "uint256",
							"name": "_bookId",
							"type": "uint256"
						},
						{
							"internalType": "uint256",
							"name": "_quantity",
							"type": "uint256"
						},
						{
							"internalType": "uint256",
							"name": "_amount",
							"type": "uint256"
						}
					],
					"name": "buyBook",
					"outputs": [],
					"stateMutability": "payable",
					"type": "function"
				},
				{
					"inputs": [
						{
							"internalType": "uint256",
							"name": "_bookId",
							"type": "uint256"
						}
					],
					"name": "getBook",
					"outputs": [
						{
							"internalType": "string",
							"name": "title",
							"type": "string"
						},
						{
							"internalType": "string",
							"name": "author",
							"type": "string"
						},
						{
							"internalType": "uint256",
							"name": "price",
							"type": "uint256"
						},
						{
							"internalType": "uint256",
							"name": "stock",
							"type": "uint256"
						},
						{
							"internalType": "bool",
							"name": "isAvailable",
							"type": "bool"
						},
						{
							"internalType": "uint256",
							"name": "totalSold",
							"type": "uint256"
						}
					],
					"stateMutability": "view",
					"type": "function"
				},
				{
					"inputs": [
						{
							"internalType": "uint256",
							"name": "_bookId",
							"type": "uint256"
						}
					],
					"name": "getBookSales",
					"outputs": [
						{
							"internalType": "uint256",
							"name": "",
							"type": "uint256"
						}
					],
					"stateMutability": "view",
					"type": "function"
				},
				{
					"inputs": [],
					"name": "getContractBalance",
					"outputs": [
						{
							"internalType": "uint256",
							"name": "",
							"type": "uint256"
						}
					],
					"stateMutability": "view",
					"type": "function"
				},
				{
					"inputs": [],
					"name": "getOwnerBalance",
					"outputs": [
						{
							"internalType": "uint256",
							"name": "",
							"type": "uint256"
						}
					],
					"stateMutability": "view",
					"type": "function"
				},
				{
					"inputs": [],
					"name": "getTotalBooks",
					"outputs": [
						{
							"internalType": "uint256",
							"name": "",
							"type": "uint256"
						}
					],
					"stateMutability": "view",
					"type": "function"
				},
				{
					"inputs": [],
					"name": "getTotalBooksSold",
					"outputs": [
						{
							"internalType": "uint256",
							"name": "",
							"type": "uint256"
						}
					],
					"stateMutability": "view",
					"type": "function"
				},
				{
					"inputs": [],
					"name": "owner",
					"outputs": [
						{
							"internalType": "address payable",
							"name": "",
							"type": "address"
						}
					],
					"stateMutability": "view",
					"type": "function"
				},
				{
					"inputs": [
						{
							"internalType": "uint256",
							"name": "_bookId",
							"type": "uint256"
						}
					],
					"name": "removeBook",
					"outputs": [],
					"stateMutability": "nonpayable",
					"type": "function"
				},
				{
					"inputs": [],
					"name": "totalBooksSold",
					"outputs": [
						{
							"internalType": "uint256",
							"name": "",
							"type": "uint256"
						}
					],
					"stateMutability": "view",
					"type": "function"
				},
				{
					"inputs": [
						{
							"internalType": "uint256",
							"name": "_bookId",
							"type": "uint256"
						},
						{
							"internalType": "uint256",
							"name": "_newPrice",
							"type": "uint256"
						}
					],
					"name": "updateBookPrice",
					"outputs": [],
					"stateMutability": "nonpayable",
					"type": "function"
				}
			],
			"devdoc": {
				"kind": "dev",
				"methods": {},
				"version": 1
			},
			"evm": {
				"assembly": "    /* \"BookStore.sol\":581:5268  contract BookStore {... */\n  mstore(0x40, 0x80)\n    /* \"BookStore.sol\":1261:1323  constructor() {... */\n  callvalue\n  dup1\n  iszero\n  tag_1\n  jumpi\n  0x00\n  dup1\n  revert\ntag_1:\n  pop\n    /* \"BookStore.sol\":1302:1312  msg.sender */\n  caller\n    /* \"BookStore.sol\":1286:1291  owner */\n  0x00\n  dup1\n    /* \"BookStore.sol\":1286:1313  owner = payable(msg.sender) */\n  0x0100\n  exp\n  dup2\n  sload\n  dup2\n  0xffffffffffffffffffffffffffffffffffffffff\n  mul\n  not\n  and\n  swap1\n  dup4\n  0xffffffffffffffffffffffffffffffffffffffff\n  and\n  mul\n  or\n  swap1\n  sstore\n  pop\n    /* \"BookStore.sol\":581:5268  contract BookStore {... */\n  dataSize(sub_0)\n  dup1\n  dataOffset(sub_0)\n  0x00\n  codecopy\n  0x00\n  return\nstop\n\nsub_0: assembly {\n        /* \"BookStore.sol\":581:5268  contract BookStore {... */\n      mstore(0x40, 0x80)\n      jumpi(tag_1, lt(calldatasize, 0x04))\n      shr(0xe0, calldataload(0x00))\n      dup1\n      0x8efd319a\n      gt\n      tag_16\n      jumpi\n      dup1\n      0xc1997003\n      gt\n      tag_17\n      jumpi\n      dup1\n      0xc1997003\n      eq\n      tag_12\n      jumpi\n      dup1\n      0xe0ff5b8b\n      eq\n      tag_13\n      jumpi\n      dup1\n      0xf346e2b7\n      eq\n      tag_14\n      jumpi\n      dup1\n      0xf733719c\n      eq\n      tag_15\n      jumpi\n      jump(tag_1)\n    tag_17:\n      dup1\n      0x8efd319a\n      eq\n      tag_9\n      jumpi\n      dup1\n      0x9bd30883\n      eq\n      tag_10\n      jumpi\n      dup1\n      0xbec0d799\n      eq\n      tag_11\n      jumpi\n      jump(tag_1)\n    tag_16:\n      dup1\n      0x68744046\n      gt\n      tag_18\n      jumpi\n      dup1\n      0x68744046\n      eq\n      tag_5\n      jumpi\n      dup1\n      0x68931b21\n      eq\n      tag_6\n      jumpi\n      dup1\n      0x6f9fb98a\n      eq\n      tag_7\n      jumpi\n      dup1\n      0x8da5cb5b\n      eq\n      tag_8\n      jumpi\n      jump(tag_1)\n    tag_18:\n      dup1\n      0x3899637f\n      eq\n      tag_2\n      jumpi\n      dup1\n      0x513073b8\n      eq\n      tag_3\n      jumpi\n      dup1\n      0x590791f2\n      eq\n      tag_4\n      jumpi\n    tag_1:\n      0x00\n      dup1\n      revert\n        /* \"BookStore.sol\":977:1006  uint256 public totalBooksSold */\n    tag_2:\n      callvalue\n      dup1\n      iszero\n      tag_19\n      jumpi\n      0x00\n      dup1\n      revert\n    tag_19:\n      pop\n      tag_20\n      tag_21\n      jump\t// in\n    tag_20:\n      mload(0x40)\n      tag_22\n      swap2\n      swap1\n      tag_23\n      jump\t// in\n    tag_22:\n      mload(0x40)\n      dup1\n      swap2\n      sub\n      swap1\n      return\n        /* \"BookStore.sol\":946:970  uint256[] public bookIds */\n    tag_3:\n      callvalue\n      dup1\n      iszero\n      tag_24\n      jumpi\n      0x00\n      dup1\n      revert\n    tag_24:\n      pop\n      tag_25\n      0x04\n      dup1\n      calldatasize\n      sub\n      dup2\n      add\n      swap1\n      tag_26\n      swap2\n      swap1\n      tag_27\n      jump\t// in\n    tag_26:\n      tag_28\n      jump\t// in\n    tag_25:\n      mload(0x40)\n      tag_29\n      swap2\n      swap1\n      tag_23\n      jump\t// in\n    tag_29:\n      mload(0x40)\n      dup1\n      swap2\n      sub\n      swap1\n      return\n        /* \"BookStore.sol\":4900:4996  function getOwnerBalance() public view returns (uint256) {... */\n    tag_4:\n      callvalue\n      dup1\n      iszero\n      tag_30\n      jumpi\n      0x00\n      dup1\n      revert\n    tag_30:\n      pop\n      tag_31\n      tag_32\n      jump\t// in\n    tag_31:\n      mload(0x40)\n      tag_33\n      swap2\n      swap1\n      tag_23\n      jump\t// in\n    tag_33:\n      mload(0x40)\n      dup1\n      swap2\n      sub\n      swap1\n      return\n        /* \"BookStore.sol\":902:939  mapping(uint256 => Book) public books */\n    tag_5:\n      callvalue\n      dup1\n      iszero\n      tag_34\n      jumpi\n      0x00\n      dup1\n      revert\n    tag_34:\n      pop\n      tag_35\n      0x04\n      dup1\n      calldatasize\n      sub\n      dup2\n      add\n      swap1\n      tag_36\n      swap2\n      swap1\n      tag_27\n      jump\t// in\n    tag_36:\n      tag_37\n      jump\t// in\n    tag_35:\n      mload(0x40)\n      tag_38\n      swap8\n      swap7\n      swap6\n      swap5\n      swap4\n      swap3\n      swap2\n      swap1\n      tag_39\n      jump\t// in\n    tag_38:\n      mload(0x40)\n      dup1\n      swap2\n      sub\n      swap1\n      return\n        /* \"BookStore.sol\":4381:4476  function getTotalBooks() public view returns (uint256) {... */\n    tag_6:\n      callvalue\n      dup1\n      iszero\n      tag_40\n      jumpi\n      0x00\n      dup1\n      revert\n    tag_40:\n      pop\n      tag_41\n      tag_42\n      jump\t// in\n    tag_41:\n      mload(0x40)\n      tag_43\n      swap2\n      swap1\n      tag_23\n      jump\t// in\n    tag_43:\n      mload(0x40)\n      dup1\n      swap2\n      sub\n      swap1\n      return\n        /* \"BookStore.sol\":4785:4892  function getContractBalance() public view returns (uint256) {... */\n    tag_7:\n      callvalue\n      dup1\n      iszero\n      tag_44\n      jumpi\n      0x00\n      dup1\n      revert\n    tag_44:\n      pop\n      tag_45\n      tag_46\n      jump\t// in\n    tag_45:\n      mload(0x40)\n      tag_47\n      swap2\n      swap1\n      tag_23\n      jump\t// in\n    tag_47:\n      mload(0x40)\n      dup1\n      swap2\n      sub\n      swap1\n      return\n        /* \"BookStore.sol\":607:635  address payable public owner */\n    tag_8:\n      callvalue\n      dup1\n      iszero\n      tag_48\n      jumpi\n      0x00\n      dup1\n      revert\n    tag_48:\n      pop\n      tag_49\n      tag_50\n      jump\t// in\n    tag_49:\n      mload(0x40)\n      tag_51\n      swap2\n      swap1\n      tag_52\n      jump\t// in\n    tag_51:\n      mload(0x40)\n      dup1\n      swap2\n      sub\n      swap1\n      return\n        /* \"BookStore.sol\":5004:5265  function updateBookPrice(uint256 _bookId, uint256 _newPrice) public onlyOwner {... */\n    tag_9:\n      callvalue\n      dup1\n      iszero\n      tag_53\n      jumpi\n      0x00\n      dup1\n      revert\n    tag_53:\n      pop\n      tag_54\n      0x04\n      dup1\n      calldatasize\n      sub\n      dup2\n      add\n      swap1\n      tag_55\n      swap2\n      swap1\n      tag_56\n      jump\t// in\n    tag_55:\n      tag_57\n      jump\t// in\n    tag_54:\n      stop\n        /* \"BookStore.sol\":4484:4583  function getTotalBooksSold() public view returns (uint256) {... */\n    tag_10:\n      callvalue\n      dup1\n      iszero\n      tag_58\n      jumpi\n      0x00\n      dup1\n      revert\n    tag_58:\n      pop\n      tag_59\n      tag_60\n      jump\t// in\n    tag_59:\n      mload(0x40)\n      tag_61\n      swap2\n      swap1\n      tag_23\n      jump\t// in\n    tag_61:\n      mload(0x40)\n      dup1\n      swap2\n      sub\n      swap1\n      return\n        /* \"BookStore.sol\":2373:3002  function removeBook(uint256 _bookId) public onlyOwner {... */\n    tag_11:\n      callvalue\n      dup1\n      iszero\n      tag_62\n      jumpi\n      0x00\n      dup1\n      revert\n    tag_62:\n      pop\n      tag_63\n      0x04\n      dup1\n      calldatasize\n      sub\n      dup2\n      add\n      swap1\n      tag_64\n      swap2\n      swap1\n      tag_27\n      jump\t// in\n    tag_64:\n      tag_65\n      jump\t// in\n    tag_63:\n      stop\n        /* \"BookStore.sol\":4591:4777  function getBookSales(uint256 _bookId) public view returns (uint256) {... */\n    tag_12:\n      callvalue\n      dup1\n      iszero\n      tag_66\n      jumpi\n      0x00\n      dup1\n      revert\n    tag_66:\n      pop\n      tag_67\n      0x04\n      dup1\n      calldatasize\n      sub\n      dup2\n      add\n      swap1\n      tag_68\n      swap2\n      swap1\n      tag_27\n      jump\t// in\n    tag_68:\n      tag_69\n      jump\t// in\n    tag_67:\n      mload(0x40)\n      tag_70\n      swap2\n      swap1\n      tag_23\n      jump\t// in\n    tag_70:\n      mload(0x40)\n      dup1\n      swap2\n      sub\n      swap1\n      return\n        /* \"BookStore.sol\":3010:3389  function getBook(uint256 _bookId) public view returns (... */\n    tag_13:\n      callvalue\n      dup1\n      iszero\n      tag_71\n      jumpi\n      0x00\n      dup1\n      revert\n    tag_71:\n      pop\n      tag_72\n      0x04\n      dup1\n      calldatasize\n      sub\n      dup2\n      add\n      swap1\n      tag_73\n      swap2\n      swap1\n      tag_27\n      jump\t// in\n    tag_73:\n      tag_74\n      jump\t// in\n    tag_72:\n      mload(0x40)\n      tag_75\n      swap7\n      swap6\n      swap5\n      swap4\n      swap3\n      swap2\n      swap1\n      tag_76\n      jump\t// in\n    tag_75:\n      mload(0x40)\n      dup1\n      swap2\n      sub\n      swap1\n      return\n        /* \"BookStore.sol\":3397:4373  function buyBook(uint256 _bookId, uint256 _quantity,uint256 _amount) public payable {... */\n    tag_14:\n      tag_77\n      0x04\n      dup1\n      calldatasize\n      sub\n      dup2\n      add\n      swap1\n      tag_78\n      swap2\n      swap1\n      tag_79\n      jump\t// in\n    tag_78:\n      tag_80\n      jump\t// in\n    tag_77:\n      stop\n        /* \"BookStore.sol\":1456:2365  function addBook(... */\n    tag_15:\n      callvalue\n      dup1\n      iszero\n      tag_81\n      jumpi\n      0x00\n      dup1\n      revert\n    tag_81:\n      pop\n      tag_82\n      0x04\n      dup1\n      calldatasize\n      sub\n      dup2\n      add\n      swap1\n      tag_83\n      swap2\n      swap1\n      tag_84\n      jump\t// in\n    tag_83:\n      tag_85\n      jump\t// in\n    tag_82:\n      stop\n        /* \"BookStore.sol\":977:1006  uint256 public totalBooksSold */\n    tag_21:\n      sload(0x03)\n      dup2\n      jump\t// out\n        /* \"BookStore.sol\":946:970  uint256[] public bookIds */\n    tag_28:\n      0x02\n      dup2\n      dup2\n      sload\n      dup2\n      lt\n      tag_86\n      jumpi\n      0x00\n      dup1\n      revert\n    tag_86:\n      swap1\n      0x00\n      mstore\n      keccak256(0x00, 0x20)\n      add\n      0x00\n      swap2\n      pop\n      swap1\n      pop\n      sload\n      dup2\n      jump\t// out\n        /* \"BookStore.sol\":4900:4996  function getOwnerBalance() public view returns (uint256) {... */\n    tag_32:\n        /* \"BookStore.sol\":4948:4955  uint256 */\n      0x00\n        /* \"BookStore.sol\":4975:4980  owner */\n      dup1\n      0x00\n      swap1\n      sload\n      swap1\n      0x0100\n      exp\n      swap1\n      div\n      0xffffffffffffffffffffffffffffffffffffffff\n      and\n        /* \"BookStore.sol\":4975:4988  owner.balance */\n      0xffffffffffffffffffffffffffffffffffffffff\n      and\n      balance\n        /* \"BookStore.sol\":4968:4988  return owner.balance */\n      swap1\n      pop\n        /* \"BookStore.sol\":4900:4996  function getOwnerBalance() public view returns (uint256) {... */\n      swap1\n      jump\t// out\n        /* \"BookStore.sol\":902:939  mapping(uint256 => Book) public books */\n    tag_37:\n      mstore(0x20, 0x01)\n      dup1\n      0x00\n      mstore\n      keccak256(0x00, 0x40)\n      0x00\n      swap2\n      pop\n      swap1\n      pop\n      dup1\n      0x00\n      add\n      dup1\n      sload\n      tag_89\n      swap1\n      tag_90\n      jump\t// in\n    tag_89:\n      dup1\n      0x1f\n      add\n      0x20\n      dup1\n      swap2\n      div\n      mul\n      0x20\n      add\n      mload(0x40)\n      swap1\n      dup2\n      add\n      0x40\n      mstore\n      dup1\n      swap3\n      swap2\n      swap1\n      dup2\n      dup2\n      mstore\n      0x20\n      add\n      dup3\n      dup1\n      sload\n      tag_91\n      swap1\n      tag_90\n      jump\t// in\n    tag_91:\n      dup1\n      iszero\n      tag_92\n      jumpi\n      dup1\n      0x1f\n      lt\n      tag_93\n      jumpi\n      0x0100\n      dup1\n      dup4\n      sload\n      div\n      mul\n      dup4\n      mstore\n      swap2\n      0x20\n      add\n      swap2\n      jump(tag_92)\n    tag_93:\n      dup3\n      add\n      swap2\n      swap1\n      0x00\n      mstore\n      keccak256(0x00, 0x20)\n      swap1\n    tag_94:\n      dup2\n      sload\n      dup2\n      mstore\n      swap1\n      0x01\n      add\n      swap1\n      0x20\n      add\n      dup1\n      dup4\n      gt\n      tag_94\n      jumpi\n      dup3\n      swap1\n      sub\n      0x1f\n      and\n      dup3\n      add\n      swap2\n    tag_92:\n      pop\n      pop\n      pop\n      pop\n      pop\n      swap1\n      dup1\n      0x01\n      add\n      dup1\n      sload\n      tag_95\n      swap1\n      tag_90\n      jump\t// in\n    tag_95:\n      dup1\n      0x1f\n      add\n      0x20\n      dup1\n      swap2\n      div\n      mul\n      0x20\n      add\n      mload(0x40)\n      swap1\n      dup2\n      add\n      0x40\n      mstore\n      dup1\n      swap3\n      swap2\n      swap1\n      dup2\n      dup2\n      mstore\n      0x20\n      add\n      dup3\n      dup1\n      sload\n      tag_96\n      swap1\n      tag_90\n      jump\t// in\n    tag_96:\n      dup1\n      iszero\n      tag_97\n      jumpi\n      dup1\n      0x1f\n      lt\n      tag_98\n      jumpi\n      0x0100\n      dup1\n      dup4\n      sload\n      div\n      mul\n      dup4\n      mstore\n      swap2\n      0x20\n      add\n      swap2\n      jump(tag_97)\n    tag_98:\n      dup3\n      add\n      swap2\n      swap1\n      0x00\n      mstore\n      keccak256(0x00, 0x20)\n      swap1\n    tag_99:\n      dup2\n      sload\n      dup2\n      mstore\n      swap1\n      0x01\n      add\n      swap1\n      0x20\n      add\n      dup1\n      dup4\n      gt\n      tag_99\n      jumpi\n      dup3\n      swap1\n      sub\n      0x1f\n      and\n      dup3\n      add\n      swap2\n    tag_97:\n      pop\n      pop\n      pop\n      pop\n      pop\n      swap1\n      dup1\n      0x02\n      add\n      sload\n      swap1\n      dup1\n      0x03\n      add\n      sload\n      swap1\n      dup1\n      0x04\n      add\n      0x00\n      swap1\n      sload\n      swap1\n      0x0100\n      exp\n      swap1\n      div\n      0xff\n      and\n      swap1\n      dup1\n      0x05\n      add\n      sload\n      swap1\n      dup1\n      0x06\n      add\n      0x00\n      swap1\n      sload\n      swap1\n      0x0100\n      exp\n      swap1\n      div\n      0xff\n      and\n      swap1\n      pop\n      dup8\n      jump\t// out\n        /* \"BookStore.sol\":4381:4476  function getTotalBooks() public view returns (uint256) {... */\n    tag_42:\n        /* \"BookStore.sol\":4427:4434  uint256 */\n      0x00\n        /* \"BookStore.sol\":4454:4461  bookIds */\n      0x02\n        /* \"BookStore.sol\":4454:4468  bookIds.length */\n      dup1\n      sload\n      swap1\n      pop\n        /* \"BookStore.sol\":4447:4468  return bookIds.length */\n      swap1\n      pop\n        /* \"BookStore.sol\":4381:4476  function getTotalBooks() public view returns (uint256) {... */\n      swap1\n      jump\t// out\n        /* \"BookStore.sol\":4785:4892  function getContractBalance() public view returns (uint256) {... */\n    tag_46:\n        /* \"BookStore.sol\":4836:4843  uint256 */\n      0x00\n        /* \"BookStore.sol\":4863:4884  address(this).balance */\n      selfbalance\n        /* \"BookStore.sol\":4856:4884  return address(this).balance */\n      swap1\n      pop\n        /* \"BookStore.sol\":4785:4892  function getContractBalance() public view returns (uint256) {... */\n      swap1\n      jump\t// out\n        /* \"BookStore.sol\":607:635  address payable public owner */\n    tag_50:\n      0x00\n      dup1\n      sload\n      swap1\n      0x0100\n      exp\n      swap1\n      div\n      0xffffffffffffffffffffffffffffffffffffffff\n      and\n      dup2\n      jump\t// out\n        /* \"BookStore.sol\":5004:5265  function updateBookPrice(uint256 _bookId, uint256 _newPrice) public onlyOwner {... */\n    tag_57:\n        /* \"BookStore.sol\":1385:1390  owner */\n      0x00\n      dup1\n      sload\n      swap1\n      0x0100\n      exp\n      swap1\n      div\n      0xffffffffffffffffffffffffffffffffffffffff\n      and\n        /* \"BookStore.sol\":1371:1390  msg.sender == owner */\n      0xffffffffffffffffffffffffffffffffffffffff\n      and\n        /* \"BookStore.sol\":1371:1381  msg.sender */\n      caller\n        /* \"BookStore.sol\":1371:1390  msg.sender == owner */\n      0xffffffffffffffffffffffffffffffffffffffff\n      and\n      eq\n        /* \"BookStore.sol\":1363:1429  require(msg.sender == owner, \"Only owner can perform this action\") */\n      tag_103\n      jumpi\n      mload(0x40)\n      0x08c379a000000000000000000000000000000000000000000000000000000000\n      dup2\n      mstore\n      0x04\n      add\n      tag_104\n      swap1\n      tag_105\n      jump\t// in\n    tag_104:\n      mload(0x40)\n      dup1\n      swap2\n      sub\n      swap1\n      revert\n    tag_103:\n        /* \"BookStore.sol\":5124:5125  0 */\n      0x00\n        /* \"BookStore.sol\":5101:5106  books */\n      0x01\n        /* \"BookStore.sol\":5101:5115  books[_bookId] */\n      0x00\n        /* \"BookStore.sol\":5107:5114  _bookId */\n      dup5\n        /* \"BookStore.sol\":5101:5115  books[_bookId] */\n      dup2\n      mstore\n      0x20\n      add\n      swap1\n      dup2\n      mstore\n      0x20\n      add\n      0x00\n      keccak256\n        /* \"BookStore.sol\":5101:5121  books[_bookId].price */\n      0x02\n      add\n      sload\n        /* \"BookStore.sol\":5101:5125  books[_bookId].price > 0 */\n      gt\n        /* \"BookStore.sol\":5093:5149  require(books[_bookId].price > 0, \"Book does not exist\") */\n      tag_107\n      jumpi\n      mload(0x40)\n      0x08c379a000000000000000000000000000000000000000000000000000000000\n      dup2\n      mstore\n      0x04\n      add\n      tag_108\n      swap1\n      tag_109\n      jump\t// in\n    tag_108:\n      mload(0x40)\n      dup1\n      swap2\n      sub\n      swap1\n      revert\n    tag_107:\n        /* \"BookStore.sol\":5180:5181  0 */\n      0x00\n        /* \"BookStore.sol\":5168:5177  _newPrice */\n      dup2\n        /* \"BookStore.sol\":5168:5181  _newPrice > 0 */\n      gt\n        /* \"BookStore.sol\":5160:5214  require(_newPrice > 0, \"Price must be greater than 0\") */\n      tag_110\n      jumpi\n      mload(0x40)\n      0x08c379a000000000000000000000000000000000000000000000000000000000\n      dup2\n      mstore\n      0x04\n      add\n      tag_111\n      swap1\n      tag_112\n      jump\t// in\n    tag_111:\n      mload(0x40)\n      dup1\n      swap2\n      sub\n      swap1\n      revert\n    tag_110:\n        /* \"BookStore.sol\":5248:5257  _newPrice */\n      dup1\n        /* \"BookStore.sol\":5225:5230  books */\n      0x01\n        /* \"BookStore.sol\":5225:5239  books[_bookId] */\n      0x00\n        /* \"BookStore.sol\":5231:5238  _bookId */\n      dup5\n        /* \"BookStore.sol\":5225:5239  books[_bookId] */\n      dup2\n      mstore\n      0x20\n      add\n      swap1\n      dup2\n      mstore\n      0x20\n      add\n      0x00\n      keccak256\n        /* \"BookStore.sol\":5225:5245  books[_bookId].price */\n      0x02\n      add\n        /* \"BookStore.sol\":5225:5257  books[_bookId].price = _newPrice */\n      dup2\n      swap1\n      sstore\n      pop\n        /* \"BookStore.sol\":5004:5265  function updateBookPrice(uint256 _bookId, uint256 _newPrice) public onlyOwner {... */\n      pop\n      pop\n      jump\t// out\n        /* \"BookStore.sol\":4484:4583  function getTotalBooksSold() public view returns (uint256) {... */\n    tag_60:\n        /* \"BookStore.sol\":4534:4541  uint256 */\n      0x00\n        /* \"BookStore.sol\":4561:4575  totalBooksSold */\n      sload(0x03)\n        /* \"BookStore.sol\":4554:4575  return totalBooksSold */\n      swap1\n      pop\n        /* \"BookStore.sol\":4484:4583  function getTotalBooksSold() public view returns (uint256) {... */\n      swap1\n      jump\t// out\n        /* \"BookStore.sol\":2373:3002  function removeBook(uint256 _bookId) public onlyOwner {... */\n    tag_65:\n        /* \"BookStore.sol\":1385:1390  owner */\n      0x00\n      dup1\n      sload\n      swap1\n      0x0100\n      exp\n      swap1\n      div\n      0xffffffffffffffffffffffffffffffffffffffff\n      and\n        /* \"BookStore.sol\":1371:1390  msg.sender == owner */\n      0xffffffffffffffffffffffffffffffffffffffff\n      and\n        /* \"BookStore.sol\":1371:1381  msg.sender */\n      caller\n        /* \"BookStore.sol\":1371:1390  msg.sender == owner */\n      0xffffffffffffffffffffffffffffffffffffffff\n      and\n      eq\n        /* \"BookStore.sol\":1363:1429  require(msg.sender == owner, \"Only owner can perform this action\") */\n      tag_115\n      jumpi\n      mload(0x40)\n      0x08c379a000000000000000000000000000000000000000000000000000000000\n      dup2\n      mstore\n      0x04\n      add\n      tag_116\n      swap1\n      tag_105\n      jump\t// in\n    tag_116:\n      mload(0x40)\n      dup1\n      swap2\n      sub\n      swap1\n      revert\n    tag_115:\n        /* \"BookStore.sol\":2469:2470  0 */\n      0x00\n        /* \"BookStore.sol\":2446:2451  books */\n      0x01\n        /* \"BookStore.sol\":2446:2460  books[_bookId] */\n      0x00\n        /* \"BookStore.sol\":2452:2459  _bookId */\n      dup4\n        /* \"BookStore.sol\":2446:2460  books[_bookId] */\n      dup2\n      mstore\n      0x20\n      add\n      swap1\n      dup2\n      mstore\n      0x20\n      add\n      0x00\n      keccak256\n        /* \"BookStore.sol\":2446:2466  books[_bookId].price */\n      0x02\n      add\n      sload\n        /* \"BookStore.sol\":2446:2470  books[_bookId].price > 0 */\n      gt\n        /* \"BookStore.sol\":2438:2494  require(books[_bookId].price > 0, \"Book does not exist\") */\n      tag_118\n      jumpi\n      mload(0x40)\n      0x08c379a000000000000000000000000000000000000000000000000000000000\n      dup2\n      mstore\n      0x04\n      add\n      tag_119\n      swap1\n      tag_109\n      jump\t// in\n    tag_119:\n      mload(0x40)\n      dup1\n      swap2\n      sub\n      swap1\n      revert\n    tag_118:\n        /* \"BookStore.sol\":2530:2539  uint256 i */\n      0x00\n        /* \"BookStore.sol\":2525:2874  for (uint256 i = 0; i < bookIds.length; i++) {... */\n    tag_120:\n        /* \"BookStore.sol\":2549:2556  bookIds */\n      0x02\n        /* \"BookStore.sol\":2549:2563  bookIds.length */\n      dup1\n      sload\n      swap1\n      pop\n        /* \"BookStore.sol\":2545:2546  i */\n      dup2\n        /* \"BookStore.sol\":2545:2563  i < bookIds.length */\n      lt\n        /* \"BookStore.sol\":2525:2874  for (uint256 i = 0; i < bookIds.length; i++) {... */\n      iszero\n      tag_121\n      jumpi\n        /* \"BookStore.sol\":2603:2610  _bookId */\n      dup2\n        /* \"BookStore.sol\":2589:2596  bookIds */\n      0x02\n        /* \"BookStore.sol\":2597:2598  i */\n      dup3\n        /* \"BookStore.sol\":2589:2599  bookIds[i] */\n      dup2\n      sload\n      dup2\n      lt\n      tag_123\n      jumpi\n      tag_124\n      tag_125\n      jump\t// in\n    tag_124:\n    tag_123:\n      swap1\n      0x00\n      mstore\n      keccak256(0x00, 0x20)\n      add\n      sload\n        /* \"BookStore.sol\":2589:2610  bookIds[i] == _bookId */\n      sub\n        /* \"BookStore.sol\":2585:2863  if (bookIds[i] == _bookId) {... */\n      tag_127\n      jumpi\n        /* \"BookStore.sol\":2720:2727  bookIds */\n      0x02\n        /* \"BookStore.sol\":2745:2746  1 */\n      0x01\n        /* \"BookStore.sol\":2728:2735  bookIds */\n      0x02\n        /* \"BookStore.sol\":2728:2742  bookIds.length */\n      dup1\n      sload\n      swap1\n      pop\n        /* \"BookStore.sol\":2728:2746  bookIds.length - 1 */\n      tag_128\n      swap2\n      swap1\n      tag_129\n      jump\t// in\n    tag_128:\n        /* \"BookStore.sol\":2720:2747  bookIds[bookIds.length - 1] */\n      dup2\n      sload\n      dup2\n      lt\n      tag_130\n      jumpi\n      tag_131\n      tag_125\n      jump\t// in\n    tag_131:\n    tag_130:\n      swap1\n      0x00\n      mstore\n      keccak256(0x00, 0x20)\n      add\n      sload\n        /* \"BookStore.sol\":2707:2714  bookIds */\n      0x02\n        /* \"BookStore.sol\":2715:2716  i */\n      dup3\n        /* \"BookStore.sol\":2707:2717  bookIds[i] */\n      dup2\n      sload\n      dup2\n      lt\n      tag_133\n      jumpi\n      tag_134\n      tag_125\n      jump\t// in\n    tag_134:\n    tag_133:\n      swap1\n      0x00\n      mstore\n      keccak256(0x00, 0x20)\n      add\n        /* \"BookStore.sol\":2707:2747  bookIds[i] = bookIds[bookIds.length - 1] */\n      dup2\n      swap1\n      sstore\n      pop\n        /* \"BookStore.sol\":2810:2817  bookIds */\n      0x02\n        /* \"BookStore.sol\":2810:2823  bookIds.pop() */\n      dup1\n      sload\n      dup1\n      tag_136\n      jumpi\n      tag_137\n      tag_138\n      jump\t// in\n    tag_137:\n    tag_136:\n      0x01\n      swap1\n      sub\n      dup2\n      dup2\n      swap1\n      0x00\n      mstore\n      keccak256(0x00, 0x20)\n      add\n      0x00\n      swap1\n      sstore\n      swap1\n      sstore\n        /* \"BookStore.sol\":2842:2847  break */\n      jump(tag_121)\n        /* \"BookStore.sol\":2585:2863  if (bookIds[i] == _bookId) {... */\n    tag_127:\n        /* \"BookStore.sol\":2565:2568  i++ */\n      dup1\n      dup1\n      0x01\n      add\n      swap2\n      pop\n      pop\n        /* \"BookStore.sol\":2525:2874  for (uint256 i = 0; i < bookIds.length; i++) {... */\n      jump(tag_120)\n    tag_121:\n      pop\n        /* \"BookStore.sol\":2944:2949  books */\n      0x01\n        /* \"BookStore.sol\":2944:2958  books[_bookId] */\n      0x00\n        /* \"BookStore.sol\":2950:2957  _bookId */\n      dup3\n        /* \"BookStore.sol\":2944:2958  books[_bookId] */\n      dup2\n      mstore\n      0x20\n      add\n      swap1\n      dup2\n      mstore\n      0x20\n      add\n      0x00\n      keccak256\n      0x00\n        /* \"BookStore.sol\":2937:2958  delete books[_bookId] */\n      dup1\n      dup3\n      add\n      0x00\n      tag_140\n      swap2\n      swap1\n      tag_141\n      jump\t// in\n    tag_140:\n      0x01\n      dup3\n      add\n      0x00\n      tag_142\n      swap2\n      swap1\n      tag_141\n      jump\t// in\n    tag_142:\n      0x02\n      dup3\n      add\n      0x00\n      swap1\n      sstore\n      0x03\n      dup3\n      add\n      0x00\n      swap1\n      sstore\n      0x04\n      dup3\n      add\n      exp(0x0100, 0x00)\n      dup2\n      sload\n      swap1\n      0xff\n      mul\n      not\n      and\n      swap1\n      sstore\n      0x05\n      dup3\n      add\n      0x00\n      swap1\n      sstore\n      0x06\n      dup3\n      add\n      exp(0x0100, 0x00)\n      dup2\n      sload\n      swap1\n      0xff\n      mul\n      not\n      and\n      swap1\n      sstore\n      pop\n      pop\n        /* \"BookStore.sol\":2986:2993  _bookId */\n      dup1\n        /* \"BookStore.sol\":2974:2994  BookRemoved(_bookId) */\n      0x3c5ce13264433bcf97e5d53c97af4fc33800e8c9dd927f965b116d0018d7cddf\n      mload(0x40)\n      mload(0x40)\n      dup1\n      swap2\n      sub\n      swap1\n      log2\n        /* \"BookStore.sol\":2373:3002  function removeBook(uint256 _bookId) public onlyOwner {... */\n      pop\n      jump\t// out\n        /* \"BookStore.sol\":4591:4777  function getBookSales(uint256 _bookId) public view returns (uint256) {... */\n    tag_69:\n        /* \"BookStore.sol\":4651:4658  uint256 */\n      0x00\n        /* \"BookStore.sol\":4702:4703  0 */\n      dup1\n        /* \"BookStore.sol\":4679:4684  books */\n      0x01\n        /* \"BookStore.sol\":4679:4693  books[_bookId] */\n      0x00\n        /* \"BookStore.sol\":4685:4692  _bookId */\n      dup5\n        /* \"BookStore.sol\":4679:4693  books[_bookId] */\n      dup2\n      mstore\n      0x20\n      add\n      swap1\n      dup2\n      mstore\n      0x20\n      add\n      0x00\n      keccak256\n        /* \"BookStore.sol\":4679:4699  books[_bookId].price */\n      0x02\n      add\n      sload\n        /* \"BookStore.sol\":4679:4703  books[_bookId].price > 0 */\n      gt\n        /* \"BookStore.sol\":4671:4727  require(books[_bookId].price > 0, \"Book does not exist\") */\n      tag_144\n      jumpi\n      mload(0x40)\n      0x08c379a000000000000000000000000000000000000000000000000000000000\n      dup2\n      mstore\n      0x04\n      add\n      tag_145\n      swap1\n      tag_109\n      jump\t// in\n    tag_145:\n      mload(0x40)\n      dup1\n      swap2\n      sub\n      swap1\n      revert\n    tag_144:\n        /* \"BookStore.sol\":4745:4750  books */\n      0x01\n        /* \"BookStore.sol\":4745:4759  books[_bookId] */\n      0x00\n        /* \"BookStore.sol\":4751:4758  _bookId */\n      dup4\n        /* \"BookStore.sol\":4745:4759  books[_bookId] */\n      dup2\n      mstore\n      0x20\n      add\n      swap1\n      dup2\n      mstore\n      0x20\n      add\n      0x00\n      keccak256\n        /* \"BookStore.sol\":4745:4769  books[_bookId].totalSold */\n      0x05\n      add\n      sload\n        /* \"BookStore.sol\":4738:4769  return books[_bookId].totalSold */\n      swap1\n      pop\n        /* \"BookStore.sol\":4591:4777  function getBookSales(uint256 _bookId) public view returns (uint256) {... */\n      swap2\n      swap1\n      pop\n      jump\t// out\n        /* \"BookStore.sol\":3010:3389  function getBook(uint256 _bookId) public view returns (... */\n    tag_74:\n        /* \"BookStore.sol\":3075:3094  string memory title */\n      0x60\n        /* \"BookStore.sol\":3105:3125  string memory author */\n      dup1\n        /* \"BookStore.sol\":3136:3149  uint256 price */\n      0x00\n        /* \"BookStore.sol\":3160:3173  uint256 stock */\n      dup1\n        /* \"BookStore.sol\":3184:3200  bool isAvailable */\n      0x00\n        /* \"BookStore.sol\":3211:3228  uint256 totalSold */\n      dup1\n        /* \"BookStore.sol\":3247:3263  Book memory book */\n      0x00\n        /* \"BookStore.sol\":3266:3271  books */\n      0x01\n        /* \"BookStore.sol\":3266:3280  books[_bookId] */\n      0x00\n        /* \"BookStore.sol\":3272:3279  _bookId */\n      dup10\n        /* \"BookStore.sol\":3266:3280  books[_bookId] */\n      dup2\n      mstore\n      0x20\n      add\n      swap1\n      dup2\n      mstore\n      0x20\n      add\n      0x00\n      keccak256\n        /* \"BookStore.sol\":3247:3280  Book memory book = books[_bookId] */\n      mload(0x40)\n      dup1\n      0xe0\n      add\n      0x40\n      mstore\n      swap1\n      dup2\n      0x00\n      dup3\n      add\n      dup1\n      sload\n      tag_147\n      swap1\n      tag_90\n      jump\t// in\n    tag_147:\n      dup1\n      0x1f\n      add\n      0x20\n      dup1\n      swap2\n      div\n      mul\n      0x20\n      add\n      mload(0x40)\n      swap1\n      dup2\n      add\n      0x40\n      mstore\n      dup1\n      swap3\n      swap2\n      swap1\n      dup2\n      dup2\n      mstore\n      0x20\n      add\n      dup3\n      dup1\n      sload\n      tag_148\n      swap1\n      tag_90\n      jump\t// in\n    tag_148:\n      dup1\n      iszero\n      tag_149\n      jumpi\n      dup1\n      0x1f\n      lt\n      tag_150\n      jumpi\n      0x0100\n      dup1\n      dup4\n      sload\n      div\n      mul\n      dup4\n      mstore\n      swap2\n      0x20\n      add\n      swap2\n      jump(tag_149)\n    tag_150:\n      dup3\n      add\n      swap2\n      swap1\n      0x00\n      mstore\n      keccak256(0x00, 0x20)\n      swap1\n    tag_151:\n      dup2\n      sload\n      dup2\n      mstore\n      swap1\n      0x01\n      add\n      swap1\n      0x20\n      add\n      dup1\n      dup4\n      gt\n      tag_151\n      jumpi\n      dup3\n      swap1\n      sub\n      0x1f\n      and\n      dup3\n      add\n      swap2\n    tag_149:\n      pop\n      pop\n      pop\n      pop\n      pop\n      dup2\n      mstore\n      0x20\n      add\n      0x01\n      dup3\n      add\n      dup1\n      sload\n      tag_152\n      swap1\n      tag_90\n      jump\t// in\n    tag_152:\n      dup1\n      0x1f\n      add\n      0x20\n      dup1\n      swap2\n      div\n      mul\n      0x20\n      add\n      mload(0x40)\n      swap1\n      dup2\n      add\n      0x40\n      mstore\n      dup1\n      swap3\n      swap2\n      swap1\n      dup2\n      dup2\n      mstore\n      0x20\n      add\n      dup3\n      dup1\n      sload\n      tag_153\n      swap1\n      tag_90\n      jump\t// in\n    tag_153:\n      dup1\n      iszero\n      tag_154\n      jumpi\n      dup1\n      0x1f\n      lt\n      tag_155\n      jumpi\n      0x0100\n      dup1\n      dup4\n      sload\n      div\n      mul\n      dup4\n      mstore\n      swap2\n      0x20\n      add\n      swap2\n      jump(tag_154)\n    tag_155:\n      dup3\n      add\n      swap2\n      swap1\n      0x00\n      mstore\n      keccak256(0x00, 0x20)\n      swap1\n    tag_156:\n      dup2\n      sload\n      dup2\n      mstore\n      swap1\n      0x01\n      add\n      swap1\n      0x20\n      add\n      dup1\n      dup4\n      gt\n      tag_156\n      jumpi\n      dup3\n      swap1\n      sub\n      0x1f\n      and\n      dup3\n      add\n      swap2\n    tag_154:\n      pop\n      pop\n      pop\n      pop\n      pop\n      dup2\n      mstore\n      0x20\n      add\n      0x02\n      dup3\n      add\n      sload\n      dup2\n      mstore\n      0x20\n      add\n      0x03\n      dup3\n      add\n      sload\n      dup2\n      mstore\n      0x20\n      add\n      0x04\n      dup3\n      add\n      0x00\n      swap1\n      sload\n      swap1\n      0x0100\n      exp\n      swap1\n      div\n      0xff\n      and\n      iszero\n      iszero\n      iszero\n      iszero\n      dup2\n      mstore\n      0x20\n      add\n      0x05\n      dup3\n      add\n      sload\n      dup2\n      mstore\n      0x20\n      add\n      0x06\n      dup3\n      add\n      0x00\n      swap1\n      sload\n      swap1\n      0x0100\n      exp\n      swap1\n      div\n      0xff\n      and\n      iszero\n      iszero\n      iszero\n      iszero\n      dup2\n      mstore\n      pop\n      pop\n      swap1\n      pop\n        /* \"BookStore.sol\":3299:3303  book */\n      dup1\n        /* \"BookStore.sol\":3299:3309  book.title */\n      0x00\n      add\n      mload\n        /* \"BookStore.sol\":3311:3315  book */\n      dup2\n        /* \"BookStore.sol\":3311:3322  book.author */\n      0x20\n      add\n      mload\n        /* \"BookStore.sol\":3324:3328  book */\n      dup3\n        /* \"BookStore.sol\":3324:3334  book.price */\n      0x40\n      add\n      mload\n        /* \"BookStore.sol\":3336:3340  book */\n      dup4\n        /* \"BookStore.sol\":3336:3346  book.stock */\n      0x60\n      add\n      mload\n        /* \"BookStore.sol\":3348:3352  book */\n      dup5\n        /* \"BookStore.sol\":3348:3364  book.isAvailable */\n      0x80\n      add\n      mload\n        /* \"BookStore.sol\":3366:3370  book */\n      dup6\n        /* \"BookStore.sol\":3366:3380  book.totalSold */\n      0xa0\n      add\n      mload\n        /* \"BookStore.sol\":3291:3381  return (book.title, book.author, book.price, book.stock, book.isAvailable, book.totalSold) */\n      swap7\n      pop\n      swap7\n      pop\n      swap7\n      pop\n      swap7\n      pop\n      swap7\n      pop\n      swap7\n      pop\n      pop\n        /* \"BookStore.sol\":3010:3389  function getBook(uint256 _bookId) public view returns (... */\n      swap2\n      swap4\n      swap6\n      pop\n      swap2\n      swap4\n      swap6\n      jump\t// out\n        /* \"BookStore.sol\":3397:4373  function buyBook(uint256 _bookId, uint256 _quantity,uint256 _amount) public payable {... */\n    tag_80:\n        /* \"BookStore.sol\":3492:3509  Book storage book */\n      0x00\n        /* \"BookStore.sol\":3512:3517  books */\n      0x01\n        /* \"BookStore.sol\":3512:3526  books[_bookId] */\n      0x00\n        /* \"BookStore.sol\":3518:3525  _bookId */\n      dup6\n        /* \"BookStore.sol\":3512:3526  books[_bookId] */\n      dup2\n      mstore\n      0x20\n      add\n      swap1\n      dup2\n      mstore\n      0x20\n      add\n      0x00\n      keccak256\n        /* \"BookStore.sol\":3492:3526  Book storage book = books[_bookId] */\n      swap1\n      pop\n        /* \"BookStore.sol\":3546:3551  books */\n      0x01\n        /* \"BookStore.sol\":3546:3560  books[_bookId] */\n      0x00\n        /* \"BookStore.sol\":3552:3559  _bookId */\n      dup6\n        /* \"BookStore.sol\":3546:3560  books[_bookId] */\n      dup2\n      mstore\n      0x20\n      add\n      swap1\n      dup2\n      mstore\n      0x20\n      add\n      0x00\n      keccak256\n        /* \"BookStore.sol\":3546:3570  books[_bookId].isCreated */\n      0x06\n      add\n      0x00\n      swap1\n      sload\n      swap1\n      0x0100\n      exp\n      swap1\n      div\n      0xff\n      and\n        /* \"BookStore.sol\":3545:3570  !books[_bookId].isCreated */\n      iszero\n        /* \"BookStore.sol\":3537:3598  require(!books[_bookId].isCreated, \"the book does not exist\") */\n      tag_158\n      jumpi\n      mload(0x40)\n      0x08c379a000000000000000000000000000000000000000000000000000000000\n      dup2\n      mstore\n      0x04\n      add\n      tag_159\n      swap1\n      tag_160\n      jump\t// in\n    tag_159:\n      mload(0x40)\n      dup1\n      swap2\n      sub\n      swap1\n      revert\n    tag_158:\n        /* \"BookStore.sol\":3640:3641  0 */\n      0x00\n        /* \"BookStore.sol\":3617:3622  books */\n      0x01\n        /* \"BookStore.sol\":3617:3631  books[_bookId] */\n      0x00\n        /* \"BookStore.sol\":3623:3630  _bookId */\n      dup7\n        /* \"BookStore.sol\":3617:3631  books[_bookId] */\n      dup2\n      mstore\n      0x20\n      add\n      swap1\n      dup2\n      mstore\n      0x20\n      add\n      0x00\n      keccak256\n        /* \"BookStore.sol\":3617:3637  books[_bookId].price */\n      0x02\n      add\n      sload\n        /* \"BookStore.sol\":3617:3641  books[_bookId].price > 0 */\n      gt\n        /* \"BookStore.sol\":3609:3665  require(books[_bookId].price > 0, \"Book does not exist\") */\n      tag_161\n      jumpi\n      mload(0x40)\n      0x08c379a000000000000000000000000000000000000000000000000000000000\n      dup2\n      mstore\n      0x04\n      add\n      tag_162\n      swap1\n      tag_109\n      jump\t// in\n    tag_162:\n      mload(0x40)\n      dup1\n      swap2\n      sub\n      swap1\n      revert\n    tag_161:\n        /* \"BookStore.sol\":3684:3689  books */\n      0x01\n        /* \"BookStore.sol\":3684:3698  books[_bookId] */\n      0x00\n        /* \"BookStore.sol\":3690:3697  _bookId */\n      dup6\n        /* \"BookStore.sol\":3684:3698  books[_bookId] */\n      dup2\n      mstore\n      0x20\n      add\n      swap1\n      dup2\n      mstore\n      0x20\n      add\n      0x00\n      keccak256\n        /* \"BookStore.sol\":3684:3710  books[_bookId].isAvailable */\n      0x04\n      add\n      0x00\n      swap1\n      sload\n      swap1\n      0x0100\n      exp\n      swap1\n      div\n      0xff\n      and\n        /* \"BookStore.sol\":3676:3741  require(books[_bookId].isAvailable, \"This book is not available\") */\n      tag_163\n      jumpi\n      mload(0x40)\n      0x08c379a000000000000000000000000000000000000000000000000000000000\n      dup2\n      mstore\n      0x04\n      add\n      tag_164\n      swap1\n      tag_165\n      jump\t// in\n    tag_164:\n      mload(0x40)\n      dup1\n      swap2\n      sub\n      swap1\n      revert\n    tag_163:\n        /* \"BookStore.sol\":3784:3793  _quantity */\n      dup3\n        /* \"BookStore.sol\":3760:3765  books */\n      0x01\n        /* \"BookStore.sol\":3760:3774  books[_bookId] */\n      0x00\n        /* \"BookStore.sol\":3766:3773  _bookId */\n      dup7\n        /* \"BookStore.sol\":3760:3774  books[_bookId] */\n      dup2\n      mstore\n      0x20\n      add\n      swap1\n      dup2\n      mstore\n      0x20\n      add\n      0x00\n      keccak256\n        /* \"BookStore.sol\":3760:3780  books[_bookId].stock */\n      0x03\n      add\n      sload\n        /* \"BookStore.sol\":3760:3793  books[_bookId].stock >= _quantity */\n      lt\n      iszero\n        /* \"BookStore.sol\":3752:3824  require(books[_bookId].stock >= _quantity, \"Not enough stock available\") */\n      tag_166\n      jumpi\n      mload(0x40)\n      0x08c379a000000000000000000000000000000000000000000000000000000000\n      dup2\n      mstore\n      0x04\n      add\n      tag_167\n      swap1\n      tag_168\n      jump\t// in\n    tag_167:\n      mload(0x40)\n      dup1\n      swap2\n      sub\n      swap1\n      revert\n    tag_166:\n        /* \"BookStore.sol\":3855:3856  0 */\n      0x00\n        /* \"BookStore.sol\":3843:3852  _quantity */\n      dup4\n        /* \"BookStore.sol\":3843:3856  _quantity > 0 */\n      gt\n        /* \"BookStore.sol\":3835:3896  require(_quantity > 0, \"quantity must be greater thatn zero\") */\n      tag_169\n      jumpi\n      mload(0x40)\n      0x08c379a000000000000000000000000000000000000000000000000000000000\n      dup2\n      mstore\n      0x04\n      add\n      tag_170\n      swap1\n      tag_171\n      jump\t// in\n    tag_170:\n      mload(0x40)\n      dup1\n      swap2\n      sub\n      swap1\n      revert\n    tag_169:\n        /* \"BookStore.sol\":3939:3948  _quantity */\n      dup3\n        /* \"BookStore.sol\":3926:3930  book */\n      dup2\n        /* \"BookStore.sol\":3926:3936  book.price */\n      0x02\n      add\n      sload\n        /* \"BookStore.sol\":3926:3948  book.price * _quantity */\n      tag_172\n      swap2\n      swap1\n      tag_173\n      jump\t// in\n    tag_172:\n        /* \"BookStore.sol\":3915:3922  _amount */\n      dup3\n        /* \"BookStore.sol\":3915:3948  _amount == book.price * _quantity */\n      eq\n        /* \"BookStore.sol\":3907:3978  require(_amount == book.price * _quantity, \"Incorrect payment amount.\") */\n      tag_174\n      jumpi\n      mload(0x40)\n      0x08c379a000000000000000000000000000000000000000000000000000000000\n      dup2\n      mstore\n      0x04\n      add\n      tag_175\n      swap1\n      tag_176\n      jump\t// in\n    tag_175:\n      mload(0x40)\n      dup1\n      swap2\n      sub\n      swap1\n      revert\n    tag_174:\n        /* \"BookStore.sol\":4015:4024  _quantity */\n      dup3\n        /* \"BookStore.sol\":3991:3996  books */\n      0x01\n        /* \"BookStore.sol\":3991:4005  books[_bookId] */\n      0x00\n        /* \"BookStore.sol\":3997:4004  _bookId */\n      dup7\n        /* \"BookStore.sol\":3991:4005  books[_bookId] */\n      dup2\n      mstore\n      0x20\n      add\n      swap1\n      dup2\n      mstore\n      0x20\n      add\n      0x00\n      keccak256\n        /* \"BookStore.sol\":3991:4011  books[_bookId].stock */\n      0x03\n      add\n      0x00\n        /* \"BookStore.sol\":3991:4024  books[_bookId].stock -= _quantity */\n      dup3\n      dup3\n      sload\n      tag_177\n      swap2\n      swap1\n      tag_129\n      jump\t// in\n    tag_177:\n      swap3\n      pop\n      pop\n      dup2\n      swap1\n      sstore\n      pop\n        /* \"BookStore.sol\":4077:4078  0 */\n      0x00\n        /* \"BookStore.sol\":4064:4068  book */\n      dup2\n        /* \"BookStore.sol\":4064:4074  book.stock */\n      0x03\n      add\n      sload\n        /* \"BookStore.sol\":4064:4078  book.stock > 0 */\n      gt\n        /* \"BookStore.sol\":4035:4040  books */\n      0x01\n        /* \"BookStore.sol\":4035:4049  books[_bookId] */\n      0x00\n        /* \"BookStore.sol\":4041:4048  _bookId */\n      dup7\n        /* \"BookStore.sol\":4035:4049  books[_bookId] */\n      dup2\n      mstore\n      0x20\n      add\n      swap1\n      dup2\n      mstore\n      0x20\n      add\n      0x00\n      keccak256\n        /* \"BookStore.sol\":4035:4061  books[_bookId].isAvailable */\n      0x04\n      add\n      0x00\n        /* \"BookStore.sol\":4035:4078  books[_bookId].isAvailable = book.stock > 0 */\n      0x0100\n      exp\n      dup2\n      sload\n      dup2\n      0xff\n      mul\n      not\n      and\n      swap1\n      dup4\n      iszero\n      iszero\n      mul\n      or\n      swap1\n      sstore\n      pop\n        /* \"BookStore.sol\":4117:4126  _quantity */\n      dup3\n        /* \"BookStore.sol\":4089:4094  books */\n      0x01\n        /* \"BookStore.sol\":4089:4103  books[_bookId] */\n      0x00\n        /* \"BookStore.sol\":4095:4102  _bookId */\n      dup7\n        /* \"BookStore.sol\":4089:4103  books[_bookId] */\n      dup2\n      mstore\n      0x20\n      add\n      swap1\n      dup2\n      mstore\n      0x20\n      add\n      0x00\n      keccak256\n        /* \"BookStore.sol\":4089:4113  books[_bookId].totalSold */\n      0x05\n      add\n      0x00\n        /* \"BookStore.sol\":4089:4126  books[_bookId].totalSold += _quantity */\n      dup3\n      dup3\n      sload\n      tag_178\n      swap2\n      swap1\n      tag_179\n      jump\t// in\n    tag_178:\n      swap3\n      pop\n      pop\n      dup2\n      swap1\n      sstore\n      pop\n        /* \"BookStore.sol\":4155:4164  _quantity */\n      dup3\n        /* \"BookStore.sol\":4137:4151  totalBooksSold */\n      0x03\n      0x00\n        /* \"BookStore.sol\":4137:4164  totalBooksSold += _quantity */\n      dup3\n      dup3\n      sload\n      tag_180\n      swap2\n      swap1\n      tag_179\n      jump\t// in\n    tag_180:\n      swap3\n      pop\n      pop\n      dup2\n      swap1\n      sstore\n      pop\n        /* \"BookStore.sol\":4268:4273  owner */\n      0x00\n      dup1\n      sload\n      swap1\n      0x0100\n      exp\n      swap1\n      div\n      0xffffffffffffffffffffffffffffffffffffffff\n      and\n        /* \"BookStore.sol\":4260:4283  payable(owner).transfer */\n      0xffffffffffffffffffffffffffffffffffffffff\n      and\n        /* \"BookStore.sol\":4260:4294  payable(owner).transfer(msg.value) */\n      0x08fc\n        /* \"BookStore.sol\":4284:4293  msg.value */\n      callvalue\n        /* \"BookStore.sol\":4260:4294  payable(owner).transfer(msg.value) */\n      swap1\n      dup2\n      iszero\n      mul\n      swap1\n      mload(0x40)\n      0x00\n      mload(0x40)\n      dup1\n      dup4\n      sub\n      dup2\n      dup6\n      dup9\n      dup9\n      call\n      swap4\n      pop\n      pop\n      pop\n      pop\n      iszero\n      dup1\n      iszero\n      tag_182\n      jumpi\n      returndatasize\n      0x00\n      dup1\n      returndatacopy\n      revert(0x00, returndatasize)\n    tag_182:\n      pop\n        /* \"BookStore.sol\":4343:4353  msg.sender */\n      caller\n        /* \"BookStore.sol\":4320:4365  BookPurchased(_bookId, msg.sender, _quantity) */\n      0xffffffffffffffffffffffffffffffffffffffff\n      and\n        /* \"BookStore.sol\":4334:4341  _bookId */\n      dup5\n        /* \"BookStore.sol\":4320:4365  BookPurchased(_bookId, msg.sender, _quantity) */\n      0x439c08b00222293c6073f3ee383214541a4a21aca7dbb0a45963f86fa8e589f7\n        /* \"BookStore.sol\":4355:4364  _quantity */\n      dup6\n        /* \"BookStore.sol\":4320:4365  BookPurchased(_bookId, msg.sender, _quantity) */\n      mload(0x40)\n      tag_183\n      swap2\n      swap1\n      tag_23\n      jump\t// in\n    tag_183:\n      mload(0x40)\n      dup1\n      swap2\n      sub\n      swap1\n      log3\n        /* \"BookStore.sol\":3481:4373  {... */\n      pop\n        /* \"BookStore.sol\":3397:4373  function buyBook(uint256 _bookId, uint256 _quantity,uint256 _amount) public payable {... */\n      pop\n      pop\n      pop\n      jump\t// out\n        /* \"BookStore.sol\":1456:2365  function addBook(... */\n    tag_85:\n        /* \"BookStore.sol\":1385:1390  owner */\n      0x00\n      dup1\n      sload\n      swap1\n      0x0100\n      exp\n      swap1\n      div\n      0xffffffffffffffffffffffffffffffffffffffff\n      and\n        /* \"BookStore.sol\":1371:1390  msg.sender == owner */\n      0xffffffffffffffffffffffffffffffffffffffff\n      and\n        /* \"BookStore.sol\":1371:1381  msg.sender */\n      caller\n        /* \"BookStore.sol\":1371:1390  msg.sender == owner */\n      0xffffffffffffffffffffffffffffffffffffffff\n      and\n      eq\n        /* \"BookStore.sol\":1363:1429  require(msg.sender == owner, \"Only owner can perform this action\") */\n      tag_185\n      jumpi\n      mload(0x40)\n      0x08c379a000000000000000000000000000000000000000000000000000000000\n      dup2\n      mstore\n      0x04\n      add\n      tag_186\n      swap1\n      tag_105\n      jump\t// in\n    tag_186:\n      mload(0x40)\n      dup1\n      swap2\n      sub\n      swap1\n      revert\n    tag_185:\n        /* \"BookStore.sol\":1656:1661  books */\n      0x01\n        /* \"BookStore.sol\":1656:1670  books[_bookId] */\n      0x00\n        /* \"BookStore.sol\":1662:1669  _bookId */\n      dup7\n        /* \"BookStore.sol\":1656:1670  books[_bookId] */\n      dup2\n      mstore\n      0x20\n      add\n      swap1\n      dup2\n      mstore\n      0x20\n      add\n      0x00\n      keccak256\n        /* \"BookStore.sol\":1656:1680  books[_bookId].isCreated */\n      0x06\n      add\n      0x00\n      swap1\n      sload\n      swap1\n      0x0100\n      exp\n      swap1\n      div\n      0xff\n      and\n        /* \"BookStore.sol\":1655:1680  !books[_bookId].isCreated */\n      iszero\n        /* \"BookStore.sol\":1647:1708  require(!books[_bookId].isCreated, \"the book does not exist\") */\n      tag_188\n      jumpi\n      mload(0x40)\n      0x08c379a000000000000000000000000000000000000000000000000000000000\n      dup2\n      mstore\n      0x04\n      add\n      tag_189\n      swap1\n      tag_160\n      jump\t// in\n    tag_189:\n      mload(0x40)\n      dup1\n      swap2\n      sub\n      swap1\n      revert\n    tag_188:\n        /* \"BookStore.sol\":1751:1752  0 */\n      0x00\n        /* \"BookStore.sol\":1727:1732  books */\n      0x01\n        /* \"BookStore.sol\":1727:1741  books[_bookId] */\n      0x00\n        /* \"BookStore.sol\":1733:1740  _bookId */\n      dup8\n        /* \"BookStore.sol\":1727:1741  books[_bookId] */\n      dup2\n      mstore\n      0x20\n      add\n      swap1\n      dup2\n      mstore\n      0x20\n      add\n      0x00\n      keccak256\n        /* \"BookStore.sol\":1727:1747  books[_bookId].price */\n      0x02\n      add\n      sload\n        /* \"BookStore.sol\":1727:1752  books[_bookId].price == 0 */\n      eq\n        /* \"BookStore.sol\":1719:1790  require(books[_bookId].price == 0, \"Book already exists with this ID.\") */\n      tag_190\n      jumpi\n      mload(0x40)\n      0x08c379a000000000000000000000000000000000000000000000000000000000\n      dup2\n      mstore\n      0x04\n      add\n      tag_191\n      swap1\n      tag_192\n      jump\t// in\n    tag_191:\n      mload(0x40)\n      dup1\n      swap2\n      sub\n      swap1\n      revert\n    tag_190:\n        /* \"BookStore.sol\":1818:1819  0 */\n      0x00\n        /* \"BookStore.sol\":1809:1815  _price */\n      dup3\n        /* \"BookStore.sol\":1809:1819  _price > 0 */\n      gt\n        /* \"BookStore.sol\":1801:1852  require(_price > 0, \"Price must be greater than 0\") */\n      tag_193\n      jumpi\n      mload(0x40)\n      0x08c379a000000000000000000000000000000000000000000000000000000000\n      dup2\n      mstore\n      0x04\n      add\n      tag_194\n      swap1\n      tag_112\n      jump\t// in\n    tag_194:\n      mload(0x40)\n      dup1\n      swap2\n      sub\n      swap1\n      revert\n    tag_193:\n        /* \"BookStore.sol\":1894:1895  0 */\n      0x00\n        /* \"BookStore.sol\":1877:1883  _title */\n      dup5\n        /* \"BookStore.sol\":1871:1891  bytes(_title).length */\n      mload\n        /* \"BookStore.sol\":1871:1895  bytes(_title).length > 0 */\n      gt\n        /* \"BookStore.sol\":1863:1921  require(bytes(_title).length > 0, \"Title cannot be empty\") */\n      tag_195\n      jumpi\n      mload(0x40)\n      0x08c379a000000000000000000000000000000000000000000000000000000000\n      dup2\n      mstore\n      0x04\n      add\n      tag_196\n      swap1\n      tag_197\n      jump\t// in\n    tag_196:\n      mload(0x40)\n      dup1\n      swap2\n      sub\n      swap1\n      revert\n    tag_195:\n        /* \"BookStore.sol\":1964:1965  0 */\n      0x00\n        /* \"BookStore.sol\":1946:1953  _author */\n      dup4\n        /* \"BookStore.sol\":1940:1961  bytes(_author).length */\n      mload\n        /* \"BookStore.sol\":1940:1965  bytes(_author).length > 0 */\n      gt\n        /* \"BookStore.sol\":1932:1992  require(bytes(_author).length > 0, \"Author cannot be empty\") */\n      tag_198\n      jumpi\n      mload(0x40)\n      0x08c379a000000000000000000000000000000000000000000000000000000000\n      dup2\n      mstore\n      0x04\n      add\n      tag_199\n      swap1\n      tag_200\n      jump\t// in\n    tag_199:\n      mload(0x40)\n      dup1\n      swap2\n      sub\n      swap1\n      revert\n    tag_198:\n        /* \"BookStore.sol\":2022:2248  Book({... */\n      mload(0x40)\n      dup1\n      0xe0\n      add\n      0x40\n      mstore\n      dup1\n        /* \"BookStore.sol\":2049:2055  _title */\n      dup6\n        /* \"BookStore.sol\":2022:2248  Book({... */\n      dup2\n      mstore\n      0x20\n      add\n        /* \"BookStore.sol\":2078:2085  _author */\n      dup5\n        /* \"BookStore.sol\":2022:2248  Book({... */\n      dup2\n      mstore\n      0x20\n      add\n        /* \"BookStore.sol\":2107:2113  _price */\n      dup4\n        /* \"BookStore.sol\":2022:2248  Book({... */\n      dup2\n      mstore\n      0x20\n      add\n        /* \"BookStore.sol\":2135:2141  _stock */\n      dup3\n        /* \"BookStore.sol\":2022:2248  Book({... */\n      dup2\n      mstore\n      0x20\n      add\n        /* \"BookStore.sol\":2178:2179  0 */\n      0x00\n        /* \"BookStore.sol\":2169:2175  _stock */\n      dup4\n        /* \"BookStore.sol\":2169:2179  _stock > 0 */\n      gt\n        /* \"BookStore.sol\":2022:2248  Book({... */\n      iszero\n      iszero\n      dup2\n      mstore\n      0x20\n      add\n        /* \"BookStore.sol\":2205:2206  0 */\n      0x00\n        /* \"BookStore.sol\":2022:2248  Book({... */\n      dup2\n      mstore\n      0x20\n      add\n        /* \"BookStore.sol\":2232:2236  true */\n      0x01\n        /* \"BookStore.sol\":2022:2248  Book({... */\n      iszero\n      iszero\n      dup2\n      mstore\n      pop\n        /* \"BookStore.sol\":2005:2010  books */\n      0x01\n        /* \"BookStore.sol\":2005:2019  books[_bookId] */\n      0x00\n        /* \"BookStore.sol\":2011:2018  _bookId */\n      dup8\n        /* \"BookStore.sol\":2005:2019  books[_bookId] */\n      dup2\n      mstore\n      0x20\n      add\n      swap1\n      dup2\n      mstore\n      0x20\n      add\n      0x00\n      keccak256\n        /* \"BookStore.sol\":2005:2248  books[_bookId] = Book({... */\n      0x00\n      dup3\n      add\n      mload\n      dup2\n      0x00\n      add\n      swap1\n      dup2\n      tag_201\n      swap2\n      swap1\n      tag_202\n      jump\t// in\n    tag_201:\n      pop\n      0x20\n      dup3\n      add\n      mload\n      dup2\n      0x01\n      add\n      swap1\n      dup2\n      tag_203\n      swap2\n      swap1\n      tag_202\n      jump\t// in\n    tag_203:\n      pop\n      0x40\n      dup3\n      add\n      mload\n      dup2\n      0x02\n      add\n      sstore\n      0x60\n      dup3\n      add\n      mload\n      dup2\n      0x03\n      add\n      sstore\n      0x80\n      dup3\n      add\n      mload\n      dup2\n      0x04\n      add\n      exp(0x0100, 0x00)\n      dup2\n      sload\n      dup2\n      0xff\n      mul\n      not\n      and\n      swap1\n      dup4\n      iszero\n      iszero\n      mul\n      or\n      swap1\n      sstore\n      pop\n      0xa0\n      dup3\n      add\n      mload\n      dup2\n      0x05\n      add\n      sstore\n      0xc0\n      dup3\n      add\n      mload\n      dup2\n      0x06\n      add\n      exp(0x0100, 0x00)\n      dup2\n      sload\n      dup2\n      0xff\n      mul\n      not\n      and\n      swap1\n      dup4\n      iszero\n      iszero\n      mul\n      or\n      swap1\n      sstore\n      pop\n      swap1\n      pop\n      pop\n        /* \"BookStore.sol\":2269:2276  bookIds */\n      0x02\n        /* \"BookStore.sol\":2282:2289  _bookId */\n      dup6\n        /* \"BookStore.sol\":2269:2290  bookIds.push(_bookId) */\n      swap1\n      dup1\n      0x01\n      dup2\n      sload\n      add\n      dup1\n      dup3\n      sstore\n      dup1\n      swap2\n      pop\n      pop\n      0x01\n      swap1\n      sub\n      swap1\n      0x00\n      mstore\n      keccak256(0x00, 0x20)\n      add\n      0x00\n      swap1\n      swap2\n      swap1\n      swap2\n      swap1\n      swap2\n      pop\n      sstore\n        /* \"BookStore.sol\":2316:2323  _bookId */\n      dup5\n        /* \"BookStore.sol\":2306:2357  BookAdded(_bookId, _title, _author, _price, _stock) */\n      0x722c04650224f771c04ec5712c74689980b3ddb4eaa233cd8f9c72d7da7fbe29\n        /* \"BookStore.sol\":2325:2331  _title */\n      dup6\n        /* \"BookStore.sol\":2333:2340  _author */\n      dup6\n        /* \"BookStore.sol\":2342:2348  _price */\n      dup6\n        /* \"BookStore.sol\":2350:2356  _stock */\n      dup6\n        /* \"BookStore.sol\":2306:2357  BookAdded(_bookId, _title, _author, _price, _stock) */\n      mload(0x40)\n      tag_205\n      swap5\n      swap4\n      swap3\n      swap2\n      swap1\n      tag_206\n      jump\t// in\n    tag_205:\n      mload(0x40)\n      dup1\n      swap2\n      sub\n      swap1\n      log2\n        /* \"BookStore.sol\":1456:2365  function addBook(... */\n      pop\n      pop\n      pop\n      pop\n      pop\n      jump\t// out\n    tag_141:\n      pop\n      dup1\n      sload\n      tag_207\n      swap1\n      tag_90\n      jump\t// in\n    tag_207:\n      0x00\n      dup3\n      sstore\n      dup1\n      0x1f\n      lt\n      tag_209\n      jumpi\n      pop\n      jump(tag_208)\n    tag_209:\n      0x1f\n      add\n      0x20\n      swap1\n      div\n      swap1\n      0x00\n      mstore\n      keccak256(0x00, 0x20)\n      swap1\n      dup2\n      add\n      swap1\n      tag_210\n      swap2\n      swap1\n      tag_211\n      jump\t// in\n    tag_210:\n    tag_208:\n      pop\n      jump\t// out\n    tag_211:\n    tag_212:\n      dup1\n      dup3\n      gt\n      iszero\n      tag_213\n      jumpi\n      0x00\n      dup2\n      0x00\n      swap1\n      sstore\n      pop\n      0x01\n      add\n      jump(tag_212)\n    tag_213:\n      pop\n      swap1\n      jump\t// out\n        /* \"#utility.yul\":7:84   */\n    tag_214:\n        /* \"#utility.yul\":44:51   */\n      0x00\n        /* \"#utility.yul\":73:78   */\n      dup2\n        /* \"#utility.yul\":62:78   */\n      swap1\n      pop\n        /* \"#utility.yul\":7:84   */\n      swap2\n      swap1\n      pop\n      jump\t// out\n        /* \"#utility.yul\":90:208   */\n    tag_215:\n        /* \"#utility.yul\":177:201   */\n      tag_282\n        /* \"#utility.yul\":195:200   */\n      dup2\n        /* \"#utility.yul\":177:201   */\n      tag_214\n      jump\t// in\n    tag_282:\n        /* \"#utility.yul\":172:175   */\n      dup3\n        /* \"#utility.yul\":165:202   */\n      mstore\n        /* \"#utility.yul\":90:208   */\n      pop\n      pop\n      jump\t// out\n        /* \"#utility.yul\":214:436   */\n    tag_23:\n        /* \"#utility.yul\":307:311   */\n      0x00\n        /* \"#utility.yul\":345:347   */\n      0x20\n        /* \"#utility.yul\":334:343   */\n      dup3\n        /* \"#utility.yul\":330:348   */\n      add\n        /* \"#utility.yul\":322:348   */\n      swap1\n      pop\n        /* \"#utility.yul\":358:429   */\n      tag_284\n        /* \"#utility.yul\":426:427   */\n      0x00\n        /* \"#utility.yul\":415:424   */\n      dup4\n        /* \"#utility.yul\":411:428   */\n      add\n        /* \"#utility.yul\":402:408   */\n      dup5\n        /* \"#utility.yul\":358:429   */\n      tag_215\n      jump\t// in\n    tag_284:\n        /* \"#utility.yul\":214:436   */\n      swap3\n      swap2\n      pop\n      pop\n      jump\t// out\n        /* \"#utility.yul\":442:517   */\n    tag_216:\n        /* \"#utility.yul\":475:481   */\n      0x00\n        /* \"#utility.yul\":508:510   */\n      0x40\n        /* \"#utility.yul\":502:511   */\n      mload\n        /* \"#utility.yul\":492:511   */\n      swap1\n      pop\n        /* \"#utility.yul\":442:517   */\n      swap1\n      jump\t// out\n        /* \"#utility.yul\":523:640   */\n    tag_217:\n        /* \"#utility.yul\":632:633   */\n      0x00\n        /* \"#utility.yul\":629:630   */\n      dup1\n        /* \"#utility.yul\":622:634   */\n      revert\n        /* \"#utility.yul\":646:763   */\n    tag_218:\n        /* \"#utility.yul\":755:756   */\n      0x00\n        /* \"#utility.yul\":752:753   */\n      dup1\n        /* \"#utility.yul\":745:757   */\n      revert\n        /* \"#utility.yul\":769:891   */\n    tag_219:\n        /* \"#utility.yul\":842:866   */\n      tag_289\n        /* \"#utility.yul\":860:865   */\n      dup2\n        /* \"#utility.yul\":842:866   */\n      tag_214\n      jump\t// in\n    tag_289:\n        /* \"#utility.yul\":835:840   */\n      dup2\n        /* \"#utility.yul\":832:867   */\n      eq\n        /* \"#utility.yul\":822:885   */\n      tag_290\n      jumpi\n        /* \"#utility.yul\":881:882   */\n      0x00\n        /* \"#utility.yul\":878:879   */\n      dup1\n        /* \"#utility.yul\":871:883   */\n      revert\n        /* \"#utility.yul\":822:885   */\n    tag_290:\n        /* \"#utility.yul\":769:891   */\n      pop\n      jump\t// out\n        /* \"#utility.yul\":897:1036   */\n    tag_220:\n        /* \"#utility.yul\":943:948   */\n      0x00\n        /* \"#utility.yul\":981:987   */\n      dup2\n        /* \"#utility.yul\":968:988   */\n      calldataload\n        /* \"#utility.yul\":959:988   */\n      swap1\n      pop\n        /* \"#utility.yul\":997:1030   */\n      tag_292\n        /* \"#utility.yul\":1024:1029   */\n      dup2\n        /* \"#utility.yul\":997:1030   */\n      tag_219\n      jump\t// in\n    tag_292:\n        /* \"#utility.yul\":897:1036   */\n      swap3\n      swap2\n      pop\n      pop\n      jump\t// out\n        /* \"#utility.yul\":1042:1371   */\n    tag_27:\n        /* \"#utility.yul\":1101:1107   */\n      0x00\n        /* \"#utility.yul\":1150:1152   */\n      0x20\n        /* \"#utility.yul\":1138:1147   */\n      dup3\n        /* \"#utility.yul\":1129:1136   */\n      dup5\n        /* \"#utility.yul\":1125:1148   */\n      sub\n        /* \"#utility.yul\":1121:1153   */\n      slt\n        /* \"#utility.yul\":1118:1237   */\n      iszero\n      tag_294\n      jumpi\n        /* \"#utility.yul\":1156:1235   */\n      tag_295\n      tag_217\n      jump\t// in\n    tag_295:\n        /* \"#utility.yul\":1118:1237   */\n    tag_294:\n        /* \"#utility.yul\":1276:1277   */\n      0x00\n        /* \"#utility.yul\":1301:1354   */\n      tag_296\n        /* \"#utility.yul\":1346:1353   */\n      dup5\n        /* \"#utility.yul\":1337:1343   */\n      dup3\n        /* \"#utility.yul\":1326:1335   */\n      dup6\n        /* \"#utility.yul\":1322:1344   */\n      add\n        /* \"#utility.yul\":1301:1354   */\n      tag_220\n      jump\t// in\n    tag_296:\n        /* \"#utility.yul\":1291:1354   */\n      swap2\n      pop\n        /* \"#utility.yul\":1247:1364   */\n      pop\n        /* \"#utility.yul\":1042:1371   */\n      swap3\n      swap2\n      pop\n      pop\n      jump\t// out\n        /* \"#utility.yul\":1377:1476   */\n    tag_221:\n        /* \"#utility.yul\":1429:1435   */\n      0x00\n        /* \"#utility.yul\":1463:1468   */\n      dup2\n        /* \"#utility.yul\":1457:1469   */\n      mload\n        /* \"#utility.yul\":1447:1469   */\n      swap1\n      pop\n        /* \"#utility.yul\":1377:1476   */\n      swap2\n      swap1\n      pop\n      jump\t// out\n        /* \"#utility.yul\":1482:1651   */\n    tag_222:\n        /* \"#utility.yul\":1566:1577   */\n      0x00\n        /* \"#utility.yul\":1600:1606   */\n      dup3\n        /* \"#utility.yul\":1595:1598   */\n      dup3\n        /* \"#utility.yul\":1588:1607   */\n      mstore\n        /* \"#utility.yul\":1640:1644   */\n      0x20\n        /* \"#utility.yul\":1635:1638   */\n      dup3\n        /* \"#utility.yul\":1631:1645   */\n      add\n        /* \"#utility.yul\":1616:1645   */\n      swap1\n      pop\n        /* \"#utility.yul\":1482:1651   */\n      swap3\n      swap2\n      pop\n      pop\n      jump\t// out\n        /* \"#utility.yul\":1657:1796   */\n    tag_223:\n        /* \"#utility.yul\":1746:1752   */\n      dup3\n        /* \"#utility.yul\":1741:1744   */\n      dup2\n        /* \"#utility.yul\":1736:1739   */\n      dup4\n        /* \"#utility.yul\":1730:1753   */\n      mcopy\n        /* \"#utility.yul\":1787:1788   */\n      0x00\n        /* \"#utility.yul\":1778:1784   */\n      dup4\n        /* \"#utility.yul\":1773:1776   */\n      dup4\n        /* \"#utility.yul\":1769:1785   */\n      add\n        /* \"#utility.yul\":1762:1789   */\n      mstore\n        /* \"#utility.yul\":1657:1796   */\n      pop\n      pop\n      pop\n      jump\t// out\n        /* \"#utility.yul\":1802:1904   */\n    tag_224:\n        /* \"#utility.yul\":1843:1849   */\n      0x00\n        /* \"#utility.yul\":1894:1896   */\n      0x1f\n        /* \"#utility.yul\":1890:1897   */\n      not\n        /* \"#utility.yul\":1885:1887   */\n      0x1f\n        /* \"#utility.yul\":1878:1883   */\n      dup4\n        /* \"#utility.yul\":1874:1888   */\n      add\n        /* \"#utility.yul\":1870:1898   */\n      and\n        /* \"#utility.yul\":1860:1898   */\n      swap1\n      pop\n        /* \"#utility.yul\":1802:1904   */\n      swap2\n      swap1\n      pop\n      jump\t// out\n        /* \"#utility.yul\":1910:2287   */\n    tag_225:\n        /* \"#utility.yul\":1998:2001   */\n      0x00\n        /* \"#utility.yul\":2026:2065   */\n      tag_302\n        /* \"#utility.yul\":2059:2064   */\n      dup3\n        /* \"#utility.yul\":2026:2065   */\n      tag_221\n      jump\t// in\n    tag_302:\n        /* \"#utility.yul\":2081:2152   */\n      tag_303\n        /* \"#utility.yul\":2145:2151   */\n      dup2\n        /* \"#utility.yul\":2140:2143   */\n      dup6\n        /* \"#utility.yul\":2081:2152   */\n      tag_222\n      jump\t// in\n    tag_303:\n        /* \"#utility.yul\":2074:2152   */\n      swap4\n      pop\n        /* \"#utility.yul\":2161:2226   */\n      tag_304\n        /* \"#utility.yul\":2219:2225   */\n      dup2\n        /* \"#utility.yul\":2214:2217   */\n      dup6\n        /* \"#utility.yul\":2207:2211   */\n      0x20\n        /* \"#utility.yul\":2200:2205   */\n      dup7\n        /* \"#utility.yul\":2196:2212   */\n      add\n        /* \"#utility.yul\":2161:2226   */\n      tag_223\n      jump\t// in\n    tag_304:\n        /* \"#utility.yul\":2251:2280   */\n      tag_305\n        /* \"#utility.yul\":2273:2279   */\n      dup2\n        /* \"#utility.yul\":2251:2280   */\n      tag_224\n      jump\t// in\n    tag_305:\n        /* \"#utility.yul\":2246:2249   */\n      dup5\n        /* \"#utility.yul\":2242:2281   */\n      add\n        /* \"#utility.yul\":2235:2281   */\n      swap2\n      pop\n        /* \"#utility.yul\":2002:2287   */\n      pop\n        /* \"#utility.yul\":1910:2287   */\n      swap3\n      swap2\n      pop\n      pop\n      jump\t// out\n        /* \"#utility.yul\":2293:2383   */\n    tag_226:\n        /* \"#utility.yul\":2327:2334   */\n      0x00\n        /* \"#utility.yul\":2370:2375   */\n      dup2\n        /* \"#utility.yul\":2363:2376   */\n      iszero\n        /* \"#utility.yul\":2356:2377   */\n      iszero\n        /* \"#utility.yul\":2345:2377   */\n      swap1\n      pop\n        /* \"#utility.yul\":2293:2383   */\n      swap2\n      swap1\n      pop\n      jump\t// out\n        /* \"#utility.yul\":2389:2498   */\n    tag_227:\n        /* \"#utility.yul\":2470:2491   */\n      tag_308\n        /* \"#utility.yul\":2485:2490   */\n      dup2\n        /* \"#utility.yul\":2470:2491   */\n      tag_226\n      jump\t// in\n    tag_308:\n        /* \"#utility.yul\":2465:2468   */\n      dup3\n        /* \"#utility.yul\":2458:2492   */\n      mstore\n        /* \"#utility.yul\":2389:2498   */\n      pop\n      pop\n      jump\t// out\n        /* \"#utility.yul\":2504:3548   */\n    tag_39:\n        /* \"#utility.yul\":2793:2797   */\n      0x00\n        /* \"#utility.yul\":2831:2834   */\n      0xe0\n        /* \"#utility.yul\":2820:2829   */\n      dup3\n        /* \"#utility.yul\":2816:2835   */\n      add\n        /* \"#utility.yul\":2808:2835   */\n      swap1\n      pop\n        /* \"#utility.yul\":2881:2890   */\n      dup2\n        /* \"#utility.yul\":2875:2879   */\n      dup2\n        /* \"#utility.yul\":2871:2891   */\n      sub\n        /* \"#utility.yul\":2867:2868   */\n      0x00\n        /* \"#utility.yul\":2856:2865   */\n      dup4\n        /* \"#utility.yul\":2852:2869   */\n      add\n        /* \"#utility.yul\":2845:2892   */\n      mstore\n        /* \"#utility.yul\":2909:2987   */\n      tag_310\n        /* \"#utility.yul\":2982:2986   */\n      dup2\n        /* \"#utility.yul\":2973:2979   */\n      dup11\n        /* \"#utility.yul\":2909:2987   */\n      tag_225\n      jump\t// in\n    tag_310:\n        /* \"#utility.yul\":2901:2987   */\n      swap1\n      pop\n        /* \"#utility.yul\":3034:3043   */\n      dup2\n        /* \"#utility.yul\":3028:3032   */\n      dup2\n        /* \"#utility.yul\":3024:3044   */\n      sub\n        /* \"#utility.yul\":3019:3021   */\n      0x20\n        /* \"#utility.yul\":3008:3017   */\n      dup4\n        /* \"#utility.yul\":3004:3022   */\n      add\n        /* \"#utility.yul\":2997:3045   */\n      mstore\n        /* \"#utility.yul\":3062:3140   */\n      tag_311\n        /* \"#utility.yul\":3135:3139   */\n      dup2\n        /* \"#utility.yul\":3126:3132   */\n      dup10\n        /* \"#utility.yul\":3062:3140   */\n      tag_225\n      jump\t// in\n    tag_311:\n        /* \"#utility.yul\":3054:3140   */\n      swap1\n      pop\n        /* \"#utility.yul\":3150:3222   */\n      tag_312\n        /* \"#utility.yul\":3218:3220   */\n      0x40\n        /* \"#utility.yul\":3207:3216   */\n      dup4\n        /* \"#utility.yul\":3203:3221   */\n      add\n        /* \"#utility.yul\":3194:3200   */\n      dup9\n        /* \"#utility.yul\":3150:3222   */\n      tag_215\n      jump\t// in\n    tag_312:\n        /* \"#utility.yul\":3232:3304   */\n      tag_313\n        /* \"#utility.yul\":3300:3302   */\n      0x60\n        /* \"#utility.yul\":3289:3298   */\n      dup4\n        /* \"#utility.yul\":3285:3303   */\n      add\n        /* \"#utility.yul\":3276:3282   */\n      dup8\n        /* \"#utility.yul\":3232:3304   */\n      tag_215\n      jump\t// in\n    tag_313:\n        /* \"#utility.yul\":3314:3381   */\n      tag_314\n        /* \"#utility.yul\":3376:3379   */\n      0x80\n        /* \"#utility.yul\":3365:3374   */\n      dup4\n        /* \"#utility.yul\":3361:3380   */\n      add\n        /* \"#utility.yul\":3352:3358   */\n      dup7\n        /* \"#utility.yul\":3314:3381   */\n      tag_227\n      jump\t// in\n    tag_314:\n        /* \"#utility.yul\":3391:3464   */\n      tag_315\n        /* \"#utility.yul\":3459:3462   */\n      0xa0\n        /* \"#utility.yul\":3448:3457   */\n      dup4\n        /* \"#utility.yul\":3444:3463   */\n      add\n        /* \"#utility.yul\":3435:3441   */\n      dup6\n        /* \"#utility.yul\":3391:3464   */\n      tag_215\n      jump\t// in\n    tag_315:\n        /* \"#utility.yul\":3474:3541   */\n      tag_316\n        /* \"#utility.yul\":3536:3539   */\n      0xc0\n        /* \"#utility.yul\":3525:3534   */\n      dup4\n        /* \"#utility.yul\":3521:3540   */\n      add\n        /* \"#utility.yul\":3512:3518   */\n      dup5\n        /* \"#utility.yul\":3474:3541   */\n      tag_227\n      jump\t// in\n    tag_316:\n        /* \"#utility.yul\":2504:3548   */\n      swap9\n      swap8\n      pop\n      pop\n      pop\n      pop\n      pop\n      pop\n      pop\n      pop\n      jump\t// out\n        /* \"#utility.yul\":3554:3680   */\n    tag_228:\n        /* \"#utility.yul\":3591:3598   */\n      0x00\n        /* \"#utility.yul\":3631:3673   */\n      0xffffffffffffffffffffffffffffffffffffffff\n        /* \"#utility.yul\":3624:3629   */\n      dup3\n        /* \"#utility.yul\":3620:3674   */\n      and\n        /* \"#utility.yul\":3609:3674   */\n      swap1\n      pop\n        /* \"#utility.yul\":3554:3680   */\n      swap2\n      swap1\n      pop\n      jump\t// out\n        /* \"#utility.yul\":3686:3790   */\n    tag_229:\n        /* \"#utility.yul\":3731:3738   */\n      0x00\n        /* \"#utility.yul\":3760:3784   */\n      tag_319\n        /* \"#utility.yul\":3778:3783   */\n      dup3\n        /* \"#utility.yul\":3760:3784   */\n      tag_228\n      jump\t// in\n    tag_319:\n        /* \"#utility.yul\":3749:3784   */\n      swap1\n      pop\n        /* \"#utility.yul\":3686:3790   */\n      swap2\n      swap1\n      pop\n      jump\t// out\n        /* \"#utility.yul\":3796:3938   */\n    tag_230:\n        /* \"#utility.yul\":3899:3931   */\n      tag_321\n        /* \"#utility.yul\":3925:3930   */\n      dup2\n        /* \"#utility.yul\":3899:3931   */\n      tag_229\n      jump\t// in\n    tag_321:\n        /* \"#utility.yul\":3894:3897   */\n      dup3\n        /* \"#utility.yul\":3887:3932   */\n      mstore\n        /* \"#utility.yul\":3796:3938   */\n      pop\n      pop\n      jump\t// out\n        /* \"#utility.yul\":3944:4198   */\n    tag_52:\n        /* \"#utility.yul\":4053:4057   */\n      0x00\n        /* \"#utility.yul\":4091:4093   */\n      0x20\n        /* \"#utility.yul\":4080:4089   */\n      dup3\n        /* \"#utility.yul\":4076:4094   */\n      add\n        /* \"#utility.yul\":4068:4094   */\n      swap1\n      pop\n        /* \"#utility.yul\":4104:4191   */\n      tag_323\n        /* \"#utility.yul\":4188:4189   */\n      0x00\n        /* \"#utility.yul\":4177:4186   */\n      dup4\n        /* \"#utility.yul\":4173:4190   */\n      add\n        /* \"#utility.yul\":4164:4170   */\n      dup5\n        /* \"#utility.yul\":4104:4191   */\n      tag_230\n      jump\t// in\n    tag_323:\n        /* \"#utility.yul\":3944:4198   */\n      swap3\n      swap2\n      pop\n      pop\n      jump\t// out\n        /* \"#utility.yul\":4204:4678   */\n    tag_56:\n        /* \"#utility.yul\":4272:4278   */\n      0x00\n        /* \"#utility.yul\":4280:4286   */\n      dup1\n        /* \"#utility.yul\":4329:4331   */\n      0x40\n        /* \"#utility.yul\":4317:4326   */\n      dup4\n        /* \"#utility.yul\":4308:4315   */\n      dup6\n        /* \"#utility.yul\":4304:4327   */\n      sub\n        /* \"#utility.yul\":4300:4332   */\n      slt\n        /* \"#utility.yul\":4297:4416   */\n      iszero\n      tag_325\n      jumpi\n        /* \"#utility.yul\":4335:4414   */\n      tag_326\n      tag_217\n      jump\t// in\n    tag_326:\n        /* \"#utility.yul\":4297:4416   */\n    tag_325:\n        /* \"#utility.yul\":4455:4456   */\n      0x00\n        /* \"#utility.yul\":4480:4533   */\n      tag_327\n        /* \"#utility.yul\":4525:4532   */\n      dup6\n        /* \"#utility.yul\":4516:4522   */\n      dup3\n        /* \"#utility.yul\":4505:4514   */\n      dup7\n        /* \"#utility.yul\":4501:4523   */\n      add\n        /* \"#utility.yul\":4480:4533   */\n      tag_220\n      jump\t// in\n    tag_327:\n        /* \"#utility.yul\":4470:4533   */\n      swap3\n      pop\n        /* \"#utility.yul\":4426:4543   */\n      pop\n        /* \"#utility.yul\":4582:4584   */\n      0x20\n        /* \"#utility.yul\":4608:4661   */\n      tag_328\n        /* \"#utility.yul\":4653:4660   */\n      dup6\n        /* \"#utility.yul\":4644:4650   */\n      dup3\n        /* \"#utility.yul\":4633:4642   */\n      dup7\n        /* \"#utility.yul\":4629:4651   */\n      add\n        /* \"#utility.yul\":4608:4661   */\n      tag_220\n      jump\t// in\n    tag_328:\n        /* \"#utility.yul\":4598:4661   */\n      swap2\n      pop\n        /* \"#utility.yul\":4553:4671   */\n      pop\n        /* \"#utility.yul\":4204:4678   */\n      swap3\n      pop\n      swap3\n      swap1\n      pop\n      jump\t// out\n        /* \"#utility.yul\":4684:5629   */\n    tag_76:\n        /* \"#utility.yul\":4951:4955   */\n      0x00\n        /* \"#utility.yul\":4989:4992   */\n      0xc0\n        /* \"#utility.yul\":4978:4987   */\n      dup3\n        /* \"#utility.yul\":4974:4993   */\n      add\n        /* \"#utility.yul\":4966:4993   */\n      swap1\n      pop\n        /* \"#utility.yul\":5039:5048   */\n      dup2\n        /* \"#utility.yul\":5033:5037   */\n      dup2\n        /* \"#utility.yul\":5029:5049   */\n      sub\n        /* \"#utility.yul\":5025:5026   */\n      0x00\n        /* \"#utility.yul\":5014:5023   */\n      dup4\n        /* \"#utility.yul\":5010:5027   */\n      add\n        /* \"#utility.yul\":5003:5050   */\n      mstore\n        /* \"#utility.yul\":5067:5145   */\n      tag_330\n        /* \"#utility.yul\":5140:5144   */\n      dup2\n        /* \"#utility.yul\":5131:5137   */\n      dup10\n        /* \"#utility.yul\":5067:5145   */\n      tag_225\n      jump\t// in\n    tag_330:\n        /* \"#utility.yul\":5059:5145   */\n      swap1\n      pop\n        /* \"#utility.yul\":5192:5201   */\n      dup2\n        /* \"#utility.yul\":5186:5190   */\n      dup2\n        /* \"#utility.yul\":5182:5202   */\n      sub\n        /* \"#utility.yul\":5177:5179   */\n      0x20\n        /* \"#utility.yul\":5166:5175   */\n      dup4\n        /* \"#utility.yul\":5162:5180   */\n      add\n        /* \"#utility.yul\":5155:5203   */\n      mstore\n        /* \"#utility.yul\":5220:5298   */\n      tag_331\n        /* \"#utility.yul\":5293:5297   */\n      dup2\n        /* \"#utility.yul\":5284:5290   */\n      dup9\n        /* \"#utility.yul\":5220:5298   */\n      tag_225\n      jump\t// in\n    tag_331:\n        /* \"#utility.yul\":5212:5298   */\n      swap1\n      pop\n        /* \"#utility.yul\":5308:5380   */\n      tag_332\n        /* \"#utility.yul\":5376:5378   */\n      0x40\n        /* \"#utility.yul\":5365:5374   */\n      dup4\n        /* \"#utility.yul\":5361:5379   */\n      add\n        /* \"#utility.yul\":5352:5358   */\n      dup8\n        /* \"#utility.yul\":5308:5380   */\n      tag_215\n      jump\t// in\n    tag_332:\n        /* \"#utility.yul\":5390:5462   */\n      tag_333\n        /* \"#utility.yul\":5458:5460   */\n      0x60\n        /* \"#utility.yul\":5447:5456   */\n      dup4\n        /* \"#utility.yul\":5443:5461   */\n      add\n        /* \"#utility.yul\":5434:5440   */\n      dup7\n        /* \"#utility.yul\":5390:5462   */\n      tag_215\n      jump\t// in\n    tag_333:\n        /* \"#utility.yul\":5472:5539   */\n      tag_334\n        /* \"#utility.yul\":5534:5537   */\n      0x80\n        /* \"#utility.yul\":5523:5532   */\n      dup4\n        /* \"#utility.yul\":5519:5538   */\n      add\n        /* \"#utility.yul\":5510:5516   */\n      dup6\n        /* \"#utility.yul\":5472:5539   */\n      tag_227\n      jump\t// in\n    tag_334:\n        /* \"#utility.yul\":5549:5622   */\n      tag_335\n        /* \"#utility.yul\":5617:5620   */\n      0xa0\n        /* \"#utility.yul\":5606:5615   */\n      dup4\n        /* \"#utility.yul\":5602:5621   */\n      add\n        /* \"#utility.yul\":5593:5599   */\n      dup5\n        /* \"#utility.yul\":5549:5622   */\n      tag_215\n      jump\t// in\n    tag_335:\n        /* \"#utility.yul\":4684:5629   */\n      swap8\n      swap7\n      pop\n      pop\n      pop\n      pop\n      pop\n      pop\n      pop\n      jump\t// out\n        /* \"#utility.yul\":5635:6254   */\n    tag_79:\n        /* \"#utility.yul\":5712:5718   */\n      0x00\n        /* \"#utility.yul\":5720:5726   */\n      dup1\n        /* \"#utility.yul\":5728:5734   */\n      0x00\n        /* \"#utility.yul\":5777:5779   */\n      0x60\n        /* \"#utility.yul\":5765:5774   */\n      dup5\n        /* \"#utility.yul\":5756:5763   */\n      dup7\n        /* \"#utility.yul\":5752:5775   */\n      sub\n        /* \"#utility.yul\":5748:5780   */\n      slt\n        /* \"#utility.yul\":5745:5864   */\n      iszero\n      tag_337\n      jumpi\n        /* \"#utility.yul\":5783:5862   */\n      tag_338\n      tag_217\n      jump\t// in\n    tag_338:\n        /* \"#utility.yul\":5745:5864   */\n    tag_337:\n        /* \"#utility.yul\":5903:5904   */\n      0x00\n        /* \"#utility.yul\":5928:5981   */\n      tag_339\n        /* \"#utility.yul\":5973:5980   */\n      dup7\n        /* \"#utility.yul\":5964:5970   */\n      dup3\n        /* \"#utility.yul\":5953:5962   */\n      dup8\n        /* \"#utility.yul\":5949:5971   */\n      add\n        /* \"#utility.yul\":5928:5981   */\n      tag_220\n      jump\t// in\n    tag_339:\n        /* \"#utility.yul\":5918:5981   */\n      swap4\n      pop\n        /* \"#utility.yul\":5874:5991   */\n      pop\n        /* \"#utility.yul\":6030:6032   */\n      0x20\n        /* \"#utility.yul\":6056:6109   */\n      tag_340\n        /* \"#utility.yul\":6101:6108   */\n      dup7\n        /* \"#utility.yul\":6092:6098   */\n      dup3\n        /* \"#utility.yul\":6081:6090   */\n      dup8\n        /* \"#utility.yul\":6077:6099   */\n      add\n        /* \"#utility.yul\":6056:6109   */\n      tag_220\n      jump\t// in\n    tag_340:\n        /* \"#utility.yul\":6046:6109   */\n      swap3\n      pop\n        /* \"#utility.yul\":6001:6119   */\n      pop\n        /* \"#utility.yul\":6158:6160   */\n      0x40\n        /* \"#utility.yul\":6184:6237   */\n      tag_341\n        /* \"#utility.yul\":6229:6236   */\n      dup7\n        /* \"#utility.yul\":6220:6226   */\n      dup3\n        /* \"#utility.yul\":6209:6218   */\n      dup8\n        /* \"#utility.yul\":6205:6227   */\n      add\n        /* \"#utility.yul\":6184:6237   */\n      tag_220\n      jump\t// in\n    tag_341:\n        /* \"#utility.yul\":6174:6237   */\n      swap2\n      pop\n        /* \"#utility.yul\":6129:6247   */\n      pop\n        /* \"#utility.yul\":5635:6254   */\n      swap3\n      pop\n      swap3\n      pop\n      swap3\n      jump\t// out\n        /* \"#utility.yul\":6260:6377   */\n    tag_231:\n        /* \"#utility.yul\":6369:6370   */\n      0x00\n        /* \"#utility.yul\":6366:6367   */\n      dup1\n        /* \"#utility.yul\":6359:6371   */\n      revert\n        /* \"#utility.yul\":6383:6500   */\n    tag_232:\n        /* \"#utility.yul\":6492:6493   */\n      0x00\n        /* \"#utility.yul\":6489:6490   */\n      dup1\n        /* \"#utility.yul\":6482:6494   */\n      revert\n        /* \"#utility.yul\":6506:6686   */\n    tag_233:\n        /* \"#utility.yul\":6554:6631   */\n      0x4e487b7100000000000000000000000000000000000000000000000000000000\n        /* \"#utility.yul\":6551:6552   */\n      0x00\n        /* \"#utility.yul\":6544:6632   */\n      mstore\n        /* \"#utility.yul\":6651:6655   */\n      0x41\n        /* \"#utility.yul\":6648:6649   */\n      0x04\n        /* \"#utility.yul\":6641:6656   */\n      mstore\n        /* \"#utility.yul\":6675:6679   */\n      0x24\n        /* \"#utility.yul\":6672:6673   */\n      0x00\n        /* \"#utility.yul\":6665:6680   */\n      revert\n        /* \"#utility.yul\":6692:6973   */\n    tag_234:\n        /* \"#utility.yul\":6775:6802   */\n      tag_346\n        /* \"#utility.yul\":6797:6801   */\n      dup3\n        /* \"#utility.yul\":6775:6802   */\n      tag_224\n      jump\t// in\n    tag_346:\n        /* \"#utility.yul\":6767:6773   */\n      dup2\n        /* \"#utility.yul\":6763:6803   */\n      add\n        /* \"#utility.yul\":6905:6911   */\n      dup2\n        /* \"#utility.yul\":6893:6903   */\n      dup2\n        /* \"#utility.yul\":6890:6912   */\n      lt\n        /* \"#utility.yul\":6869:6887   */\n      0xffffffffffffffff\n        /* \"#utility.yul\":6857:6867   */\n      dup3\n        /* \"#utility.yul\":6854:6888   */\n      gt\n        /* \"#utility.yul\":6851:6913   */\n      or\n        /* \"#utility.yul\":6848:6936   */\n      iszero\n      tag_347\n      jumpi\n        /* \"#utility.yul\":6916:6934   */\n      tag_348\n      tag_233\n      jump\t// in\n    tag_348:\n        /* \"#utility.yul\":6848:6936   */\n    tag_347:\n        /* \"#utility.yul\":6956:6966   */\n      dup1\n        /* \"#utility.yul\":6952:6954   */\n      0x40\n        /* \"#utility.yul\":6945:6967   */\n      mstore\n        /* \"#utility.yul\":6735:6973   */\n      pop\n        /* \"#utility.yul\":6692:6973   */\n      pop\n      pop\n      jump\t// out\n        /* \"#utility.yul\":6979:7108   */\n    tag_235:\n        /* \"#utility.yul\":7013:7019   */\n      0x00\n        /* \"#utility.yul\":7040:7060   */\n      tag_350\n      tag_216\n      jump\t// in\n    tag_350:\n        /* \"#utility.yul\":7030:7060   */\n      swap1\n      pop\n        /* \"#utility.yul\":7069:7102   */\n      tag_351\n        /* \"#utility.yul\":7097:7101   */\n      dup3\n        /* \"#utility.yul\":7089:7095   */\n      dup3\n        /* \"#utility.yul\":7069:7102   */\n      tag_234\n      jump\t// in\n    tag_351:\n        /* \"#utility.yul\":6979:7108   */\n      swap2\n      swap1\n      pop\n      jump\t// out\n        /* \"#utility.yul\":7114:7422   */\n    tag_236:\n        /* \"#utility.yul\":7176:7180   */\n      0x00\n        /* \"#utility.yul\":7266:7284   */\n      0xffffffffffffffff\n        /* \"#utility.yul\":7258:7264   */\n      dup3\n        /* \"#utility.yul\":7255:7285   */\n      gt\n        /* \"#utility.yul\":7252:7308   */\n      iszero\n      tag_353\n      jumpi\n        /* \"#utility.yul\":7288:7306   */\n      tag_354\n      tag_233\n      jump\t// in\n    tag_354:\n        /* \"#utility.yul\":7252:7308   */\n    tag_353:\n        /* \"#utility.yul\":7326:7355   */\n      tag_355\n        /* \"#utility.yul\":7348:7354   */\n      dup3\n        /* \"#utility.yul\":7326:7355   */\n      tag_224\n      jump\t// in\n    tag_355:\n        /* \"#utility.yul\":7318:7355   */\n      swap1\n      pop\n        /* \"#utility.yul\":7410:7414   */\n      0x20\n        /* \"#utility.yul\":7404:7408   */\n      dup2\n        /* \"#utility.yul\":7400:7415   */\n      add\n        /* \"#utility.yul\":7392:7415   */\n      swap1\n      pop\n        /* \"#utility.yul\":7114:7422   */\n      swap2\n      swap1\n      pop\n      jump\t// out\n        /* \"#utility.yul\":7428:7576   */\n    tag_237:\n        /* \"#utility.yul\":7526:7532   */\n      dup3\n        /* \"#utility.yul\":7521:7524   */\n      dup2\n        /* \"#utility.yul\":7516:7519   */\n      dup4\n        /* \"#utility.yul\":7503:7533   */\n      calldatacopy\n        /* \"#utility.yul\":7567:7568   */\n      0x00\n        /* \"#utility.yul\":7558:7564   */\n      dup4\n        /* \"#utility.yul\":7553:7556   */\n      dup4\n        /* \"#utility.yul\":7549:7565   */\n      add\n        /* \"#utility.yul\":7542:7569   */\n      mstore\n        /* \"#utility.yul\":7428:7576   */\n      pop\n      pop\n      pop\n      jump\t// out\n        /* \"#utility.yul\":7582:8007   */\n    tag_238:\n        /* \"#utility.yul\":7660:7665   */\n      0x00\n        /* \"#utility.yul\":7685:7751   */\n      tag_358\n        /* \"#utility.yul\":7701:7750   */\n      tag_359\n        /* \"#utility.yul\":7743:7749   */\n      dup5\n        /* \"#utility.yul\":7701:7750   */\n      tag_236\n      jump\t// in\n    tag_359:\n        /* \"#utility.yul\":7685:7751   */\n      tag_235\n      jump\t// in\n    tag_358:\n        /* \"#utility.yul\":7676:7751   */\n      swap1\n      pop\n        /* \"#utility.yul\":7774:7780   */\n      dup3\n        /* \"#utility.yul\":7767:7772   */\n      dup2\n        /* \"#utility.yul\":7760:7781   */\n      mstore\n        /* \"#utility.yul\":7812:7816   */\n      0x20\n        /* \"#utility.yul\":7805:7810   */\n      dup2\n        /* \"#utility.yul\":7801:7817   */\n      add\n        /* \"#utility.yul\":7850:7853   */\n      dup5\n        /* \"#utility.yul\":7841:7847   */\n      dup5\n        /* \"#utility.yul\":7836:7839   */\n      dup5\n        /* \"#utility.yul\":7832:7848   */\n      add\n        /* \"#utility.yul\":7829:7854   */\n      gt\n        /* \"#utility.yul\":7826:7938   */\n      iszero\n      tag_360\n      jumpi\n        /* \"#utility.yul\":7857:7936   */\n      tag_361\n      tag_232\n      jump\t// in\n    tag_361:\n        /* \"#utility.yul\":7826:7938   */\n    tag_360:\n        /* \"#utility.yul\":7947:8001   */\n      tag_362\n        /* \"#utility.yul\":7994:8000   */\n      dup5\n        /* \"#utility.yul\":7989:7992   */\n      dup3\n        /* \"#utility.yul\":7984:7987   */\n      dup6\n        /* \"#utility.yul\":7947:8001   */\n      tag_237\n      jump\t// in\n    tag_362:\n        /* \"#utility.yul\":7666:8007   */\n      pop\n        /* \"#utility.yul\":7582:8007   */\n      swap4\n      swap3\n      pop\n      pop\n      pop\n      jump\t// out\n        /* \"#utility.yul\":8027:8367   */\n    tag_239:\n        /* \"#utility.yul\":8083:8088   */\n      0x00\n        /* \"#utility.yul\":8132:8135   */\n      dup3\n        /* \"#utility.yul\":8125:8129   */\n      0x1f\n        /* \"#utility.yul\":8117:8123   */\n      dup4\n        /* \"#utility.yul\":8113:8130   */\n      add\n        /* \"#utility.yul\":8109:8136   */\n      slt\n        /* \"#utility.yul\":8099:8221   */\n      tag_364\n      jumpi\n        /* \"#utility.yul\":8140:8219   */\n      tag_365\n      tag_231\n      jump\t// in\n    tag_365:\n        /* \"#utility.yul\":8099:8221   */\n    tag_364:\n        /* \"#utility.yul\":8257:8263   */\n      dup2\n        /* \"#utility.yul\":8244:8264   */\n      calldataload\n        /* \"#utility.yul\":8282:8361   */\n      tag_366\n        /* \"#utility.yul\":8357:8360   */\n      dup5\n        /* \"#utility.yul\":8349:8355   */\n      dup3\n        /* \"#utility.yul\":8342:8346   */\n      0x20\n        /* \"#utility.yul\":8334:8340   */\n      dup7\n        /* \"#utility.yul\":8330:8347   */\n      add\n        /* \"#utility.yul\":8282:8361   */\n      tag_238\n      jump\t// in\n    tag_366:\n        /* \"#utility.yul\":8273:8361   */\n      swap2\n      pop\n        /* \"#utility.yul\":8089:8367   */\n      pop\n        /* \"#utility.yul\":8027:8367   */\n      swap3\n      swap2\n      pop\n      pop\n      jump\t// out\n        /* \"#utility.yul\":8373:9644   */\n    tag_84:\n        /* \"#utility.yul\":8488:8494   */\n      0x00\n        /* \"#utility.yul\":8496:8502   */\n      dup1\n        /* \"#utility.yul\":8504:8510   */\n      0x00\n        /* \"#utility.yul\":8512:8518   */\n      dup1\n        /* \"#utility.yul\":8520:8526   */\n      0x00\n        /* \"#utility.yul\":8569:8572   */\n      0xa0\n        /* \"#utility.yul\":8557:8566   */\n      dup7\n        /* \"#utility.yul\":8548:8555   */\n      dup9\n        /* \"#utility.yul\":8544:8567   */\n      sub\n        /* \"#utility.yul\":8540:8573   */\n      slt\n        /* \"#utility.yul\":8537:8657   */\n      iszero\n      tag_368\n      jumpi\n        /* \"#utility.yul\":8576:8655   */\n      tag_369\n      tag_217\n      jump\t// in\n    tag_369:\n        /* \"#utility.yul\":8537:8657   */\n    tag_368:\n        /* \"#utility.yul\":8696:8697   */\n      0x00\n        /* \"#utility.yul\":8721:8774   */\n      tag_370\n        /* \"#utility.yul\":8766:8773   */\n      dup9\n        /* \"#utility.yul\":8757:8763   */\n      dup3\n        /* \"#utility.yul\":8746:8755   */\n      dup10\n        /* \"#utility.yul\":8742:8764   */\n      add\n        /* \"#utility.yul\":8721:8774   */\n      tag_220\n      jump\t// in\n    tag_370:\n        /* \"#utility.yul\":8711:8774   */\n      swap6\n      pop\n        /* \"#utility.yul\":8667:8784   */\n      pop\n        /* \"#utility.yul\":8851:8853   */\n      0x20\n        /* \"#utility.yul\":8840:8849   */\n      dup7\n        /* \"#utility.yul\":8836:8854   */\n      add\n        /* \"#utility.yul\":8823:8855   */\n      calldataload\n        /* \"#utility.yul\":8882:8900   */\n      0xffffffffffffffff\n        /* \"#utility.yul\":8874:8880   */\n      dup2\n        /* \"#utility.yul\":8871:8901   */\n      gt\n        /* \"#utility.yul\":8868:8985   */\n      iszero\n      tag_371\n      jumpi\n        /* \"#utility.yul\":8904:8983   */\n      tag_372\n      tag_218\n      jump\t// in\n    tag_372:\n        /* \"#utility.yul\":8868:8985   */\n    tag_371:\n        /* \"#utility.yul\":9009:9072   */\n      tag_373\n        /* \"#utility.yul\":9064:9071   */\n      dup9\n        /* \"#utility.yul\":9055:9061   */\n      dup3\n        /* \"#utility.yul\":9044:9053   */\n      dup10\n        /* \"#utility.yul\":9040:9062   */\n      add\n        /* \"#utility.yul\":9009:9072   */\n      tag_239\n      jump\t// in\n    tag_373:\n        /* \"#utility.yul\":8999:9072   */\n      swap5\n      pop\n        /* \"#utility.yul\":8794:9082   */\n      pop\n        /* \"#utility.yul\":9149:9151   */\n      0x40\n        /* \"#utility.yul\":9138:9147   */\n      dup7\n        /* \"#utility.yul\":9134:9152   */\n      add\n        /* \"#utility.yul\":9121:9153   */\n      calldataload\n        /* \"#utility.yul\":9180:9198   */\n      0xffffffffffffffff\n        /* \"#utility.yul\":9172:9178   */\n      dup2\n        /* \"#utility.yul\":9169:9199   */\n      gt\n        /* \"#utility.yul\":9166:9283   */\n      iszero\n      tag_374\n      jumpi\n        /* \"#utility.yul\":9202:9281   */\n      tag_375\n      tag_218\n      jump\t// in\n    tag_375:\n        /* \"#utility.yul\":9166:9283   */\n    tag_374:\n        /* \"#utility.yul\":9307:9370   */\n      tag_376\n        /* \"#utility.yul\":9362:9369   */\n      dup9\n        /* \"#utility.yul\":9353:9359   */\n      dup3\n        /* \"#utility.yul\":9342:9351   */\n      dup10\n        /* \"#utility.yul\":9338:9360   */\n      add\n        /* \"#utility.yul\":9307:9370   */\n      tag_239\n      jump\t// in\n    tag_376:\n        /* \"#utility.yul\":9297:9370   */\n      swap4\n      pop\n        /* \"#utility.yul\":9092:9380   */\n      pop\n        /* \"#utility.yul\":9419:9421   */\n      0x60\n        /* \"#utility.yul\":9445:9498   */\n      tag_377\n        /* \"#utility.yul\":9490:9497   */\n      dup9\n        /* \"#utility.yul\":9481:9487   */\n      dup3\n        /* \"#utility.yul\":9470:9479   */\n      dup10\n        /* \"#utility.yul\":9466:9488   */\n      add\n        /* \"#utility.yul\":9445:9498   */\n      tag_220\n      jump\t// in\n    tag_377:\n        /* \"#utility.yul\":9435:9498   */\n      swap3\n      pop\n        /* \"#utility.yul\":9390:9508   */\n      pop\n        /* \"#utility.yul\":9547:9550   */\n      0x80\n        /* \"#utility.yul\":9574:9627   */\n      tag_378\n        /* \"#utility.yul\":9619:9626   */\n      dup9\n        /* \"#utility.yul\":9610:9616   */\n      dup3\n        /* \"#utility.yul\":9599:9608   */\n      dup10\n        /* \"#utility.yul\":9595:9617   */\n      add\n        /* \"#utility.yul\":9574:9627   */\n      tag_220\n      jump\t// in\n    tag_378:\n        /* \"#utility.yul\":9564:9627   */\n      swap2\n      pop\n        /* \"#utility.yul\":9518:9637   */\n      pop\n        /* \"#utility.yul\":8373:9644   */\n      swap3\n      swap6\n      pop\n      swap3\n      swap6\n      swap1\n      swap4\n      pop\n      jump\t// out\n        /* \"#utility.yul\":9650:9830   */\n    tag_240:\n        /* \"#utility.yul\":9698:9775   */\n      0x4e487b7100000000000000000000000000000000000000000000000000000000\n        /* \"#utility.yul\":9695:9696   */\n      0x00\n        /* \"#utility.yul\":9688:9776   */\n      mstore\n        /* \"#utility.yul\":9795:9799   */\n      0x22\n        /* \"#utility.yul\":9792:9793   */\n      0x04\n        /* \"#utility.yul\":9785:9800   */\n      mstore\n        /* \"#utility.yul\":9819:9823   */\n      0x24\n        /* \"#utility.yul\":9816:9817   */\n      0x00\n        /* \"#utility.yul\":9809:9824   */\n      revert\n        /* \"#utility.yul\":9836:10156   */\n    tag_90:\n        /* \"#utility.yul\":9880:9886   */\n      0x00\n        /* \"#utility.yul\":9917:9918   */\n      0x02\n        /* \"#utility.yul\":9911:9915   */\n      dup3\n        /* \"#utility.yul\":9907:9919   */\n      div\n        /* \"#utility.yul\":9897:9919   */\n      swap1\n      pop\n        /* \"#utility.yul\":9964:9965   */\n      0x01\n        /* \"#utility.yul\":9958:9962   */\n      dup3\n        /* \"#utility.yul\":9954:9966   */\n      and\n        /* \"#utility.yul\":9985:10003   */\n      dup1\n        /* \"#utility.yul\":9975:10056   */\n      tag_381\n      jumpi\n        /* \"#utility.yul\":10041:10045   */\n      0x7f\n        /* \"#utility.yul\":10033:10039   */\n      dup3\n        /* \"#utility.yul\":10029:10046   */\n      and\n        /* \"#utility.yul\":10019:10046   */\n      swap2\n      pop\n        /* \"#utility.yul\":9975:10056   */\n    tag_381:\n        /* \"#utility.yul\":10103:10105   */\n      0x20\n        /* \"#utility.yul\":10095:10101   */\n      dup3\n        /* \"#utility.yul\":10092:10106   */\n      lt\n        /* \"#utility.yul\":10072:10090   */\n      dup2\n        /* \"#utility.yul\":10069:10107   */\n      sub\n        /* \"#utility.yul\":10066:10150   */\n      tag_382\n      jumpi\n        /* \"#utility.yul\":10122:10140   */\n      tag_383\n      tag_240\n      jump\t// in\n    tag_383:\n        /* \"#utility.yul\":10066:10150   */\n    tag_382:\n        /* \"#utility.yul\":9887:10156   */\n      pop\n        /* \"#utility.yul\":9836:10156   */\n      swap2\n      swap1\n      pop\n      jump\t// out\n        /* \"#utility.yul\":10162:10383   */\n    tag_241:\n        /* \"#utility.yul\":10302:10336   */\n      0x4f6e6c79206f776e65722063616e20706572666f726d20746869732061637469\n        /* \"#utility.yul\":10298:10299   */\n      0x00\n        /* \"#utility.yul\":10290:10296   */\n      dup3\n        /* \"#utility.yul\":10286:10300   */\n      add\n        /* \"#utility.yul\":10279:10337   */\n      mstore\n        /* \"#utility.yul\":10371:10375   */\n      0x6f6e000000000000000000000000000000000000000000000000000000000000\n        /* \"#utility.yul\":10366:10368   */\n      0x20\n        /* \"#utility.yul\":10358:10364   */\n      dup3\n        /* \"#utility.yul\":10354:10369   */\n      add\n        /* \"#utility.yul\":10347:10376   */\n      mstore\n        /* \"#utility.yul\":10162:10383   */\n      pop\n      jump\t// out\n        /* \"#utility.yul\":10389:10755   */\n    tag_242:\n        /* \"#utility.yul\":10531:10534   */\n      0x00\n        /* \"#utility.yul\":10552:10619   */\n      tag_386\n        /* \"#utility.yul\":10616:10618   */\n      0x22\n        /* \"#utility.yul\":10611:10614   */\n      dup4\n        /* \"#utility.yul\":10552:10619   */\n      tag_222\n      jump\t// in\n    tag_386:\n        /* \"#utility.yul\":10545:10619   */\n      swap2\n      pop\n        /* \"#utility.yul\":10628:10721   */\n      tag_387\n        /* \"#utility.yul\":10717:10720   */\n      dup3\n        /* \"#utility.yul\":10628:10721   */\n      tag_241\n      jump\t// in\n    tag_387:\n        /* \"#utility.yul\":10746:10748   */\n      0x40\n        /* \"#utility.yul\":10741:10744   */\n      dup3\n        /* \"#utility.yul\":10737:10749   */\n      add\n        /* \"#utility.yul\":10730:10749   */\n      swap1\n      pop\n        /* \"#utility.yul\":10389:10755   */\n      swap2\n      swap1\n      pop\n      jump\t// out\n        /* \"#utility.yul\":10761:11180   */\n    tag_105:\n        /* \"#utility.yul\":10927:10931   */\n      0x00\n        /* \"#utility.yul\":10965:10967   */\n      0x20\n        /* \"#utility.yul\":10954:10963   */\n      dup3\n        /* \"#utility.yul\":10950:10968   */\n      add\n        /* \"#utility.yul\":10942:10968   */\n      swap1\n      pop\n        /* \"#utility.yul\":11014:11023   */\n      dup2\n        /* \"#utility.yul\":11008:11012   */\n      dup2\n        /* \"#utility.yul\":11004:11024   */\n      sub\n        /* \"#utility.yul\":11000:11001   */\n      0x00\n        /* \"#utility.yul\":10989:10998   */\n      dup4\n        /* \"#utility.yul\":10985:11002   */\n      add\n        /* \"#utility.yul\":10978:11025   */\n      mstore\n        /* \"#utility.yul\":11042:11173   */\n      tag_389\n        /* \"#utility.yul\":11168:11172   */\n      dup2\n        /* \"#utility.yul\":11042:11173   */\n      tag_242\n      jump\t// in\n    tag_389:\n        /* \"#utility.yul\":11034:11173   */\n      swap1\n      pop\n        /* \"#utility.yul\":10761:11180   */\n      swap2\n      swap1\n      pop\n      jump\t// out\n        /* \"#utility.yul\":11186:11355   */\n    tag_243:\n        /* \"#utility.yul\":11326:11347   */\n      0x426f6f6b20646f6573206e6f7420657869737400000000000000000000000000\n        /* \"#utility.yul\":11322:11323   */\n      0x00\n        /* \"#utility.yul\":11314:11320   */\n      dup3\n        /* \"#utility.yul\":11310:11324   */\n      add\n        /* \"#utility.yul\":11303:11348   */\n      mstore\n        /* \"#utility.yul\":11186:11355   */\n      pop\n      jump\t// out\n        /* \"#utility.yul\":11361:11727   */\n    tag_244:\n        /* \"#utility.yul\":11503:11506   */\n      0x00\n        /* \"#utility.yul\":11524:11591   */\n      tag_392\n        /* \"#utility.yul\":11588:11590   */\n      0x13\n        /* \"#utility.yul\":11583:11586   */\n      dup4\n        /* \"#utility.yul\":11524:11591   */\n      tag_222\n      jump\t// in\n    tag_392:\n        /* \"#utility.yul\":11517:11591   */\n      swap2\n      pop\n        /* \"#utility.yul\":11600:11693   */\n      tag_393\n        /* \"#utility.yul\":11689:11692   */\n      dup3\n        /* \"#utility.yul\":11600:11693   */\n      tag_243\n      jump\t// in\n    tag_393:\n        /* \"#utility.yul\":11718:11720   */\n      0x20\n        /* \"#utility.yul\":11713:11716   */\n      dup3\n        /* \"#utility.yul\":11709:11721   */\n      add\n        /* \"#utility.yul\":11702:11721   */\n      swap1\n      pop\n        /* \"#utility.yul\":11361:11727   */\n      swap2\n      swap1\n      pop\n      jump\t// out\n        /* \"#utility.yul\":11733:12152   */\n    tag_109:\n        /* \"#utility.yul\":11899:11903   */\n      0x00\n        /* \"#utility.yul\":11937:11939   */\n      0x20\n        /* \"#utility.yul\":11926:11935   */\n      dup3\n        /* \"#utility.yul\":11922:11940   */\n      add\n        /* \"#utility.yul\":11914:11940   */\n      swap1\n      pop\n        /* \"#utility.yul\":11986:11995   */\n      dup2\n        /* \"#utility.yul\":11980:11984   */\n      dup2\n        /* \"#utility.yul\":11976:11996   */\n      sub\n        /* \"#utility.yul\":11972:11973   */\n      0x00\n        /* \"#utility.yul\":11961:11970   */\n      dup4\n        /* \"#utility.yul\":11957:11974   */\n      add\n        /* \"#utility.yul\":11950:11997   */\n      mstore\n        /* \"#utility.yul\":12014:12145   */\n      tag_395\n        /* \"#utility.yul\":12140:12144   */\n      dup2\n        /* \"#utility.yul\":12014:12145   */\n      tag_244\n      jump\t// in\n    tag_395:\n        /* \"#utility.yul\":12006:12145   */\n      swap1\n      pop\n        /* \"#utility.yul\":11733:12152   */\n      swap2\n      swap1\n      pop\n      jump\t// out\n        /* \"#utility.yul\":12158:12336   */\n    tag_245:\n        /* \"#utility.yul\":12298:12328   */\n      0x5072696365206d7573742062652067726561746572207468616e203000000000\n        /* \"#utility.yul\":12294:12295   */\n      0x00\n        /* \"#utility.yul\":12286:12292   */\n      dup3\n        /* \"#utility.yul\":12282:12296   */\n      add\n        /* \"#utility.yul\":12275:12329   */\n      mstore\n        /* \"#utility.yul\":12158:12336   */\n      pop\n      jump\t// out\n        /* \"#utility.yul\":12342:12708   */\n    tag_246:\n        /* \"#utility.yul\":12484:12487   */\n      0x00\n        /* \"#utility.yul\":12505:12572   */\n      tag_398\n        /* \"#utility.yul\":12569:12571   */\n      0x1c\n        /* \"#utility.yul\":12564:12567   */\n      dup4\n        /* \"#utility.yul\":12505:12572   */\n      tag_222\n      jump\t// in\n    tag_398:\n        /* \"#utility.yul\":12498:12572   */\n      swap2\n      pop\n        /* \"#utility.yul\":12581:12674   */\n      tag_399\n        /* \"#utility.yul\":12670:12673   */\n      dup3\n        /* \"#utility.yul\":12581:12674   */\n      tag_245\n      jump\t// in\n    tag_399:\n        /* \"#utility.yul\":12699:12701   */\n      0x20\n        /* \"#utility.yul\":12694:12697   */\n      dup3\n        /* \"#utility.yul\":12690:12702   */\n      add\n        /* \"#utility.yul\":12683:12702   */\n      swap1\n      pop\n        /* \"#utility.yul\":12342:12708   */\n      swap2\n      swap1\n      pop\n      jump\t// out\n        /* \"#utility.yul\":12714:13133   */\n    tag_112:\n        /* \"#utility.yul\":12880:12884   */\n      0x00\n        /* \"#utility.yul\":12918:12920   */\n      0x20\n        /* \"#utility.yul\":12907:12916   */\n      dup3\n        /* \"#utility.yul\":12903:12921   */\n      add\n        /* \"#utility.yul\":12895:12921   */\n      swap1\n      pop\n        /* \"#utility.yul\":12967:12976   */\n      dup2\n        /* \"#utility.yul\":12961:12965   */\n      dup2\n        /* \"#utility.yul\":12957:12977   */\n      sub\n        /* \"#utility.yul\":12953:12954   */\n      0x00\n        /* \"#utility.yul\":12942:12951   */\n      dup4\n        /* \"#utility.yul\":12938:12955   */\n      add\n        /* \"#utility.yul\":12931:12978   */\n      mstore\n        /* \"#utility.yul\":12995:13126   */\n      tag_401\n        /* \"#utility.yul\":13121:13125   */\n      dup2\n        /* \"#utility.yul\":12995:13126   */\n      tag_246\n      jump\t// in\n    tag_401:\n        /* \"#utility.yul\":12987:13126   */\n      swap1\n      pop\n        /* \"#utility.yul\":12714:13133   */\n      swap2\n      swap1\n      pop\n      jump\t// out\n        /* \"#utility.yul\":13139:13319   */\n    tag_125:\n        /* \"#utility.yul\":13187:13264   */\n      0x4e487b7100000000000000000000000000000000000000000000000000000000\n        /* \"#utility.yul\":13184:13185   */\n      0x00\n        /* \"#utility.yul\":13177:13265   */\n      mstore\n        /* \"#utility.yul\":13284:13288   */\n      0x32\n        /* \"#utility.yul\":13281:13282   */\n      0x04\n        /* \"#utility.yul\":13274:13289   */\n      mstore\n        /* \"#utility.yul\":13308:13312   */\n      0x24\n        /* \"#utility.yul\":13305:13306   */\n      0x00\n        /* \"#utility.yul\":13298:13313   */\n      revert\n        /* \"#utility.yul\":13325:13505   */\n    tag_247:\n        /* \"#utility.yul\":13373:13450   */\n      0x4e487b7100000000000000000000000000000000000000000000000000000000\n        /* \"#utility.yul\":13370:13371   */\n      0x00\n        /* \"#utility.yul\":13363:13451   */\n      mstore\n        /* \"#utility.yul\":13470:13474   */\n      0x11\n        /* \"#utility.yul\":13467:13468   */\n      0x04\n        /* \"#utility.yul\":13460:13475   */\n      mstore\n        /* \"#utility.yul\":13494:13498   */\n      0x24\n        /* \"#utility.yul\":13491:13492   */\n      0x00\n        /* \"#utility.yul\":13484:13499   */\n      revert\n        /* \"#utility.yul\":13511:13705   */\n    tag_129:\n        /* \"#utility.yul\":13551:13555   */\n      0x00\n        /* \"#utility.yul\":13571:13591   */\n      tag_405\n        /* \"#utility.yul\":13589:13590   */\n      dup3\n        /* \"#utility.yul\":13571:13591   */\n      tag_214\n      jump\t// in\n    tag_405:\n        /* \"#utility.yul\":13566:13591   */\n      swap2\n      pop\n        /* \"#utility.yul\":13605:13625   */\n      tag_406\n        /* \"#utility.yul\":13623:13624   */\n      dup4\n        /* \"#utility.yul\":13605:13625   */\n      tag_214\n      jump\t// in\n    tag_406:\n        /* \"#utility.yul\":13600:13625   */\n      swap3\n      pop\n        /* \"#utility.yul\":13649:13650   */\n      dup3\n        /* \"#utility.yul\":13646:13647   */\n      dup3\n        /* \"#utility.yul\":13642:13651   */\n      sub\n        /* \"#utility.yul\":13634:13651   */\n      swap1\n      pop\n        /* \"#utility.yul\":13673:13674   */\n      dup2\n        /* \"#utility.yul\":13667:13671   */\n      dup2\n        /* \"#utility.yul\":13664:13675   */\n      gt\n        /* \"#utility.yul\":13661:13698   */\n      iszero\n      tag_407\n      jumpi\n        /* \"#utility.yul\":13678:13696   */\n      tag_408\n      tag_247\n      jump\t// in\n    tag_408:\n        /* \"#utility.yul\":13661:13698   */\n    tag_407:\n        /* \"#utility.yul\":13511:13705   */\n      swap3\n      swap2\n      pop\n      pop\n      jump\t// out\n        /* \"#utility.yul\":13711:13891   */\n    tag_138:\n        /* \"#utility.yul\":13759:13836   */\n      0x4e487b7100000000000000000000000000000000000000000000000000000000\n        /* \"#utility.yul\":13756:13757   */\n      0x00\n        /* \"#utility.yul\":13749:13837   */\n      mstore\n        /* \"#utility.yul\":13856:13860   */\n      0x31\n        /* \"#utility.yul\":13853:13854   */\n      0x04\n        /* \"#utility.yul\":13846:13861   */\n      mstore\n        /* \"#utility.yul\":13880:13884   */\n      0x24\n        /* \"#utility.yul\":13877:13878   */\n      0x00\n        /* \"#utility.yul\":13870:13885   */\n      revert\n        /* \"#utility.yul\":13897:14070   */\n    tag_248:\n        /* \"#utility.yul\":14037:14062   */\n      0x74686520626f6f6b20646f6573206e6f74206578697374000000000000000000\n        /* \"#utility.yul\":14033:14034   */\n      0x00\n        /* \"#utility.yul\":14025:14031   */\n      dup3\n        /* \"#utility.yul\":14021:14035   */\n      add\n        /* \"#utility.yul\":14014:14063   */\n      mstore\n        /* \"#utility.yul\":13897:14070   */\n      pop\n      jump\t// out\n        /* \"#utility.yul\":14076:14442   */\n    tag_249:\n        /* \"#utility.yul\":14218:14221   */\n      0x00\n        /* \"#utility.yul\":14239:14306   */\n      tag_412\n        /* \"#utility.yul\":14303:14305   */\n      0x17\n        /* \"#utility.yul\":14298:14301   */\n      dup4\n        /* \"#utility.yul\":14239:14306   */\n      tag_222\n      jump\t// in\n    tag_412:\n        /* \"#utility.yul\":14232:14306   */\n      swap2\n      pop\n        /* \"#utility.yul\":14315:14408   */\n      tag_413\n        /* \"#utility.yul\":14404:14407   */\n      dup3\n        /* \"#utility.yul\":14315:14408   */\n      tag_248\n      jump\t// in\n    tag_413:\n        /* \"#utility.yul\":14433:14435   */\n      0x20\n        /* \"#utility.yul\":14428:14431   */\n      dup3\n        /* \"#utility.yul\":14424:14436   */\n      add\n        /* \"#utility.yul\":14417:14436   */\n      swap1\n      pop\n        /* \"#utility.yul\":14076:14442   */\n      swap2\n      swap1\n      pop\n      jump\t// out\n        /* \"#utility.yul\":14448:14867   */\n    tag_160:\n        /* \"#utility.yul\":14614:14618   */\n      0x00\n        /* \"#utility.yul\":14652:14654   */\n      0x20\n        /* \"#utility.yul\":14641:14650   */\n      dup3\n        /* \"#utility.yul\":14637:14655   */\n      add\n        /* \"#utility.yul\":14629:14655   */\n      swap1\n      pop\n        /* \"#utility.yul\":14701:14710   */\n      dup2\n        /* \"#utility.yul\":14695:14699   */\n      dup2\n        /* \"#utility.yul\":14691:14711   */\n      sub\n        /* \"#utility.yul\":14687:14688   */\n      0x00\n        /* \"#utility.yul\":14676:14685   */\n      dup4\n        /* \"#utility.yul\":14672:14689   */\n      add\n        /* \"#utility.yul\":14665:14712   */\n      mstore\n        /* \"#utility.yul\":14729:14860   */\n      tag_415\n        /* \"#utility.yul\":14855:14859   */\n      dup2\n        /* \"#utility.yul\":14729:14860   */\n      tag_249\n      jump\t// in\n    tag_415:\n        /* \"#utility.yul\":14721:14860   */\n      swap1\n      pop\n        /* \"#utility.yul\":14448:14867   */\n      swap2\n      swap1\n      pop\n      jump\t// out\n        /* \"#utility.yul\":14873:15049   */\n    tag_250:\n        /* \"#utility.yul\":15013:15041   */\n      0x5468697320626f6f6b206973206e6f7420617661696c61626c65000000000000\n        /* \"#utility.yul\":15009:15010   */\n      0x00\n        /* \"#utility.yul\":15001:15007   */\n      dup3\n        /* \"#utility.yul\":14997:15011   */\n      add\n        /* \"#utility.yul\":14990:15042   */\n      mstore\n        /* \"#utility.yul\":14873:15049   */\n      pop\n      jump\t// out\n        /* \"#utility.yul\":15055:15421   */\n    tag_251:\n        /* \"#utility.yul\":15197:15200   */\n      0x00\n        /* \"#utility.yul\":15218:15285   */\n      tag_418\n        /* \"#utility.yul\":15282:15284   */\n      0x1a\n        /* \"#utility.yul\":15277:15280   */\n      dup4\n        /* \"#utility.yul\":15218:15285   */\n      tag_222\n      jump\t// in\n    tag_418:\n        /* \"#utility.yul\":15211:15285   */\n      swap2\n      pop\n        /* \"#utility.yul\":15294:15387   */\n      tag_419\n        /* \"#utility.yul\":15383:15386   */\n      dup3\n        /* \"#utility.yul\":15294:15387   */\n      tag_250\n      jump\t// in\n    tag_419:\n        /* \"#utility.yul\":15412:15414   */\n      0x20\n        /* \"#utility.yul\":15407:15410   */\n      dup3\n        /* \"#utility.yul\":15403:15415   */\n      add\n        /* \"#utility.yul\":15396:15415   */\n      swap1\n      pop\n        /* \"#utility.yul\":15055:15421   */\n      swap2\n      swap1\n      pop\n      jump\t// out\n        /* \"#utility.yul\":15427:15846   */\n    tag_165:\n        /* \"#utility.yul\":15593:15597   */\n      0x00\n        /* \"#utility.yul\":15631:15633   */\n      0x20\n        /* \"#utility.yul\":15620:15629   */\n      dup3\n        /* \"#utility.yul\":15616:15634   */\n      add\n        /* \"#utility.yul\":15608:15634   */\n      swap1\n      pop\n        /* \"#utility.yul\":15680:15689   */\n      dup2\n        /* \"#utility.yul\":15674:15678   */\n      dup2\n        /* \"#utility.yul\":15670:15690   */\n      sub\n        /* \"#utility.yul\":15666:15667   */\n      0x00\n        /* \"#utility.yul\":15655:15664   */\n      dup4\n        /* \"#utility.yul\":15651:15668   */\n      add\n        /* \"#utility.yul\":15644:15691   */\n      mstore\n        /* \"#utility.yul\":15708:15839   */\n      tag_421\n        /* \"#utility.yul\":15834:15838   */\n      dup2\n        /* \"#utility.yul\":15708:15839   */\n      tag_251\n      jump\t// in\n    tag_421:\n        /* \"#utility.yul\":15700:15839   */\n      swap1\n      pop\n        /* \"#utility.yul\":15427:15846   */\n      swap2\n      swap1\n      pop\n      jump\t// out\n        /* \"#utility.yul\":15852:16028   */\n    tag_252:\n        /* \"#utility.yul\":15992:16020   */\n      0x4e6f7420656e6f7567682073746f636b20617661696c61626c65000000000000\n        /* \"#utility.yul\":15988:15989   */\n      0x00\n        /* \"#utility.yul\":15980:15986   */\n      dup3\n        /* \"#utility.yul\":15976:15990   */\n      add\n        /* \"#utility.yul\":15969:16021   */\n      mstore\n        /* \"#utility.yul\":15852:16028   */\n      pop\n      jump\t// out\n        /* \"#utility.yul\":16034:16400   */\n    tag_253:\n        /* \"#utility.yul\":16176:16179   */\n      0x00\n        /* \"#utility.yul\":16197:16264   */\n      tag_424\n        /* \"#utility.yul\":16261:16263   */\n      0x1a\n        /* \"#utility.yul\":16256:16259   */\n      dup4\n        /* \"#utility.yul\":16197:16264   */\n      tag_222\n      jump\t// in\n    tag_424:\n        /* \"#utility.yul\":16190:16264   */\n      swap2\n      pop\n        /* \"#utility.yul\":16273:16366   */\n      tag_425\n        /* \"#utility.yul\":16362:16365   */\n      dup3\n        /* \"#utility.yul\":16273:16366   */\n      tag_252\n      jump\t// in\n    tag_425:\n        /* \"#utility.yul\":16391:16393   */\n      0x20\n        /* \"#utility.yul\":16386:16389   */\n      dup3\n        /* \"#utility.yul\":16382:16394   */\n      add\n        /* \"#utility.yul\":16375:16394   */\n      swap1\n      pop\n        /* \"#utility.yul\":16034:16400   */\n      swap2\n      swap1\n      pop\n      jump\t// out\n        /* \"#utility.yul\":16406:16825   */\n    tag_168:\n        /* \"#utility.yul\":16572:16576   */\n      0x00\n        /* \"#utility.yul\":16610:16612   */\n      0x20\n        /* \"#utility.yul\":16599:16608   */\n      dup3\n        /* \"#utility.yul\":16595:16613   */\n      add\n        /* \"#utility.yul\":16587:16613   */\n      swap1\n      pop\n        /* \"#utility.yul\":16659:16668   */\n      dup2\n        /* \"#utility.yul\":16653:16657   */\n      dup2\n        /* \"#utility.yul\":16649:16669   */\n      sub\n        /* \"#utility.yul\":16645:16646   */\n      0x00\n        /* \"#utility.yul\":16634:16643   */\n      dup4\n        /* \"#utility.yul\":16630:16647   */\n      add\n        /* \"#utility.yul\":16623:16670   */\n      mstore\n        /* \"#utility.yul\":16687:16818   */\n      tag_427\n        /* \"#utility.yul\":16813:16817   */\n      dup2\n        /* \"#utility.yul\":16687:16818   */\n      tag_253\n      jump\t// in\n    tag_427:\n        /* \"#utility.yul\":16679:16818   */\n      swap1\n      pop\n        /* \"#utility.yul\":16406:16825   */\n      swap2\n      swap1\n      pop\n      jump\t// out\n        /* \"#utility.yul\":16831:17053   */\n    tag_254:\n        /* \"#utility.yul\":16971:17005   */\n      0x7175616e74697479206d757374206265206772656174657220746861746e207a\n        /* \"#utility.yul\":16967:16968   */\n      0x00\n        /* \"#utility.yul\":16959:16965   */\n      dup3\n        /* \"#utility.yul\":16955:16969   */\n      add\n        /* \"#utility.yul\":16948:17006   */\n      mstore\n        /* \"#utility.yul\":17040:17045   */\n      0x65726f0000000000000000000000000000000000000000000000000000000000\n        /* \"#utility.yul\":17035:17037   */\n      0x20\n        /* \"#utility.yul\":17027:17033   */\n      dup3\n        /* \"#utility.yul\":17023:17038   */\n      add\n        /* \"#utility.yul\":17016:17046   */\n      mstore\n        /* \"#utility.yul\":16831:17053   */\n      pop\n      jump\t// out\n        /* \"#utility.yul\":17059:17425   */\n    tag_255:\n        /* \"#utility.yul\":17201:17204   */\n      0x00\n        /* \"#utility.yul\":17222:17289   */\n      tag_430\n        /* \"#utility.yul\":17286:17288   */\n      0x23\n        /* \"#utility.yul\":17281:17284   */\n      dup4\n        /* \"#utility.yul\":17222:17289   */\n      tag_222\n      jump\t// in\n    tag_430:\n        /* \"#utility.yul\":17215:17289   */\n      swap2\n      pop\n        /* \"#utility.yul\":17298:17391   */\n      tag_431\n        /* \"#utility.yul\":17387:17390   */\n      dup3\n        /* \"#utility.yul\":17298:17391   */\n      tag_254\n      jump\t// in\n    tag_431:\n        /* \"#utility.yul\":17416:17418   */\n      0x40\n        /* \"#utility.yul\":17411:17414   */\n      dup3\n        /* \"#utility.yul\":17407:17419   */\n      add\n        /* \"#utility.yul\":17400:17419   */\n      swap1\n      pop\n        /* \"#utility.yul\":17059:17425   */\n      swap2\n      swap1\n      pop\n      jump\t// out\n        /* \"#utility.yul\":17431:17850   */\n    tag_171:\n        /* \"#utility.yul\":17597:17601   */\n      0x00\n        /* \"#utility.yul\":17635:17637   */\n      0x20\n        /* \"#utility.yul\":17624:17633   */\n      dup3\n        /* \"#utility.yul\":17620:17638   */\n      add\n        /* \"#utility.yul\":17612:17638   */\n      swap1\n      pop\n        /* \"#utility.yul\":17684:17693   */\n      dup2\n        /* \"#utility.yul\":17678:17682   */\n      dup2\n        /* \"#utility.yul\":17674:17694   */\n      sub\n        /* \"#utility.yul\":17670:17671   */\n      0x00\n        /* \"#utility.yul\":17659:17668   */\n      dup4\n        /* \"#utility.yul\":17655:17672   */\n      add\n        /* \"#utility.yul\":17648:17695   */\n      mstore\n        /* \"#utility.yul\":17712:17843   */\n      tag_433\n        /* \"#utility.yul\":17838:17842   */\n      dup2\n        /* \"#utility.yul\":17712:17843   */\n      tag_255\n      jump\t// in\n    tag_433:\n        /* \"#utility.yul\":17704:17843   */\n      swap1\n      pop\n        /* \"#utility.yul\":17431:17850   */\n      swap2\n      swap1\n      pop\n      jump\t// out\n        /* \"#utility.yul\":17856:18266   */\n    tag_173:\n        /* \"#utility.yul\":17896:17903   */\n      0x00\n        /* \"#utility.yul\":17919:17939   */\n      tag_435\n        /* \"#utility.yul\":17937:17938   */\n      dup3\n        /* \"#utility.yul\":17919:17939   */\n      tag_214\n      jump\t// in\n    tag_435:\n        /* \"#utility.yul\":17914:17939   */\n      swap2\n      pop\n        /* \"#utility.yul\":17953:17973   */\n      tag_436\n        /* \"#utility.yul\":17971:17972   */\n      dup4\n        /* \"#utility.yul\":17953:17973   */\n      tag_214\n      jump\t// in\n    tag_436:\n        /* \"#utility.yul\":17948:17973   */\n      swap3\n      pop\n        /* \"#utility.yul\":18008:18009   */\n      dup3\n        /* \"#utility.yul\":18005:18006   */\n      dup3\n        /* \"#utility.yul\":18001:18010   */\n      mul\n        /* \"#utility.yul\":18030:18060   */\n      tag_437\n        /* \"#utility.yul\":18048:18059   */\n      dup2\n        /* \"#utility.yul\":18030:18060   */\n      tag_214\n      jump\t// in\n    tag_437:\n        /* \"#utility.yul\":18019:18060   */\n      swap2\n      pop\n        /* \"#utility.yul\":18209:18210   */\n      dup3\n        /* \"#utility.yul\":18200:18207   */\n      dup3\n        /* \"#utility.yul\":18196:18211   */\n      div\n        /* \"#utility.yul\":18193:18194   */\n      dup5\n        /* \"#utility.yul\":18190:18212   */\n      eq\n        /* \"#utility.yul\":18170:18171   */\n      dup4\n        /* \"#utility.yul\":18163:18172   */\n      iszero\n        /* \"#utility.yul\":18143:18226   */\n      or\n        /* \"#utility.yul\":18120:18259   */\n      tag_438\n      jumpi\n        /* \"#utility.yul\":18239:18257   */\n      tag_439\n      tag_247\n      jump\t// in\n    tag_439:\n        /* \"#utility.yul\":18120:18259   */\n    tag_438:\n        /* \"#utility.yul\":17904:18266   */\n      pop\n        /* \"#utility.yul\":17856:18266   */\n      swap3\n      swap2\n      pop\n      pop\n      jump\t// out\n        /* \"#utility.yul\":18272:18447   */\n    tag_256:\n        /* \"#utility.yul\":18412:18439   */\n      0x496e636f7272656374207061796d656e7420616d6f756e742e00000000000000\n        /* \"#utility.yul\":18408:18409   */\n      0x00\n        /* \"#utility.yul\":18400:18406   */\n      dup3\n        /* \"#utility.yul\":18396:18410   */\n      add\n        /* \"#utility.yul\":18389:18440   */\n      mstore\n        /* \"#utility.yul\":18272:18447   */\n      pop\n      jump\t// out\n        /* \"#utility.yul\":18453:18819   */\n    tag_257:\n        /* \"#utility.yul\":18595:18598   */\n      0x00\n        /* \"#utility.yul\":18616:18683   */\n      tag_442\n        /* \"#utility.yul\":18680:18682   */\n      0x19\n        /* \"#utility.yul\":18675:18678   */\n      dup4\n        /* \"#utility.yul\":18616:18683   */\n      tag_222\n      jump\t// in\n    tag_442:\n        /* \"#utility.yul\":18609:18683   */\n      swap2\n      pop\n        /* \"#utility.yul\":18692:18785   */\n      tag_443\n        /* \"#utility.yul\":18781:18784   */\n      dup3\n        /* \"#utility.yul\":18692:18785   */\n      tag_256\n      jump\t// in\n    tag_443:\n        /* \"#utility.yul\":18810:18812   */\n      0x20\n        /* \"#utility.yul\":18805:18808   */\n      dup3\n        /* \"#utility.yul\":18801:18813   */\n      add\n        /* \"#utility.yul\":18794:18813   */\n      swap1\n      pop\n        /* \"#utility.yul\":18453:18819   */\n      swap2\n      swap1\n      pop\n      jump\t// out\n        /* \"#utility.yul\":18825:19244   */\n    tag_176:\n        /* \"#utility.yul\":18991:18995   */\n      0x00\n        /* \"#utility.yul\":19029:19031   */\n      0x20\n        /* \"#utility.yul\":19018:19027   */\n      dup3\n        /* \"#utility.yul\":19014:19032   */\n      add\n        /* \"#utility.yul\":19006:19032   */\n      swap1\n      pop\n        /* \"#utility.yul\":19078:19087   */\n      dup2\n        /* \"#utility.yul\":19072:19076   */\n      dup2\n        /* \"#utility.yul\":19068:19088   */\n      sub\n        /* \"#utility.yul\":19064:19065   */\n      0x00\n        /* \"#utility.yul\":19053:19062   */\n      dup4\n        /* \"#utility.yul\":19049:19066   */\n      add\n        /* \"#utility.yul\":19042:19089   */\n      mstore\n        /* \"#utility.yul\":19106:19237   */\n      tag_445\n        /* \"#utility.yul\":19232:19236   */\n      dup2\n        /* \"#utility.yul\":19106:19237   */\n      tag_257\n      jump\t// in\n    tag_445:\n        /* \"#utility.yul\":19098:19237   */\n      swap1\n      pop\n        /* \"#utility.yul\":18825:19244   */\n      swap2\n      swap1\n      pop\n      jump\t// out\n        /* \"#utility.yul\":19250:19441   */\n    tag_179:\n        /* \"#utility.yul\":19290:19293   */\n      0x00\n        /* \"#utility.yul\":19309:19329   */\n      tag_447\n        /* \"#utility.yul\":19327:19328   */\n      dup3\n        /* \"#utility.yul\":19309:19329   */\n      tag_214\n      jump\t// in\n    tag_447:\n        /* \"#utility.yul\":19304:19329   */\n      swap2\n      pop\n        /* \"#utility.yul\":19343:19363   */\n      tag_448\n        /* \"#utility.yul\":19361:19362   */\n      dup4\n        /* \"#utility.yul\":19343:19363   */\n      tag_214\n      jump\t// in\n    tag_448:\n        /* \"#utility.yul\":19338:19363   */\n      swap3\n      pop\n        /* \"#utility.yul\":19386:19387   */\n      dup3\n        /* \"#utility.yul\":19383:19384   */\n      dup3\n        /* \"#utility.yul\":19379:19388   */\n      add\n        /* \"#utility.yul\":19372:19388   */\n      swap1\n      pop\n        /* \"#utility.yul\":19407:19410   */\n      dup1\n        /* \"#utility.yul\":19404:19405   */\n      dup3\n        /* \"#utility.yul\":19401:19411   */\n      gt\n        /* \"#utility.yul\":19398:19434   */\n      iszero\n      tag_449\n      jumpi\n        /* \"#utility.yul\":19414:19432   */\n      tag_450\n      tag_247\n      jump\t// in\n    tag_450:\n        /* \"#utility.yul\":19398:19434   */\n    tag_449:\n        /* \"#utility.yul\":19250:19441   */\n      swap3\n      swap2\n      pop\n      pop\n      jump\t// out\n        /* \"#utility.yul\":19447:19667   */\n    tag_258:\n        /* \"#utility.yul\":19587:19621   */\n      0x426f6f6b20616c72656164792065786973747320776974682074686973204944\n        /* \"#utility.yul\":19583:19584   */\n      0x00\n        /* \"#utility.yul\":19575:19581   */\n      dup3\n        /* \"#utility.yul\":19571:19585   */\n      add\n        /* \"#utility.yul\":19564:19622   */\n      mstore\n        /* \"#utility.yul\":19656:19659   */\n      0x2e00000000000000000000000000000000000000000000000000000000000000\n        /* \"#utility.yul\":19651:19653   */\n      0x20\n        /* \"#utility.yul\":19643:19649   */\n      dup3\n        /* \"#utility.yul\":19639:19654   */\n      add\n        /* \"#utility.yul\":19632:19660   */\n      mstore\n        /* \"#utility.yul\":19447:19667   */\n      pop\n      jump\t// out\n        /* \"#utility.yul\":19673:20039   */\n    tag_259:\n        /* \"#utility.yul\":19815:19818   */\n      0x00\n        /* \"#utility.yul\":19836:19903   */\n      tag_453\n        /* \"#utility.yul\":19900:19902   */\n      0x21\n        /* \"#utility.yul\":19895:19898   */\n      dup4\n        /* \"#utility.yul\":19836:19903   */\n      tag_222\n      jump\t// in\n    tag_453:\n        /* \"#utility.yul\":19829:19903   */\n      swap2\n      pop\n        /* \"#utility.yul\":19912:20005   */\n      tag_454\n        /* \"#utility.yul\":20001:20004   */\n      dup3\n        /* \"#utility.yul\":19912:20005   */\n      tag_258\n      jump\t// in\n    tag_454:\n        /* \"#utility.yul\":20030:20032   */\n      0x40\n        /* \"#utility.yul\":20025:20028   */\n      dup3\n        /* \"#utility.yul\":20021:20033   */\n      add\n        /* \"#utility.yul\":20014:20033   */\n      swap1\n      pop\n        /* \"#utility.yul\":19673:20039   */\n      swap2\n      swap1\n      pop\n      jump\t// out\n        /* \"#utility.yul\":20045:20464   */\n    tag_192:\n        /* \"#utility.yul\":20211:20215   */\n      0x00\n        /* \"#utility.yul\":20249:20251   */\n      0x20\n        /* \"#utility.yul\":20238:20247   */\n      dup3\n        /* \"#utility.yul\":20234:20252   */\n      add\n        /* \"#utility.yul\":20226:20252   */\n      swap1\n      pop\n        /* \"#utility.yul\":20298:20307   */\n      dup2\n        /* \"#utility.yul\":20292:20296   */\n      dup2\n        /* \"#utility.yul\":20288:20308   */\n      sub\n        /* \"#utility.yul\":20284:20285   */\n      0x00\n        /* \"#utility.yul\":20273:20282   */\n      dup4\n        /* \"#utility.yul\":20269:20286   */\n      add\n        /* \"#utility.yul\":20262:20309   */\n      mstore\n        /* \"#utility.yul\":20326:20457   */\n      tag_456\n        /* \"#utility.yul\":20452:20456   */\n      dup2\n        /* \"#utility.yul\":20326:20457   */\n      tag_259\n      jump\t// in\n    tag_456:\n        /* \"#utility.yul\":20318:20457   */\n      swap1\n      pop\n        /* \"#utility.yul\":20045:20464   */\n      swap2\n      swap1\n      pop\n      jump\t// out\n        /* \"#utility.yul\":20470:20641   */\n    tag_260:\n        /* \"#utility.yul\":20610:20633   */\n      0x5469746c652063616e6e6f7420626520656d7074790000000000000000000000\n        /* \"#utility.yul\":20606:20607   */\n      0x00\n        /* \"#utility.yul\":20598:20604   */\n      dup3\n        /* \"#utility.yul\":20594:20608   */\n      add\n        /* \"#utility.yul\":20587:20634   */\n      mstore\n        /* \"#utility.yul\":20470:20641   */\n      pop\n      jump\t// out\n        /* \"#utility.yul\":20647:21013   */\n    tag_261:\n        /* \"#utility.yul\":20789:20792   */\n      0x00\n        /* \"#utility.yul\":20810:20877   */\n      tag_459\n        /* \"#utility.yul\":20874:20876   */\n      0x15\n        /* \"#utility.yul\":20869:20872   */\n      dup4\n        /* \"#utility.yul\":20810:20877   */\n      tag_222\n      jump\t// in\n    tag_459:\n        /* \"#utility.yul\":20803:20877   */\n      swap2\n      pop\n        /* \"#utility.yul\":20886:20979   */\n      tag_460\n        /* \"#utility.yul\":20975:20978   */\n      dup3\n        /* \"#utility.yul\":20886:20979   */\n      tag_260\n      jump\t// in\n    tag_460:\n        /* \"#utility.yul\":21004:21006   */\n      0x20\n        /* \"#utility.yul\":20999:21002   */\n      dup3\n        /* \"#utility.yul\":20995:21007   */\n      add\n        /* \"#utility.yul\":20988:21007   */\n      swap1\n      pop\n        /* \"#utility.yul\":20647:21013   */\n      swap2\n      swap1\n      pop\n      jump\t// out\n        /* \"#utility.yul\":21019:21438   */\n    tag_197:\n        /* \"#utility.yul\":21185:21189   */\n      0x00\n        /* \"#utility.yul\":21223:21225   */\n      0x20\n        /* \"#utility.yul\":21212:21221   */\n      dup3\n        /* \"#utility.yul\":21208:21226   */\n      add\n        /* \"#utility.yul\":21200:21226   */\n      swap1\n      pop\n        /* \"#utility.yul\":21272:21281   */\n      dup2\n        /* \"#utility.yul\":21266:21270   */\n      dup2\n        /* \"#utility.yul\":21262:21282   */\n      sub\n        /* \"#utility.yul\":21258:21259   */\n      0x00\n        /* \"#utility.yul\":21247:21256   */\n      dup4\n        /* \"#utility.yul\":21243:21260   */\n      add\n        /* \"#utility.yul\":21236:21283   */\n      mstore\n        /* \"#utility.yul\":21300:21431   */\n      tag_462\n        /* \"#utility.yul\":21426:21430   */\n      dup2\n        /* \"#utility.yul\":21300:21431   */\n      tag_261\n      jump\t// in\n    tag_462:\n        /* \"#utility.yul\":21292:21431   */\n      swap1\n      pop\n        /* \"#utility.yul\":21019:21438   */\n      swap2\n      swap1\n      pop\n      jump\t// out\n        /* \"#utility.yul\":21444:21616   */\n    tag_262:\n        /* \"#utility.yul\":21584:21608   */\n      0x417574686f722063616e6e6f7420626520656d70747900000000000000000000\n        /* \"#utility.yul\":21580:21581   */\n      0x00\n        /* \"#utility.yul\":21572:21578   */\n      dup3\n        /* \"#utility.yul\":21568:21582   */\n      add\n        /* \"#utility.yul\":21561:21609   */\n      mstore\n        /* \"#utility.yul\":21444:21616   */\n      pop\n      jump\t// out\n        /* \"#utility.yul\":21622:21988   */\n    tag_263:\n        /* \"#utility.yul\":21764:21767   */\n      0x00\n        /* \"#utility.yul\":21785:21852   */\n      tag_465\n        /* \"#utility.yul\":21849:21851   */\n      0x16\n        /* \"#utility.yul\":21844:21847   */\n      dup4\n        /* \"#utility.yul\":21785:21852   */\n      tag_222\n      jump\t// in\n    tag_465:\n        /* \"#utility.yul\":21778:21852   */\n      swap2\n      pop\n        /* \"#utility.yul\":21861:21954   */\n      tag_466\n        /* \"#utility.yul\":21950:21953   */\n      dup3\n        /* \"#utility.yul\":21861:21954   */\n      tag_262\n      jump\t// in\n    tag_466:\n        /* \"#utility.yul\":21979:21981   */\n      0x20\n        /* \"#utility.yul\":21974:21977   */\n      dup3\n        /* \"#utility.yul\":21970:21982   */\n      add\n        /* \"#utility.yul\":21963:21982   */\n      swap1\n      pop\n        /* \"#utility.yul\":21622:21988   */\n      swap2\n      swap1\n      pop\n      jump\t// out\n        /* \"#utility.yul\":21994:22413   */\n    tag_200:\n        /* \"#utility.yul\":22160:22164   */\n      0x00\n        /* \"#utility.yul\":22198:22200   */\n      0x20\n        /* \"#utility.yul\":22187:22196   */\n      dup3\n        /* \"#utility.yul\":22183:22201   */\n      add\n        /* \"#utility.yul\":22175:22201   */\n      swap1\n      pop\n        /* \"#utility.yul\":22247:22256   */\n      dup2\n        /* \"#utility.yul\":22241:22245   */\n      dup2\n        /* \"#utility.yul\":22237:22257   */\n      sub\n        /* \"#utility.yul\":22233:22234   */\n      0x00\n        /* \"#utility.yul\":22222:22231   */\n      dup4\n        /* \"#utility.yul\":22218:22235   */\n      add\n        /* \"#utility.yul\":22211:22258   */\n      mstore\n        /* \"#utility.yul\":22275:22406   */\n      tag_468\n        /* \"#utility.yul\":22401:22405   */\n      dup2\n        /* \"#utility.yul\":22275:22406   */\n      tag_263\n      jump\t// in\n    tag_468:\n        /* \"#utility.yul\":22267:22406   */\n      swap1\n      pop\n        /* \"#utility.yul\":21994:22413   */\n      swap2\n      swap1\n      pop\n      jump\t// out\n        /* \"#utility.yul\":22419:22560   */\n    tag_264:\n        /* \"#utility.yul\":22468:22472   */\n      0x00\n        /* \"#utility.yul\":22491:22494   */\n      dup2\n        /* \"#utility.yul\":22483:22494   */\n      swap1\n      pop\n        /* \"#utility.yul\":22514:22517   */\n      dup2\n        /* \"#utility.yul\":22511:22512   */\n      0x00\n        /* \"#utility.yul\":22504:22518   */\n      mstore\n        /* \"#utility.yul\":22548:22552   */\n      0x20\n        /* \"#utility.yul\":22545:22546   */\n      0x00\n        /* \"#utility.yul\":22535:22553   */\n      keccak256\n        /* \"#utility.yul\":22527:22553   */\n      swap1\n      pop\n        /* \"#utility.yul\":22419:22560   */\n      swap2\n      swap1\n      pop\n      jump\t// out\n        /* \"#utility.yul\":22566:22659   */\n    tag_265:\n        /* \"#utility.yul\":22603:22609   */\n      0x00\n        /* \"#utility.yul\":22650:22652   */\n      0x20\n        /* \"#utility.yul\":22645:22647   */\n      0x1f\n        /* \"#utility.yul\":22638:22643   */\n      dup4\n        /* \"#utility.yul\":22634:22648   */\n      add\n        /* \"#utility.yul\":22630:22653   */\n      div\n        /* \"#utility.yul\":22620:22653   */\n      swap1\n      pop\n        /* \"#utility.yul\":22566:22659   */\n      swap2\n      swap1\n      pop\n      jump\t// out\n        /* \"#utility.yul\":22665:22772   */\n    tag_266:\n        /* \"#utility.yul\":22709:22717   */\n      0x00\n        /* \"#utility.yul\":22759:22764   */\n      dup3\n        /* \"#utility.yul\":22753:22757   */\n      dup3\n        /* \"#utility.yul\":22749:22765   */\n      shl\n        /* \"#utility.yul\":22728:22765   */\n      swap1\n      pop\n        /* \"#utility.yul\":22665:22772   */\n      swap3\n      swap2\n      pop\n      pop\n      jump\t// out\n        /* \"#utility.yul\":22778:23171   */\n    tag_267:\n        /* \"#utility.yul\":22847:22853   */\n      0x00\n        /* \"#utility.yul\":22897:22898   */\n      0x08\n        /* \"#utility.yul\":22885:22895   */\n      dup4\n        /* \"#utility.yul\":22881:22899   */\n      mul\n        /* \"#utility.yul\":22920:23017   */\n      tag_473\n        /* \"#utility.yul\":22950:23016   */\n      0xffffffffffffffffffffffffffffffffffffffffffffffffffffffffffffffff\n        /* \"#utility.yul\":22939:22948   */\n      dup3\n        /* \"#utility.yul\":22920:23017   */\n      tag_266\n      jump\t// in\n    tag_473:\n        /* \"#utility.yul\":23038:23077   */\n      tag_474\n        /* \"#utility.yul\":23068:23076   */\n      dup7\n        /* \"#utility.yul\":23057:23066   */\n      dup4\n        /* \"#utility.yul\":23038:23077   */\n      tag_266\n      jump\t// in\n    tag_474:\n        /* \"#utility.yul\":23026:23077   */\n      swap6\n      pop\n        /* \"#utility.yul\":23110:23114   */\n      dup1\n        /* \"#utility.yul\":23106:23115   */\n      not\n        /* \"#utility.yul\":23099:23104   */\n      dup5\n        /* \"#utility.yul\":23095:23116   */\n      and\n        /* \"#utility.yul\":23086:23116   */\n      swap4\n      pop\n        /* \"#utility.yul\":23159:23163   */\n      dup1\n        /* \"#utility.yul\":23149:23157   */\n      dup7\n        /* \"#utility.yul\":23145:23164   */\n      and\n        /* \"#utility.yul\":23138:23143   */\n      dup5\n        /* \"#utility.yul\":23135:23165   */\n      or\n        /* \"#utility.yul\":23125:23165   */\n      swap3\n      pop\n        /* \"#utility.yul\":22854:23171   */\n      pop\n      pop\n        /* \"#utility.yul\":22778:23171   */\n      swap4\n      swap3\n      pop\n      pop\n      pop\n      jump\t// out\n        /* \"#utility.yul\":23177:23237   */\n    tag_268:\n        /* \"#utility.yul\":23205:23208   */\n      0x00\n        /* \"#utility.yul\":23226:23231   */\n      dup2\n        /* \"#utility.yul\":23219:23231   */\n      swap1\n      pop\n        /* \"#utility.yul\":23177:23237   */\n      swap2\n      swap1\n      pop\n      jump\t// out\n        /* \"#utility.yul\":23243:23385   */\n    tag_269:\n        /* \"#utility.yul\":23293:23302   */\n      0x00\n        /* \"#utility.yul\":23326:23379   */\n      tag_477\n        /* \"#utility.yul\":23344:23378   */\n      tag_478\n        /* \"#utility.yul\":23353:23377   */\n      tag_479\n        /* \"#utility.yul\":23371:23376   */\n      dup5\n        /* \"#utility.yul\":23353:23377   */\n      tag_214\n      jump\t// in\n    tag_479:\n        /* \"#utility.yul\":23344:23378   */\n      tag_268\n      jump\t// in\n    tag_478:\n        /* \"#utility.yul\":23326:23379   */\n      tag_214\n      jump\t// in\n    tag_477:\n        /* \"#utility.yul\":23313:23379   */\n      swap1\n      pop\n        /* \"#utility.yul\":23243:23385   */\n      swap2\n      swap1\n      pop\n      jump\t// out\n        /* \"#utility.yul\":23391:23466   */\n    tag_270:\n        /* \"#utility.yul\":23434:23437   */\n      0x00\n        /* \"#utility.yul\":23455:23460   */\n      dup2\n        /* \"#utility.yul\":23448:23460   */\n      swap1\n      pop\n        /* \"#utility.yul\":23391:23466   */\n      swap2\n      swap1\n      pop\n      jump\t// out\n        /* \"#utility.yul\":23472:23741   */\n    tag_271:\n        /* \"#utility.yul\":23582:23621   */\n      tag_482\n        /* \"#utility.yul\":23613:23620   */\n      dup4\n        /* \"#utility.yul\":23582:23621   */\n      tag_269\n      jump\t// in\n    tag_482:\n        /* \"#utility.yul\":23643:23734   */\n      tag_483\n        /* \"#utility.yul\":23692:23733   */\n      tag_484\n        /* \"#utility.yul\":23716:23732   */\n      dup3\n        /* \"#utility.yul\":23692:23733   */\n      tag_270\n      jump\t// in\n    tag_484:\n        /* \"#utility.yul\":23684:23690   */\n      dup5\n        /* \"#utility.yul\":23677:23681   */\n      dup5\n        /* \"#utility.yul\":23671:23682   */\n      sload\n        /* \"#utility.yul\":23643:23734   */\n      tag_267\n      jump\t// in\n    tag_483:\n        /* \"#utility.yul\":23637:23641   */\n      dup3\n        /* \"#utility.yul\":23630:23735   */\n      sstore\n        /* \"#utility.yul\":23548:23741   */\n      pop\n        /* \"#utility.yul\":23472:23741   */\n      pop\n      pop\n      pop\n      jump\t// out\n        /* \"#utility.yul\":23747:23820   */\n    tag_272:\n        /* \"#utility.yul\":23792:23795   */\n      0x00\n        /* \"#utility.yul\":23747:23820   */\n      swap1\n      jump\t// out\n        /* \"#utility.yul\":23826:24015   */\n    tag_273:\n        /* \"#utility.yul\":23903:23935   */\n      tag_487\n      tag_272\n      jump\t// in\n    tag_487:\n        /* \"#utility.yul\":23944:24009   */\n      tag_488\n        /* \"#utility.yul\":24002:24008   */\n      dup2\n        /* \"#utility.yul\":23994:24000   */\n      dup5\n        /* \"#utility.yul\":23988:23992   */\n      dup5\n        /* \"#utility.yul\":23944:24009   */\n      tag_271\n      jump\t// in\n    tag_488:\n        /* \"#utility.yul\":23879:24015   */\n      pop\n        /* \"#utility.yul\":23826:24015   */\n      pop\n      pop\n      jump\t// out\n        /* \"#utility.yul\":24021:24207   */\n    tag_274:\n        /* \"#utility.yul\":24081:24201   */\n    tag_490:\n        /* \"#utility.yul\":24098:24101   */\n      dup2\n        /* \"#utility.yul\":24091:24096   */\n      dup2\n        /* \"#utility.yul\":24088:24102   */\n      lt\n        /* \"#utility.yul\":24081:24201   */\n      iszero\n      tag_492\n      jumpi\n        /* \"#utility.yul\":24152:24191   */\n      tag_493\n        /* \"#utility.yul\":24189:24190   */\n      0x00\n        /* \"#utility.yul\":24182:24187   */\n      dup3\n        /* \"#utility.yul\":24152:24191   */\n      tag_273\n      jump\t// in\n    tag_493:\n        /* \"#utility.yul\":24125:24126   */\n      0x01\n        /* \"#utility.yul\":24118:24123   */\n      dup2\n        /* \"#utility.yul\":24114:24127   */\n      add\n        /* \"#utility.yul\":24105:24127   */\n      swap1\n      pop\n        /* \"#utility.yul\":24081:24201   */\n      jump(tag_490)\n    tag_492:\n        /* \"#utility.yul\":24021:24207   */\n      pop\n      pop\n      jump\t// out\n        /* \"#utility.yul\":24213:24756   */\n    tag_275:\n        /* \"#utility.yul\":24314:24316   */\n      0x1f\n        /* \"#utility.yul\":24309:24312   */\n      dup3\n        /* \"#utility.yul\":24306:24317   */\n      gt\n        /* \"#utility.yul\":24303:24749   */\n      iszero\n      tag_495\n      jumpi\n        /* \"#utility.yul\":24348:24386   */\n      tag_496\n        /* \"#utility.yul\":24380:24385   */\n      dup2\n        /* \"#utility.yul\":24348:24386   */\n      tag_264\n      jump\t// in\n    tag_496:\n        /* \"#utility.yul\":24432:24461   */\n      tag_497\n        /* \"#utility.yul\":24450:24460   */\n      dup5\n        /* \"#utility.yul\":24432:24461   */\n      tag_265\n      jump\t// in\n    tag_497:\n        /* \"#utility.yul\":24422:24430   */\n      dup2\n        /* \"#utility.yul\":24418:24462   */\n      add\n        /* \"#utility.yul\":24615:24617   */\n      0x20\n        /* \"#utility.yul\":24603:24613   */\n      dup6\n        /* \"#utility.yul\":24600:24618   */\n      lt\n        /* \"#utility.yul\":24597:24646   */\n      iszero\n      tag_498\n      jumpi\n        /* \"#utility.yul\":24636:24644   */\n      dup2\n        /* \"#utility.yul\":24621:24644   */\n      swap1\n      pop\n        /* \"#utility.yul\":24597:24646   */\n    tag_498:\n        /* \"#utility.yul\":24659:24739   */\n      tag_499\n        /* \"#utility.yul\":24715:24737   */\n      tag_500\n        /* \"#utility.yul\":24733:24736   */\n      dup6\n        /* \"#utility.yul\":24715:24737   */\n      tag_265\n      jump\t// in\n    tag_500:\n        /* \"#utility.yul\":24705:24713   */\n      dup4\n        /* \"#utility.yul\":24701:24738   */\n      add\n        /* \"#utility.yul\":24688:24699   */\n      dup3\n        /* \"#utility.yul\":24659:24739   */\n      tag_274\n      jump\t// in\n    tag_499:\n        /* \"#utility.yul\":24318:24749   */\n      pop\n      pop\n        /* \"#utility.yul\":24303:24749   */\n    tag_495:\n        /* \"#utility.yul\":24213:24756   */\n      pop\n      pop\n      pop\n      jump\t// out\n        /* \"#utility.yul\":24762:24879   */\n    tag_276:\n        /* \"#utility.yul\":24816:24824   */\n      0x00\n        /* \"#utility.yul\":24866:24871   */\n      dup3\n        /* \"#utility.yul\":24860:24864   */\n      dup3\n        /* \"#utility.yul\":24856:24872   */\n      shr\n        /* \"#utility.yul\":24835:24872   */\n      swap1\n      pop\n        /* \"#utility.yul\":24762:24879   */\n      swap3\n      swap2\n      pop\n      pop\n      jump\t// out\n        /* \"#utility.yul\":24885:25054   */\n    tag_277:\n        /* \"#utility.yul\":24929:24935   */\n      0x00\n        /* \"#utility.yul\":24962:25013   */\n      tag_503\n        /* \"#utility.yul\":25010:25011   */\n      0x00\n        /* \"#utility.yul\":25006:25012   */\n      not\n        /* \"#utility.yul\":24998:25003   */\n      dup5\n        /* \"#utility.yul\":24995:24996   */\n      0x08\n        /* \"#utility.yul\":24991:25004   */\n      mul\n        /* \"#utility.yul\":24962:25013   */\n      tag_276\n      jump\t// in\n    tag_503:\n        /* \"#utility.yul\":24958:25014   */\n      not\n        /* \"#utility.yul\":25043:25047   */\n      dup1\n        /* \"#utility.yul\":25037:25041   */\n      dup4\n        /* \"#utility.yul\":25033:25048   */\n      and\n        /* \"#utility.yul\":25023:25048   */\n      swap2\n      pop\n        /* \"#utility.yul\":24936:25054   */\n      pop\n        /* \"#utility.yul\":24885:25054   */\n      swap3\n      swap2\n      pop\n      pop\n      jump\t// out\n        /* \"#utility.yul\":25059:25354   */\n    tag_278:\n        /* \"#utility.yul\":25135:25139   */\n      0x00\n        /* \"#utility.yul\":25281:25310   */\n      tag_505\n        /* \"#utility.yul\":25306:25309   */\n      dup4\n        /* \"#utility.yul\":25300:25304   */\n      dup4\n        /* \"#utility.yul\":25281:25310   */\n      tag_277\n      jump\t// in\n    tag_505:\n        /* \"#utility.yul\":25273:25310   */\n      swap2\n      pop\n        /* \"#utility.yul\":25343:25346   */\n      dup3\n        /* \"#utility.yul\":25340:25341   */\n      0x02\n        /* \"#utility.yul\":25336:25347   */\n      mul\n        /* \"#utility.yul\":25330:25334   */\n      dup3\n        /* \"#utility.yul\":25327:25348   */\n      or\n        /* \"#utility.yul\":25319:25348   */\n      swap1\n      pop\n        /* \"#utility.yul\":25059:25354   */\n      swap3\n      swap2\n      pop\n      pop\n      jump\t// out\n        /* \"#utility.yul\":25359:26754   */\n    tag_202:\n        /* \"#utility.yul\":25476:25513   */\n      tag_507\n        /* \"#utility.yul\":25509:25512   */\n      dup3\n        /* \"#utility.yul\":25476:25513   */\n      tag_221\n      jump\t// in\n    tag_507:\n        /* \"#utility.yul\":25578:25596   */\n      0xffffffffffffffff\n        /* \"#utility.yul\":25570:25576   */\n      dup2\n        /* \"#utility.yul\":25567:25597   */\n      gt\n        /* \"#utility.yul\":25564:25620   */\n      iszero\n      tag_508\n      jumpi\n        /* \"#utility.yul\":25600:25618   */\n      tag_509\n      tag_233\n      jump\t// in\n    tag_509:\n        /* \"#utility.yul\":25564:25620   */\n    tag_508:\n        /* \"#utility.yul\":25644:25682   */\n      tag_510\n        /* \"#utility.yul\":25676:25680   */\n      dup3\n        /* \"#utility.yul\":25670:25681   */\n      sload\n        /* \"#utility.yul\":25644:25682   */\n      tag_90\n      jump\t// in\n    tag_510:\n        /* \"#utility.yul\":25729:25796   */\n      tag_511\n        /* \"#utility.yul\":25789:25795   */\n      dup3\n        /* \"#utility.yul\":25781:25787   */\n      dup3\n        /* \"#utility.yul\":25775:25779   */\n      dup6\n        /* \"#utility.yul\":25729:25796   */\n      tag_275\n      jump\t// in\n    tag_511:\n        /* \"#utility.yul\":25823:25824   */\n      0x00\n        /* \"#utility.yul\":25847:25851   */\n      0x20\n        /* \"#utility.yul\":25834:25851   */\n      swap1\n      pop\n        /* \"#utility.yul\":25879:25881   */\n      0x1f\n        /* \"#utility.yul\":25871:25877   */\n      dup4\n        /* \"#utility.yul\":25868:25882   */\n      gt\n        /* \"#utility.yul\":25896:25897   */\n      0x01\n        /* \"#utility.yul\":25891:26509   */\n      dup2\n      eq\n      tag_513\n      jumpi\n        /* \"#utility.yul\":26553:26554   */\n      0x00\n        /* \"#utility.yul\":26570:26576   */\n      dup5\n        /* \"#utility.yul\":26567:26644   */\n      iszero\n      tag_514\n      jumpi\n        /* \"#utility.yul\":26619:26628   */\n      dup3\n        /* \"#utility.yul\":26614:26617   */\n      dup8\n        /* \"#utility.yul\":26610:26629   */\n      add\n        /* \"#utility.yul\":26604:26630   */\n      mload\n        /* \"#utility.yul\":26595:26630   */\n      swap1\n      pop\n        /* \"#utility.yul\":26567:26644   */\n    tag_514:\n        /* \"#utility.yul\":26670:26737   */\n      tag_515\n        /* \"#utility.yul\":26730:26736   */\n      dup6\n        /* \"#utility.yul\":26723:26728   */\n      dup3\n        /* \"#utility.yul\":26670:26737   */\n      tag_278\n      jump\t// in\n    tag_515:\n        /* \"#utility.yul\":26664:26668   */\n      dup7\n        /* \"#utility.yul\":26657:26738   */\n      sstore\n        /* \"#utility.yul\":26526:26748   */\n      pop\n        /* \"#utility.yul\":25861:26748   */\n      jump(tag_512)\n        /* \"#utility.yul\":25891:26509   */\n    tag_513:\n        /* \"#utility.yul\":25943:25947   */\n      0x1f\n        /* \"#utility.yul\":25939:25948   */\n      not\n        /* \"#utility.yul\":25931:25937   */\n      dup5\n        /* \"#utility.yul\":25927:25949   */\n      and\n        /* \"#utility.yul\":25977:26014   */\n      tag_516\n        /* \"#utility.yul\":26009:26013   */\n      dup7\n        /* \"#utility.yul\":25977:26014   */\n      tag_264\n      jump\t// in\n    tag_516:\n        /* \"#utility.yul\":26036:26037   */\n      0x00\n        /* \"#utility.yul\":26050:26258   */\n    tag_517:\n        /* \"#utility.yul\":26064:26071   */\n      dup3\n        /* \"#utility.yul\":26061:26062   */\n      dup2\n        /* \"#utility.yul\":26058:26072   */\n      lt\n        /* \"#utility.yul\":26050:26258   */\n      iszero\n      tag_519\n      jumpi\n        /* \"#utility.yul\":26143:26152   */\n      dup5\n        /* \"#utility.yul\":26138:26141   */\n      dup10\n        /* \"#utility.yul\":26134:26153   */\n      add\n        /* \"#utility.yul\":26128:26154   */\n      mload\n        /* \"#utility.yul\":26120:26126   */\n      dup3\n        /* \"#utility.yul\":26113:26155   */\n      sstore\n        /* \"#utility.yul\":26194:26195   */\n      0x01\n        /* \"#utility.yul\":26186:26192   */\n      dup3\n        /* \"#utility.yul\":26182:26196   */\n      add\n        /* \"#utility.yul\":26172:26196   */\n      swap2\n      pop\n        /* \"#utility.yul\":26241:26243   */\n      0x20\n        /* \"#utility.yul\":26230:26239   */\n      dup6\n        /* \"#utility.yul\":26226:26244   */\n      add\n        /* \"#utility.yul\":26213:26244   */\n      swap5\n      pop\n        /* \"#utility.yul\":26087:26091   */\n      0x20\n        /* \"#utility.yul\":26084:26085   */\n      dup2\n        /* \"#utility.yul\":26080:26092   */\n      add\n        /* \"#utility.yul\":26075:26092   */\n      swap1\n      pop\n        /* \"#utility.yul\":26050:26258   */\n      jump(tag_517)\n    tag_519:\n        /* \"#utility.yul\":26286:26292   */\n      dup7\n        /* \"#utility.yul\":26277:26284   */\n      dup4\n        /* \"#utility.yul\":26274:26293   */\n      lt\n        /* \"#utility.yul\":26271:26450   */\n      iszero\n      tag_520\n      jumpi\n        /* \"#utility.yul\":26344:26353   */\n      dup5\n        /* \"#utility.yul\":26339:26342   */\n      dup10\n        /* \"#utility.yul\":26335:26354   */\n      add\n        /* \"#utility.yul\":26329:26355   */\n      mload\n        /* \"#utility.yul\":26387:26435   */\n      tag_521\n        /* \"#utility.yul\":26429:26433   */\n      0x1f\n        /* \"#utility.yul\":26421:26427   */\n      dup10\n        /* \"#utility.yul\":26417:26434   */\n      and\n        /* \"#utility.yul\":26406:26415   */\n      dup3\n        /* \"#utility.yul\":26387:26435   */\n      tag_277\n      jump\t// in\n    tag_521:\n        /* \"#utility.yul\":26379:26385   */\n      dup4\n        /* \"#utility.yul\":26372:26436   */\n      sstore\n        /* \"#utility.yul\":26294:26450   */\n      pop\n        /* \"#utility.yul\":26271:26450   */\n    tag_520:\n        /* \"#utility.yul\":26496:26497   */\n      0x01\n        /* \"#utility.yul\":26492:26493   */\n      0x02\n        /* \"#utility.yul\":26484:26490   */\n      dup9\n        /* \"#utility.yul\":26480:26494   */\n      mul\n        /* \"#utility.yul\":26476:26498   */\n      add\n        /* \"#utility.yul\":26470:26474   */\n      dup9\n        /* \"#utility.yul\":26463:26499   */\n      sstore\n        /* \"#utility.yul\":25898:26509   */\n      pop\n      pop\n      pop\n        /* \"#utility.yul\":25861:26748   */\n    tag_512:\n      pop\n        /* \"#utility.yul\":25451:26754   */\n      pop\n      pop\n      pop\n        /* \"#utility.yul\":25359:26754   */\n      pop\n      pop\n      jump\t// out\n        /* \"#utility.yul\":26760:27495   */\n    tag_206:\n        /* \"#utility.yul\":26977:26981   */\n      0x00\n        /* \"#utility.yul\":27015:27018   */\n      0x80\n        /* \"#utility.yul\":27004:27013   */\n      dup3\n        /* \"#utility.yul\":27000:27019   */\n      add\n        /* \"#utility.yul\":26992:27019   */\n      swap1\n      pop\n        /* \"#utility.yul\":27065:27074   */\n      dup2\n        /* \"#utility.yul\":27059:27063   */\n      dup2\n        /* \"#utility.yul\":27055:27075   */\n      sub\n        /* \"#utility.yul\":27051:27052   */\n      0x00\n        /* \"#utility.yul\":27040:27049   */\n      dup4\n        /* \"#utility.yul\":27036:27053   */\n      add\n        /* \"#utility.yul\":27029:27076   */\n      mstore\n        /* \"#utility.yul\":27093:27171   */\n      tag_523\n        /* \"#utility.yul\":27166:27170   */\n      dup2\n        /* \"#utility.yul\":27157:27163   */\n      dup8\n        /* \"#utility.yul\":27093:27171   */\n      tag_225\n      jump\t// in\n    tag_523:\n        /* \"#utility.yul\":27085:27171   */\n      swap1\n      pop\n        /* \"#utility.yul\":27218:27227   */\n      dup2\n        /* \"#utility.yul\":27212:27216   */\n      dup2\n        /* \"#utility.yul\":27208:27228   */\n      sub\n        /* \"#utility.yul\":27203:27205   */\n      0x20\n        /* \"#utility.yul\":27192:27201   */\n      dup4\n        /* \"#utility.yul\":27188:27206   */\n      add\n        /* \"#utility.yul\":27181:27229   */\n      mstore\n        /* \"#utility.yul\":27246:27324   */\n      tag_524\n        /* \"#utility.yul\":27319:27323   */\n      dup2\n        /* \"#utility.yul\":27310:27316   */\n      dup7\n        /* \"#utility.yul\":27246:27324   */\n      tag_225\n      jump\t// in\n    tag_524:\n        /* \"#utility.yul\":27238:27324   */\n      swap1\n      pop\n        /* \"#utility.yul\":27334:27406   */\n      tag_525\n        /* \"#utility.yul\":27402:27404   */\n      0x40\n        /* \"#utility.yul\":27391:27400   */\n      dup4\n        /* \"#utility.yul\":27387:27405   */\n      add\n        /* \"#utility.yul\":27378:27384   */\n      dup6\n        /* \"#utility.yul\":27334:27406   */\n      tag_215\n      jump\t// in\n    tag_525:\n        /* \"#utility.yul\":27416:27488   */\n      tag_526\n        /* \"#utility.yul\":27484:27486   */\n      0x60\n        /* \"#utility.yul\":27473:27482   */\n      dup4\n        /* \"#utility.yul\":27469:27487   */\n      add\n        /* \"#utility.yul\":27460:27466   */\n      dup5\n        /* \"#utility.yul\":27416:27488   */\n      tag_215\n      jump\t// in\n    tag_526:\n        /* \"#utility.yul\":26760:27495   */\n      swap6\n      swap5\n      pop\n      pop\n      pop\n      pop\n      pop\n      jump\t// out\n\n    auxdata: 0xa2646970667358221220d059d1d6c9caad07d712aa34e5930efe3d923f7704fd78024c2d0f3a546474c964736f6c634300081a0033\n}\n",
				"bytecode": {
					"linkReferences": {},
					"object": "6080604052348015600e575f80fd5b50335f806101000a81548173ffffffffffffffffffffffffffffffffffffffff021916908373ffffffffffffffffffffffffffffffffffffffff1602179055506120658061005b5f395ff3fe6080604052600436106100dc575f3560e01c80638efd319a1161007e578063c199700311610058578063c1997003146102aa578063e0ff5b8b146102e6578063f346e2b714610327578063f733719c14610343576100dc565b80638efd319a146102305780639bd3088314610258578063bec0d79914610282576100dc565b806368744046116100ba578063687440461461017057806368931b21146101b25780636f9fb98a146101dc5780638da5cb5b14610206576100dc565b80633899637f146100e0578063513073b81461010a578063590791f214610146575b5f80fd5b3480156100eb575f80fd5b506100f461036b565b604051610101919061124b565b60405180910390f35b348015610115575f80fd5b50610130600480360381019061012b919061129f565b610371565b60405161013d919061124b565b60405180910390f35b348015610151575f80fd5b5061015a610391565b604051610167919061124b565b60405180910390f35b34801561017b575f80fd5b506101966004803603810190610191919061129f565b6103cf565b6040516101a99796959493929190611354565b60405180910390f35b3480156101bd575f80fd5b506101c6610531565b6040516101d3919061124b565b60405180910390f35b3480156101e7575f80fd5b506101f061053d565b6040516101fd919061124b565b60405180910390f35b348015610211575f80fd5b5061021a610544565b604051610227919061140e565b60405180910390f35b34801561023b575f80fd5b5061025660048036038101906102519190611427565b610567565b005b348015610263575f80fd5b5061026c6106a9565b604051610279919061124b565b60405180910390f35b34801561028d575f80fd5b506102a860048036038101906102a3919061129f565b6106b2565b005b3480156102b5575f80fd5b506102d060048036038101906102cb919061129f565b6108e9565b6040516102dd919061124b565b60405180910390f35b3480156102f1575f80fd5b5061030c6004803603810190610307919061129f565b61095c565b60405161031e96959493929190611465565b60405180910390f35b610341600480360381019061033c91906114d2565b610b26565b005b34801561034e575f80fd5b506103696004803603810190610364919061164e565b610e90565b005b60035481565b60028181548110610380575f80fd5b905f5260205f20015f915090505481565b5f805f9054906101000a900473ffffffffffffffffffffffffffffffffffffffff1673ffffffffffffffffffffffffffffffffffffffff1631905090565b6001602052805f5260405f205f91509050805f0180546103ee9061172a565b80601f016020809104026020016040519081016040528092919081815260200182805461041a9061172a565b80156104655780601f1061043c57610100808354040283529160200191610465565b820191905f5260205f20905b81548152906001019060200180831161044857829003601f168201915b50505050509080600101805461047a9061172a565b80601f01602080910402602001604051908101604052809291908181526020018280546104a69061172a565b80156104f15780601f106104c8576101008083540402835291602001916104f1565b820191905f5260205f20905b8154815290600101906020018083116104d457829003601f168201915b505050505090806002015490806003015490806004015f9054906101000a900460ff1690806005015490806006015f9054906101000a900460ff16905087565b5f600280549050905090565b5f47905090565b5f8054906101000a900473ffffffffffffffffffffffffffffffffffffffff1681565b5f8054906101000a900473ffffffffffffffffffffffffffffffffffffffff1673ffffffffffffffffffffffffffffffffffffffff163373ffffffffffffffffffffffffffffffffffffffff16146105f4576040517f08c379a00000000000000000000000000000000000000000000000000000000081526004016105eb906117ca565b60405180910390fd5b5f60015f8481526020019081526020015f20600201541161064a576040517f08c379a000000000000000000000000000000000000000000000000000000000815260040161064190611832565b60405180910390fd5b5f811161068c576040517f08c379a00000000000000000000000000000000000000000000000000000000081526004016106839061189a565b60405180910390fd5b8060015f8481526020019081526020015f20600201819055505050565b5f600354905090565b5f8054906101000a900473ffffffffffffffffffffffffffffffffffffffff1673ffffffffffffffffffffffffffffffffffffffff163373ffffffffffffffffffffffffffffffffffffffff161461073f576040517f08c379a0000000000000000000000000000000000000000000000000000000008152600401610736906117ca565b60405180910390fd5b5f60015f8381526020019081526020015f206002015411610795576040517f08c379a000000000000000000000000000000000000000000000000000000000815260040161078c90611832565b60405180910390fd5b5f5b60028054905081101561084c5781600282815481106107b9576107b86118b8565b5b905f5260205f2001540361083f57600260016002805490506107db9190611912565b815481106107ec576107eb6118b8565b5b905f5260205f20015460028281548110610809576108086118b8565b5b905f5260205f200181905550600280548061082757610826611945565b5b600190038181905f5260205f20015f9055905561084c565b8080600101915050610797565b5060015f8281526020019081526020015f205f8082015f61086d91906111db565b600182015f61087c91906111db565b600282015f9055600382015f9055600482015f6101000a81549060ff0219169055600582015f9055600682015f6101000a81549060ff02191690555050807f3c5ce13264433bcf97e5d53c97af4fc33800e8c9dd927f965b116d0018d7cddf60405160405180910390a250565b5f8060015f8481526020019081526020015f206002015411610940576040517f08c379a000000000000000000000000000000000000000000000000000000000815260040161093790611832565b60405180910390fd5b60015f8381526020019081526020015f20600501549050919050565b6060805f805f805f60015f8981526020019081526020015f206040518060e00160405290815f8201805461098f9061172a565b80601f01602080910402602001604051908101604052809291908181526020018280546109bb9061172a565b8015610a065780601f106109dd57610100808354040283529160200191610a06565b820191905f5260205f20905b8154815290600101906020018083116109e957829003601f168201915b50505050508152602001600182018054610a1f9061172a565b80601f0160208091040260200160405190810160405280929190818152602001828054610a4b9061172a565b8015610a965780601f10610a6d57610100808354040283529160200191610a96565b820191905f5260205f20905b815481529060010190602001808311610a7957829003601f168201915b505050505081526020016002820154815260200160038201548152602001600482015f9054906101000a900460ff1615151515815260200160058201548152602001600682015f9054906101000a900460ff1615151515815250509050805f015181602001518260400151836060015184608001518560a001519650965096509650965096505091939550919395565b5f60015f8581526020019081526020015f20905060015f8581526020019081526020015f206006015f9054906101000a900460ff1615610b9b576040517f08c379a0000000000000000000000000000000000000000000000000000000008152600401610b92906119bc565b60405180910390fd5b5f60015f8681526020019081526020015f206002015411610bf1576040517f08c379a0000000000000000000000000000000000000000000000000000000008152600401610be890611832565b60405180910390fd5b60015f8581526020019081526020015f206004015f9054906101000a900460ff16610c51576040517f08c379a0000000000000000000000000000000000000000000000000000000008152600401610c4890611a24565b60405180910390fd5b8260015f8681526020019081526020015f20600301541015610ca8576040517f08c379a0000000000000000000000000000000000000000000000000000000008152600401610c9f90611a8c565b60405180910390fd5b5f8311610cea576040517f08c379a0000000000000000000000000000000000000000000000000000000008152600401610ce190611b1a565b60405180910390fd5b828160020154610cfa9190611b38565b8214610d3b576040517f08c379a0000000000000000000000000000000000000000000000000000000008152600401610d3290611bc3565b60405180910390fd5b8260015f8681526020019081526020015f206003015f828254610d5e9190611912565b925050819055505f81600301541160015f8681526020019081526020015f206004015f6101000a81548160ff0219169083151502179055508260015f8681526020019081526020015f206005015f828254610db99190611be1565b925050819055508260035f828254610dd19190611be1565b925050819055505f8054906101000a900473ffffffffffffffffffffffffffffffffffffffff1673ffffffffffffffffffffffffffffffffffffffff166108fc3490811502906040515f60405180830381858888f19350505050158015610e3a573d5f803e3d5ffd5b503373ffffffffffffffffffffffffffffffffffffffff16847f439c08b00222293c6073f3ee383214541a4a21aca7dbb0a45963f86fa8e589f785604051610e82919061124b565b60405180910390a350505050565b5f8054906101000a900473ffffffffffffffffffffffffffffffffffffffff1673ffffffffffffffffffffffffffffffffffffffff163373ffffffffffffffffffffffffffffffffffffffff1614610f1d576040517f08c379a0000000000000000000000000000000000000000000000000000000008152600401610f14906117ca565b60405180910390fd5b60015f8681526020019081526020015f206006015f9054906101000a900460ff1615610f7e576040517f08c379a0000000000000000000000000000000000000000000000000000000008152600401610f75906119bc565b60405180910390fd5b5f60015f8781526020019081526020015f206002015414610fd4576040517f08c379a0000000000000000000000000000000000000000000000000000000008152600401610fcb90611c84565b60405180910390fd5b5f8211611016576040517f08c379a000000000000000000000000000000000000000000000000000000000815260040161100d9061189a565b60405180910390fd5b5f845111611059576040517f08c379a000000000000000000000000000000000000000000000000000000000815260040161105090611cec565b60405180910390fd5b5f83511161109c576040517f08c379a000000000000000000000000000000000000000000000000000000000815260040161109390611d54565b60405180910390fd5b6040518060e001604052808581526020018481526020018381526020018281526020015f8311151581526020015f81526020016001151581525060015f8781526020019081526020015f205f820151815f0190816110fa9190611f0f565b5060208201518160010190816111109190611f0f565b5060408201518160020155606082015181600301556080820151816004015f6101000a81548160ff02191690831515021790555060a0820151816005015560c0820151816006015f6101000a81548160ff021916908315150217905550905050600285908060018154018082558091505060019003905f5260205f20015f9091909190915055847f722c04650224f771c04ec5712c74689980b3ddb4eaa233cd8f9c72d7da7fbe29858585856040516111cc9493929190611fde565b60405180910390a25050505050565b5080546111e79061172a565b5f825580601f106111f85750611215565b601f0160209004905f5260205f20908101906112149190611218565b5b50565b5b8082111561122f575f815f905550600101611219565b5090565b5f819050919050565b61124581611233565b82525050565b5f60208201905061125e5f83018461123c565b92915050565b5f604051905090565b5f80fd5b5f80fd5b61127e81611233565b8114611288575f80fd5b50565b5f8135905061129981611275565b92915050565b5f602082840312156112b4576112b361126d565b5b5f6112c18482850161128b565b91505092915050565b5f81519050919050565b5f82825260208201905092915050565b8281835e5f83830152505050565b5f601f19601f8301169050919050565b5f61130c826112ca565b61131681856112d4565b93506113268185602086016112e4565b61132f816112f2565b840191505092915050565b5f8115159050919050565b61134e8161133a565b82525050565b5f60e0820190508181035f83015261136c818a611302565b905081810360208301526113808189611302565b905061138f604083018861123c565b61139c606083018761123c565b6113a96080830186611345565b6113b660a083018561123c565b6113c360c0830184611345565b98975050505050505050565b5f73ffffffffffffffffffffffffffffffffffffffff82169050919050565b5f6113f8826113cf565b9050919050565b611408816113ee565b82525050565b5f6020820190506114215f8301846113ff565b92915050565b5f806040838503121561143d5761143c61126d565b5b5f61144a8582860161128b565b925050602061145b8582860161128b565b9150509250929050565b5f60c0820190508181035f83015261147d8189611302565b905081810360208301526114918188611302565b90506114a0604083018761123c565b6114ad606083018661123c565b6114ba6080830185611345565b6114c760a083018461123c565b979650505050505050565b5f805f606084860312156114e9576114e861126d565b5b5f6114f68682870161128b565b93505060206115078682870161128b565b92505060406115188682870161128b565b9150509250925092565b5f80fd5b5f80fd5b7f4e487b71000000000000000000000000000000000000000000000000000000005f52604160045260245ffd5b611560826112f2565b810181811067ffffffffffffffff8211171561157f5761157e61152a565b5b80604052505050565b5f611591611264565b905061159d8282611557565b919050565b5f67ffffffffffffffff8211156115bc576115bb61152a565b5b6115c5826112f2565b9050602081019050919050565b828183375f83830152505050565b5f6115f26115ed846115a2565b611588565b90508281526020810184848401111561160e5761160d611526565b5b6116198482856115d2565b509392505050565b5f82601f83011261163557611634611522565b5b81356116458482602086016115e0565b91505092915050565b5f805f805f60a086880312156116675761166661126d565b5b5f6116748882890161128b565b955050602086013567ffffffffffffffff81111561169557611694611271565b5b6116a188828901611621565b945050604086013567ffffffffffffffff8111156116c2576116c1611271565b5b6116ce88828901611621565b93505060606116df8882890161128b565b92505060806116f08882890161128b565b9150509295509295909350565b7f4e487b71000000000000000000000000000000000000000000000000000000005f52602260045260245ffd5b5f600282049050600182168061174157607f821691505b602082108103611754576117536116fd565b5b50919050565b7f4f6e6c79206f776e65722063616e20706572666f726d207468697320616374695f8201527f6f6e000000000000000000000000000000000000000000000000000000000000602082015250565b5f6117b46022836112d4565b91506117bf8261175a565b604082019050919050565b5f6020820190508181035f8301526117e1816117a8565b9050919050565b7f426f6f6b20646f6573206e6f74206578697374000000000000000000000000005f82015250565b5f61181c6013836112d4565b9150611827826117e8565b602082019050919050565b5f6020820190508181035f83015261184981611810565b9050919050565b7f5072696365206d7573742062652067726561746572207468616e2030000000005f82015250565b5f611884601c836112d4565b915061188f82611850565b602082019050919050565b5f6020820190508181035f8301526118b181611878565b9050919050565b7f4e487b71000000000000000000000000000000000000000000000000000000005f52603260045260245ffd5b7f4e487b71000000000000000000000000000000000000000000000000000000005f52601160045260245ffd5b5f61191c82611233565b915061192783611233565b925082820390508181111561193f5761193e6118e5565b5b92915050565b7f4e487b71000000000000000000000000000000000000000000000000000000005f52603160045260245ffd5b7f74686520626f6f6b20646f6573206e6f742065786973740000000000000000005f82015250565b5f6119a66017836112d4565b91506119b182611972565b602082019050919050565b5f6020820190508181035f8301526119d38161199a565b9050919050565b7f5468697320626f6f6b206973206e6f7420617661696c61626c650000000000005f82015250565b5f611a0e601a836112d4565b9150611a19826119da565b602082019050919050565b5f6020820190508181035f830152611a3b81611a02565b9050919050565b7f4e6f7420656e6f7567682073746f636b20617661696c61626c650000000000005f82015250565b5f611a76601a836112d4565b9150611a8182611a42565b602082019050919050565b5f6020820190508181035f830152611aa381611a6a565b9050919050565b7f7175616e74697479206d757374206265206772656174657220746861746e207a5f8201527f65726f0000000000000000000000000000000000000000000000000000000000602082015250565b5f611b046023836112d4565b9150611b0f82611aaa565b604082019050919050565b5f6020820190508181035f830152611b3181611af8565b9050919050565b5f611b4282611233565b9150611b4d83611233565b9250828202611b5b81611233565b91508282048414831517611b7257611b716118e5565b5b5092915050565b7f496e636f7272656374207061796d656e7420616d6f756e742e000000000000005f82015250565b5f611bad6019836112d4565b9150611bb882611b79565b602082019050919050565b5f6020820190508181035f830152611bda81611ba1565b9050919050565b5f611beb82611233565b9150611bf683611233565b9250828201905080821115611c0e57611c0d6118e5565b5b92915050565b7f426f6f6b20616c726561647920657869737473207769746820746869732049445f8201527f2e00000000000000000000000000000000000000000000000000000000000000602082015250565b5f611c6e6021836112d4565b9150611c7982611c14565b604082019050919050565b5f6020820190508181035f830152611c9b81611c62565b9050919050565b7f5469746c652063616e6e6f7420626520656d70747900000000000000000000005f82015250565b5f611cd66015836112d4565b9150611ce182611ca2565b602082019050919050565b5f6020820190508181035f830152611d0381611cca565b9050919050565b7f417574686f722063616e6e6f7420626520656d707479000000000000000000005f82015250565b5f611d3e6016836112d4565b9150611d4982611d0a565b602082019050919050565b5f6020820190508181035f830152611d6b81611d32565b9050919050565b5f819050815f5260205f209050919050565b5f6020601f8301049050919050565b5f82821b905092915050565b5f60088302611dce7fffffffffffffffffffffffffffffffffffffffffffffffffffffffffffffffff82611d93565b611dd88683611d93565b95508019841693508086168417925050509392505050565b5f819050919050565b5f611e13611e0e611e0984611233565b611df0565b611233565b9050919050565b5f819050919050565b611e2c83611df9565b611e40611e3882611e1a565b848454611d9f565b825550505050565b5f90565b611e54611e48565b611e5f818484611e23565b505050565b5b81811015611e8257611e775f82611e4c565b600181019050611e65565b5050565b601f821115611ec757611e9881611d72565b611ea184611d84565b81016020851015611eb0578190505b611ec4611ebc85611d84565b830182611e64565b50505b505050565b5f82821c905092915050565b5f611ee75f1984600802611ecc565b1980831691505092915050565b5f611eff8383611ed8565b9150826002028217905092915050565b611f18826112ca565b67ffffffffffffffff811115611f3157611f3061152a565b5b611f3b825461172a565b611f46828285611e86565b5f60209050601f831160018114611f77575f8415611f65578287015190505b611f6f8582611ef4565b865550611fd6565b601f198416611f8586611d72565b5f5b82811015611fac57848901518255600182019150602085019450602081019050611f87565b86831015611fc95784890151611fc5601f891682611ed8565b8355505b6001600288020188555050505b505050505050565b5f6080820190508181035f830152611ff68187611302565b9050818103602083015261200a8186611302565b9050612019604083018561123c565b612026606083018461123c565b9594505050505056fea2646970667358221220d059d1d6c9caad07d712aa34e5930efe3d923f7704fd78024c2d0f3a546474c964736f6c634300081a0033",
					"opcodes": "PUSH1 0x80 PUSH1 0x40 MSTORE CALLVALUE DUP1 ISZERO PUSH1 0xE JUMPI PUSH0 DUP1 REVERT JUMPDEST POP CALLER PUSH0 DUP1 PUSH2 0x100 EXP DUP2 SLOAD DUP2 PUSH20 0xFFFFFFFFFFFFFFFFFFFFFFFFFFFFFFFFFFFFFFFF MUL NOT AND SWAP1 DUP4 PUSH20 0xFFFFFFFFFFFFFFFFFFFFFFFFFFFFFFFFFFFFFFFF AND MUL OR SWAP1 SSTORE POP PUSH2 0x2065 DUP1 PUSH2 0x5B PUSH0 CODECOPY PUSH0 RETURN INVALID PUSH1 0x80 PUSH1 0x40 MSTORE PUSH1 0x4 CALLDATASIZE LT PUSH2 0xDC JUMPI PUSH0 CALLDATALOAD PUSH1 0xE0 SHR DUP1 PUSH4 0x8EFD319A GT PUSH2 0x7E JUMPI DUP1 PUSH4 0xC1997003 GT PUSH2 0x58 JUMPI DUP1 PUSH4 0xC1997003 EQ PUSH2 0x2AA JUMPI DUP1 PUSH4 0xE0FF5B8B EQ PUSH2 0x2E6 JUMPI DUP1 PUSH4 0xF346E2B7 EQ PUSH2 0x327 JUMPI DUP1 PUSH4 0xF733719C EQ PUSH2 0x343 JUMPI PUSH2 0xDC JUMP JUMPDEST DUP1 PUSH4 0x8EFD319A EQ PUSH2 0x230 JUMPI DUP1 PUSH4 0x9BD30883 EQ PUSH2 0x258 JUMPI DUP1 PUSH4 0xBEC0D799 EQ PUSH2 0x282 JUMPI PUSH2 0xDC JUMP JUMPDEST DUP1 PUSH4 0x68744046 GT PUSH2 0xBA JUMPI DUP1 PUSH4 0x68744046 EQ PUSH2 0x170 JUMPI DUP1 PUSH4 0x68931B21 EQ PUSH2 0x1B2 JUMPI DUP1 PUSH4 0x6F9FB98A EQ PUSH2 0x1DC JUMPI DUP1 PUSH4 0x8DA5CB5B EQ PUSH2 0x206 JUMPI PUSH2 0xDC JUMP JUMPDEST DUP1 PUSH4 0x3899637F EQ PUSH2 0xE0 JUMPI DUP1 PUSH4 0x513073B8 EQ PUSH2 0x10A JUMPI DUP1 PUSH4 0x590791F2 EQ PUSH2 0x146 JUMPI JUMPDEST PUSH0 DUP1 REVERT JUMPDEST CALLVALUE DUP1 ISZERO PUSH2 0xEB JUMPI PUSH0 DUP1 REVERT JUMPDEST POP PUSH2 0xF4 PUSH2 0x36B JUMP JUMPDEST PUSH1 0x40 MLOAD PUSH2 0x101 SWAP2 SWAP1 PUSH2 0x124B JUMP JUMPDEST PUSH1 0x40 MLOAD DUP1 SWAP2 SUB SWAP1 RETURN JUMPDEST CALLVALUE DUP1 ISZERO PUSH2 0x115 JUMPI PUSH0 DUP1 REVERT JUMPDEST POP PUSH2 0x130 PUSH1 0x4 DUP1 CALLDATASIZE SUB DUP2 ADD SWAP1 PUSH2 0x12B SWAP2 SWAP1 PUSH2 0x129F JUMP JUMPDEST PUSH2 0x371 JUMP JUMPDEST PUSH1 0x40 MLOAD PUSH2 0x13D SWAP2 SWAP1 PUSH2 0x124B JUMP JUMPDEST PUSH1 0x40 MLOAD DUP1 SWAP2 SUB SWAP1 RETURN JUMPDEST CALLVALUE DUP1 ISZERO PUSH2 0x151 JUMPI PUSH0 DUP1 REVERT JUMPDEST POP PUSH2 0x15A PUSH2 0x391 JUMP JUMPDEST PUSH1 0x40 MLOAD PUSH2 0x167 SWAP2 SWAP1 PUSH2 0x124B JUMP JUMPDEST PUSH1 0x40 MLOAD DUP1 SWAP2 SUB SWAP1 RETURN JUMPDEST CALLVALUE DUP1 ISZERO PUSH2 0x17B JUMPI PUSH0 DUP1 REVERT JUMPDEST POP PUSH2 0x196 PUSH1 0x4 DUP1 CALLDATASIZE SUB DUP2 ADD SWAP1 PUSH2 0x191 SWAP2 SWAP1 PUSH2 0x129F JUMP JUMPDEST PUSH2 0x3CF JUMP JUMPDEST PUSH1 0x40 MLOAD PUSH2 0x1A9 SWAP8 SWAP7 SWAP6 SWAP5 SWAP4 SWAP3 SWAP2 SWAP1 PUSH2 0x1354 JUMP JUMPDEST PUSH1 0x40 MLOAD DUP1 SWAP2 SUB SWAP1 RETURN JUMPDEST CALLVALUE DUP1 ISZERO PUSH2 0x1BD JUMPI PUSH0 DUP1 REVERT JUMPDEST POP PUSH2 0x1C6 PUSH2 0x531 JUMP JUMPDEST PUSH1 0x40 MLOAD PUSH2 0x1D3 SWAP2 SWAP1 PUSH2 0x124B JUMP JUMPDEST PUSH1 0x40 MLOAD DUP1 SWAP2 SUB SWAP1 RETURN JUMPDEST CALLVALUE DUP1 ISZERO PUSH2 0x1E7 JUMPI PUSH0 DUP1 REVERT JUMPDEST POP PUSH2 0x1F0 PUSH2 0x53D JUMP JUMPDEST PUSH1 0x40 MLOAD PUSH2 0x1FD SWAP2 SWAP1 PUSH2 0x124B JUMP JUMPDEST PUSH1 0x40 MLOAD DUP1 SWAP2 SUB SWAP1 RETURN JUMPDEST CALLVALUE DUP1 ISZERO PUSH2 0x211 JUMPI PUSH0 DUP1 REVERT JUMPDEST POP PUSH2 0x21A PUSH2 0x544 JUMP JUMPDEST PUSH1 0x40 MLOAD PUSH2 0x227 SWAP2 SWAP1 PUSH2 0x140E JUMP JUMPDEST PUSH1 0x40 MLOAD DUP1 SWAP2 SUB SWAP1 RETURN JUMPDEST CALLVALUE DUP1 ISZERO PUSH2 0x23B JUMPI PUSH0 DUP1 REVERT JUMPDEST POP PUSH2 0x256 PUSH1 0x4 DUP1 CALLDATASIZE SUB DUP2 ADD SWAP1 PUSH2 0x251 SWAP2 SWAP1 PUSH2 0x1427 JUMP JUMPDEST PUSH2 0x567 JUMP JUMPDEST STOP JUMPDEST CALLVALUE DUP1 ISZERO PUSH2 0x263 JUMPI PUSH0 DUP1 REVERT JUMPDEST POP PUSH2 0x26C PUSH2 0x6A9 JUMP JUMPDEST PUSH1 0x40 MLOAD PUSH2 0x279 SWAP2 SWAP1 PUSH2 0x124B JUMP JUMPDEST PUSH1 0x40 MLOAD DUP1 SWAP2 SUB SWAP1 RETURN JUMPDEST CALLVALUE DUP1 ISZERO PUSH2 0x28D JUMPI PUSH0 DUP1 REVERT JUMPDEST POP PUSH2 0x2A8 PUSH1 0x4 DUP1 CALLDATASIZE SUB DUP2 ADD SWAP1 PUSH2 0x2A3 SWAP2 SWAP1 PUSH2 0x129F JUMP JUMPDEST PUSH2 0x6B2 JUMP JUMPDEST STOP JUMPDEST CALLVALUE DUP1 ISZERO PUSH2 0x2B5 JUMPI PUSH0 DUP1 REVERT JUMPDEST POP PUSH2 0x2D0 PUSH1 0x4 DUP1 CALLDATASIZE SUB DUP2 ADD SWAP1 PUSH2 0x2CB SWAP2 SWAP1 PUSH2 0x129F JUMP JUMPDEST PUSH2 0x8E9 JUMP JUMPDEST PUSH1 0x40 MLOAD PUSH2 0x2DD SWAP2 SWAP1 PUSH2 0x124B JUMP JUMPDEST PUSH1 0x40 MLOAD DUP1 SWAP2 SUB SWAP1 RETURN JUMPDEST CALLVALUE DUP1 ISZERO PUSH2 0x2F1 JUMPI PUSH0 DUP1 REVERT JUMPDEST POP PUSH2 0x30C PUSH1 0x4 DUP1 CALLDATASIZE SUB DUP2 ADD SWAP1 PUSH2 0x307 SWAP2 SWAP1 PUSH2 0x129F JUMP JUMPDEST PUSH2 0x95C JUMP JUMPDEST PUSH1 0x40 MLOAD PUSH2 0x31E SWAP7 SWAP6 SWAP5 SWAP4 SWAP3 SWAP2 SWAP1 PUSH2 0x1465 JUMP JUMPDEST PUSH1 0x40 MLOAD DUP1 SWAP2 SUB SWAP1 RETURN JUMPDEST PUSH2 0x341 PUSH1 0x4 DUP1 CALLDATASIZE SUB DUP2 ADD SWAP1 PUSH2 0x33C SWAP2 SWAP1 PUSH2 0x14D2 JUMP JUMPDEST PUSH2 0xB26 JUMP JUMPDEST STOP JUMPDEST CALLVALUE DUP1 ISZERO PUSH2 0x34E JUMPI PUSH0 DUP1 REVERT JUMPDEST POP PUSH2 0x369 PUSH1 0x4 DUP1 CALLDATASIZE SUB DUP2 ADD SWAP1 PUSH2 0x364 SWAP2 SWAP1 PUSH2 0x164E JUMP JUMPDEST PUSH2 0xE90 JUMP JUMPDEST STOP JUMPDEST PUSH1 0x3 SLOAD DUP2 JUMP JUMPDEST PUSH1 0x2 DUP2 DUP2 SLOAD DUP2 LT PUSH2 0x380 JUMPI PUSH0 DUP1 REVERT JUMPDEST SWAP1 PUSH0 MSTORE PUSH1 0x20 PUSH0 KECCAK256 ADD PUSH0 SWAP2 POP SWAP1 POP SLOAD DUP2 JUMP JUMPDEST PUSH0 DUP1 PUSH0 SWAP1 SLOAD SWAP1 PUSH2 0x100 EXP SWAP1 DIV PUSH20 0xFFFFFFFFFFFFFFFFFFFFFFFFFFFFFFFFFFFFFFFF AND PUSH20 0xFFFFFFFFFFFFFFFFFFFFFFFFFFFFFFFFFFFFFFFF AND BALANCE SWAP1 POP SWAP1 JUMP JUMPDEST PUSH1 0x1 PUSH1 0x20 MSTORE DUP1 PUSH0 MSTORE PUSH1 0x40 PUSH0 KECCAK256 PUSH0 SWAP2 POP SWAP1 POP DUP1 PUSH0 ADD DUP1 SLOAD PUSH2 0x3EE SWAP1 PUSH2 0x172A JUMP JUMPDEST DUP1 PUSH1 0x1F ADD PUSH1 0x20 DUP1 SWAP2 DIV MUL PUSH1 0x20 ADD PUSH1 0x40 MLOAD SWAP1 DUP2 ADD PUSH1 0x40 MSTORE DUP1 SWAP3 SWAP2 SWAP1 DUP2 DUP2 MSTORE PUSH1 0x20 ADD DUP3 DUP1 SLOAD PUSH2 0x41A SWAP1 PUSH2 0x172A JUMP JUMPDEST DUP1 ISZERO PUSH2 0x465 JUMPI DUP1 PUSH1 0x1F LT PUSH2 0x43C JUMPI PUSH2 0x100 DUP1 DUP4 SLOAD DIV MUL DUP4 MSTORE SWAP2 PUSH1 0x20 ADD SWAP2 PUSH2 0x465 JUMP JUMPDEST DUP3 ADD SWAP2 SWAP1 PUSH0 MSTORE PUSH1 0x20 PUSH0 KECCAK256 SWAP1 JUMPDEST DUP2 SLOAD DUP2 MSTORE SWAP1 PUSH1 0x1 ADD SWAP1 PUSH1 0x20 ADD DUP1 DUP4 GT PUSH2 0x448 JUMPI DUP3 SWAP1 SUB PUSH1 0x1F AND DUP3 ADD SWAP2 JUMPDEST POP POP POP POP POP SWAP1 DUP1 PUSH1 0x1 ADD DUP1 SLOAD PUSH2 0x47A SWAP1 PUSH2 0x172A JUMP JUMPDEST DUP1 PUSH1 0x1F ADD PUSH1 0x20 DUP1 SWAP2 DIV MUL PUSH1 0x20 ADD PUSH1 0x40 MLOAD SWAP1 DUP2 ADD PUSH1 0x40 MSTORE DUP1 SWAP3 SWAP2 SWAP1 DUP2 DUP2 MSTORE PUSH1 0x20 ADD DUP3 DUP1 SLOAD PUSH2 0x4A6 SWAP1 PUSH2 0x172A JUMP JUMPDEST DUP1 ISZERO PUSH2 0x4F1 JUMPI DUP1 PUSH1 0x1F LT PUSH2 0x4C8 JUMPI PUSH2 0x100 DUP1 DUP4 SLOAD DIV MUL DUP4 MSTORE SWAP2 PUSH1 0x20 ADD SWAP2 PUSH2 0x4F1 JUMP JUMPDEST DUP3 ADD SWAP2 SWAP1 PUSH0 MSTORE PUSH1 0x20 PUSH0 KECCAK256 SWAP1 JUMPDEST DUP2 SLOAD DUP2 MSTORE SWAP1 PUSH1 0x1 ADD SWAP1 PUSH1 0x20 ADD DUP1 DUP4 GT PUSH2 0x4D4 JUMPI DUP3 SWAP1 SUB PUSH1 0x1F AND DUP3 ADD SWAP2 JUMPDEST POP POP POP POP POP SWAP1 DUP1 PUSH1 0x2 ADD SLOAD SWAP1 DUP1 PUSH1 0x3 ADD SLOAD SWAP1 DUP1 PUSH1 0x4 ADD PUSH0 SWAP1 SLOAD SWAP1 PUSH2 0x100 EXP SWAP1 DIV PUSH1 0xFF AND SWAP1 DUP1 PUSH1 0x5 ADD SLOAD SWAP1 DUP1 PUSH1 0x6 ADD PUSH0 SWAP1 SLOAD SWAP1 PUSH2 0x100 EXP SWAP1 DIV PUSH1 0xFF AND SWAP1 POP DUP8 JUMP JUMPDEST PUSH0 PUSH1 0x2 DUP1 SLOAD SWAP1 POP SWAP1 POP SWAP1 JUMP JUMPDEST PUSH0 SELFBALANCE SWAP1 POP SWAP1 JUMP JUMPDEST PUSH0 DUP1 SLOAD SWAP1 PUSH2 0x100 EXP SWAP1 DIV PUSH20 0xFFFFFFFFFFFFFFFFFFFFFFFFFFFFFFFFFFFFFFFF AND DUP2 JUMP JUMPDEST PUSH0 DUP1 SLOAD SWAP1 PUSH2 0x100 EXP SWAP1 DIV PUSH20 0xFFFFFFFFFFFFFFFFFFFFFFFFFFFFFFFFFFFFFFFF AND PUSH20 0xFFFFFFFFFFFFFFFFFFFFFFFFFFFFFFFFFFFFFFFF AND CALLER PUSH20 0xFFFFFFFFFFFFFFFFFFFFFFFFFFFFFFFFFFFFFFFF AND EQ PUSH2 0x5F4 JUMPI PUSH1 0x40 MLOAD PUSH32 0x8C379A000000000000000000000000000000000000000000000000000000000 DUP2 MSTORE PUSH1 0x4 ADD PUSH2 0x5EB SWAP1 PUSH2 0x17CA JUMP JUMPDEST PUSH1 0x40 MLOAD DUP1 SWAP2 SUB SWAP1 REVERT JUMPDEST PUSH0 PUSH1 0x1 PUSH0 DUP5 DUP2 MSTORE PUSH1 0x20 ADD SWAP1 DUP2 MSTORE PUSH1 0x20 ADD PUSH0 KECCAK256 PUSH1 0x2 ADD SLOAD GT PUSH2 0x64A JUMPI PUSH1 0x40 MLOAD PUSH32 0x8C379A000000000000000000000000000000000000000000000000000000000 DUP2 MSTORE PUSH1 0x4 ADD PUSH2 0x641 SWAP1 PUSH2 0x1832 JUMP JUMPDEST PUSH1 0x40 MLOAD DUP1 SWAP2 SUB SWAP1 REVERT JUMPDEST PUSH0 DUP2 GT PUSH2 0x68C JUMPI PUSH1 0x40 MLOAD PUSH32 0x8C379A000000000000000000000000000000000000000000000000000000000 DUP2 MSTORE PUSH1 0x4 ADD PUSH2 0x683 SWAP1 PUSH2 0x189A JUMP JUMPDEST PUSH1 0x40 MLOAD DUP1 SWAP2 SUB SWAP1 REVERT JUMPDEST DUP1 PUSH1 0x1 PUSH0 DUP5 DUP2 MSTORE PUSH1 0x20 ADD SWAP1 DUP2 MSTORE PUSH1 0x20 ADD PUSH0 KECCAK256 PUSH1 0x2 ADD DUP2 SWAP1 SSTORE POP POP POP JUMP JUMPDEST PUSH0 PUSH1 0x3 SLOAD SWAP1 POP SWAP1 JUMP JUMPDEST PUSH0 DUP1 SLOAD SWAP1 PUSH2 0x100 EXP SWAP1 DIV PUSH20 0xFFFFFFFFFFFFFFFFFFFFFFFFFFFFFFFFFFFFFFFF AND PUSH20 0xFFFFFFFFFFFFFFFFFFFFFFFFFFFFFFFFFFFFFFFF AND CALLER PUSH20 0xFFFFFFFFFFFFFFFFFFFFFFFFFFFFFFFFFFFFFFFF AND EQ PUSH2 0x73F JUMPI PUSH1 0x40 MLOAD PUSH32 0x8C379A000000000000000000000000000000000000000000000000000000000 DUP2 MSTORE PUSH1 0x4 ADD PUSH2 0x736 SWAP1 PUSH2 0x17CA JUMP JUMPDEST PUSH1 0x40 MLOAD DUP1 SWAP2 SUB SWAP1 REVERT JUMPDEST PUSH0 PUSH1 0x1 PUSH0 DUP4 DUP2 MSTORE PUSH1 0x20 ADD SWAP1 DUP2 MSTORE PUSH1 0x20 ADD PUSH0 KECCAK256 PUSH1 0x2 ADD SLOAD GT PUSH2 0x795 JUMPI PUSH1 0x40 MLOAD PUSH32 0x8C379A000000000000000000000000000000000000000000000000000000000 DUP2 MSTORE PUSH1 0x4 ADD PUSH2 0x78C SWAP1 PUSH2 0x1832 JUMP JUMPDEST PUSH1 0x40 MLOAD DUP1 SWAP2 SUB SWAP1 REVERT JUMPDEST PUSH0 JUMPDEST PUSH1 0x2 DUP1 SLOAD SWAP1 POP DUP2 LT ISZERO PUSH2 0x84C JUMPI DUP2 PUSH1 0x2 DUP3 DUP2 SLOAD DUP2 LT PUSH2 0x7B9 JUMPI PUSH2 0x7B8 PUSH2 0x18B8 JUMP JUMPDEST JUMPDEST SWAP1 PUSH0 MSTORE PUSH1 0x20 PUSH0 KECCAK256 ADD SLOAD SUB PUSH2 0x83F JUMPI PUSH1 0x2 PUSH1 0x1 PUSH1 0x2 DUP1 SLOAD SWAP1 POP PUSH2 0x7DB SWAP2 SWAP1 PUSH2 0x1912 JUMP JUMPDEST DUP2 SLOAD DUP2 LT PUSH2 0x7EC JUMPI PUSH2 0x7EB PUSH2 0x18B8 JUMP JUMPDEST JUMPDEST SWAP1 PUSH0 MSTORE PUSH1 0x20 PUSH0 KECCAK256 ADD SLOAD PUSH1 0x2 DUP3 DUP2 SLOAD DUP2 LT PUSH2 0x809 JUMPI PUSH2 0x808 PUSH2 0x18B8 JUMP JUMPDEST JUMPDEST SWAP1 PUSH0 MSTORE PUSH1 0x20 PUSH0 KECCAK256 ADD DUP2 SWAP1 SSTORE POP PUSH1 0x2 DUP1 SLOAD DUP1 PUSH2 0x827 JUMPI PUSH2 0x826 PUSH2 0x1945 JUMP JUMPDEST JUMPDEST PUSH1 0x1 SWAP1 SUB DUP2 DUP2 SWAP1 PUSH0 MSTORE PUSH1 0x20 PUSH0 KECCAK256 ADD PUSH0 SWAP1 SSTORE SWAP1 SSTORE PUSH2 0x84C JUMP JUMPDEST DUP1 DUP1 PUSH1 0x1 ADD SWAP2 POP POP PUSH2 0x797 JUMP JUMPDEST POP PUSH1 0x1 PUSH0 DUP3 DUP2 MSTORE PUSH1 0x20 ADD SWAP1 DUP2 MSTORE PUSH1 0x20 ADD PUSH0 KECCAK256 PUSH0 DUP1 DUP3 ADD PUSH0 PUSH2 0x86D SWAP2 SWAP1 PUSH2 0x11DB JUMP JUMPDEST PUSH1 0x1 DUP3 ADD PUSH0 PUSH2 0x87C SWAP2 SWAP1 PUSH2 0x11DB JUMP JUMPDEST PUSH1 0x2 DUP3 ADD PUSH0 SWAP1 SSTORE PUSH1 0x3 DUP3 ADD PUSH0 SWAP1 SSTORE PUSH1 0x4 DUP3 ADD PUSH0 PUSH2 0x100 EXP DUP2 SLOAD SWAP1 PUSH1 0xFF MUL NOT AND SWAP1 SSTORE PUSH1 0x5 DUP3 ADD PUSH0 SWAP1 SSTORE PUSH1 0x6 DUP3 ADD PUSH0 PUSH2 0x100 EXP DUP2 SLOAD SWAP1 PUSH1 0xFF MUL NOT AND SWAP1 SSTORE POP POP DUP1 PUSH32 0x3C5CE13264433BCF97E5D53C97AF4FC33800E8C9DD927F965B116D0018D7CDDF PUSH1 0x40 MLOAD PUSH1 0x40 MLOAD DUP1 SWAP2 SUB SWAP1 LOG2 POP JUMP JUMPDEST PUSH0 DUP1 PUSH1 0x1 PUSH0 DUP5 DUP2 MSTORE PUSH1 0x20 ADD SWAP1 DUP2 MSTORE PUSH1 0x20 ADD PUSH0 KECCAK256 PUSH1 0x2 ADD SLOAD GT PUSH2 0x940 JUMPI PUSH1 0x40 MLOAD PUSH32 0x8C379A000000000000000000000000000000000000000000000000000000000 DUP2 MSTORE PUSH1 0x4 ADD PUSH2 0x937 SWAP1 PUSH2 0x1832 JUMP JUMPDEST PUSH1 0x40 MLOAD DUP1 SWAP2 SUB SWAP1 REVERT JUMPDEST PUSH1 0x1 PUSH0 DUP4 DUP2 MSTORE PUSH1 0x20 ADD SWAP1 DUP2 MSTORE PUSH1 0x20 ADD PUSH0 KECCAK256 PUSH1 0x5 ADD SLOAD SWAP1 POP SWAP2 SWAP1 POP JUMP JUMPDEST PUSH1 0x60 DUP1 PUSH0 DUP1 PUSH0 DUP1 PUSH0 PUSH1 0x1 PUSH0 DUP10 DUP2 MSTORE PUSH1 0x20 ADD SWAP1 DUP2 MSTORE PUSH1 0x20 ADD PUSH0 KECCAK256 PUSH1 0x40 MLOAD DUP1 PUSH1 0xE0 ADD PUSH1 0x40 MSTORE SWAP1 DUP2 PUSH0 DUP3 ADD DUP1 SLOAD PUSH2 0x98F SWAP1 PUSH2 0x172A JUMP JUMPDEST DUP1 PUSH1 0x1F ADD PUSH1 0x20 DUP1 SWAP2 DIV MUL PUSH1 0x20 ADD PUSH1 0x40 MLOAD SWAP1 DUP2 ADD PUSH1 0x40 MSTORE DUP1 SWAP3 SWAP2 SWAP1 DUP2 DUP2 MSTORE PUSH1 0x20 ADD DUP3 DUP1 SLOAD PUSH2 0x9BB SWAP1 PUSH2 0x172A JUMP JUMPDEST DUP1 ISZERO PUSH2 0xA06 JUMPI DUP1 PUSH1 0x1F LT PUSH2 0x9DD JUMPI PUSH2 0x100 DUP1 DUP4 SLOAD DIV MUL DUP4 MSTORE SWAP2 PUSH1 0x20 ADD SWAP2 PUSH2 0xA06 JUMP JUMPDEST DUP3 ADD SWAP2 SWAP1 PUSH0 MSTORE PUSH1 0x20 PUSH0 KECCAK256 SWAP1 JUMPDEST DUP2 SLOAD DUP2 MSTORE SWAP1 PUSH1 0x1 ADD SWAP1 PUSH1 0x20 ADD DUP1 DUP4 GT PUSH2 0x9E9 JUMPI DUP3 SWAP1 SUB PUSH1 0x1F AND DUP3 ADD SWAP2 JUMPDEST POP POP POP POP POP DUP2 MSTORE PUSH1 0x20 ADD PUSH1 0x1 DUP3 ADD DUP1 SLOAD PUSH2 0xA1F SWAP1 PUSH2 0x172A JUMP JUMPDEST DUP1 PUSH1 0x1F ADD PUSH1 0x20 DUP1 SWAP2 DIV MUL PUSH1 0x20 ADD PUSH1 0x40 MLOAD SWAP1 DUP2 ADD PUSH1 0x40 MSTORE DUP1 SWAP3 SWAP2 SWAP1 DUP2 DUP2 MSTORE PUSH1 0x20 ADD DUP3 DUP1 SLOAD PUSH2 0xA4B SWAP1 PUSH2 0x172A JUMP JUMPDEST DUP1 ISZERO PUSH2 0xA96 JUMPI DUP1 PUSH1 0x1F LT PUSH2 0xA6D JUMPI PUSH2 0x100 DUP1 DUP4 SLOAD DIV MUL DUP4 MSTORE SWAP2 PUSH1 0x20 ADD SWAP2 PUSH2 0xA96 JUMP JUMPDEST DUP3 ADD SWAP2 SWAP1 PUSH0 MSTORE PUSH1 0x20 PUSH0 KECCAK256 SWAP1 JUMPDEST DUP2 SLOAD DUP2 MSTORE SWAP1 PUSH1 0x1 ADD SWAP1 PUSH1 0x20 ADD DUP1 DUP4 GT PUSH2 0xA79 JUMPI DUP3 SWAP1 SUB PUSH1 0x1F AND DUP3 ADD SWAP2 JUMPDEST POP POP POP POP POP DUP2 MSTORE PUSH1 0x20 ADD PUSH1 0x2 DUP3 ADD SLOAD DUP2 MSTORE PUSH1 0x20 ADD PUSH1 0x3 DUP3 ADD SLOAD DUP2 MSTORE PUSH1 0x20 ADD PUSH1 0x4 DUP3 ADD PUSH0 SWAP1 SLOAD SWAP1 PUSH2 0x100 EXP SWAP1 DIV PUSH1 0xFF AND ISZERO ISZERO ISZERO ISZERO DUP2 MSTORE PUSH1 0x20 ADD PUSH1 0x5 DUP3 ADD SLOAD DUP2 MSTORE PUSH1 0x20 ADD PUSH1 0x6 DUP3 ADD PUSH0 SWAP1 SLOAD SWAP1 PUSH2 0x100 EXP SWAP1 DIV PUSH1 0xFF AND ISZERO ISZERO ISZERO ISZERO DUP2 MSTORE POP POP SWAP1 POP DUP1 PUSH0 ADD MLOAD DUP2 PUSH1 0x20 ADD MLOAD DUP3 PUSH1 0x40 ADD MLOAD DUP4 PUSH1 0x60 ADD MLOAD DUP5 PUSH1 0x80 ADD MLOAD DUP6 PUSH1 0xA0 ADD MLOAD SWAP7 POP SWAP7 POP SWAP7 POP SWAP7 POP SWAP7 POP SWAP7 POP POP SWAP2 SWAP4 SWAP6 POP SWAP2 SWAP4 SWAP6 JUMP JUMPDEST PUSH0 PUSH1 0x1 PUSH0 DUP6 DUP2 MSTORE PUSH1 0x20 ADD SWAP1 DUP2 MSTORE PUSH1 0x20 ADD PUSH0 KECCAK256 SWAP1 POP PUSH1 0x1 PUSH0 DUP6 DUP2 MSTORE PUSH1 0x20 ADD SWAP1 DUP2 MSTORE PUSH1 0x20 ADD PUSH0 KECCAK256 PUSH1 0x6 ADD PUSH0 SWAP1 SLOAD SWAP1 PUSH2 0x100 EXP SWAP1 DIV PUSH1 0xFF AND ISZERO PUSH2 0xB9B JUMPI PUSH1 0x40 MLOAD PUSH32 0x8C379A000000000000000000000000000000000000000000000000000000000 DUP2 MSTORE PUSH1 0x4 ADD PUSH2 0xB92 SWAP1 PUSH2 0x19BC JUMP JUMPDEST PUSH1 0x40 MLOAD DUP1 SWAP2 SUB SWAP1 REVERT JUMPDEST PUSH0 PUSH1 0x1 PUSH0 DUP7 DUP2 MSTORE PUSH1 0x20 ADD SWAP1 DUP2 MSTORE PUSH1 0x20 ADD PUSH0 KECCAK256 PUSH1 0x2 ADD SLOAD GT PUSH2 0xBF1 JUMPI PUSH1 0x40 MLOAD PUSH32 0x8C379A000000000000000000000000000000000000000000000000000000000 DUP2 MSTORE PUSH1 0x4 ADD PUSH2 0xBE8 SWAP1 PUSH2 0x1832 JUMP JUMPDEST PUSH1 0x40 MLOAD DUP1 SWAP2 SUB SWAP1 REVERT JUMPDEST PUSH1 0x1 PUSH0 DUP6 DUP2 MSTORE PUSH1 0x20 ADD SWAP1 DUP2 MSTORE PUSH1 0x20 ADD PUSH0 KECCAK256 PUSH1 0x4 ADD PUSH0 SWAP1 SLOAD SWAP1 PUSH2 0x100 EXP SWAP1 DIV PUSH1 0xFF AND PUSH2 0xC51 JUMPI PUSH1 0x40 MLOAD PUSH32 0x8C379A000000000000000000000000000000000000000000000000000000000 DUP2 MSTORE PUSH1 0x4 ADD PUSH2 0xC48 SWAP1 PUSH2 0x1A24 JUMP JUMPDEST PUSH1 0x40 MLOAD DUP1 SWAP2 SUB SWAP1 REVERT JUMPDEST DUP3 PUSH1 0x1 PUSH0 DUP7 DUP2 MSTORE PUSH1 0x20 ADD SWAP1 DUP2 MSTORE PUSH1 0x20 ADD PUSH0 KECCAK256 PUSH1 0x3 ADD SLOAD LT ISZERO PUSH2 0xCA8 JUMPI PUSH1 0x40 MLOAD PUSH32 0x8C379A000000000000000000000000000000000000000000000000000000000 DUP2 MSTORE PUSH1 0x4 ADD PUSH2 0xC9F SWAP1 PUSH2 0x1A8C JUMP JUMPDEST PUSH1 0x40 MLOAD DUP1 SWAP2 SUB SWAP1 REVERT JUMPDEST PUSH0 DUP4 GT PUSH2 0xCEA JUMPI PUSH1 0x40 MLOAD PUSH32 0x8C379A000000000000000000000000000000000000000000000000000000000 DUP2 MSTORE PUSH1 0x4 ADD PUSH2 0xCE1 SWAP1 PUSH2 0x1B1A JUMP JUMPDEST PUSH1 0x40 MLOAD DUP1 SWAP2 SUB SWAP1 REVERT JUMPDEST DUP3 DUP2 PUSH1 0x2 ADD SLOAD PUSH2 0xCFA SWAP2 SWAP1 PUSH2 0x1B38 JUMP JUMPDEST DUP3 EQ PUSH2 0xD3B JUMPI PUSH1 0x40 MLOAD PUSH32 0x8C379A000000000000000000000000000000000000000000000000000000000 DUP2 MSTORE PUSH1 0x4 ADD PUSH2 0xD32 SWAP1 PUSH2 0x1BC3 JUMP JUMPDEST PUSH1 0x40 MLOAD DUP1 SWAP2 SUB SWAP1 REVERT JUMPDEST DUP3 PUSH1 0x1 PUSH0 DUP7 DUP2 MSTORE PUSH1 0x20 ADD SWAP1 DUP2 MSTORE PUSH1 0x20 ADD PUSH0 KECCAK256 PUSH1 0x3 ADD PUSH0 DUP3 DUP3 SLOAD PUSH2 0xD5E SWAP2 SWAP1 PUSH2 0x1912 JUMP JUMPDEST SWAP3 POP POP DUP2 SWAP1 SSTORE POP PUSH0 DUP2 PUSH1 0x3 ADD SLOAD GT PUSH1 0x1 PUSH0 DUP7 DUP2 MSTORE PUSH1 0x20 ADD SWAP1 DUP2 MSTORE PUSH1 0x20 ADD PUSH0 KECCAK256 PUSH1 0x4 ADD PUSH0 PUSH2 0x100 EXP DUP2 SLOAD DUP2 PUSH1 0xFF MUL NOT AND SWAP1 DUP4 ISZERO ISZERO MUL OR SWAP1 SSTORE POP DUP3 PUSH1 0x1 PUSH0 DUP7 DUP2 MSTORE PUSH1 0x20 ADD SWAP1 DUP2 MSTORE PUSH1 0x20 ADD PUSH0 KECCAK256 PUSH1 0x5 ADD PUSH0 DUP3 DUP3 SLOAD PUSH2 0xDB9 SWAP2 SWAP1 PUSH2 0x1BE1 JUMP JUMPDEST SWAP3 POP POP DUP2 SWAP1 SSTORE POP DUP3 PUSH1 0x3 PUSH0 DUP3 DUP3 SLOAD PUSH2 0xDD1 SWAP2 SWAP1 PUSH2 0x1BE1 JUMP JUMPDEST SWAP3 POP POP DUP2 SWAP1 SSTORE POP PUSH0 DUP1 SLOAD SWAP1 PUSH2 0x100 EXP SWAP1 DIV PUSH20 0xFFFFFFFFFFFFFFFFFFFFFFFFFFFFFFFFFFFFFFFF AND PUSH20 0xFFFFFFFFFFFFFFFFFFFFFFFFFFFFFFFFFFFFFFFF AND PUSH2 0x8FC CALLVALUE SWAP1 DUP2 ISZERO MUL SWAP1 PUSH1 0x40 MLOAD PUSH0 PUSH1 0x40 MLOAD DUP1 DUP4 SUB DUP2 DUP6 DUP9 DUP9 CALL SWAP4 POP POP POP POP ISZERO DUP1 ISZERO PUSH2 0xE3A JUMPI RETURNDATASIZE PUSH0 DUP1 RETURNDATACOPY RETURNDATASIZE PUSH0 REVERT JUMPDEST POP CALLER PUSH20 0xFFFFFFFFFFFFFFFFFFFFFFFFFFFFFFFFFFFFFFFF AND DUP5 PUSH32 0x439C08B00222293C6073F3EE383214541A4A21ACA7DBB0A45963F86FA8E589F7 DUP6 PUSH1 0x40 MLOAD PUSH2 0xE82 SWAP2 SWAP1 PUSH2 0x124B JUMP JUMPDEST PUSH1 0x40 MLOAD DUP1 SWAP2 SUB SWAP1 LOG3 POP POP POP POP JUMP JUMPDEST PUSH0 DUP1 SLOAD SWAP1 PUSH2 0x100 EXP SWAP1 DIV PUSH20 0xFFFFFFFFFFFFFFFFFFFFFFFFFFFFFFFFFFFFFFFF AND PUSH20 0xFFFFFFFFFFFFFFFFFFFFFFFFFFFFFFFFFFFFFFFF AND CALLER PUSH20 0xFFFFFFFFFFFFFFFFFFFFFFFFFFFFFFFFFFFFFFFF AND EQ PUSH2 0xF1D JUMPI PUSH1 0x40 MLOAD PUSH32 0x8C379A000000000000000000000000000000000000000000000000000000000 DUP2 MSTORE PUSH1 0x4 ADD PUSH2 0xF14 SWAP1 PUSH2 0x17CA JUMP JUMPDEST PUSH1 0x40 MLOAD DUP1 SWAP2 SUB SWAP1 REVERT JUMPDEST PUSH1 0x1 PUSH0 DUP7 DUP2 MSTORE PUSH1 0x20 ADD SWAP1 DUP2 MSTORE PUSH1 0x20 ADD PUSH0 KECCAK256 PUSH1 0x6 ADD PUSH0 SWAP1 SLOAD SWAP1 PUSH2 0x100 EXP SWAP1 DIV PUSH1 0xFF AND ISZERO PUSH2 0xF7E JUMPI PUSH1 0x40 MLOAD PUSH32 0x8C379A000000000000000000000000000000000000000000000000000000000 DUP2 MSTORE PUSH1 0x4 ADD PUSH2 0xF75 SWAP1 PUSH2 0x19BC JUMP JUMPDEST PUSH1 0x40 MLOAD DUP1 SWAP2 SUB SWAP1 REVERT JUMPDEST PUSH0 PUSH1 0x1 PUSH0 DUP8 DUP2 MSTORE PUSH1 0x20 ADD SWAP1 DUP2 MSTORE PUSH1 0x20 ADD PUSH0 KECCAK256 PUSH1 0x2 ADD SLOAD EQ PUSH2 0xFD4 JUMPI PUSH1 0x40 MLOAD PUSH32 0x8C379A000000000000000000000000000000000000000000000000000000000 DUP2 MSTORE PUSH1 0x4 ADD PUSH2 0xFCB SWAP1 PUSH2 0x1C84 JUMP JUMPDEST PUSH1 0x40 MLOAD DUP1 SWAP2 SUB SWAP1 REVERT JUMPDEST PUSH0 DUP3 GT PUSH2 0x1016 JUMPI PUSH1 0x40 MLOAD PUSH32 0x8C379A000000000000000000000000000000000000000000000000000000000 DUP2 MSTORE PUSH1 0x4 ADD PUSH2 0x100D SWAP1 PUSH2 0x189A JUMP JUMPDEST PUSH1 0x40 MLOAD DUP1 SWAP2 SUB SWAP1 REVERT JUMPDEST PUSH0 DUP5 MLOAD GT PUSH2 0x1059 JUMPI PUSH1 0x40 MLOAD PUSH32 0x8C379A000000000000000000000000000000000000000000000000000000000 DUP2 MSTORE PUSH1 0x4 ADD PUSH2 0x1050 SWAP1 PUSH2 0x1CEC JUMP JUMPDEST PUSH1 0x40 MLOAD DUP1 SWAP2 SUB SWAP1 REVERT JUMPDEST PUSH0 DUP4 MLOAD GT PUSH2 0x109C JUMPI PUSH1 0x40 MLOAD PUSH32 0x8C379A000000000000000000000000000000000000000000000000000000000 DUP2 MSTORE PUSH1 0x4 ADD PUSH2 0x1093 SWAP1 PUSH2 0x1D54 JUMP JUMPDEST PUSH1 0x40 MLOAD DUP1 SWAP2 SUB SWAP1 REVERT JUMPDEST PUSH1 0x40 MLOAD DUP1 PUSH1 0xE0 ADD PUSH1 0x40 MSTORE DUP1 DUP6 DUP2 MSTORE PUSH1 0x20 ADD DUP5 DUP2 MSTORE PUSH1 0x20 ADD DUP4 DUP2 MSTORE PUSH1 0x20 ADD DUP3 DUP2 MSTORE PUSH1 0x20 ADD PUSH0 DUP4 GT ISZERO ISZERO DUP2 MSTORE PUSH1 0x20 ADD PUSH0 DUP2 MSTORE PUSH1 0x20 ADD PUSH1 0x1 ISZERO ISZERO DUP2 MSTORE POP PUSH1 0x1 PUSH0 DUP8 DUP2 MSTORE PUSH1 0x20 ADD SWAP1 DUP2 MSTORE PUSH1 0x20 ADD PUSH0 KECCAK256 PUSH0 DUP3 ADD MLOAD DUP2 PUSH0 ADD SWAP1 DUP2 PUSH2 0x10FA SWAP2 SWAP1 PUSH2 0x1F0F JUMP JUMPDEST POP PUSH1 0x20 DUP3 ADD MLOAD DUP2 PUSH1 0x1 ADD SWAP1 DUP2 PUSH2 0x1110 SWAP2 SWAP1 PUSH2 0x1F0F JUMP JUMPDEST POP PUSH1 0x40 DUP3 ADD MLOAD DUP2 PUSH1 0x2 ADD SSTORE PUSH1 0x60 DUP3 ADD MLOAD DUP2 PUSH1 0x3 ADD SSTORE PUSH1 0x80 DUP3 ADD MLOAD DUP2 PUSH1 0x4 ADD PUSH0 PUSH2 0x100 EXP DUP2 SLOAD DUP2 PUSH1 0xFF MUL NOT AND SWAP1 DUP4 ISZERO ISZERO MUL OR SWAP1 SSTORE POP PUSH1 0xA0 DUP3 ADD MLOAD DUP2 PUSH1 0x5 ADD SSTORE PUSH1 0xC0 DUP3 ADD MLOAD DUP2 PUSH1 0x6 ADD PUSH0 PUSH2 0x100 EXP DUP2 SLOAD DUP2 PUSH1 0xFF MUL NOT AND SWAP1 DUP4 ISZERO ISZERO MUL OR SWAP1 SSTORE POP SWAP1 POP POP PUSH1 0x2 DUP6 SWAP1 DUP1 PUSH1 0x1 DUP2 SLOAD ADD DUP1 DUP3 SSTORE DUP1 SWAP2 POP POP PUSH1 0x1 SWAP1 SUB SWAP1 PUSH0 MSTORE PUSH1 0x20 PUSH0 KECCAK256 ADD PUSH0 SWAP1 SWAP2 SWAP1 SWAP2 SWAP1 SWAP2 POP SSTORE DUP5 PUSH32 0x722C04650224F771C04EC5712C74689980B3DDB4EAA233CD8F9C72D7DA7FBE29 DUP6 DUP6 DUP6 DUP6 PUSH1 0x40 MLOAD PUSH2 0x11CC SWAP5 SWAP4 SWAP3 SWAP2 SWAP1 PUSH2 0x1FDE JUMP JUMPDEST PUSH1 0x40 MLOAD DUP1 SWAP2 SUB SWAP1 LOG2 POP POP POP POP POP JUMP JUMPDEST POP DUP1 SLOAD PUSH2 0x11E7 SWAP1 PUSH2 0x172A JUMP JUMPDEST PUSH0 DUP3 SSTORE DUP1 PUSH1 0x1F LT PUSH2 0x11F8 JUMPI POP PUSH2 0x1215 JUMP JUMPDEST PUSH1 0x1F ADD PUSH1 0x20 SWAP1 DIV SWAP1 PUSH0 MSTORE PUSH1 0x20 PUSH0 KECCAK256 SWAP1 DUP2 ADD SWAP1 PUSH2 0x1214 SWAP2 SWAP1 PUSH2 0x1218 JUMP JUMPDEST JUMPDEST POP JUMP JUMPDEST JUMPDEST DUP1 DUP3 GT ISZERO PUSH2 0x122F JUMPI PUSH0 DUP2 PUSH0 SWAP1 SSTORE POP PUSH1 0x1 ADD PUSH2 0x1219 JUMP JUMPDEST POP SWAP1 JUMP JUMPDEST PUSH0 DUP2 SWAP1 POP SWAP2 SWAP1 POP JUMP JUMPDEST PUSH2 0x1245 DUP2 PUSH2 0x1233 JUMP JUMPDEST DUP3 MSTORE POP POP JUMP JUMPDEST PUSH0 PUSH1 0x20 DUP3 ADD SWAP1 POP PUSH2 0x125E PUSH0 DUP4 ADD DUP5 PUSH2 0x123C JUMP JUMPDEST SWAP3 SWAP2 POP POP JUMP JUMPDEST PUSH0 PUSH1 0x40 MLOAD SWAP1 POP SWAP1 JUMP JUMPDEST PUSH0 DUP1 REVERT JUMPDEST PUSH0 DUP1 REVERT JUMPDEST PUSH2 0x127E DUP2 PUSH2 0x1233 JUMP JUMPDEST DUP2 EQ PUSH2 0x1288 JUMPI PUSH0 DUP1 REVERT JUMPDEST POP JUMP JUMPDEST PUSH0 DUP2 CALLDATALOAD SWAP1 POP PUSH2 0x1299 DUP2 PUSH2 0x1275 JUMP JUMPDEST SWAP3 SWAP2 POP POP JUMP JUMPDEST PUSH0 PUSH1 0x20 DUP3 DUP5 SUB SLT ISZERO PUSH2 0x12B4 JUMPI PUSH2 0x12B3 PUSH2 0x126D JUMP JUMPDEST JUMPDEST PUSH0 PUSH2 0x12C1 DUP5 DUP3 DUP6 ADD PUSH2 0x128B JUMP JUMPDEST SWAP2 POP POP SWAP3 SWAP2 POP POP JUMP JUMPDEST PUSH0 DUP2 MLOAD SWAP1 POP SWAP2 SWAP1 POP JUMP JUMPDEST PUSH0 DUP3 DUP3 MSTORE PUSH1 0x20 DUP3 ADD SWAP1 POP SWAP3 SWAP2 POP POP JUMP JUMPDEST DUP3 DUP2 DUP4 MCOPY PUSH0 DUP4 DUP4 ADD MSTORE POP POP POP JUMP JUMPDEST PUSH0 PUSH1 0x1F NOT PUSH1 0x1F DUP4 ADD AND SWAP1 POP SWAP2 SWAP1 POP JUMP JUMPDEST PUSH0 PUSH2 0x130C DUP3 PUSH2 0x12CA JUMP JUMPDEST PUSH2 0x1316 DUP2 DUP6 PUSH2 0x12D4 JUMP JUMPDEST SWAP4 POP PUSH2 0x1326 DUP2 DUP6 PUSH1 0x20 DUP7 ADD PUSH2 0x12E4 JUMP JUMPDEST PUSH2 0x132F DUP2 PUSH2 0x12F2 JUMP JUMPDEST DUP5 ADD SWAP2 POP POP SWAP3 SWAP2 POP POP JUMP JUMPDEST PUSH0 DUP2 ISZERO ISZERO SWAP1 POP SWAP2 SWAP1 POP JUMP JUMPDEST PUSH2 0x134E DUP2 PUSH2 0x133A JUMP JUMPDEST DUP3 MSTORE POP POP JUMP JUMPDEST PUSH0 PUSH1 0xE0 DUP3 ADD SWAP1 POP DUP2 DUP2 SUB PUSH0 DUP4 ADD MSTORE PUSH2 0x136C DUP2 DUP11 PUSH2 0x1302 JUMP JUMPDEST SWAP1 POP DUP2 DUP2 SUB PUSH1 0x20 DUP4 ADD MSTORE PUSH2 0x1380 DUP2 DUP10 PUSH2 0x1302 JUMP JUMPDEST SWAP1 POP PUSH2 0x138F PUSH1 0x40 DUP4 ADD DUP9 PUSH2 0x123C JUMP JUMPDEST PUSH2 0x139C PUSH1 0x60 DUP4 ADD DUP8 PUSH2 0x123C JUMP JUMPDEST PUSH2 0x13A9 PUSH1 0x80 DUP4 ADD DUP7 PUSH2 0x1345 JUMP JUMPDEST PUSH2 0x13B6 PUSH1 0xA0 DUP4 ADD DUP6 PUSH2 0x123C JUMP JUMPDEST PUSH2 0x13C3 PUSH1 0xC0 DUP4 ADD DUP5 PUSH2 0x1345 JUMP JUMPDEST SWAP9 SWAP8 POP POP POP POP POP POP POP POP JUMP JUMPDEST PUSH0 PUSH20 0xFFFFFFFFFFFFFFFFFFFFFFFFFFFFFFFFFFFFFFFF DUP3 AND SWAP1 POP SWAP2 SWAP1 POP JUMP JUMPDEST PUSH0 PUSH2 0x13F8 DUP3 PUSH2 0x13CF JUMP JUMPDEST SWAP1 POP SWAP2 SWAP1 POP JUMP JUMPDEST PUSH2 0x1408 DUP2 PUSH2 0x13EE JUMP JUMPDEST DUP3 MSTORE POP POP JUMP JUMPDEST PUSH0 PUSH1 0x20 DUP3 ADD SWAP1 POP PUSH2 0x1421 PUSH0 DUP4 ADD DUP5 PUSH2 0x13FF JUMP JUMPDEST SWAP3 SWAP2 POP POP JUMP JUMPDEST PUSH0 DUP1 PUSH1 0x40 DUP4 DUP6 SUB SLT ISZERO PUSH2 0x143D JUMPI PUSH2 0x143C PUSH2 0x126D JUMP JUMPDEST JUMPDEST PUSH0 PUSH2 0x144A DUP6 DUP3 DUP7 ADD PUSH2 0x128B JUMP JUMPDEST SWAP3 POP POP PUSH1 0x20 PUSH2 0x145B DUP6 DUP3 DUP7 ADD PUSH2 0x128B JUMP JUMPDEST SWAP2 POP POP SWAP3 POP SWAP3 SWAP1 POP JUMP JUMPDEST PUSH0 PUSH1 0xC0 DUP3 ADD SWAP1 POP DUP2 DUP2 SUB PUSH0 DUP4 ADD MSTORE PUSH2 0x147D DUP2 DUP10 PUSH2 0x1302 JUMP JUMPDEST SWAP1 POP DUP2 DUP2 SUB PUSH1 0x20 DUP4 ADD MSTORE PUSH2 0x1491 DUP2 DUP9 PUSH2 0x1302 JUMP JUMPDEST SWAP1 POP PUSH2 0x14A0 PUSH1 0x40 DUP4 ADD DUP8 PUSH2 0x123C JUMP JUMPDEST PUSH2 0x14AD PUSH1 0x60 DUP4 ADD DUP7 PUSH2 0x123C JUMP JUMPDEST PUSH2 0x14BA PUSH1 0x80 DUP4 ADD DUP6 PUSH2 0x1345 JUMP JUMPDEST PUSH2 0x14C7 PUSH1 0xA0 DUP4 ADD DUP5 PUSH2 0x123C JUMP JUMPDEST SWAP8 SWAP7 POP POP POP POP POP POP POP JUMP JUMPDEST PUSH0 DUP1 PUSH0 PUSH1 0x60 DUP5 DUP7 SUB SLT ISZERO PUSH2 0x14E9 JUMPI PUSH2 0x14E8 PUSH2 0x126D JUMP JUMPDEST JUMPDEST PUSH0 PUSH2 0x14F6 DUP7 DUP3 DUP8 ADD PUSH2 0x128B JUMP JUMPDEST SWAP4 POP POP PUSH1 0x20 PUSH2 0x1507 DUP7 DUP3 DUP8 ADD PUSH2 0x128B JUMP JUMPDEST SWAP3 POP POP PUSH1 0x40 PUSH2 0x1518 DUP7 DUP3 DUP8 ADD PUSH2 0x128B JUMP JUMPDEST SWAP2 POP POP SWAP3 POP SWAP3 POP SWAP3 JUMP JUMPDEST PUSH0 DUP1 REVERT JUMPDEST PUSH0 DUP1 REVERT JUMPDEST PUSH32 0x4E487B7100000000000000000000000000000000000000000000000000000000 PUSH0 MSTORE PUSH1 0x41 PUSH1 0x4 MSTORE PUSH1 0x24 PUSH0 REVERT JUMPDEST PUSH2 0x1560 DUP3 PUSH2 0x12F2 JUMP JUMPDEST DUP2 ADD DUP2 DUP2 LT PUSH8 0xFFFFFFFFFFFFFFFF DUP3 GT OR ISZERO PUSH2 0x157F JUMPI PUSH2 0x157E PUSH2 0x152A JUMP JUMPDEST JUMPDEST DUP1 PUSH1 0x40 MSTORE POP POP POP JUMP JUMPDEST PUSH0 PUSH2 0x1591 PUSH2 0x1264 JUMP JUMPDEST SWAP1 POP PUSH2 0x159D DUP3 DUP3 PUSH2 0x1557 JUMP JUMPDEST SWAP2 SWAP1 POP JUMP JUMPDEST PUSH0 PUSH8 0xFFFFFFFFFFFFFFFF DUP3 GT ISZERO PUSH2 0x15BC JUMPI PUSH2 0x15BB PUSH2 0x152A JUMP JUMPDEST JUMPDEST PUSH2 0x15C5 DUP3 PUSH2 0x12F2 JUMP JUMPDEST SWAP1 POP PUSH1 0x20 DUP2 ADD SWAP1 POP SWAP2 SWAP1 POP JUMP JUMPDEST DUP3 DUP2 DUP4 CALLDATACOPY PUSH0 DUP4 DUP4 ADD MSTORE POP POP POP JUMP JUMPDEST PUSH0 PUSH2 0x15F2 PUSH2 0x15ED DUP5 PUSH2 0x15A2 JUMP JUMPDEST PUSH2 0x1588 JUMP JUMPDEST SWAP1 POP DUP3 DUP2 MSTORE PUSH1 0x20 DUP2 ADD DUP5 DUP5 DUP5 ADD GT ISZERO PUSH2 0x160E JUMPI PUSH2 0x160D PUSH2 0x1526 JUMP JUMPDEST JUMPDEST PUSH2 0x1619 DUP5 DUP3 DUP6 PUSH2 0x15D2 JUMP JUMPDEST POP SWAP4 SWAP3 POP POP POP JUMP JUMPDEST PUSH0 DUP3 PUSH1 0x1F DUP4 ADD SLT PUSH2 0x1635 JUMPI PUSH2 0x1634 PUSH2 0x1522 JUMP JUMPDEST JUMPDEST DUP2 CALLDATALOAD PUSH2 0x1645 DUP5 DUP3 PUSH1 0x20 DUP7 ADD PUSH2 0x15E0 JUMP JUMPDEST SWAP2 POP POP SWAP3 SWAP2 POP POP JUMP JUMPDEST PUSH0 DUP1 PUSH0 DUP1 PUSH0 PUSH1 0xA0 DUP7 DUP9 SUB SLT ISZERO PUSH2 0x1667 JUMPI PUSH2 0x1666 PUSH2 0x126D JUMP JUMPDEST JUMPDEST PUSH0 PUSH2 0x1674 DUP9 DUP3 DUP10 ADD PUSH2 0x128B JUMP JUMPDEST SWAP6 POP POP PUSH1 0x20 DUP7 ADD CALLDATALOAD PUSH8 0xFFFFFFFFFFFFFFFF DUP2 GT ISZERO PUSH2 0x1695 JUMPI PUSH2 0x1694 PUSH2 0x1271 JUMP JUMPDEST JUMPDEST PUSH2 0x16A1 DUP9 DUP3 DUP10 ADD PUSH2 0x1621 JUMP JUMPDEST SWAP5 POP POP PUSH1 0x40 DUP7 ADD CALLDATALOAD PUSH8 0xFFFFFFFFFFFFFFFF DUP2 GT ISZERO PUSH2 0x16C2 JUMPI PUSH2 0x16C1 PUSH2 0x1271 JUMP JUMPDEST JUMPDEST PUSH2 0x16CE DUP9 DUP3 DUP10 ADD PUSH2 0x1621 JUMP JUMPDEST SWAP4 POP POP PUSH1 0x60 PUSH2 0x16DF DUP9 DUP3 DUP10 ADD PUSH2 0x128B JUMP JUMPDEST SWAP3 POP POP PUSH1 0x80 PUSH2 0x16F0 DUP9 DUP3 DUP10 ADD PUSH2 0x128B JUMP JUMPDEST SWAP2 POP POP SWAP3 SWAP6 POP SWAP3 SWAP6 SWAP1 SWAP4 POP JUMP JUMPDEST PUSH32 0x4E487B7100000000000000000000000000000000000000000000000000000000 PUSH0 MSTORE PUSH1 0x22 PUSH1 0x4 MSTORE PUSH1 0x24 PUSH0 REVERT JUMPDEST PUSH0 PUSH1 0x2 DUP3 DIV SWAP1 POP PUSH1 0x1 DUP3 AND DUP1 PUSH2 0x1741 JUMPI PUSH1 0x7F DUP3 AND SWAP2 POP JUMPDEST PUSH1 0x20 DUP3 LT DUP2 SUB PUSH2 0x1754 JUMPI PUSH2 0x1753 PUSH2 0x16FD JUMP JUMPDEST JUMPDEST POP SWAP2 SWAP1 POP JUMP JUMPDEST PUSH32 0x4F6E6C79206F776E65722063616E20706572666F726D20746869732061637469 PUSH0 DUP3 ADD MSTORE PUSH32 0x6F6E000000000000000000000000000000000000000000000000000000000000 PUSH1 0x20 DUP3 ADD MSTORE POP JUMP JUMPDEST PUSH0 PUSH2 0x17B4 PUSH1 0x22 DUP4 PUSH2 0x12D4 JUMP JUMPDEST SWAP2 POP PUSH2 0x17BF DUP3 PUSH2 0x175A JUMP JUMPDEST PUSH1 0x40 DUP3 ADD SWAP1 POP SWAP2 SWAP1 POP JUMP JUMPDEST PUSH0 PUSH1 0x20 DUP3 ADD SWAP1 POP DUP2 DUP2 SUB PUSH0 DUP4 ADD MSTORE PUSH2 0x17E1 DUP2 PUSH2 0x17A8 JUMP JUMPDEST SWAP1 POP SWAP2 SWAP1 POP JUMP JUMPDEST PUSH32 0x426F6F6B20646F6573206E6F7420657869737400000000000000000000000000 PUSH0 DUP3 ADD MSTORE POP JUMP JUMPDEST PUSH0 PUSH2 0x181C PUSH1 0x13 DUP4 PUSH2 0x12D4 JUMP JUMPDEST SWAP2 POP PUSH2 0x1827 DUP3 PUSH2 0x17E8 JUMP JUMPDEST PUSH1 0x20 DUP3 ADD SWAP1 POP SWAP2 SWAP1 POP JUMP JUMPDEST PUSH0 PUSH1 0x20 DUP3 ADD SWAP1 POP DUP2 DUP2 SUB PUSH0 DUP4 ADD MSTORE PUSH2 0x1849 DUP2 PUSH2 0x1810 JUMP JUMPDEST SWAP1 POP SWAP2 SWAP1 POP JUMP JUMPDEST PUSH32 0x5072696365206D7573742062652067726561746572207468616E203000000000 PUSH0 DUP3 ADD MSTORE POP JUMP JUMPDEST PUSH0 PUSH2 0x1884 PUSH1 0x1C DUP4 PUSH2 0x12D4 JUMP JUMPDEST SWAP2 POP PUSH2 0x188F DUP3 PUSH2 0x1850 JUMP JUMPDEST PUSH1 0x20 DUP3 ADD SWAP1 POP SWAP2 SWAP1 POP JUMP JUMPDEST PUSH0 PUSH1 0x20 DUP3 ADD SWAP1 POP DUP2 DUP2 SUB PUSH0 DUP4 ADD MSTORE PUSH2 0x18B1 DUP2 PUSH2 0x1878 JUMP JUMPDEST SWAP1 POP SWAP2 SWAP1 POP JUMP JUMPDEST PUSH32 0x4E487B7100000000000000000000000000000000000000000000000000000000 PUSH0 MSTORE PUSH1 0x32 PUSH1 0x4 MSTORE PUSH1 0x24 PUSH0 REVERT JUMPDEST PUSH32 0x4E487B7100000000000000000000000000000000000000000000000000000000 PUSH0 MSTORE PUSH1 0x11 PUSH1 0x4 MSTORE PUSH1 0x24 PUSH0 REVERT JUMPDEST PUSH0 PUSH2 0x191C DUP3 PUSH2 0x1233 JUMP JUMPDEST SWAP2 POP PUSH2 0x1927 DUP4 PUSH2 0x1233 JUMP JUMPDEST SWAP3 POP DUP3 DUP3 SUB SWAP1 POP DUP2 DUP2 GT ISZERO PUSH2 0x193F JUMPI PUSH2 0x193E PUSH2 0x18E5 JUMP JUMPDEST JUMPDEST SWAP3 SWAP2 POP POP JUMP JUMPDEST PUSH32 0x4E487B7100000000000000000000000000000000000000000000000000000000 PUSH0 MSTORE PUSH1 0x31 PUSH1 0x4 MSTORE PUSH1 0x24 PUSH0 REVERT JUMPDEST PUSH32 0x74686520626F6F6B20646F6573206E6F74206578697374000000000000000000 PUSH0 DUP3 ADD MSTORE POP JUMP JUMPDEST PUSH0 PUSH2 0x19A6 PUSH1 0x17 DUP4 PUSH2 0x12D4 JUMP JUMPDEST SWAP2 POP PUSH2 0x19B1 DUP3 PUSH2 0x1972 JUMP JUMPDEST PUSH1 0x20 DUP3 ADD SWAP1 POP SWAP2 SWAP1 POP JUMP JUMPDEST PUSH0 PUSH1 0x20 DUP3 ADD SWAP1 POP DUP2 DUP2 SUB PUSH0 DUP4 ADD MSTORE PUSH2 0x19D3 DUP2 PUSH2 0x199A JUMP JUMPDEST SWAP1 POP SWAP2 SWAP1 POP JUMP JUMPDEST PUSH32 0x5468697320626F6F6B206973206E6F7420617661696C61626C65000000000000 PUSH0 DUP3 ADD MSTORE POP JUMP JUMPDEST PUSH0 PUSH2 0x1A0E PUSH1 0x1A DUP4 PUSH2 0x12D4 JUMP JUMPDEST SWAP2 POP PUSH2 0x1A19 DUP3 PUSH2 0x19DA JUMP JUMPDEST PUSH1 0x20 DUP3 ADD SWAP1 POP SWAP2 SWAP1 POP JUMP JUMPDEST PUSH0 PUSH1 0x20 DUP3 ADD SWAP1 POP DUP2 DUP2 SUB PUSH0 DUP4 ADD MSTORE PUSH2 0x1A3B DUP2 PUSH2 0x1A02 JUMP JUMPDEST SWAP1 POP SWAP2 SWAP1 POP JUMP JUMPDEST PUSH32 0x4E6F7420656E6F7567682073746F636B20617661696C61626C65000000000000 PUSH0 DUP3 ADD MSTORE POP JUMP JUMPDEST PUSH0 PUSH2 0x1A76 PUSH1 0x1A DUP4 PUSH2 0x12D4 JUMP JUMPDEST SWAP2 POP PUSH2 0x1A81 DUP3 PUSH2 0x1A42 JUMP JUMPDEST PUSH1 0x20 DUP3 ADD SWAP1 POP SWAP2 SWAP1 POP JUMP JUMPDEST PUSH0 PUSH1 0x20 DUP3 ADD SWAP1 POP DUP2 DUP2 SUB PUSH0 DUP4 ADD MSTORE PUSH2 0x1AA3 DUP2 PUSH2 0x1A6A JUMP JUMPDEST SWAP1 POP SWAP2 SWAP1 POP JUMP JUMPDEST PUSH32 0x7175616E74697479206D757374206265206772656174657220746861746E207A PUSH0 DUP3 ADD MSTORE PUSH32 0x65726F0000000000000000000000000000000000000000000000000000000000 PUSH1 0x20 DUP3 ADD MSTORE POP JUMP JUMPDEST PUSH0 PUSH2 0x1B04 PUSH1 0x23 DUP4 PUSH2 0x12D4 JUMP JUMPDEST SWAP2 POP PUSH2 0x1B0F DUP3 PUSH2 0x1AAA JUMP JUMPDEST PUSH1 0x40 DUP3 ADD SWAP1 POP SWAP2 SWAP1 POP JUMP JUMPDEST PUSH0 PUSH1 0x20 DUP3 ADD SWAP1 POP DUP2 DUP2 SUB PUSH0 DUP4 ADD MSTORE PUSH2 0x1B31 DUP2 PUSH2 0x1AF8 JUMP JUMPDEST SWAP1 POP SWAP2 SWAP1 POP JUMP JUMPDEST PUSH0 PUSH2 0x1B42 DUP3 PUSH2 0x1233 JUMP JUMPDEST SWAP2 POP PUSH2 0x1B4D DUP4 PUSH2 0x1233 JUMP JUMPDEST SWAP3 POP DUP3 DUP3 MUL PUSH2 0x1B5B DUP2 PUSH2 0x1233 JUMP JUMPDEST SWAP2 POP DUP3 DUP3 DIV DUP5 EQ DUP4 ISZERO OR PUSH2 0x1B72 JUMPI PUSH2 0x1B71 PUSH2 0x18E5 JUMP JUMPDEST JUMPDEST POP SWAP3 SWAP2 POP POP JUMP JUMPDEST PUSH32 0x496E636F7272656374207061796D656E7420616D6F756E742E00000000000000 PUSH0 DUP3 ADD MSTORE POP JUMP JUMPDEST PUSH0 PUSH2 0x1BAD PUSH1 0x19 DUP4 PUSH2 0x12D4 JUMP JUMPDEST SWAP2 POP PUSH2 0x1BB8 DUP3 PUSH2 0x1B79 JUMP JUMPDEST PUSH1 0x20 DUP3 ADD SWAP1 POP SWAP2 SWAP1 POP JUMP JUMPDEST PUSH0 PUSH1 0x20 DUP3 ADD SWAP1 POP DUP2 DUP2 SUB PUSH0 DUP4 ADD MSTORE PUSH2 0x1BDA DUP2 PUSH2 0x1BA1 JUMP JUMPDEST SWAP1 POP SWAP2 SWAP1 POP JUMP JUMPDEST PUSH0 PUSH2 0x1BEB DUP3 PUSH2 0x1233 JUMP JUMPDEST SWAP2 POP PUSH2 0x1BF6 DUP4 PUSH2 0x1233 JUMP JUMPDEST SWAP3 POP DUP3 DUP3 ADD SWAP1 POP DUP1 DUP3 GT ISZERO PUSH2 0x1C0E JUMPI PUSH2 0x1C0D PUSH2 0x18E5 JUMP JUMPDEST JUMPDEST SWAP3 SWAP2 POP POP JUMP JUMPDEST PUSH32 0x426F6F6B20616C72656164792065786973747320776974682074686973204944 PUSH0 DUP3 ADD MSTORE PUSH32 0x2E00000000000000000000000000000000000000000000000000000000000000 PUSH1 0x20 DUP3 ADD MSTORE POP JUMP JUMPDEST PUSH0 PUSH2 0x1C6E PUSH1 0x21 DUP4 PUSH2 0x12D4 JUMP JUMPDEST SWAP2 POP PUSH2 0x1C79 DUP3 PUSH2 0x1C14 JUMP JUMPDEST PUSH1 0x40 DUP3 ADD SWAP1 POP SWAP2 SWAP1 POP JUMP JUMPDEST PUSH0 PUSH1 0x20 DUP3 ADD SWAP1 POP DUP2 DUP2 SUB PUSH0 DUP4 ADD MSTORE PUSH2 0x1C9B DUP2 PUSH2 0x1C62 JUMP JUMPDEST SWAP1 POP SWAP2 SWAP1 POP JUMP JUMPDEST PUSH32 0x5469746C652063616E6E6F7420626520656D7074790000000000000000000000 PUSH0 DUP3 ADD MSTORE POP JUMP JUMPDEST PUSH0 PUSH2 0x1CD6 PUSH1 0x15 DUP4 PUSH2 0x12D4 JUMP JUMPDEST SWAP2 POP PUSH2 0x1CE1 DUP3 PUSH2 0x1CA2 JUMP JUMPDEST PUSH1 0x20 DUP3 ADD SWAP1 POP SWAP2 SWAP1 POP JUMP JUMPDEST PUSH0 PUSH1 0x20 DUP3 ADD SWAP1 POP DUP2 DUP2 SUB PUSH0 DUP4 ADD MSTORE PUSH2 0x1D03 DUP2 PUSH2 0x1CCA JUMP JUMPDEST SWAP1 POP SWAP2 SWAP1 POP JUMP JUMPDEST PUSH32 0x417574686F722063616E6E6F7420626520656D70747900000000000000000000 PUSH0 DUP3 ADD MSTORE POP JUMP JUMPDEST PUSH0 PUSH2 0x1D3E PUSH1 0x16 DUP4 PUSH2 0x12D4 JUMP JUMPDEST SWAP2 POP PUSH2 0x1D49 DUP3 PUSH2 0x1D0A JUMP JUMPDEST PUSH1 0x20 DUP3 ADD SWAP1 POP SWAP2 SWAP1 POP JUMP JUMPDEST PUSH0 PUSH1 0x20 DUP3 ADD SWAP1 POP DUP2 DUP2 SUB PUSH0 DUP4 ADD MSTORE PUSH2 0x1D6B DUP2 PUSH2 0x1D32 JUMP JUMPDEST SWAP1 POP SWAP2 SWAP1 POP JUMP JUMPDEST PUSH0 DUP2 SWAP1 POP DUP2 PUSH0 MSTORE PUSH1 0x20 PUSH0 KECCAK256 SWAP1 POP SWAP2 SWAP1 POP JUMP JUMPDEST PUSH0 PUSH1 0x20 PUSH1 0x1F DUP4 ADD DIV SWAP1 POP SWAP2 SWAP1 POP JUMP JUMPDEST PUSH0 DUP3 DUP3 SHL SWAP1 POP SWAP3 SWAP2 POP POP JUMP JUMPDEST PUSH0 PUSH1 0x8 DUP4 MUL PUSH2 0x1DCE PUSH32 0xFFFFFFFFFFFFFFFFFFFFFFFFFFFFFFFFFFFFFFFFFFFFFFFFFFFFFFFFFFFFFFFF DUP3 PUSH2 0x1D93 JUMP JUMPDEST PUSH2 0x1DD8 DUP7 DUP4 PUSH2 0x1D93 JUMP JUMPDEST SWAP6 POP DUP1 NOT DUP5 AND SWAP4 POP DUP1 DUP7 AND DUP5 OR SWAP3 POP POP POP SWAP4 SWAP3 POP POP POP JUMP JUMPDEST PUSH0 DUP2 SWAP1 POP SWAP2 SWAP1 POP JUMP JUMPDEST PUSH0 PUSH2 0x1E13 PUSH2 0x1E0E PUSH2 0x1E09 DUP5 PUSH2 0x1233 JUMP JUMPDEST PUSH2 0x1DF0 JUMP JUMPDEST PUSH2 0x1233 JUMP JUMPDEST SWAP1 POP SWAP2 SWAP1 POP JUMP JUMPDEST PUSH0 DUP2 SWAP1 POP SWAP2 SWAP1 POP JUMP JUMPDEST PUSH2 0x1E2C DUP4 PUSH2 0x1DF9 JUMP JUMPDEST PUSH2 0x1E40 PUSH2 0x1E38 DUP3 PUSH2 0x1E1A JUMP JUMPDEST DUP5 DUP5 SLOAD PUSH2 0x1D9F JUMP JUMPDEST DUP3 SSTORE POP POP POP POP JUMP JUMPDEST PUSH0 SWAP1 JUMP JUMPDEST PUSH2 0x1E54 PUSH2 0x1E48 JUMP JUMPDEST PUSH2 0x1E5F DUP2 DUP5 DUP5 PUSH2 0x1E23 JUMP JUMPDEST POP POP POP JUMP JUMPDEST JUMPDEST DUP2 DUP2 LT ISZERO PUSH2 0x1E82 JUMPI PUSH2 0x1E77 PUSH0 DUP3 PUSH2 0x1E4C JUMP JUMPDEST PUSH1 0x1 DUP2 ADD SWAP1 POP PUSH2 0x1E65 JUMP JUMPDEST POP POP JUMP JUMPDEST PUSH1 0x1F DUP3 GT ISZERO PUSH2 0x1EC7 JUMPI PUSH2 0x1E98 DUP2 PUSH2 0x1D72 JUMP JUMPDEST PUSH2 0x1EA1 DUP5 PUSH2 0x1D84 JUMP JUMPDEST DUP2 ADD PUSH1 0x20 DUP6 LT ISZERO PUSH2 0x1EB0 JUMPI DUP2 SWAP1 POP JUMPDEST PUSH2 0x1EC4 PUSH2 0x1EBC DUP6 PUSH2 0x1D84 JUMP JUMPDEST DUP4 ADD DUP3 PUSH2 0x1E64 JUMP JUMPDEST POP POP JUMPDEST POP POP POP JUMP JUMPDEST PUSH0 DUP3 DUP3 SHR SWAP1 POP SWAP3 SWAP2 POP POP JUMP JUMPDEST PUSH0 PUSH2 0x1EE7 PUSH0 NOT DUP5 PUSH1 0x8 MUL PUSH2 0x1ECC JUMP JUMPDEST NOT DUP1 DUP4 AND SWAP2 POP POP SWAP3 SWAP2 POP POP JUMP JUMPDEST PUSH0 PUSH2 0x1EFF DUP4 DUP4 PUSH2 0x1ED8 JUMP JUMPDEST SWAP2 POP DUP3 PUSH1 0x2 MUL DUP3 OR SWAP1 POP SWAP3 SWAP2 POP POP JUMP JUMPDEST PUSH2 0x1F18 DUP3 PUSH2 0x12CA JUMP JUMPDEST PUSH8 0xFFFFFFFFFFFFFFFF DUP2 GT ISZERO PUSH2 0x1F31 JUMPI PUSH2 0x1F30 PUSH2 0x152A JUMP JUMPDEST JUMPDEST PUSH2 0x1F3B DUP3 SLOAD PUSH2 0x172A JUMP JUMPDEST PUSH2 0x1F46 DUP3 DUP3 DUP6 PUSH2 0x1E86 JUMP JUMPDEST PUSH0 PUSH1 0x20 SWAP1 POP PUSH1 0x1F DUP4 GT PUSH1 0x1 DUP2 EQ PUSH2 0x1F77 JUMPI PUSH0 DUP5 ISZERO PUSH2 0x1F65 JUMPI DUP3 DUP8 ADD MLOAD SWAP1 POP JUMPDEST PUSH2 0x1F6F DUP6 DUP3 PUSH2 0x1EF4 JUMP JUMPDEST DUP7 SSTORE POP PUSH2 0x1FD6 JUMP JUMPDEST PUSH1 0x1F NOT DUP5 AND PUSH2 0x1F85 DUP7 PUSH2 0x1D72 JUMP JUMPDEST PUSH0 JUMPDEST DUP3 DUP2 LT ISZERO PUSH2 0x1FAC JUMPI DUP5 DUP10 ADD MLOAD DUP3 SSTORE PUSH1 0x1 DUP3 ADD SWAP2 POP PUSH1 0x20 DUP6 ADD SWAP5 POP PUSH1 0x20 DUP2 ADD SWAP1 POP PUSH2 0x1F87 JUMP JUMPDEST DUP7 DUP4 LT ISZERO PUSH2 0x1FC9 JUMPI DUP5 DUP10 ADD MLOAD PUSH2 0x1FC5 PUSH1 0x1F DUP10 AND DUP3 PUSH2 0x1ED8 JUMP JUMPDEST DUP4 SSTORE POP JUMPDEST PUSH1 0x1 PUSH1 0x2 DUP9 MUL ADD DUP9 SSTORE POP POP POP JUMPDEST POP POP POP POP POP POP JUMP JUMPDEST PUSH0 PUSH1 0x80 DUP3 ADD SWAP1 POP DUP2 DUP2 SUB PUSH0 DUP4 ADD MSTORE PUSH2 0x1FF6 DUP2 DUP8 PUSH2 0x1302 JUMP JUMPDEST SWAP1 POP DUP2 DUP2 SUB PUSH1 0x20 DUP4 ADD MSTORE PUSH2 0x200A DUP2 DUP7 PUSH2 0x1302 JUMP JUMPDEST SWAP1 POP PUSH2 0x2019 PUSH1 0x40 DUP4 ADD DUP6 PUSH2 0x123C JUMP JUMPDEST PUSH2 0x2026 PUSH1 0x60 DUP4 ADD DUP5 PUSH2 0x123C JUMP JUMPDEST SWAP6 SWAP5 POP POP POP POP POP JUMP INVALID LOG2 PUSH5 0x6970667358 0x22 SLT KECCAK256 0xD0 MSIZE 0xD1 0xD6 0xC9 0xCA 0xAD SMOD 0xD7 SLT 0xAA CALLVALUE 0xE5 SWAP4 0xE INVALID RETURNDATASIZE SWAP3 EXTCODEHASH PUSH24 0x4FD78024C2D0F3A546474C964736F6C634300081A003300 "
				},
				"gasEstimates": {
					"creation": {
						"codeDepositCost": "1658600",
						"executionCost": "26006",
						"totalCost": "1684606"
					},
					"external": {
						"addBook(uint256,string,string,uint256,uint256)": "infinite",
						"bookIds(uint256)": "infinite",
						"books(uint256)": "infinite",
						"buyBook(uint256,uint256,uint256)": "infinite",
						"getBook(uint256)": "infinite",
						"getBookSales(uint256)": "infinite",
						"getContractBalance()": "401",
						"getOwnerBalance()": "5141",
						"getTotalBooks()": "2485",
						"getTotalBooksSold()": "2477",
						"owner()": "2594",
						"removeBook(uint256)": "infinite",
						"totalBooksSold()": "2449",
						"updateBookPrice(uint256,uint256)": "infinite"
					}
				},
				"methodIdentifiers": {
					"addBook(uint256,string,string,uint256,uint256)": "f733719c",
					"bookIds(uint256)": "513073b8",
					"books(uint256)": "68744046",
					"buyBook(uint256,uint256,uint256)": "f346e2b7",
					"getBook(uint256)": "e0ff5b8b",
					"getBookSales(uint256)": "c1997003",
					"getContractBalance()": "6f9fb98a",
					"getOwnerBalance()": "590791f2",
					"getTotalBooks()": "68931b21",
					"getTotalBooksSold()": "9bd30883",
					"owner()": "8da5cb5b",
					"removeBook(uint256)": "bec0d799",
					"totalBooksSold()": "3899637f",
					"updateBookPrice(uint256,uint256)": "8efd319a"
				}
			},
			"storageLayout": {
				"storage": [
					{
						"astId": 3,
						"contract": "BookStore.sol:BookStore",
						"label": "owner",
						"offset": 0,
						"slot": "0",
						"type": "t_address_payable"
					},
					{
						"astId": 23,
						"contract": "BookStore.sol:BookStore",
						"label": "books",
						"offset": 0,
						"slot": "1",
						"type": "t_mapping(t_uint256,t_struct(Book)18_storage)"
					},
					{
						"astId": 26,
						"contract": "BookStore.sol:BookStore",
						"label": "bookIds",
						"offset": 0,
						"slot": "2",
						"type": "t_array(t_uint256)dyn_storage"
					},
					{
						"astId": 28,
						"contract": "BookStore.sol:BookStore",
						"label": "totalBooksSold",
						"offset": 0,
						"slot": "3",
						"type": "t_uint256"
					}
				],
				"types": {
					"t_address_payable": {
						"encoding": "inplace",
						"label": "address payable",
						"numberOfBytes": "20"
					},
					"t_array(t_uint256)dyn_storage": {
						"base": "t_uint256",
						"encoding": "dynamic_array",
						"label": "uint256[]",
						"numberOfBytes": "32"
					},
					"t_bool": {
						"encoding": "inplace",
						"label": "bool",
						"numberOfBytes": "1"
					},
					"t_mapping(t_uint256,t_struct(Book)18_storage)": {
						"encoding": "mapping",
						"key": "t_uint256",
						"label": "mapping(uint256 => struct BookStore.Book)",
						"numberOfBytes": "32",
						"value": "t_struct(Book)18_storage"
					},
					"t_string_storage": {
						"encoding": "bytes",
						"label": "string",
						"numberOfBytes": "32"
					},
					"t_struct(Book)18_storage": {
						"encoding": "inplace",
						"label": "struct BookStore.Book",
						"members": [
							{
								"astId": 5,
								"contract": "BookStore.sol:BookStore",
								"label": "title",
								"offset": 0,
								"slot": "0",
								"type": "t_string_storage"
							},
							{
								"astId": 7,
								"contract": "BookStore.sol:BookStore",
								"label": "author",
								"offset": 0,
								"slot": "1",
								"type": "t_string_storage"
							},
							{
								"astId": 9,
								"contract": "BookStore.sol:BookStore",
								"label": "price",
								"offset": 0,
								"slot": "2",
								"type": "t_uint256"
							},
							{
								"astId": 11,
								"contract": "BookStore.sol:BookStore",
								"label": "stock",
								"offset": 0,
								"slot": "3",
								"type": "t_uint256"
							},
							{
								"astId": 13,
								"contract": "BookStore.sol:BookStore",
								"label": "isAvailable",
								"offset": 0,
								"slot": "4",
								"type": "t_bool"
							},
							{
								"astId": 15,
								"contract": "BookStore.sol:BookStore",
								"label": "totalSold",
								"offset": 0,
								"slot": "5",
								"type": "t_uint256"
							},
							{
								"astId": 17,
								"contract": "BookStore.sol:BookStore",
								"label": "isCreated",
								"offset": 0,
								"slot": "6",
								"type": "t_bool"
							}
						],
						"numberOfBytes": "224"
					},
					"t_uint256": {
						"encoding": "inplace",
						"label": "uint256",
						"numberOfBytes": "32"
					}
				}
			},
			"userdoc": {
				"kind": "user",
				"methods": {},
				"version": 1
			}
		}
	}
}